:100000000C943A010C9457010C9457010C9457012D
:100010000C9457010C9457010C9457010C94570100
:100020000C9457010C94780D0C9457010C945701C3
:100030000C9457010C944F0D0C9457010C945701DC
:100040000C94260D0C9457010C9457010C945701F5
:100050000C9457010C9457010C9457010C945701C0
:100060000C946A060C9457010C9457010C94570198
:100070000C9457010C9457010C945701084AD73B34
:100080003BCE016E84BCBFFDC12F3D6C74319ABD67
:1000900056833DDA3D00C77F11BED9E4BB4C3E918B
:1000A0006BAAAABE000000803F072C7AA5BA6CC5D7
:1000B00090DA3B9365FC8BBC53F810FD3C56928361
:1000C0004DBD879D3AB63DCBC9BF5BBE73DA0FC944
:1000D0003F05A84CCDB2D44EB93836A9020C50B960
:1000E000918688083CA6AAAA2ABE000000803F0785
:1000F000634236B79BD8A71A39685618AEBAAB55C3
:100100008C1D3CB7CC5763BD6DEDFD753EF6177287
:1001100031BF000000803F08000000BE9224491259
:100120003EABAAAA2ABECDCCCC4C3E00000080BE7D
:10013000ABAAAAAA3E00000000BF000000803F005A
:1001400000000000084178D3BB4387D1133D190E4E
:100150003CC3BD4282AD2B3E68EC8276BED98FE1B6
:10016000A93E4C80EFFFBE01C4FF7F3F00000000AE
:10017000006E616E00696E660000407A10F35A00EE
:10018000A0724E18090010A5D4E80000E8764817C0
:100190000000E40B54020000CA9A3B000000E1F5A5
:1001A00005000080969800000040420F000000A06B
:1001B0008601000000102700000000E80300000096
:1001C000006400000000000A0000000000010000C0
:1001D0000000002C76D888DC674F0823DFC1DFAE33
:1001E00059E1B1B796E5E3E453C63AE651997696FC
:1001F000E8E6C28426EB898C9B62ED407C6FFCEFC5
:10020000BC9C9F40F2BAA56FA5F490055A2AF75CF2
:10021000936B6CF9676DC11BFCE0E40D47FEF520A4
:10022000E6B500D0ED902E0300943577050080846C
:100230001E080000204E0A000000C80C3333333380
:100240000F986E12831141EF8D2114893BE65516EC
:10025000CFFEE6DB18D1844B381BF77C1D901DA424
:10026000BBE424203284725E228100C9F124ECA117
:10027000E53D270011241FBECFEFD0E1DEBFCDBF8B
:1002800011E0A0E0B1E0E6EFF0E302C005900D92CE
:10029000A639B107D9F711E0A6E9B1E001C01D9276
:1002A000A13EB107E1F70E945A050C9479180C940D
:1002B0000000A3E1B0E0EFE5F1E00C944D167C0105
:1002C0001B016A01FC0117821682838181FF66C3CC
:1002D000BE016F5F7F4F4B01F7019381F10193FDE9
:1002E000859193FF81911F01882309F453C38532BF
:1002F00039F493FD859193FF81911F01853239F483
:10030000B70190E00E94861756016501E5CF10E025
:10031000512C20E02032A0F48B3269F030F480328E
:1003200059F0833269F420612CC08D3239F080336A
:1003300039F4216026C02260246023C0286021C0D7
:1003400027FD27C030ED380F3A3078F426FF06C07D
:10035000FAE01F9F300D1124132F13C06AE0569E40
:10036000300D1124532E20620CC08E3221F426FD54
:1003700011C3206406C08C3611F4206802C0883690
:1003800041F4F10193FD859193FF81911F0181114A
:10039000C1CF9BEB980F933018F42061805E06C0AC
:1003A0009BE9980F933008F0AAC12F7E26FF16E034
:1003B0002F73722E853621F4F22FF0647F2E08C041
:1003C000863621F4622F6068762E02C0111111501A
:1003D00077FE07C01C3348F444244394410E27E0C1
:1003E0000BC0183030F4212F06C027E04CE3442E18
:1003F00003C027E017E0412C560174E0A70EB11CA2
:10040000F6016081718182819381042DA4010E9493
:1004100098166C01098100FF02C003FF06C071FC41
:1004200007C072FC08C0612C08C03DE2632E05C005
:100430002BE2622E02C090E2692E802F8C7099F11F
:10044000662011F084E001C083E0851510F0512C86
:100450000BC0581A73FC08C0B70180E290E00E94FC
:1004600086175A94C9F7F3CF662029F0B701862D75
:1004700090E00E94861703FD03C005E711E002C06B
:1004800001E711E0F72DF0717F2EF80184918823A8
:1004900009F476C271108052B70190E00E9486176D
:1004A0000F5F1F4FF2CF77FE0FC04C0C04FF04C04C
:1004B0008A81813309F44A94141474F5F8E0F41530
:1004C00078F588E0482E2CC076FC2AC0812F90E079
:1004D0008C159D059CF06CEFC6166FEFD60674F078
:1004E000772D7068772E0AC0E2E0F0E0EC0FFD1F78
:1004F000E10FF11D8081803319F411501111F4CFF7
:1005000077FE0EC044244394410E812F90E0C8161C
:10051000D9062CF41C1904C04424439401C010E0F3
:1005200077FE07C01C141D043CF496012F5F3F4F5B
:1005300005C025E030E002C021E030E0662011F087
:100540002F5F3F4F112331F0412F50E04F5F5F4F3E
:10055000240F351F452D50E02417350714F4521A87
:1005600001C0512C872D897049F4552039F0B7010D
:1005700080E290E00E9486175A94F7CF662029F017
:10058000B701862D90E00E94861773FC09C05520A4
:1005900039F0B70180E390E00E9486175A94F7CFB4
:1005A00077FE5FC09C2D8D2DD7FE02C090E080E0CD
:1005B000692E782E40E050E0C601841991099D878C
:1005C0008C87960126193709280D391D812F90E057
:1005D000EE27FF27E81BF90BFF87EE87FFEF6F166B
:1005E0007F0669F4B7018EE290E02B8B3A8B488B43
:1005F000598B0E948617598948893A892B89C614D4
:10060000D70454F06C857D85661577052CF4F901C7
:10061000E40FF51F818101C080E371E0671A710862
:100620004F5F5F4FEE85FF856E167F066CF0B7015A
:1006300090E02B8B3A8B488B598B0E9486172B8925
:100640003A8948895989CACF6C147D0439F49A8152
:10065000963318F4953311F404FF81E3B70190E069
:100660004BC08A81813309F00F7EB70190E00E9470
:100670008617111105C074FE18C085E490E017C0FC
:10068000B7018EE290E00E94861782E066246394B0
:10069000680EF401E80FF11D8081B70190E00E941F
:1006A0008617115041F3862DF1CF85E690E0B70112
:1006B0000E948617D7FC05C0C114D10439F404FF89
:1006C00005C0D194C194D1088DE201C08BE2B7017D
:1006D00090E00E94861780E36AE0C616D1042CF0F1
:1006E0008F5FFAE0CF1AD108F7CFB70190E00E94F0
:1006F0008617B701C601C0960E94861741C183368E
:1007000031F0833779F0833509F058C021C05601A4
:1007100072E0A70EB11CF6018081898301E010E030
:10072000640114C05601F2E0AF0EB11CF601C080A6
:10073000D18026FF03C0612F70E002C06FEF7FEF12
:10074000C6012B8B0E947B178C012B892F7715C03C
:100750005601F2E0AF0EB11CF601C080D18026FF39
:1007600003C0612F70E002C06FEF7FEFC6012B8BDB
:100770000E9470178C012B892068722E23FD1AC0ED
:10078000852D90E008171907A8F4B70180E290E0E2
:100790000E9486175A94F4CFF60177FC859177FE74
:1007A00081916F01B70190E00E94861751105A9411
:1007B000015011090115110579F7E2C0843611F0D5
:1007C000893651F5560127FF09C0F4E0AF0EB11C80
:1007D000F60160817181828193810AC0F2E0AF0EDF
:1007E000B11CF60160817181882777FD8095982F73
:1007F000022F0F7697FF08C09095809570956195B0
:100800007F4F8F4F9F4F00682AE030E0A4010E9485
:100810001B18C82EC8183EC0022F853721F40F7E42
:100820002AE030E01DC0097F8F3691F018F488353A
:1008300059F0B0C0803719F0883711F0ABC00061B3
:1008400004FF09C0046007C024FF08C0066006C09A
:1008500028E030E005C020E130E002C020E132E0D5
:10086000560107FF09C0F4E0AF0EB11CF60160812C
:1008700071818281938108C0F2E0AF0EB11CF60154
:100880006081718180E090E0A4010E941B18C82E55
:10089000C8180F7706FF0BC0202F2E7FC11650F40B
:1008A00004FF0AC002FD08C0202F2E7E05C0DC2CEC
:1008B000202F03C0DC2C01C0D12E24FF0DC0FE016F
:1008C000EC0DF11D8081803311F4297E09C022FFD7
:1008D00006C0D394D39404C0822F867809F0D394B1
:1008E00023FD13C020FF06C01C2DD51418F4150DD0
:1008F0001D19D52CD51468F4B70180E290E02B8B3C
:100900000E948617D3942B89F5CFD51410F45D1867
:1009100001C0512C24FF12C0B70180E390E02B8B63
:100920000E9486172B8922FF17C021FF03C088E58C
:1009300090E002C088E790E0B7010CC0822F867873
:1009400059F021FD02C080E201C08BE227FD8DE25B
:10095000B70190E00E948617C11638F4B70180E312
:1009600090E00E9486171150F7CFCA94F401EC0D65
:10097000F11D8081B70190E00E948617C110F5CF6C
:10098000552009F4C2CCB70180E290E00E9486179E
:100990005A94F6CFF7018681978102C08FEF9FEFBF
:1009A0006396E2E10C9469160F931F93CF93DF9344
:1009B000F89480E090E00E9409077093BE01609374
:1009C000BD0181E090E00E9409077093C20160932D
:1009D000C101789403B1047010E0C3B1C270D0E0DB
:1009E000C801959587959595879521E030E0281B5E
:1009F000390B48E253E2249FC001259F900D349F9C
:100A0000900D1124209719F09195819591092091CD
:100A10009801309199012017310739F420919601FE
:100A2000309197012C173D0731F066277727681B17
:100A3000790B0E94ED0B1093990100939801D093CC
:100A40009701C0939601DF91CF911F910F91089567
:100A50000E94980660E072EC81E090E00E944508F8
:100A60000E94E20780917E0140E050E060E070E08B
:100A700090E00E94FC0580E00E942E0884B1897FEE
:100A800084B980E090E00E94DF0681E090E00E945F
:100A9000DF0683E00E942E0880913A0160E070E05A
:100AA00090E00E94C1050E948D0780E00E942E0800
:100AB0000C94D80A0E94280583E191E00E94CC178B
:100AC00080E090E00E94820ACAE1D1E08091AE010C
:100AD0008823E1F31092AE01199B05C080E090E0FD
:100AE0000E94820A02C00E94920A83B184700E940E
:100AF000EF0585E090E00E94AF07182F092F84E0F2
:100B000090E00E94AF070F931F939F938F93DF9303
:100B1000CF930E94B8170F900F900F900F900F90E7
:100B20000F90D4CF9B01AC0184E0220F331F441FF0
:100B3000551F8A95D1F760E070E489E191E00E9449
:100B40000C16215031093093C5002093C40088E170
:100B50008093C10086E08093C20008959091C00008
:100B600095FFFCCF8093C6000895CF93DF93EC01EF
:100B70008991882319F00E94AE05FACFDF91CF91B9
:100B800008950F931F93CF93DF93CDB7DEB764978C
:100B90000FB6F894DEBF0FBECDBF7F936F939F93C8
:100BA0008F9382E291E09F938F938E010F5F1F4F8F
:100BB0001F930F930E94F917C8010E94B5050FB645
:100BC000F894DEBF0FBECDBF64960FB6F894DEBFBB
:100BD0000FBECDBFDF91CF911F910F910895882354
:100BE00019F06091380102C06091390170E0809184
:100BF0003B0190E00C94C105F8948830910594F580
:100C000091B121E030E0082E01C0220F0A94EAF7EA
:100C10002095292321B9806480937C0020917A005B
:100C20002760CB0135E0880F991F3A95E1F780687E
:100C3000E3E0440F551FEA95E1F7842B282B20931E
:100C40007A006115710519F480917B0001C080E084
:100C500080937B00672B29F080917A0080648093D9
:100C60007A0078940895EAE7F0E080818F778083B6
:100C700010927900109278000895809178009091F8
:100C8000790008958830910554F490917C00907E0D
:100C900090937C0090917C00982B90937C00089519
:100CA00020917A002F7D20937A000E944206809145
:100CB0007A00806480937A0080917A0086FDFCCF70
:100CC0008091780090917900089590939B01809392
:100CD0009A0108951F920F920FB60F9211242F932D
:100CE0003F934F935F936F937F938F939F93AF93B4
:100CF000BF93EF93FF93E0919A01F0919B0130979E
:100D000009F00995FF91EF91BF91AF919F918F915C
:100D10007F916F915F914F913F912F910F900FBEF7
:100D20000F901F9018950E94610880E090E0089550
:100D300080E091E09093DE018093DD0160E072EC51
:100D400081E090E00C949205DF92EF92FF920F9376
:100D50001F93CF93DF93D82E790180912800DD2057
:100D600011F08F7E01C08F7D8093280020E4629F68
:100D7000B001112428E0429FC0011124862B0E945B
:100D80003F08E70110E09E012E193F0920173107A7
:100D90002CF488810E943F088993F5CF8091280028
:100DA000DD2011F0806101C0806280932800DF9116
:100DB000CF911F910F91FF90EF90DF9008950F93C7
:100DC0001F93CF93DF931F92CDB7DEB7182F00E0AC
:100DD00020E030E044E060E00E94A40683E08983E4
:100DE00001E09E012F5F3F4F41E062E0812F0E94B2
:100DF000A40682E089839E012F5F3F4F42E062E0BC
:100E0000812F0E94A4060F90DF91CF911F910F9127
:100E100008950F93CF93DF9300D0CDB7DEB702E0F4
:100E20009E012F5F3F4F44E061E00E94A40669816C
:100E300070E0762F66278A81682B882777FD80955A
:100E4000982F0F900F90DF91CF910F910895CF932E
:100E5000C82F90E00E940907882777FD8095982F7A
:100E60000E949012CC2349F0209184013091850199
:100E7000409186015091870108C0209180013091F6
:100E8000810140918201509183010E94C4130E940C
:100E90005D12CB01CF9108950F9300E020E030E088
:100EA00044E060E00E94A4060F9108950F93CF9351
:100EB000DF9300D0CDB7DEB759834A8302E09E01AD
:100EC0002F5F3F4F44E062E00E94A4060F900F9016
:100ED000DF91CF910F910895CF93909128009E7F3D
:100EE000909328008861880F880F0E943F0880E057
:100EF0000E943F08C82F80E00E943F089091280080
:100F0000916090932800282F22952F7030E1C39F85
:100F1000C0011124822BCF91089583E090E00E94BC
:100F20006C0790939D0180939C0108950E946C072B
:100F300020919C0130919D01821B930BBC0188275D
:100F400077FD8095982F0E9490122DEC3CEC4CE0A0
:100F500050E40E94C4130E945D12CB0108950E94C8
:100F600050064CEB52E066E470E00E94D60DBC01E6
:100F7000882777FD8095982F0E94901220E030E01E
:100F800040EA50E40E94C41320E030EC4FE754E400
:100F90000E94F5119B01AC0164EF7DEF84ED9EE3AF
:100FA0000E94271428E93EE642E55FE30E94C4134D
:100FB00020E030E04AE754E40E94C4130E945D122E
:100FC000CB01089584B1806B84B983E58CBD809199
:100FD00027008062809327008091270080618093A2
:100FE0002700809127008860809327008091270048
:100FF00084608093270080912A00806180932A007A
:101000008091270080648093270080912700816071
:10101000809327008091280080628093280080912F
:101020002800806180932800809128008860809348
:1010300028008091280084608093280080912B00F4
:10104000806180932B008091280080648093280029
:101050008091280081608093280008959CB59C7F32
:101060009CBD9DB59E7F9DBD2CB5982F9370922BF6
:101070009CBD9DB586958695892B8DBD08958EBDA9
:101080000DB407FEFDCF8EB508959B01AC0184E041
:10109000220F331F441F551F8A95D1F760E070E47B
:1010A00089E191E00E940C16215031093093CD0066
:1010B0002093CC0088E18093C90086E08093CA0029
:1010C00008959091C80095FFFCCF8093CE000895BD
:1010D0008091C80087FFFCCF8091CE0008958F9249
:1010E0009F92AF92BF92CF92DF92EF92FF92CF93F7
:1010F0004B015C0169017A019B01AC010E94BE14A5
:10110000811146C0A7019601C701B6010E94BE1415
:1011100081113EC020914C0130914D0140914E0112
:1011200050914F01C501B4010E94EE1187FD30C0FE
:10113000209148013091490140914A0150914B0161
:10114000C501B4010E94B913181614F1209144018D
:10115000309145014091460150914701C701B601C8
:101160000E94EE1187FD14C0C1E020914001309132
:1011700041014091420150914301C701B6010E94D3
:10118000B91318160CF0C0E081E08C2790E002C083
:1011900080E090E0CF91FF90EF90DF90CF90BF90F4
:1011A000AF909F908F9008954F925F926F927F9231
:1011B0008F929F92AF92BF92CF92DF92EF92FF9267
:1011C000CF93DF93CDB7DEB761970FB6F894DEBF4C
:1011D0000FBECDBF66247724681A790A882777FD69
:1011E0008095982F0E9490122091560130915701BE
:1011F00040915801509159010E9427110E945D129F
:101200006E837F8388879987B301882777FD8095D0
:10121000982F0E9490129B01AC01EE81FF81BF01CB
:10122000882777FD8095982F2E873F87488B598B8D
:101230000E9490122E853F85488959890E949B11F2
:101240004B015C01C0905A01D0905B01E0905C01C1
:10125000F0905D019301D3010E94C7152B013C0161
:101260002E813F81D9010E94C715460E571E681E68
:10127000791EC301B2010E9490126E837F8388871A
:1012800099870E947D146A877B878C879D87A70139
:101290009601C701B6010E94C4139B01AC010E94D4
:1012A00028112B013C012E813F81488559850E94E0
:1012B0002711A30192010E94F5110E9419116E835A
:1012C0007F8388879987A7019601C701B6010E948D
:1012D00028119B01AC016A857B858C859D850E94C8
:1012E000F5110E9419116A877B878C879D872BEDEA
:1012F0003FE049E450E46E817F81888599850E94B2
:1013000027112B013C012A853B854C855D85C50154
:10131000B4010E9428112BED3FE049EC5FE30E94ED
:1013200027116B017C012A853B854C855D85C501B4
:10133000B4010E9427112BED3FE049EC5FE30E94CE
:1013400027114B015C012BED3FE049E450E4C7015C
:10135000B6010E94B91318164CF42BED3FE049EC8E
:1013600050E4C701B6010E94271112C02BED3FE0E7
:1013700049E450ECC701B6010E94EE1187FF0AC094
:101380002BED3FE049EC50E4C701B6010E94281163
:101390006B017C012BED3FE049E450E4C501B40151
:1013A0000E94B913181654F42BED3FE049EC50E4B9
:1013B000C501B4010E9427114B015C012BED3FE0F8
:1013C00049E450ECC501B4010E94EE1187FF0AC048
:1013D0002BED3FE049EC50E4C501B4010E94281117
:1013E0004B015C01A3019201C701B6010E946F0885
:1013F000892BF9F020E030E044E353E4C701B60163
:101400000E94C4132BED3FE049E450E40E94F51123
:1014100020E030E048EC52E40E94C4130E945D12C8
:101420007A83698320E030E044E353E4C301B201EE
:1014300032C02E813F81488559856BED7FE089E47C
:1014400090E40E9427116B017C019B01AC01C50156
:10145000B4010E946F08892B99F120E030E044E349
:1014600053E4C501B4010E94C4132BED3FE049E4ED
:1014700050E40E94F51120E030E048EC52E40E9474
:10148000C4130E945D127A83698320E030E044E354
:1014900053E4C701B6010E94C4132BED3FE049E4B9
:1014A00050E40E94F51120E030E048EC52E40E9444
:1014B000C4130E945D127C836B8381E08D8305C021
:1014C0001A8219821C821B821D8229813A814B81DA
:1014D0005C816D8170E080E090E061960FB6F894D9
:1014E000DEBF0FBECDBFDF91CF91FF90EF90DF90B9
:1014F000CF90BF90AF909F908F907F906F905F90B4
:101500004F90089560913E0170913F0120913C0100
:1015100030913D01280F391F88279927821B930B93
:101520000C94C70B60913E0170913F016E5C7F4F40
:1015300020913C0130913D0182EE9FEF821B930B85
:101540000C94C70BCF92DF92EF92FF920F931F93F1
:10155000CF93DF936B01C0917C01D0917D01002777
:1015600011270C1B1D0BAE01B8010E94D60D7C018A
:10157000AE01B801C6010E94D60D919581959109E1
:10158000AC01662757FD6095762F80E00E94BB0F67
:10159000A701662757FD6095762F81E0DF91CF91F7
:1015A0001F910F91FF90EF90DF90CF900C94BB0FA5
:1015B000CF92DF92EF92FF920F931F93C0906C0136
:1015C000D0906D01E0906E01F0906F01009170017C
:1015D0001091710120917201309173014091740159
:1015E00050917501609176017091770181E00E94C0
:1015F000E00DC0906001D0906101E0906201F09038
:1016000063010091640110916501209166013091A0
:101610006701409168015091690160916A01709180
:101620006B0180E00E94E00D20E137E240E050E0F5
:1016300062E070E080E090E00E944C0C6BE47BE0A4
:1016400080E00E94110D60E070E080E090E01F916A
:101650000F91FF90EF90DF90CF900C94A20A882317
:1016600019F0813051F014C02091A0013091A101F6
:10167000232B71F480917E0108C02091A00130914C
:10168000A101232B29F480917F0190E00C94FB0BA6
:1016900090E00C9427070F931F93CF93DF9381E083
:1016A0008093AE018091A30181110AC060E070E0D7
:1016B00080E090E0DF91CF911F910F910C94A20AEE
:1016C00081E00E942F0B9093A5018093A40180E0FC
:1016D0000E942F0B9093A7018093A60120910E01E9
:1016E00030E04091A4015091A5016091A901709151
:1016F000AA0181E00E94220EEC012091A401309108
:10170000A5014091A6015091A7016091A80181E037
:101710000E94770FC80FD91F20910E0130E0409131
:10172000A6015091A7016091AB017091AC0180E0DE
:101730000E94220E8C012091A4013091A5014091BC
:10174000A6015091A7016091A80180E00E94770F47
:10175000B801680F791FCE010E94A20A6091A6010C
:101760007091A7018091A4019091A5010E941D1084
:1017700060930F01709310018093110190931201F7
:1017800010920E01DF91CF911F910F910895CF9389
:10179000DF9300D000D01F92CDB7DEB70E94D408EF
:1017A00029833A834B835C836D8381E080930E01B0
:1017B0008093A301662349F085E0FE013196A9EAF2
:1017C000B1E001900D928A95E1F70F900F900F9084
:1017D0000F900F90DF91CF9108959093AA0180937D
:1017E000A9017093AC016093AB0181E080930E017D
:1017F0008093A3010895CF93DF93EC010E945006DC
:1018000020917E0130E0C217D307A9F460918A01CC
:1018100070918B01680F791F882777FD8095982F2D
:101820000E94901220918E0130918F014091900181
:101830005091910114C060918C0170918D01680FDD
:10184000791F882777FD8095982F0E94901220910C
:1018500092013091930140919401509195010E9421
:10186000C41320E030E048EC52E40E94C4130E940C
:101870005D12CB01DF91CF9108950E945006209117
:10188000880130918901AC01429FC001439F900DB6
:10189000529F900D112408950F931F93CF93DF93C0
:1018A0008C01EB01F894A2E1B0E00E94E51528EE6E
:1018B00033E040E050E00E940C162150310941090C
:1018C000510901301105B1F00230110531F1012B40
:1018D000B9F5CE0146E0880F991F4A95E1F7C82B6C
:1018E000C4BD85E085BD27BD80916E008260809378
:1018F0006E0026C0C295CC0FCC0FC07CC093800078
:101900008DE080938100309389002093880080913E
:101910006F00826080936F0013C0CE0136E0880FA5
:10192000991F3A95E1F7C82BC093B00085E08093EA
:10193000B1002093B30080917000826080937000AA
:101940007894DF91CF911F910F9108958130910587
:1019500039F08230910549F0892B59F486B507C0DA
:10196000809184009091850008958091B20090E06C
:10197000089580E090E00895813051F018F08230B1
:1019800079F00895249A81E684BD8DE085BD08959F
:10199000549A83EA8093800085E1809381000895C2
:1019A000569A81E68093B0008DE08093B10008954F
:1019B000813039F018F0823069F0089567BD48BD74
:1019C0000895709389006093880050938B00409332
:1019D0008A0008956093B3004093B4000895CF93B4
:1019E000C82FA2E1B0E09A01AB010E94E51528EEF4
:1019F00033E040E050E00E940C16215031094109CB
:101A00005109C13041F028F0C23049F42093B300AD
:101A100006C027BD04C03093890020938800CF9171
:101A20000895813049F018F0823059F0089570938C
:101A3000B4016093B30108957093B2016093B10152
:101A400008957093B0016093AF0108951F920F92B3
:101A50000FB60F9211242F933F934F935F936F9381
:101A60007F938F939F93AF93BF93EF93FF93E091F7
:101A7000B301F091B401309709F00995FF91EF910E
:101A8000BF91AF919F918F917F916F915F914F9196
:101A90003F912F910F900FBE0F901F9018951F929E
:101AA0000F920FB60F9211242F933F934F935F9392
:101AB0006F937F938F939F93AF93BF93EF93FF9316
:101AC000E091B101F091B201309709F00995FF91D1
:101AD000EF91BF91AF919F918F917F916F915F91A6
:101AE0004F913F912F910F900FBE0F901F9018951F
:101AF0001F920F920FB60F9211242F933F934F9383
:101B00005F936F937F938F939F93AF93BF93EF9365
:101B1000FF93E091AF01F091B001309709F0099582
:101B2000FF91EF91BF91AF919F918F917F916F91B5
:101B30005F914F913F912F910F900FBE0F901F908B
:101B400018958F929F92AF92BF92CF92DF92EF92B1
:101B5000FF920F931F93CF93DF936B01D82FC92F61
:101B600049015A010E94EE1187FD0DC09701A8019D
:101B7000B6018D2F9C2F0E94B91318163CF46701F3
:101B8000D02FC12F03C06401DA2DCB2DB6018D2FCC
:101B90009C2FDF91CF911F910F91FF90EF90DF90DD
:101BA000CF90BF90AF909F908F9008958617970722
:101BB0002CF0481759071CF4CA010895CB01089569
:101BC000CF92DF92EF92FF920F931F938823D9F069
:101BD000813089F54093CF015093D0016093D101BA
:101BE0007093D2010093D3011093D4012093D501B7
:101BF0003093D601C092D701D092D801E092D9019A
:101C0000F092DA0118C04093C3015093C40160936D
:101C1000C5017093C6010093C7011093C8012093BA
:101C2000C9013093CA01C092CB01D092CC01E0929D
:101C3000CD01F092CE011F910F91FF90EF90DF90B8
:101C4000CF9008952F923F924F925F926F927F9222
:101C50008F929F92AF92BF92CF92DF92EF92FF92BC
:101C60000F931F93CF93DF93CDB7DEB760970FB677
:101C7000F894DEBF0FBECDBF7A8369838A01232B20
:101C800061F0811105C01092BC011092BB0107C028
:101C90001092BA011092B90123C0811121C0809025
:101CA000C3019090C401A090C501B090C601C0903E
:101CB000C701D090C801E090C901F090CA014090DE
:101CC000CB015090CC016090CD017090CE0120905E
:101CD000BB013090BC012BEB31E03E832D8320C053
:101CE0008090CF019090D001A090D101B090D2010E
:101CF000C090D301D090D401E090D501F090D601EE
:101D00004090D7015090D8016090D9017090DA01CD
:101D10002090B9013090BA0189EB91E09E838D83C8
:101D2000A0917C01B0917D01B88BAF87BD01882760
:101D300077FD8095982F0E9490126F83788789870E
:101D40009A87A70196010E94F5110E945D126B8788
:101D50007C878D879E8789819A81801B910B64E6A1
:101D600070E00E94F815882777FD8095982F0E94D3
:101D7000901269837A838B839C839B01AC01C5019C
:101D8000B4010E94C4134B015C01B101882777FDA7
:101D90008095982F0E9490129B01AC01C701B6015B
:101DA0000E94C4139B01AC01C501B4010E9428111B
:101DB0006B017C012091B5013091B6014091B701D2
:101DC0005091B80169817A818B819C810E94271191
:101DD0008090780190907901A0907A01B0907B0179
:101DE000A50194010E94F5110E945D12882777FDDC
:101DF0008095982F0E9490129B01AC01C301B20103
:101E00000E94C4139B01AC01C701B6010E942811B6
:101E10002B013C016F85788971956195710988273F
:101E200077FD8095982F0E9490129B01AC01EF8066
:101E3000F88409851A85C301B2010E94A10D6B01C6
:101E40007C010B851C85119501951109ED81FE81A1
:101E500060817181882777FD8095982F0E9490126C
:101E60002B013C01A501940169817A818B819C81C0
:101E70000E94C4139B01AC01C301B2010E9428114E
:101E80000E945D12DC01CB014B855C85B8010E948C
:101E9000D60DAD81BE818D939C9389819A81AB8152
:101EA000BC818093B5019093B601A093B701B09324
:101EB000B801C701B6010E945D12CB0160960FB652
:101EC000F894DEBF0FBECDBFDF91CF911F910F9170
:101ED000FF90EF90DF90CF90BF90AF909F908F904A
:101EE0007F906F905F904F903F902F900895CF9389
:101EF000DF9300D000D01F92CDB7DEB729833A839D
:101F00004B835C8369817A812B813C81811103C081
:101F1000620F731F02C0813021F5882777FD8095FD
:101F2000982F0E94901220E030E048EC52E40E948A
:101F3000F5112BED3FE049E450E40E94C41320E08A
:101F400030E044E353E40E94F5110E94731420E052
:101F500030E04FE254EC0E94C4130E945D12CB01AA
:101F600002C080E090E00F900F900F900F900F90C4
:101F7000DF91CF910895FF920F931F93CF93DF933B
:101F800000D000D0CDB7DEB7F82EA0915E01B091A1
:101F90005F019A01AB010E94F01520917C01309104
:101FA0007D01442737FD4095542F0E942E1601E0F5
:101FB00010E01216130614F000E010E08F2D880FC9
:101FC000FF24F394F80E0115110519F460E070E098
:101FD00001C0B90190E029833A834B835C830E945E
:101FE000CB1029813A81012B29F466277727621BC0
:101FF000730B02C060E070E08F2D90E00F900F90A7
:102000000F900F90DF91CF911F910F91FF900C9443
:10201000CB1090E00E9450069C01A8E8B3E10E941A
:10202000CF152FEF33E040E050E00E942E162C58E1
:102030003A4041095109C90108954F925F926F9248
:102040007F928F929F92AF92BF92CF92DF92EF9248
:10205000FF92CF93DF9300D000D0CDB7DEB75B0106
:10206000BC01882777FD8095982F0E9490122BED58
:102070003FE049E450E40E94C41320E030E044E330
:1020800053E40E94F51120E030E048EC52E40E9455
:10209000F5116B017C01B501882777FD8095982F9C
:1020A0000E9490122BED3FE049E450E40E94C413DB
:1020B00020E030E044E353E40E94F51120E030E0FA
:1020C00048EC52E40E94F5119B01AC01C701B60136
:1020D0000E9428112B013C010E9473144B015C01EA
:1020E000C301B2010E94F2112B013C01C701B601EC
:1020F0000E94731469837A838B839C83C701B60122
:102100000E94F2119B01AC01C0905A01D0905B017A
:10211000E0905C01F0905D01C301B2010E942811C2
:102120009B01AC01C701B6010E94C4132091560166
:102130003091570140915801509159010E94281146
:102140000E945D122B013C0129813A814B815C8107
:10215000C501B4010E9428119B01AC01C701B60161
:102160000E94C4130E945D126B017C01B601C20182
:102170000F900F900F900F90DF91CF91FF90EF9005
:10218000DF90CF90BF90AF909F908F907F906F9097
:102190005F904F900895CF93DF93EB0185309105C9
:1021A000D0F490912B009F7E90932B0080630E942F
:1021B0003F08CE0124E0959587952A95E1F70E9486
:1021C0003F088C2F8295807F0E943F0880912B00D2
:1021D000806180932B00DF91CF91089580912B0037
:1021E0008F7E80932B008FE40E943F0880E00E9446
:1021F0003F0880E00E943F0880912B00806180931F
:102200002B0086E08A95F1F7000080912B008F7EED
:1022100080932B008FE10E943F0880E00E943F08DE
:1022200080E00E943F0880912B00806180932B000A
:1022300008959F939F77AFD10F9000203AF4905864
:10224000A2EA2AED3FE049E450E413D047C25058D7
:10225000BB27AA270ED042C20BD230F010D220F0FA
:1022600031F49F3F11F41EF4DBC10EF4E095E7FB5F
:10227000D1C1E92F55D280F3BA17620773078407DB
:10228000950718F071F49EF56DC20EF4E0950B2ED3
:10229000BA2FA02D0B01B90190010C01CA01A001B8
:1022A0001124FF27591B99F0593F50F4503E68F113
:1022B0001A16F040A22F232F342F4427585FF3CF54
:1022C000469537952795A795F0405395C9F77EF425
:1022D0001F16BA0B620B730B840BBAF09150A1F06E
:1022E000FF0FBB1F661F771F881FC2F70EC0BA0FF4
:1022F000621F731F841F48F4879577956795B7957C
:10230000F7959E3F08F0B3CF9395880F08F0992773
:10231000EE0F979587950895ABD158F080E891E03E
:1023200009F49EEFACD128F040E851E059F45EEF9B
:1023300009C076C117C2E92FE078F2D168F3092EFF
:10234000052AC1F3261737074807590738F00E2E1C
:1023500007F8E02569F0E025E0640AC0EF6307F8BC
:10236000009407FADB01B9019D01DC01CA01AD014E
:10237000EF934AD0B3D10AD05F91552331F02BEDC2
:102380003FE049E450FD49EC63CF0895DF93DD273A
:10239000B92FBF7740E85FE31616170648075B07BB
:1023A00010F4D92FEAD19F938F937F936F93E3D249
:1023B000ECE7F0E038D192D12F913F914F915F91AE
:1023C000EFD1DD2349F09058A2EA2AED3FE049EC35
:1023D0005FE3D0785D274DDFDF9180C1F7D008F44F
:1023E00081E0089554D1E3958AC10CD077C147D1DB
:1023F00040F03ED130F021F45F3F19F00BC1511194
:10240000B2C10EC18DD198F39923C9F35523B1F30D
:10241000951B550BBB27AA2762177307840738F053
:102420009F5F5F4F220F331F441FAA1FA9F333D0B2
:102430000E2E3AF0E0E830D091505040E695001C66
:10244000CAF729D0FE2F27D0660F771F881FBB1F22
:10245000261737074807AB07B0E809F0BB0B802DFC
:10246000BF01FF2793585F4F2AF09E3F510568F048
:10247000D1C079C15F3FECF3983EDCF38695779548
:102480006795B795F7959F5FC9F7880F911D96954A
:10249000879597F90895E1E0660F771F881FBB1FA6
:1024A000621773078407BA0720F0621B730B840B53
:1024B000BA0BEE1F88F7E095089504D06894B11127
:1024C00052C1089535D188F09F5790F0B92F9927C0
:1024D000B751A0F0D1F0660F771F881F991F1AF02F
:1024E000BA95C9F712C0B13081F03CD1B1E008957E
:1024F00039C1672F782F8827B85F39F0B93FCCF3FF
:10250000869577956795B395D9F73EF49095809524
:10251000709561957F4F8F4F9F4F0895E89409C044
:1025200097FB3EF490958095709561957F4F8F4F06
:102530009F4F9923A9F0F92F96E9BB279395F6951C
:10254000879577956795B795F111F8CFFAF4BB0F9A
:1025500011F460FF1BC06F5F7F4F8F4F9F4F16C0FE
:10256000882311F096E911C0772321F09EE8872F88
:10257000762F05C0662371F096E8862F70E060E044
:102580002AF09A95660F771F881FDAF7880F9695BD
:10259000879597F90895DF93CF931F930F938B013E
:1025A000EC01E9EAF0E03FD099D09801AE018B014F
:1025B000EC0160E070E080E89FE349DE9ED1980185
:1025C000AE010F911F91CF91DF91EAC0990F0008E2
:1025D000550FAA0BE0E8FEEF16161706E807F907F5
:1025E000C0F012161306E407F50798F0621B730B90
:1025F000840B950B39F40A2661F0232B242B252B11
:1026000021F408950A2609F4A140A6958FEF811DB3
:10261000811D089597F99F6780E870E060E0089554
:102620009FEF80EC0895DF93CF931F930F93FF925A
:10263000EF92DF927B018C01689405C0DA2EEF01E6
:10264000AFD0FE01E894A591259135914591559122
:10265000AEF3EF010EDEFE019701A801DA9479F7DF
:10266000DF90EF90FF900F911F91CF91DF91089530
:1026700000240A9416161706180609060895002461
:102680000A9412161306140605060895C9CF50D0F1
:10269000E8F3E894E0E0BB279F57F0F02AED3FE035
:1026A00049EC06C0EE0FBB0F661F771F881F28F08E
:1026B000B23A62077307840728F0B25A620B730BB1
:1026C000840BE3959A9572F7803830F49A95BB0F96
:1026D000661F771F881FD2F7904887C1092E039481
:1026E000000C11F4882352F0BB0F40F4BF2B11F4FF
:1026F00060FF04C06F5F7F4F8F4F9F4F0895EF9330
:10270000E0FF06C0A2EA2AED3FE049EC5FEBB1DD55
:10271000E5DF0F90039401FC9058E1EDF0E078C103
:1027200057FD9058440F551F59F05F3F71F0479582
:10273000880F97FB991F61F09F3F79F08795089567
:10274000121613061406551FF2CF4695F1DF08C086
:10275000161617061806991FF1CF869571056105A3
:1027600008940895E894BB2766277727CB0197F94B
:1027700008952CDF08F48FEF08959B01AC0160E011
:1027800070E080E89FE331CE0BD0A8CF71DF28F056
:1027900076DF18F0952309F03DCF42CF1124E3CF27
:1027A000BFDFA0F3959FD1F3950F50E0551F629FB7
:1027B000F001729FBB27F00DB11D639FAA27F00D9A
:1027C000B11DAA1F649F6627B00DA11D661F829FC1
:1027D0002227B00DA11D621F739FB00DA11D621FA6
:1027E000839FA00D611D221F749F3327A00D611DC3
:1027F000231F849F600D211D822F762F6A2F1124A5
:102800009F5750408AF0E1F088234AF0EE0FFF1FF7
:10281000BB1F661F771F881F91505040A9F79E3F2E
:10282000510570F0F7CE9FCF5F3FECF3983EDCF39D
:10283000869577956795B795F795E7959F5FC1F76B
:10284000FE2B880F911D9695879597F90895FA01AB
:10285000EE0FFF1F30962105310599F161157105C5
:1028600061F48038BFE39B0749F168949038810593
:1028700061F08038BFEF9B0741F0992342F5FF3F9D
:10288000E1053105210511F1E8940894E795D90196
:10289000AA2329F4AB2FBE2FF85FD0F310C0FF5F3F
:1028A00070F4A695E0F7F73950F019F0FF3A38F4D4
:1028B0009F779F930CD00F9007FC905808953EF09F
:1028C000AFCE60E070E080E89FE308954FE79F7728
:1028D0005F934F933F932F93E7D02F913F914F9169
:1028E0005F9152DF54C09F93D2DE0F9007FCEE5FE2
:1028F00006CF11F40EF494CE76C01ADFD0F39923EC
:10290000D9F3CEF39F57550B87FF7BD00024A0E669
:1029100040EA900180585695979528F4805C660FA0
:10292000771F881F20F026173707480730F4621BEF
:10293000730B840B202931294A2BA69517940794F1
:10294000202531254A2758F7660F771F881F20F06A
:1029500026173707480730F4620B730B840B200DE2
:10296000311D411DA09581F7B901842F9158880F21
:102970009695879508959B01AC0106CF27DE880BBD
:10298000990B089519F40EF045CEECCE49CED0DE69
:10299000C8F39638C0F707F80F92E8942BE33AEAA9
:1029A00048EB5FE7FFDE0F920F920F924DB75EB7D5
:1029B0000F92BAD0EFEEF0E036DE4F915F91EF91DB
:1029C000FF91E595EE1FFF1F49F0FE57E068442791
:1029D000EE0F441FFA95E1F74195550B2CD00F905F
:1029E00007FECBCE08959F3F31F0915020F487959C
:1029F00077956795B795880F911D9695879597F967
:102A0000089591505040660F771F881FD2F70895A0
:102A10009F938F937F936F93FF93EF939B01AC01F1
:102A2000B3DEEF91FF91FFDD2F913F914F915F91C9
:102A3000ABCEF0CDD8CF7CDEE8F39923D9F3940F59
:102A4000511DBBF39150504094F059F0882332F05F
:102A5000660F771F881F91505040C1F79E3F510568
:102A600044F7880F911D9695879597F908955F3FD4
:102A7000ACF0983E9CF0BB27869577956795B79507
:102A800008F4B1609395C1F7BB0F58F711F460FFDC
:102A9000E8CF6F5F7F4F8F4F9F4FE3CF64CE0EF035
:102AA000A2CFBECD6894B6CD43DEC8F39923D1F34F
:102AB000C6F3DF93CF931F930F93FF92C92FDD27A8
:102AC00088232AF02197660F771F881FDAF720E006
:102AD00030E040E85FEB9FE3883920F0803E30F043
:102AE00021968F77B5DBE7E1F1E003C0B1DBE4E4E9
:102AF000F1E099DD8B01BE01EC01FB2E6F577109EE
:102B00007595771F880B990B0BDD28E132E741E3C0
:102B10005FE346DEAF2D9801AE01FF900F911F914C
:102B2000CF91DF91A6DBDACDFA01DC01AA0FBB1F42
:102B30009B01AC01BF5728F4222733274427507844
:102B40001FC0B75188F4AB2F0024469537952795C1
:102B5000011CA395D2F3002069F0220F331F441FFC
:102B6000B395DAF30DD073CB61307105A0E88A0715
:102B7000B94630F49B01AC01662777278827907807
:102B8000309621F0208331834283538308950E943D
:102B9000CF15332312F48A1B9B0B0C94E015A29FD4
:102BA000B001B39FC001A39F700D811D1124911D21
:102BB000B29F700D811D1124911D08950E94CF15A3
:102BC000B7FF0895821B930B08950E94CF15A59F10
:102BD000900DB49F900DA49F800D911D1124089518
:102BE000B7FF0C94E5150E94E515821B930B089521
:102BF00097FB072E16F4009407D077FD09D00E94AA
:102C0000841607FC05D03EF4909581959F4F08955A
:102C1000709561957F4F0895A1E21A2EAA1BBB1BE8
:102C2000FD010DC0AA1FBB1FEE1FFF1FA217B30798
:102C3000E407F50720F0A21BB30BE40BF50B661FAE
:102C4000771F881F991F1A9469F760957095809572
:102C500090959B01AC01BD01CF010895052E97FB16
:102C60001EF400940E94451657FD07D00E940C16D2
:102C700007FC03D04EF40C944516509540953095C2
:102C800021953F4F4F4F5F4F0895909580957095D8
:102C900061957F4F8F4F9F4F08952F923F924F9294
:102CA0005F926F927F928F929F92AF92BF92CF92DC
:102CB000DF92EF92FF920F931F93CF93DF93CDB7E5
:102CC000DEB7CA1BDB0B0FB6F894DEBF0FBECDBF5D
:102CD00009942A88398848885F846E847D848C842E
:102CE0009B84AA84B984C884DF80EE80FD800C8137
:102CF0001B81AA81B981CE0FD11D0FB6F894DEBF1A
:102D00000FBECDBFED010895AA1BBB1B51E107C04B
:102D1000AA1FBB1FA617B70710F0A61BB70B881F6B
:102D2000991F5A95A9F780959095BC01CD010895FA
:102D3000283008F027E03327DA01990F311D87FD8D
:102D4000916000966105710539F432602E5F3D9304
:102D500030E32A95E1F708959F3F30F08038710500
:102D6000610509F03C5F3C5F3D93913008F080685D
:102D7000911DDF93CF931F930F93FF92EF92192F23
:102D8000987F9695E92F96959695E90FFF27ED5236
:102D9000FE4F99273327EE24FF24A701E701059072
:102DA0000894079428F4360FE71EF81E491F511D9A
:102DB000660F771F881F991F0694A1F70590079447
:102DC00028F4E70EF81E491F561FC11D770F881FF4
:102DD000991F661F0694A1F70590079428F4F80E32
:102DE000491F561FC71FD11D880F991F661F771FC8
:102DF0000694A1F70590079420F4490F561FC71FAA
:102E0000D81F990F661F771F881F0694A9F7849112
:102E10001095177041F0D695C79557954795F7943B
:102E2000E7941A95C1F7E9E7F1E0689415901591D8
:102E300035916591959105907FE27395E118F10ABE
:102E4000430B560BC90BD009C0F7E10CF11E431F11
:102E5000561FC91FD01D7EF4703311F48A95E6CF3A
:102E6000E894015030F0080F0AF40027021708F424
:102E7000202F2395022F7A3328F079E37D932A952A
:102E8000E9F710C07D932A9589F606949795679582
:102E9000379517951794E118F10A430B560BC90B98
:102EA000D00998F023957E9173957A3308F070E3FA
:102EB0007C932013B8F77E9170617D9330F08395F9
:102EC00071E37D9370E32A95E1F71124EF90FF9071
:102ED0000F911F91CF91DF91992787FD90950895CC
:102EE000FC010590615070400110D8F780959095D5
:102EF0008E0F9F1F0895FC016150704001900110DA
:102F0000D8F7809590958E0F9F1F08950F931F936C
:102F1000CF93DF93182F092FEB018B8181FD03C025
:102F20008FEF9FEF20C082FF10C04E815F812C8108
:102F30003D81421753077CF4E881F9819F012F5F9F
:102F40003F4F39832883108306C0E885F985812F98
:102F50000995892B29F72E813F812F5F3F4F3F83B2
:102F60002E83812F902FDF91CF911F910F91089584
:102F7000A0E0B0E0EEEBF7E10C945D16FE013596B3
:102F800061917191AF018091DD019091DE010E940C
:102F90005901E2E00C9479160F931F93CF93DF93BE
:102FA000E091DD01F091DE01238121FF1BC0EC01E6
:102FB00000E010E089916091DD017091DE01DB019C
:102FC0001896ED91FC911997882331F00995892B7A
:102FD00089F30FEF1FEFEECF8AE00995892B11F4EB
:102FE000C80102C08FEF9FEFDF91CF911F910F912A
:102FF0000895AEE0B0E0EFEFF7E10C945B160D89B9
:103000001E8986E08C831A8309838FEF9FE79E8356
:103010008D83AE01475E5F4F6F89788DCE0101963B
:103020000E945901EF81F885E00FF11F10822E9662
:10303000E4E00C947716FA01AA27283051F12031E8
:1030400081F1E8946F936E7F6E5F7F4F8F4F9F4F3C
:10305000AF4FB1E03ED0B4E03CD0670F781F891F7E
:103060009A1FA11D680F791F8A1F911DA11D6A0F4C
:10307000711D811D911DA11D20D009F468943F91FF
:103080002AE0269F11243019305D3193DEF6CF01FE
:103090000895462F4770405D4193B3E00FD0C9F7C4
:1030A000F6CF462F4F70405D4A3318F0495D31FD31
:1030B0004052419302D0A9F7EACFB4E0A695979584
:1030C000879577956795BA95C9F70097610571055A
:1030D00008959B01AC010A2E0694579547953795A4
:1030E0002795BA95C9F7620F731F841F951FA01DFE
:0630F0000895F894FFCFE3
:1030F600000000020000000093060000000001002E
:10310600002C0148454C4C4F2E0025642C2025648C
:103116000A00536574736572766F2825642C253012
:103126003364290A0D0096FFB4000100D2008C001A
:10313600DB0FC93FAFADFEBFDB0FC93F68CEECBFAB
:103146005A008EFF5A007DBF0E4366661843640818
:103156008FC2753D3333A340000043448FC2753D93
:103166003333A340000043440AD7233C401F0203E5
:10317600A38BAEC0683C1840040076FD8AFDE713B9
:06318600773EFA806A3E6C
:00000001FF
