:100000000C943A010C9457010C9457010C9457012D
:100010000C9457010C9457010C9457010C94570100
:100020000C9457010C94020E0C9457010C94570138
:100030000C9457010C94D90D0C9457010C94570152
:100040000C94B00D0C9457010C9457010C9457016B
:100050000C9457010C9457010C9457010C945701C0
:100060000C9434070C9457010C9457010C945701CD
:100070000C9457010C9457010C945701084AD73B34
:100080003BCE016E84BCBFFDC12F3D6C74319ABD67
:1000900056833DDA3D00C77F11BED9E4BB4C3E918B
:1000A0006BAAAABE000000803F072C7AA5BA6CC5D7
:1000B00090DA3B9365FC8BBC53F810FD3C56928361
:1000C0004DBD879D3AB63DCBC9BF5BBE73DA0FC944
:1000D0003F05A84CCDB2D44EB93836A9020C50B960
:1000E000918688083CA6AAAA2ABE000000803F0785
:1000F000634236B79BD8A71A39685618AEBAAB55C3
:100100008C1D3CB7CC5763BD6DEDFD753EF6177287
:1001100031BF000000803F08000000BE9224491259
:100120003EABAAAA2ABECDCCCC4C3E00000080BE7D
:10013000ABAAAAAA3E00000000BF000000803F005A
:1001400000000000084178D3BB4387D1133D190E4E
:100150003CC3BD4282AD2B3E68EC8276BED98FE1B6
:10016000A93E4C80EFFFBE01C4FF7F3F00000000AE
:10017000006E616E00696E660000407A10F35A00EE
:10018000A0724E18090010A5D4E80000E8764817C0
:100190000000E40B54020000CA9A3B000000E1F5A5
:1001A00005000080969800000040420F000000A06B
:1001B0008601000000102700000000E80300000096
:1001C000006400000000000A0000000000010000C0
:1001D0000000002C76D888DC674F0823DFC1DFAE33
:1001E00059E1B1B796E5E3E453C63AE651997696FC
:1001F000E8E6C28426EB898C9B62ED407C6FFCEFC5
:10020000BC9C9F40F2BAA56FA5F490055A2AF75CF2
:10021000936B6CF9676DC11BFCE0E40D47FEF520A4
:10022000E6B500D0ED902E0300943577050080846C
:100230001E080000204E0A000000C80C3333333380
:100240000F986E12831141EF8D2114893BE65516EC
:10025000CFFEE6DB18D1844B381BF77C1D901DA424
:10026000BBE424203284725E228100C9F124ECA117
:10027000E53D270011241FBECFEFD0E1DEBFCDBF8B
:1002800011E0A0E0B1E0E4E8F8E302C005900D92CF
:10029000AE3CB107D9F712E0AEECB1E001C01D925F
:1002A000A538B107E1F70E94F9040C94401C0C94A6
:1002B0000000A3E1B0E0EFE5F1E00C94141A7C013A
:1002C0001B016A01FC0117821682838181FF66C3CC
:1002D000BE016F5F7F4F4B01F7019381F10193FDE9
:1002E000859193FF81911F01882309F453C38532BF
:1002F00039F493FD859193FF81911F01853239F483
:10030000B70190E00E944D1B56016501E5CF10E05A
:10031000512C20E02032A0F48B3269F030F480328E
:1003200059F0833269F420612CC08D3239F080336A
:1003300039F4216026C02260246023C0286021C0D7
:1003400027FD27C030ED380F3A3078F426FF06C07D
:10035000FAE01F9F300D1124132F13C06AE0569E40
:10036000300D1124532E20620CC08E3221F426FD54
:1003700011C3206406C08C3611F4206802C0883690
:1003800041F4F10193FD859193FF81911F0181114A
:10039000C1CF9BEB980F933018F42061805E06C0AC
:1003A0009BE9980F933008F0AAC12F7E26FF16E034
:1003B0002F73722E853621F4F22FF0647F2E08C041
:1003C000863621F4622F6068762E02C0111111501A
:1003D00077FE07C01C3348F444244394410E27E0C1
:1003E0000BC0183030F4212F06C027E04CE3442E18
:1003F00003C027E017E0412C560174E0A70EB11CA2
:10040000F6016081718182819381042DA4010E9493
:100410005F1A6C01098100FF02C003FF06C071FC76
:1004200007C072FC08C0612C08C03DE2632E05C005
:100430002BE2622E02C090E2692E802F8C7099F11F
:10044000662011F084E001C083E0851510F0512C86
:100450000BC0581A73FC08C0B70180E290E00E94FC
:100460004D1B5A94C9F7F3CF662029F0B701862DAA
:1004700090E00E944D1B03FD03C005E711E002C0A0
:1004800001E711E0F72DF0717F2EF80184918823A8
:1004900009F476C271108052B70190E00E944D1BA2
:1004A0000F5F1F4FF2CF77FE0FC04C0C04FF04C04C
:1004B0008A81813309F44A94141474F5F8E0F41530
:1004C00078F588E0482E2CC076FC2AC0812F90E079
:1004D0008C159D059CF06CEFC6166FEFD60674F078
:1004E000772D7068772E0AC0E2E0F0E0EC0FFD1F78
:1004F000E10FF11D8081803319F411501111F4CFF7
:1005000077FE0EC044244394410E812F90E0C8161C
:10051000D9062CF41C1904C04424439401C010E0F3
:1005200077FE07C01C141D043CF496012F5F3F4F5B
:1005300005C025E030E002C021E030E0662011F087
:100540002F5F3F4F112331F0412F50E04F5F5F4F3E
:10055000240F351F452D50E02417350714F4521A87
:1005600001C0512C872D897049F4552039F0B7010D
:1005700080E290E00E944D1B5A94F7CF662029F04C
:10058000B701862D90E00E944D1B73FC09C05520D9
:1005900039F0B70180E390E00E944D1B5A94F7CFE9
:1005A00077FE5FC09C2D8D2DD7FE02C090E080E0CD
:1005B000692E782E40E050E0C601841991099D878C
:1005C0008C87960126193709280D391D812F90E057
:1005D000EE27FF27E81BF90BFF87EE87FFEF6F166B
:1005E0007F0669F4B7018EE290E02B8B3A8B488B43
:1005F000598B0E944D1B598948893A892B89C61409
:10060000D70454F06C857D85661577052CF4F901C7
:10061000E40FF51F818101C080E371E0671A710862
:100620004F5F5F4FEE85FF856E167F066CF0B7015A
:1006300090E02B8B3A8B488B598B0E944D1B2B895A
:100640003A8948895989CACF6C147D0439F49A8152
:10065000963318F4953311F404FF81E3B70190E069
:100660004BC08A81813309F00F7EB70190E00E9470
:100670004D1B111105C074FE18C085E490E017C031
:10068000B7018EE290E00E944D1B82E066246394E5
:10069000680EF401E80FF11D8081B70190E00E941F
:1006A0004D1B115041F3862DF1CF85E690E0B70147
:1006B0000E944D1BD7FC05C0C114D10439F404FFBE
:1006C00005C0D194C194D1088DE201C08BE2B7017D
:1006D00090E00E944D1B80E36AE0C616D1042CF026
:1006E0008F5FFAE0CF1AD108F7CFB70190E00E94F0
:1006F0004D1BB701C601C0960E944D1B41C18336F8
:1007000031F0833779F0833509F058C021C05601A4
:1007100072E0A70EB11CF6018081898301E010E030
:10072000640114C05601F2E0AF0EB11CF601C080A6
:10073000D18026FF03C0612F70E002C06FEF7FEF12
:10074000C6012B8B0E94421B8C012B892F7715C071
:100750005601F2E0AF0EB11CF601C080D18026FF39
:1007600003C0612F70E002C06FEF7FEFC6012B8BDB
:100770000E94371B8C012B892068722E23FD1AC022
:10078000852D90E008171907A8F4B70180E290E0E2
:100790000E944D1B5A94F4CFF60177FC859177FEA9
:1007A00081916F01B70190E00E944D1B51105A9446
:1007B000015011090115110579F7E2C0843611F0D5
:1007C000893651F5560127FF09C0F4E0AF0EB11C80
:1007D000F60160817181828193810AC0F2E0AF0EDF
:1007E000B11CF60160817181882777FD8095982F73
:1007F000022F0F7697FF08C09095809570956195B0
:100800007F4F8F4F9F4F00682AE030E0A4010E9485
:10081000E21BC82EC8183EC0022F853721F40F7E78
:100820002AE030E01DC0097F8F3691F018F488353A
:1008300059F0B0C0803719F0883711F0ABC00061B3
:1008400004FF09C0046007C024FF08C0066006C09A
:1008500028E030E005C020E130E002C020E132E0D5
:10086000560107FF09C0F4E0AF0EB11CF60160812C
:1008700071818281938108C0F2E0AF0EB11CF60154
:100880006081718180E090E0A4010E94E21BC82E8B
:10089000C8180F7706FF0BC0202F2E7FC11650F40B
:1008A00004FF0AC002FD08C0202F2E7E05C0DC2CEC
:1008B000202F03C0DC2C01C0D12E24FF0DC0FE016F
:1008C000EC0DF11D8081803311F4297E09C022FFD7
:1008D00006C0D394D39404C0822F867809F0D394B1
:1008E00023FD13C020FF06C01C2DD51418F4150DD0
:1008F0001D19D52CD51468F4B70180E290E02B8B3C
:100900000E944D1BD3942B89F5CFD51410F45D189C
:1009100001C0512C24FF12C0B70180E390E02B8B63
:100920000E944D1B2B8922FF17C021FF03C088E5C1
:1009300090E002C088E790E0B7010CC0822F867873
:1009400059F021FD02C080E201C08BE227FD8DE25B
:10095000B70190E00E944D1BC11638F4B70180E347
:1009600090E00E944D1B1150F7CFCA94F401EC0D9A
:10097000F11D8081B70190E00E944D1BC110F5CFA1
:10098000552009F4C2CCB70180E290E00E944D1BD3
:100990005A94F6CFF7018681978102C08FEF9FEFBF
:1009A0006396E2E10C94301A0E94620760E072ECF8
:1009B00081E090E00E94D1070E946E078091A5011E
:1009C00040E050E060E070E090E00E94C60680E009
:1009D0000E94BA0784B1897F84B98091610160E087
:1009E00070E090E00E948B0680E00E94BA070C94B1
:1009F0002E0BCF93DF93CDB7DEB76E970FB6F8947B
:100A0000DEBF0FBECDBF0E94D40487E191E00E94FB
:100A1000931B80E090E00E94BD0A0E947C0C4B0179
:100A20005C01312C2091470130914801388B2F8790
:100A30008091490190914A01A0914B01B0914C01E4
:100A400088879987AA87BB87909155019C87A09139
:100A50005601AD87B0915701BE8720905801209173
:100A60004D0130914E0140914F0150915001298B21
:100A70003A8B4B8B5C8B998FAA8FBB8F2C8E888582
:100A80009985AA85BB858D8B9E8BAF8BB88F809106
:100A9000F6018823E1F31092F6010E946E1029837B
:100AA0003A834B835C836D837E838F8309811A81B4
:100AB0004B805C806D807E800E947C0C6B017C0191
:100AC00060E080E00E945D089C0192E0391609F424
:100AD0007BC0931530F0332069F0A1E03A1691F114
:100AE000D0C0B3E03B1609F48AC024E0321609F402
:100AF000AFC0C7C08F81882309F4C3C0B80180E0AC
:100B000090E00E9455162C853D854E85522D0E9401
:100B10008B170E942416CB010E94D80A80E00E9405
:100B2000B90689899A89AB89BC89C80ED91EEA1E83
:100B3000FB1E332433944C145D046E047F0408F4CC
:100B4000A0C09EC0B80180E090E00E945516298D9B
:100B50003A8D4B8D5C8D0E948B170E942416CB0121
:100B60000E94BD0AD701C60186599109A109B109A0
:100B7000481659066A067B06B8F41F930F93AEE138
:100B8000B1E0BF93AF930E947F1B460157013CE247
:100B9000830E31E0931EA11CB11C0F900F900F909B
:100BA0000F9022E0322E6DC08D899E89AF89B88D5D
:100BB000C80ED91EEA1EFB1E4C145D046E047F0491
:100BC00008F05FC081E059C068ED7CED80E090E006
:100BD0000E946C0C8C149D04AE04BF0408F051C03C
:100BE000460157019CE2890E91E0991EA11CB11C9F
:100BF00061E080E00E945D0893E0392E42C068EB1E
:100C00007BE080E090E02D8F3E8F0E94EA0A2D8DE0
:100C10003E8D8C149D04AE04BF0498F54601570127
:100C2000A6E98A0E911CA11CB11C4F855889241776
:100C3000350738F460E070E088ED9CED0E946C0CA4
:100C400004C08EE190E00E94D80A84E0382E19C0DA
:100C50008C149D04AE04BF0498F0D501C40128850E
:100C600039854A855B85821B930BA40BB50B8C15CC
:100C70009D05AE05BF0528F480E00E94B90601C0BD
:100C8000312C82E090E00E94850C182F092F83E020
:100C900090E00E94850C0F931F939F938F93AAE27D
:100CA000B1E0BF93AF930E947F1B0F900F900F9006
:100CB0000F900F900F90EBCE9B01AC0184E0220FC0
:100CC000331F441F551F8A95D1F760E070E489E116
:100CD00091E00E94D319215031093093C50020932F
:100CE000C40088E18093C10086E08093C20008952B
:100CF0009091C00095FFFCCF8093C6000895CF93DC
:100D0000DF93EC018991882319F00E947806FACFCD
:100D1000DF91CF9108950F931F93CF93DF93CDB7BA
:100D2000DEB764970FB6F894DEBF0FBECDBF7F93DA
:100D30006F939F938F9381E391E09F938F938E01A5
:100D40000F5F1F4F1F930F930E94C01BC8010E948B
:100D50007F060FB6F894DEBF0FBECDBF64960FB608
:100D6000F894DEBF0FBECDBFDF91CF911F910F91E1
:100D70000895882319F060915F0102C060916001BD
:100D800070E08091620190E00C948B06F8948830BA
:100D9000910594F591B121E030E0082E01C0220FB9
:100DA0000A94EAF72095292321B9806480937C0076
:100DB00020917A002760CB0135E0880F991F3A9582
:100DC000E1F78068E3E0440F551FEA95E1F7842BD3
:100DD000282B20937A006115710519F480917B000E
:100DE00001C080E080937B00672B29F080917A001E
:100DF000806480937A0078940895EAE7F0E0808137
:100E00008F778083109279001092780008958091F6
:100E100078009091790008958830910554F490916C
:100E20007C00907E90937C0090917C00982B909316
:100E30007C00089520917A002F7D20937A000E94F3
:100E40000C0780917A00806480937A0080917A0008
:100E500086FDFCCF80917800909179000895909361
:100E6000CF018093CE0108951F920F920FB60F927B
:100E700011242F933F934F935F936F937F938F939F
:100E80009F93AF93BF93EF93FF93E091CE01F091C7
:100E9000CF01309709F00995FF91EF91BF91AF9184
:100EA0009F918F917F916F915F914F913F912F9182
:100EB0000F900FBE0F901F9018950E94ED0780E0D5
:100EC00090E0089580E091E0909382028093810207
:100ED00060E072EC81E090E00C945C0684B1806B81
:100EE00084B983E58CBD80912700806280932700C0
:100EF000809127008061809327008091270088607F
:100F00008093270080912700846080932700809140
:100F10002A00806180932A0080912700806480935A
:100F2000270080912700816080932700809128000E
:100F3000806280932800809128008061809328003F
:100F40008091280088608093280080912800846028
:100F50008093280080912B00806180932B008091EA
:100F6000280080648093280080912800816080930D
:100F7000280008959CB59C7F9CBD9DB59E7F9DBD1E
:100F80002CB5982F9370922B9CBD9DB58695869518
:100F9000892B8DBD08958EBD0DB407FEFDCF8EB596
:100FA00008959B01AC0184E0220F331F441F551F9D
:100FB0008A95D1F760E070E489E191E00E94D3194D
:100FC000215031093093CD002093CC0088E18093EB
:100FD000C90086E08093CA0008959091C80095FFEB
:100FE000FCCF8093CE0008958091C80087FFFCCF8E
:100FF0008091CE000895FF920F931F93CF93DF93BC
:1010000000D000D0CDB7DEB7F82EA0918501B09109
:1010100086019A01AB010E94B7192091A30130917A
:10102000A401442737FD4095542F0E94F51901E093
:1010300010E01216130614F000E010E08F2D880F58
:10104000FF24F394F80E0115110519F460E070E027
:1010500001C0B90190E029833A834B835C830E94ED
:10106000CB1029813A81012B29F466277727621B4F
:10107000730B02C060E070E08F2D90E00F900F9036
:101080000F900F90DF91CF911F910F91FF900C94D3
:10109000CB1090E00E941A079C01A8E8B3E10E94DF
:1010A00096192FEF33E040E050E00E94F5192C58DC
:1010B0003A4041095109C90108950F931F93CF93F5
:1010C000DF93C82FD0E0662391F0FE01EE0FFF1FE3
:1010D000EE0FFF1FEC52FE4F10821182128213821C
:1010E000FE01EE0FFF1FE053FE4F118210820E949F
:1010F0004908FE01EE0FFF1FEE0FFF1FEC52FE4FDF
:10110000919581959109BC01882777FD8095982F4D
:101110000081118122813381600F711F821F931F13
:101120006083718382839383CC0FDD1FC053DE4FB6
:10113000288139812F5F3F4F39832883442737FD2A
:101140004095542F0E94F519C901DF91CF911F914D
:101150000F9108958F929F92AF92BF92CF92DF929C
:10116000EF92FF92CF934B015C0169017A019B01E1
:10117000AC010E948518811146C0A7019601C701E4
:10118000B6010E94851881113EC0209173013091F3
:1011900074014091750150917601C501B4010E941E
:1011A000B51587FD30C020916F01309170014091DD
:1011B000710150917201C501B4010E948017181687
:1011C00014F120916B0130916C0140916D015091AF
:1011D0006E01C701B6010E94B51587FD14C0C1E0BC
:1011E00020916701309168014091690150916A0135
:1011F000C701B6010E94801718160CF0C0E081E00C
:101200008C2790E002C080E090E0CF91FF90EF90BB
:10121000DF90CF90BF90AF909F908F9008954F92A6
:101220005F926F927F928F929F92AF92BF92CF9276
:10123000DF92EF92FF92CF93DF93CDB7DEB7619746
:101240000FB6F894DEBF0FBECDBF66247724681AB0
:10125000790A882777FD8095982F0E94571620914C
:101260007D0130917E0140917F01509180010E946B
:10127000EE140E9424166E837F8388879987B301BA
:10128000882777FD8095982F0E9457169B01AC0107
:10129000EE81FF81BF01882777FD8095982F2E87EB
:1012A0003F87488B598B0E9457162E853F8548896A
:1012B00059890E9462154B015C01C0908101D09058
:1012C0008201E0908301F09084019301D3010E9498
:1012D0008E192B013C012E813F81D9010E948E196C
:1012E000460E571E681E791EC301B2010E94571692
:1012F0006E837F83888799870E9444186A877B87DB
:101300008C879D87A7019601C701B6010E948B17A4
:101310009B01AC010E94EF142B013C012E813F8107
:10132000488559850E94EE14A30192010E94BC15C4
:101330000E94E0146E837F8388879987A7019601B6
:10134000C701B6010E94EF149B01AC016A857B8541
:101350008C859D850E94BC150E94E0146A877B875E
:101360008C879D872BED3FE049E450E46E817F81BF
:10137000888599850E94EE142B013C012A853B85C6
:101380004C855D85C501B4010E94EF142BED3FE053
:1013900049EC5FE30E94EE146B017C012A853B85DA
:1013A0004C855D85C501B4010E94EE142BED3FE034
:1013B00049EC5FE30E94EE144B015C012BED3FE032
:1013C00049E450E4C701B6010E94801718164CF496
:1013D0002BED3FE049EC50E4C701B6010E94EE144A
:1013E00012C02BED3FE049E450ECC701B6010E946A
:1013F000B51587FF0AC02BED3FE049EC50E4C7016B
:10140000B6010E94EF146B017C012BED3FE049E433
:1014100050E4C501B4010E948017181654F42BED56
:101420003FE049EC50E4C501B4010E94EE144B01C9
:101430005C012BED3FE049E450ECC501B4010E9492
:10144000B51587FF0AC02BED3FE049EC50E4C5011C
:10145000B4010E94EF144B015C01A3019201C7018A
:10146000B6010E94AA08892BF9F020E030E044E39D
:1014700053E4C701B6010E948B172BED3FE049E40E
:1014800050E40E94BC1520E030E048EC52E40E9499
:101490008B170E9424167A83698320E030E044E3AE
:1014A00053E4C301B20132C02E813F814885598582
:1014B0006BED7FE089E490E40E94EE146B017C0107
:1014C0009B01AC01C501B4010E94AA08892B99F1C6
:1014D00020E030E044E353E4C501B4010E948B17DF
:1014E0002BED3FE049E450E40E94BC1520E030E0E1
:1014F00048EC52E40E948B170E9424167A83698379
:1015000020E030E044E353E4C701B6010E948B17AA
:101510002BED3FE049E450E40E94BC1520E030E0B0
:1015200048EC52E40E948B170E9424167C836B8344
:1015300081E08D8305C01A8219821C821B821D8264
:1015400029813A814B815C816D8170E080E090E07F
:1015500061960FB6F894DEBF0FBECDBFDF91CF917D
:10156000FF90EF90DF90CF90BF90AF909F908F90C3
:101570007F906F905F904F900895BC0197FF02C0DD
:101580006D5F7F4F7595679575956795209165019E
:1015900030916601620F731F2091630130916401E5
:1015A000280F391F88279927821B930B0C94440C12
:1015B0006091650170916601685D7F4F20916301C4
:1015C00030916401280F391F88279927821B930BBC
:1015D0000C94440C21E02093E5012093EB019093BF
:1015E000E7018093E6017093E9016093E8010895B3
:1015F000CF92DF92EF92FF920F931F93CF93DF93DF
:101600006B01C091A301D091A401002711270C1BED
:101610001D0BAE01B8010E94C1107C01AE01B801E2
:10162000C6010E94C110919581959109AC01662770
:1016300057FD6095762F80E00E94FB07A701662783
:1016400057FD6095762F81E0DF91CF911F910F912B
:10165000FF90EF90DF90CF900C94FB07CF92DF923A
:10166000EF92FF920F931F93C0909301D09094013B
:10167000E0909501F09096010091970110919801EA
:101680002091990130919A0140919B0150919C01C8
:1016900060919D0170919E0181E00E941911C0909E
:1016A0008701D0908801E0908901F0908A01009133
:1016B0008B0110918C0120918D0130918E01409110
:1016C0008F0150919001609191017091920180E0A1
:1016D0000E94191120E137E240E050E062E070E042
:1016E00080E090E00E94D60C61EA7BE080E00E94FE
:1016F0009B0D60E070E080E090E01F910F91FF9003
:10170000EF90DF90CF900C94F80A882319F0813085
:1017100051F014C02091DE013091DF01232B71F4D0
:101720008091A50108C02091DE013091DF01232BBB
:1017300029F48091A60190E00C94850C90E00C9423
:101740007713EF92FF920F931F93CF93DF9381E074
:101750008093F6018091E1019091E201A091E30173
:10176000B091E4010196A11DB11D8093E101909318
:10177000E201A093E301B093E4018091EB018111B8
:101780000CC060E070E080E090E0DF91CF911F91AD
:101790000F91FF90EF900C94F80A81E00E94850B66
:1017A0009093ED018093EC0180E00E94850B909373
:1017B000EF018093EE0120910E0130E04091EC01A9
:1017C0005091ED016091F1017091F20181E00E9470
:1017D0005B118C012091EC013091ED014091EE0103
:1017E0005091EF016091F00181E00E94B012EC0194
:1017F00020910E0130E04091EE015091EF01609197
:10180000F3017091F40180E00E945B117C01209152
:10181000EC013091ED014091EE015091EF016091AA
:10182000F00180E00E94B0122091E501222349F0EE
:101830006091E8017091E9018091E6019091E701E2
:1018400006C0B701680F791FC8018C0F9D1F0E9449
:10185000F80A6091EE017091EF018091EC01909196
:10186000ED010E94321460930F0170931001809378
:1018700011019093120110920E01DF91CF911F91EF
:101880000F91FF90EF900895CF93DF9300D000D099
:101890001F92CDB7DEB70E940F0929833A834B838D
:1018A0005C836D8381E080930E018093EB01109245
:1018B000E501662349F085E0FE013196A1EFB1E034
:1018C00001900D928A95E1F70F900F900F900F9075
:1018D0000F90DF91CF9108951092E5019093F2015E
:1018E0008093F1017093F4016093F30181E08093A0
:1018F0000E018093EB0108956091E1017091E20186
:101900008091E3019091E4010895CF93DF93EC017E
:101910000E941A072091A50130E0C217D307A9F44D
:101920006091B1017091B201680F791F882777FD2E
:101930008095982F0E9457162091B5013091B601DD
:101940004091B7015091B80114C06091B3017091FA
:10195000B401680F791F882777FD8095982F0E9422
:1019600057162091B9013091BA014091BB015091B5
:10197000BC010E948B1720E030E048EC52E40E944A
:101980008B170E942416CB01DF91CF9108950E94FE
:101990001A072091AF013091B001AC01429FC00104
:1019A000439F900D529F900D112408950F931F9304
:1019B000CF93DF938C01EB01F894A2E1B0E00E9499
:1019C000AC1928EE33E040E050E00E94D3192150DA
:1019D00031094109510901301105B1F002301105F9
:1019E00031F1012BB9F5CE0146E0880F991F4A95D8
:1019F000E1F7C82BC4BD85E085BD27BD80916E0091
:101A0000826080936E0026C0C295CC0FCC0FC07C44
:101A1000C09380008DE080938100309389002093F3
:101A2000880080916F00826080936F0013C0CE01A8
:101A300036E0880F991F3A95E1F7C82BC093B000A4
:101A400085E08093B1002093B300809170008260A4
:101A5000809370007894DF91CF911F910F9108953A
:101A60008130910539F08230910549F0892B59F484
:101A700086B507C08091840090918500089580917B
:101A8000B20090E0089580E090E00895813051F038
:101A900018F0823079F00895249A81E684BD8DE0B3
:101AA00085BD0895549A83EA8093800085E18093F0
:101AB00081000895569A81E68093B0008DE080936E
:101AC000B1000895813039F018F0823069F008953E
:101AD00067BD48BD08957093890060938800509356
:101AE0008B0040938A0008956093B3004093B40044
:101AF0000895CF93C82FA2E1B0E09A01AB010E94F4
:101B0000AC1928EE33E040E050E00E94D319215098
:101B1000310941095109C13041F028F0C23049F47E
:101B20002093B30006C027BD04C0309389002093E2
:101B30008800CF910895813049F018F0823059F033
:101B400008957093FC016093FB0108957093FA016E
:101B50006093F90108957093F8016093F701089577
:101B60001F920F920FB60F9211242F933F934F9312
:101B70005F936F937F938F939F93AF93BF93EF93F5
:101B8000FF93E091FB01F091FC01309709F009957A
:101B9000FF91EF91BF91AF919F918F917F916F9145
:101BA0005F914F913F912F910F900FBE0F901F901B
:101BB00018951F920F920FB60F9211242F933F93F7
:101BC0004F935F936F937F938F939F93AF93BF9345
:101BD000EF93FF93E091F901F091FA01309709F04A
:101BE0000995FF91EF91BF91AF919F918F917F9157
:101BF0006F915F914F913F912F910F900FBE0F907A
:101C00001F9018951F920F920FB60F9211242F93C9
:101C10003F934F935F936F937F938F939F93AF9374
:101C2000BF93EF93FF93E091F701F091F8013097A4
:101C300009F00995FF91EF91BF91AF919F918F911D
:101C40007F916F915F914F913F912F910F900FBEB8
:101C50000F901F9018950F931F93CF93DF9300D091
:101C600000D0CDB7DEB78C011F938F938DEB91E041
:101C70009F938F9349835A836B837C830E947F1B3E
:101C80002091140230E08091590190915A01D801BD
:101C9000A81BB90B0F900F900F900F9049815A819C
:101CA0006B817C8187E0829FF001839FF00D11247E
:101CB000EB5EFD4FA93CB10518F4B183A08302C0CF
:101CC0001182108287E0829FF001839FF00D112422
:101CD000EB5EFD4F428353836483758381E086838B
:101CE000C90101966AE070E00E94BF198093140256
:101CF0000F900F900F900F90DF91CF911F910F9148
:101D00000895E09113028E2F90E027E0E29FF0010A
:101D10001124EB5EFD4F168201966AE070E00E948E
:101D2000BF19809313020895BF92CF92DF92EF9272
:101D3000FF920F931F93CF93DF930E947C0C6B0154
:101D40007C018091130290E0CAE0D0E027E0B22E3F
:101D50002AE0C20ED11CE11CF11CBE010E94BF1979
:101D60008C018091140290E008171907A9F0B09E29
:101D7000F001B19EF00D1124EB5EFD4F42815381C5
:101D800064817581C416D506E606F70628F00E9420
:101D9000810EC8010196E1CFDF91CF911F910F9184
:101DA000FF90EF90DF90CF90BF900895CF93DF9397
:101DB000CDB7DEB727970FB6F894DEBF0FBECDBF05
:101DC000E091130287E0E89FF0011124EB5EFD4FE4
:101DD00087E0DE01119601900D928A95E1F7298145
:101DE0003A814B815C816D817E818F8190E0279665
:101DF0000FB6F894DEBF0FBECDBFDF91CF9108952F
:101E00008F929F92AF92BF92DF92EF92FF920F93C9
:101E10001F93CF93DF938A019B018091130290E07F
:101E2000C0911402D0E088248A94982C5401E0E0F8
:101E3000F0E05AE0E52EF12C67E0D62EB7010E94C3
:101E4000BF198C179D0731F1D89ED001D99EB00DD6
:101E50001124AB5EBD4F12964D915C911397401BC0
:101E6000510B57FF03C0519541955109662757FD06
:101E70006095762F481559056A057B0548F4D89E6C
:101E8000F001D99EF00D1124EB5EFD4F4A015B017C
:101E90000196D4CF309721F00283138324833583B6
:101EA000DF91CF911F910F91FF90EF90DF90BF9046
:101EB000AF909F908F9008954F925F926F927F9214
:101EC000AF92BF92CF92DF92EF92FF920F931F9348
:101ED000CF93DF93582E882319F080915E0102C0C2
:101EE00080915D0190E00E94FF137C01652C712CB4
:101EF00093012F5E3D4F6901F9018081E301C95FC4
:101F0000DD4F882309F448C09301220F331FF901E4
:101F1000ED5EFE4F80819181E816F90680F4F18232
:101F2000E0820E947C0CF301EE0FFF1FEE0FFF1FFB
:101F3000E75FFD4F608371838283938338C088811C
:101F400091E0980F98838550F901ED5FFD4F843043
:101F5000B8F4408151814530510554F5D901A15063
:101F6000BE4F8D919C9111979701220F331F820FC5
:101F7000931F8D939C934F5F5F4F5183408318C095
:101F8000808191810497A4F411821082F901E150BB
:101F9000FE4F118210820CC080915B0190915C0118
:101FA000E816F90624F488818F5F888301C01882BF
:101FB00088818B3008F483C0F60180818301000F93
:101FC000111F930123503E4F5901F901882309F451
:101FD00067C08081811154C0C301880F991F880F89
:101FE000991FFC01E75FFD4F5520F9F04090530128
:101FF00050905401662457FC6094762C8081918126
:10200000A281B381480E591E6A1E7B1EF801E15061
:10201000FE4F808191816AE070E00E94BF19CB0180
:10202000B301A2010E942B0E1EC04090510150909E
:102030005201662457FC6094762C80819181A281A4
:10204000B381480E591E6A1E7B1EF801E150FE4FF7
:10205000808191816AE070E00E94BF19CB01B301D9
:10206000A2010E94000F81E0F5018083F801ED5F7D
:10207000FD4F11821082F801E150FE4F1182108253
:1020800080915B0190915C01F801ED5EFE4F9183C0
:1020900080838E159F059CF4F601108218820FC074
:1020A000108281E0F60180831882F801ED5FFD4F18
:1020B00011821082F801E150FE4F11821082DF91EF
:1020C000CF911F910F91FF90EF90DF90CF90BF9035
:1020D000AF907F906F905F904F900895CF93DF9374
:1020E000CDB7DEB727970FB6F894DEBF0FBECDBFD2
:1020F00080E00E945C0F81E00E945C0F0E94940EC1
:102100000E94D60E90E027960FB6F894DEBF0FBE61
:10211000CDBFDF91CF9108958F929F92AF92BF92E2
:10212000CF92DF92EF92FF920F931F93CF93DF93A3
:102130006B01D82FC92F49015A010E94B51587FD9F
:102140000DC09701A801B6018D2F9C2F0E9480170A
:1021500018163CF46701D02FC12F03C06401DA2D9B
:10216000CB2DB6018D2F9C2FDF91CF911F910F9119
:10217000FF90EF90DF90CF90BF90AF909F908F90A7
:102180000895861797072CF0481759071CF4CA01C1
:102190000895CB010895CF93DF93EB01853091052E
:1021A000D0F490912B009F7E90932B0080630E942F
:1021B000CB07CE0124E0959587952A95E1F70E94FB
:1021C000CB078C2F8295807F0E94CB0780912B00BC
:1021D000806180932B00DF91CF91089580912B0037
:1021E0008F7E80932B008FE40E94CB0780E00E94BB
:1021F000CB0780E00E94CB0780912B008061809309
:102200002B0086E08A95F1F7000080912B008F7EED
:1022100080932B008FE10E94CB0780E00E94CB07C8
:1022200080E00E94CB0780912B00806180932B007F
:102230000895CF92DF92EF92FF920F931F9388231E
:10224000D9F0813089F54093730250937402609302
:1022500075027093760200937702109378022093B0
:10226000790230937A02C0927B02D0927C02E09293
:102270007D02F0927E0218C040936702509368027C
:102280006093690270936A0200936B0210936C0270
:1022900020936D0230936E02C0926F02D092700252
:1022A000E0927102F09272021F910F91FF90EF90F5
:1022B000DF90CF9008952F923F924F925F926F924E
:1022C0007F928F929F92AF92BF92CF92DF92EF92C6
:1022D000FF920F931F93CF93DF93CDB7DEB7609735
:1022E0000FB6F894DEBF0FBECDBF7A8369838A0133
:1022F000232B61F0811105C01092620210926102DD
:1023000007C01092600210925F0223C0811121C0A9
:102310008090670290906802A0906902B0906A0273
:10232000C0906B02D0906C02E0906D02F0906E0253
:1023300040906F0250907002609071027090720233
:10234000209061023090620221E632E03E832D83CC
:1023500020C08090730290907402A0907502B0909B
:102360007602C0907702D0907802E0907902F090E7
:102370007A0240907B0250907C0260907D027090C7
:102380007E0220905F02309060028FE592E09E8393
:102390008D83A091A301B091A401B88BAF87BD013B
:1023A000882777FD8095982F0E9457166F8378872E
:1023B00089879A87A70196010E94BC150E9424165E
:1023C0006B877C878D879E8789819A81801B910B83
:1023D00064E670E00E94BF19882777FD8095982FEA
:1023E0000E94571669837A838B839C839B01AC017F
:1023F000C501B4010E948B174B015C01B101882714
:1024000077FD8095982F0E9457169B01AC01C7015C
:10241000B6010E948B179B01AC01C501B4010E945B
:10242000EF146B017C0120915B0230915C024091C2
:102430005D0250915E0269817A818B819C810E944C
:10244000EE1480909F019090A001A090A101B09007
:10245000A201A50194010E94BC150E9424168827A0
:1024600077FD8095982F0E9457169B01AC01C30100
:10247000B2010E948B179B01AC01C701B6010E94FB
:10248000EF142B013C016F85788971956195710975
:10249000882777FD8095982F0E9457169B01AC01E5
:1024A000EF80F88409851A85C301B2010E948C105F
:1024B0006B017C010B851C85119501951109ED813E
:1024C000FE8160817181882777FD8095982F0E9419
:1024D00057162B013C01A501940169817A818B81FA
:1024E0009C810E948B179B01AC01C301B2010E9429
:1024F000EF140E942416DC01CB014B855C85B801EA
:102500000E94C110AD81BE818D939C9389819A8177
:10251000AB81BC8180935B0290935C02A0935D02CF
:10252000B0935E02C701B6010E942416CB016096EB
:102530000FB6F894DEBF0FBECDBFDF91CF911F91D4
:102540000F91FF90EF90DF90CF90BF90AF909F9052
:102550008F907F906F905F904F903F902F90089555
:10256000CF93DF9300D000D01F92CDB7DEB7298381
:102570003A834B835C8369817A812B813C81811111
:1025800003C0620F731F02C0813021F5882777FDD9
:102590008095982F0E94571620E030E048EC52E4D6
:1025A0000E94BC152BED3FE049E450E40E948B17DC
:1025B00020E030E044E353E40E94BC150E943A1846
:1025C00020E030E04FE254EC0E948B170E9424166A
:1025D000CB0102C080E090E00F900F900F900F9021
:1025E0000F90DF91CF910895DF92EF92FF920F93BA
:1025F0001F93CF93DF93D82E790180912800DD209F
:1026000011F08F7E01C08F7D8093280020E4629FAF
:10261000B001112428E0429FC0011124862B0E94A2
:10262000CB07E70110E09E012E193F092017310763
:102630002CF488810E94CB078993F5CF80912800E4
:10264000DD2011F0806101C0806280932800DF915D
:10265000CF911F910F91FF90EF90DF9008950F930E
:102660001F93CF93DF931F92CDB7DEB7182F00E0F3
:1026700020E030E044E060E00E94F41283E08983CF
:1026800001E09E012F5F3F4F41E062E0812F0E94F9
:10269000F41282E089839E012F5F3F4F42E062E0A7
:1026A000812F0E94F4120F90DF91CF911F910F9113
:1026B00008950F93CF93DF9300D0CDB7DEB702E03C
:1026C0009E012F5F3F4F44E061E00E94F412698158
:1026D00070E0762F66278A81682B882777FD8095A2
:1026E000982F0F900F90DF91CF910F910895CF9376
:1026F000C82F90E00E945913882777FD8095982F66
:102700000E945716CC2349F02091AB013091AC01C7
:102710004091AD015091AE0108C02091A7013091C8
:10272000A8014091A9015091AA010E948B170E9413
:102730002416CB01CF9108950F9300E020E030E004
:1027400044E060E00E94F4120F9108950F93CF933C
:10275000DF9300D0CDB7DEB759834A8302E09E01F4
:102760002F5F3F4F44E062E00E94F4120F900F9001
:10277000DF91CF910F910895CF93909128009E7F84
:10278000909328008861880F880F0E94CB0780E013
:102790000E94CB07C82F80E00E94CB0790912800B1
:1027A000916090932800282F22952F7030E1C39FCD
:1027B000C0011124822BCF91089583E090E00E9404
:1027C000BC13909364028093630208950E94BC132B
:1027D0002091630230916402821B930BBC01882715
:1027E00077FD8095982F0E9457162DEC3CEC4CE01D
:1027F00050E40E948B170E942416CB0108950E947A
:102800001A074CEB52E066E470E00E94C110BC0174
:10281000882777FD8095982F0E94571620E030E09A
:1028200040EA50E40E948B1720E030EC4FE754E47C
:102830000E94BC159B01AC0164EF7DEF84ED9EE32B
:102840000E94EE1728E93EE642E55FE30E948B17FF
:1028500020E030E04AE754E40E948B170E942416DF
:10286000CB0108954F925F926F927F928F929F92C9
:10287000AF92BF92CF92DF92EF92FF92CF93DF930E
:1028800000D000D0CDB7DEB75B01BC01882777FD53
:102890008095982F0E9457162BED3FE049E450E4B5
:1028A0000E948B1720E030E044E353E40E94BC1503
:1028B00020E030E048EC52E40E94BC156B017C0142
:1028C000B501882777FD8095982F0E9457162BED2C
:1028D0003FE049E450E40E948B1720E030E044E3FD
:1028E00053E40E94BC1520E030E048EC52E40E9422
:1028F000BC159B01AC01C701B6010E94EF142B016E
:102900003C010E943A184B015C01C301B2010E94D4
:10291000B9152B013C01C701B6010E943A18698321
:102920007A838B839C83C701B6010E94B9159B01F2
:10293000AC01C0908101D0908201E0908301F090C1
:102940008401C301B2010E94EF149B01AC01C701D5
:10295000B6010E948B1720917D0130917E0140913C
:102960007F01509180010E94EF140E9424162B01D8
:102970003C0129813A814B815C81C501B4010E94EF
:10298000EF149B01AC01C701B6010E948B170E9496
:1029900024166B017C01B601C2010F900F900F90BD
:1029A0000F90DF91CF91FF90EF90DF90CF90BF908D
:1029B000AF909F908F907F906F905F904F90089511
:1029C0009F939F77AFD10F9000203AF49058A2EADE
:1029D0002AED3FE049E450E413D047C25058BB27EA
:1029E000AA270ED042C20BD230F010D220F031F420
:1029F0009F3F11F41EF4DBC10EF4E095E7FBD1C15B
:102A0000E92F55D280F3BA17620773078407950739
:102A100018F071F49EF56DC20EF4E0950B2EBA2FEE
:102A2000A02D0B01B90190010C01CA01A0011124D4
:102A3000FF27591B99F0593F50F4503E68F11A1680
:102A4000F040A22F232F342F4427585FF3CF469511
:102A500037952795A795F0405395C9F77EF41F1633
:102A6000BA0B620B730B840BBAF09150A1F0FF0FFD
:102A7000BB1F661F771F881FC2F70EC0BA0F621FE9
:102A8000731F841F48F4879577956795B795F795D9
:102A90009E3F08F0B3CF9395880F08F09927EE0F6B
:102AA000979587950895ABD158F080E891E009F4A7
:102AB0009EEFACD128F040E851E059F45EEF09C038
:102AC00076C117C2E92FE078F2D168F3092E052A02
:102AD000C1F3261737074807590738F00E2E07F8B5
:102AE000E02569F0E025E0640AC0EF6307F8009490
:102AF00007FADB01B9019D01DC01CA01AD01EF93C9
:102B00004AD0B3D10AD05F91552331F02BED3FE08D
:102B100049E450FD49EC63CF0895DF93DD27B92FD9
:102B2000BF7740E85FE31616170648075B0710F407
:102B3000D92FEAD19F938F937F936F93E3D2ECE7E2
:102B4000F0E038D192D12F913F914F915F91EFD129
:102B5000DD2349F09058A2EA2AED3FE049EC5FE31B
:102B6000D0785D274DDFDF9180C1F7D008F481E098
:102B7000089554D1E3958AC10CD077C147D140F074
:102B80003ED130F021F45F3F19F00BC15111B2C1B9
:102B90000EC18DD198F39923C9F35523B1F3951B39
:102BA000550BBB27AA2762177307840738F09F5F6E
:102BB0005F4F220F331F441FAA1FA9F333D00E2EDD
:102BC0003AF0E0E830D091505040E695001CCAF74A
:102BD00029D0FE2F27D0660F771F881FBB1F26170F
:102BE00037074807AB07B0E809F0BB0B802DBF01E2
:102BF000FF2793585F4F2AF09E3F510568F0D1C0E0
:102C000079C15F3FECF3983EDCF386957795679545
:102C1000B795F7959F5FC9F7880F911D9695879592
:102C200097F90895E1E0660F771F881FBB1F6217B1
:102C300073078407BA0720F0621B730B840BBA0B6F
:102C4000EE1F88F7E095089504D06894B11152C141
:102C5000089535D188F09F5790F0B92F9927B75133
:102C6000A0F0D1F0660F771F881F991F1AF0BA9550
:102C7000C9F712C0B13081F03CD1B1E0089539C13B
:102C8000672F782F8827B85F39F0B93FCCF3869546
:102C900077956795B395D9F73EF4909580957095A3
:102CA00061957F4F8F4F9F4F0895E89409C097FB20
:102CB0003EF490958095709561957F4F8F4F9F4F13
:102CC0009923A9F0F92F96E9BB279395F695879557
:102CD00077956795B795F111F8CFFAF4BB0F11F41A
:102CE00060FF1BC06F5F7F4F8F4F9F4F16C08823C1
:102CF00011F096E911C0772321F09EE8872F762FF7
:102D000005C0662371F096E8862F70E060E02AF037
:102D10009A95660F771F881FDAF7880F9695879523
:102D200097F90895DF93CF931F930F938B01EC01D5
:102D3000E9EAF0E03FD099D09801AE018B01EC01B7
:102D400060E070E080E89FE349DE9ED19801AE012B
:102D50000F911F91CF91DF91EAC0990F0008550F95
:102D6000AA0BE0E8FEEF16161706E807F907C0F011
:102D700012161306E407F50798F0621B730B840B19
:102D8000950B39F40A2661F0232B242B252B21F4F3
:102D900008950A2609F4A140A6958FEF811D811D93
:102DA000089597F99F6780E870E060E008959FEFCD
:102DB00080EC0895DF93CF931F930F93FF92EF92D0
:102DC000DF927B018C01689405C0DA2EEF01AFD051
:102DD000FE01E894A5912591359145915591AEF369
:102DE000EF010EDEFE019701A801DA9479F7DF907A
:102DF000EF90FF900F911F91CF91DF9108950024E4
:102E00000A941616170618060906089500240A944F
:102E100012161306140605060895C9CF50D0E8F31C
:102E2000E894E0E0BB279F57F0F02AED3FE049EC43
:102E300006C0EE0FBB0F661F771F881F28F0B23A3F
:102E400062077307840728F0B25A620B730B840B76
:102E5000E3959A9572F7803830F49A95BB0F661F08
:102E6000771F881FD2F7904887C1092E0394000C62
:102E700011F4882352F0BB0F40F4BF2B11F460FF14
:102E800004C06F5F7F4F8F4F9F4F0895EF93E0FF18
:102E900006C0A2EA2AED3FE049EC5FEBB1DDE5DFD9
:102EA0000F90039401FC9058E1EDF0E078C157FDDC
:102EB0009058440F551F59F05F3F71F04795880FA8
:102EC00097FB991F61F09F3F79F08795089512163F
:102ED00013061406551FF2CF4695F1DF08C01616EB
:102EE00017061806991FF1CF86957105610508949C
:102EF0000895E894BB2766277727CB0197F90895B3
:102F00002CDF08F48FEF08959B01AC0160E070E0C6
:102F100080E89FE331CE0BD0A8CF71DF28F076DFB9
:102F200018F0952309F03DCF42CF1124E3CFBFDF46
:102F3000A0F3959FD1F3950F50E0551F629FF001CC
:102F4000729FBB27F00DB11D639FAA27F00DB11D25
:102F5000AA1F649F6627B00DA11D661F829F2227AE
:102F6000B00DA11D621F739FB00DA11D621F839F35
:102F7000A00D611D221F749F3327A00D611D231F0B
:102F8000849F600D211D822F762F6A2F11249F5759
:102F900050408AF0E1F088234AF0EE0FFF1FBB1F7C
:102FA000661F771F881F91505040A9F79E3F51051B
:102FB00070F0F7CE9FCF5F3FECF3983EDCF3869541
:102FC00077956795B795F795E7959F5FC1F7FE2BC6
:102FD000880F911D9695879597F90895FA01EE0F40
:102FE000FF1F30962105310599F16115710561F4D6
:102FF0008038BFE39B0749F168949038810561F000
:103000008038BFEF9B0741F0992342F5FF3FE10570
:103010003105210511F1E8940894E795D901AA2317
:1030200029F4AB2FBE2FF85FD0F310C0FF5F70F410
:10303000A695E0F7F73950F019F0FF3A38F49F778A
:103040009F930CD00F9007FC905808953EF0AFCEA0
:1030500060E070E080E89FE308954FE79F775F931B
:103060004F933F932F93E7D02F913F914F915F91D3
:1030700052DF54C09F93D2DE0F9007FCEE5F06CF65
:1030800011F40EF494CE76C01ADFD0F39923D9F35D
:10309000CEF39F57550B87FF7BD00024A0E640EA74
:1030A000900180585695979528F4805C660F771F9D
:1030B000881F20F026173707480730F4621B730B70
:1030C000840B202931294A2BA69517940794202593
:1030D00031254A2758F7660F771F881F20F02617DB
:1030E0003707480730F4620B730B840B200D311D3A
:1030F000411DA09581F7B901842F9158880F9695AD
:10310000879508959B01AC0106CF27DE880B990BAC
:10311000089519F40EF045CEECCE49CED0DEC8F3BA
:103120009638C0F707F80F92E8942BE33AEA48EB99
:103130005FE7FFDE0F920F920F924DB75EB70F92CF
:10314000BAD0EFEEF0E036DE4F915F91EF91FF9154
:10315000E595EE1FFF1F49F0FE57E0684427EE0F8C
:10316000441FFA95E1F74195550B2CD00F9007FEBF
:10317000CBCE08959F3F31F0915020F487957795FD
:103180006795B795880F911D9695879597F908953E
:1031900091505040660F771F881FD2F708959F9374
:1031A0008F937F936F93FF93EF939B01AC01B3DEFB
:1031B000EF91FF91FFDD2F913F914F915F91ABCE4A
:1031C000F0CDD8CF7CDEE8F39923D9F3940F511DCD
:1031D000BBF39150504094F059F0882332F0660FC1
:1031E000771F881F91505040C1F79E3F510544F70B
:1031F000880F911D9695879597F908955F3FACF0DC
:10320000983E9CF0BB27869577956795B79508F40F
:10321000B1609395C1F7BB0F58F711F460FFE8CF89
:103220006F5F7F4F8F4F9F4FE3CF64CE0EF0A2CFE3
:10323000BECD6894B6CD43DEC8F39923D1F3C6F36F
:10324000DF93CF931F930F93FF92C92FDD2788231E
:103250002AF02197660F771F881FDAF720E030E009
:1032600040E85FEB9FE3883920F0803E30F0219604
:103270008F77B5DBE7E1F1E003C0B1DBE4E4F1E037
:1032800099DD8B01BE01EC01FB2E6F57710975951D
:10329000771F880B990B0BDD28E132E741E35FE3F1
:1032A00046DEAF2D9801AE01FF900F911F91CF9197
:1032B000DF91A6DBDACDFA01DC01AA0FBB1F9B016F
:1032C000AC01BF5728F422273327442750781FC06A
:1032D000B75188F4AB2F0024469537952795011CEC
:1032E000A395D2F3002069F0220F331F441FB3953A
:1032F000DAF30DD073CB61307105A0E88A07B946C7
:1033000030F49B01AC0166277727882790783096A8
:1033100021F0208331834283538308950E949619BC
:10332000332312F48A1B9B0B0C94A719A29FB001A4
:10333000B39FC001A39F700D811D1124911DB29FE9
:10334000700D811D1124911D08950E949619B7FFDB
:103350000895821B930B08950E949619A59F900DC6
:10336000B49F900DA49F800D911D11240895B7FF67
:103370000C94AC190E94AC19821B930B089597FB17
:10338000072E16F4009407D077FD09D00E944B1A3F
:1033900007FC05D03EF4909581959F4F0895709558
:1033A00061957F4F0895A1E21A2EAA1BBB1BFD0158
:1033B0000DC0AA1FBB1FEE1FFF1FA217B307E40714
:1033C000F50720F0A21BB30BE40BF50B661F771F6C
:1033D000881F991F1A9469F760957095809590954C
:1033E0009B01AC01BD01CF010895052E97FB1EF492
:1033F00000940E940C1A57FD07D00E94D31907FCB5
:1034000003D04EF40C940C1A5095409530952195AC
:103410003F4F4F4F5F4F0895909580957095619500
:103420007F4F8F4F9F4F08952F923F924F925F9201
:103430006F927F928F929F92AF92BF92CF92DF92C4
:10344000EF92FF920F931F93CF93DF93CDB7DEB729
:10345000CA1BDB0B0FB6F894DEBF0FBECDBF0994BD
:103460002A88398848885F846E847D848C849B8414
:10347000AA84B984C884DF80EE80FD800C811B8122
:10348000AA81B981CE0FD11D0FB6F894DEBF0FBE51
:10349000CDBFED010895AA1BBB1B51E107C0AA1FB8
:1034A000BB1FA617B70710F0A61BB70B881F991FE5
:1034B0005A95A9F780959095BC01CD0108952830C3
:1034C00008F027E03327DA01990F311D87FD91605D
:1034D00000966105710539F432602E5F3D9330E34B
:1034E0002A95E1F708959F3F30F080387105610516
:1034F00009F03C5F3C5F3D93913008F08068911D7E
:10350000DF93CF931F930F93FF92EF92192F987F22
:103510009695E92F96959695E90FFF27ED52FE4F68
:1035200099273327EE24FF24A701E701059008948B
:10353000079428F4360FE71EF81E491F511D660F29
:10354000771F881F991F0694A1F70590079428F408
:10355000E70EF81E491F561FC11D770F881F991FC0
:10356000661F0694A1F70590079428F4F80E491FEA
:10357000561FC71FD11D880F991F661F771F0694FE
:10358000A1F70590079420F4490F561FC71FD81FB5
:10359000990F661F771F881F0694A9F784911095CD
:1035A000177041F0D695C79557954795F794E794CE
:1035B0001A95C1F7E9E7F1E06894159015913591F6
:1035C0006591959105907FE27395E118F10A430B9F
:1035D000560BC90BD009C0F7E10CF11E431F561F53
:1035E000C91FD01D7EF4703311F48A95E6CFE8949C
:1035F000015030F0080F0AF40027021708F4202FBA
:103600002395022F7A3328F079E37D932A95E9F701
:1036100010C07D932A9589F60694979567953795FE
:1036200017951794E118F10A430B560BC90BD009F3
:1036300098F023957E9173957A3308F070E37C932C
:103640002013B8F77E9170617D9330F0839571E31C
:103650007D9370E32A95E1F71124EF90FF900F918D
:103660001F91CF91DF91992787FD90950895FC01D7
:103670000590615070400110D8F7809590958E0F9D
:103680009F1F0895FC016150704001900110D8F710
:10369000809590958E0F9F1F08950F931F93CF9342
:1036A000DF93182F092FEB018B8181FD03C08FEF72
:1036B0009FEF20C082FF10C04E815F812C813D8131
:1036C000421753077CF4E881F9819F012F5F3F4F38
:1036D00039832883108306C0E885F985812F0995F1
:1036E000892B29F72E813F812F5F3F4F3F832E8308
:1036F000812F902FDF91CF911F910F910895A0E01E
:10370000B0E0E5E8FBE10C94241AFE0135966191E6
:103710007191AF0180918102909182020E945901C2
:10372000E2E00C94401A0F931F93CF93DF93E09144
:103730008102F0918202238121FF1BC0EC0100E095
:1037400010E089916091810270918202DB011896EC
:10375000ED91FC911997882331F00995892B89F314
:103760000FEF1FEFEECF8AE00995892B11F4C80106
:1037700002C08FEF9FEFDF91CF911F910F910895BE
:10378000AEE0B0E0E6ECFBE10C94221A0D891E8954
:1037900086E08C831A8309838FEF9FE79E838D8356
:1037A000AE01475E5F4F6F89788DCE0101960E9412
:1037B0005901EF81F885E00FF11F10822E96E4E0A9
:1037C0000C943E1AFA01AA27283051F1203181F1D8
:1037D000E8946F936E7F6E5F7F4F8F4F9F4FAF4F19
:1037E000B1E03ED0B4E03CD0670F781F891F9A1F2C
:1037F000A11D680F791F8A1F911DA11D6A0F711DE0
:10380000811D911DA11D20D009F468943F912AE0EB
:10381000269F11243019305D3193DEF6CF010895D3
:10382000462F4770405D4193B3E00FD0C9F7F6CF04
:10383000462F4F70405D4A3318F0495D31FD4052CC
:10384000419302D0A9F7EACFB4E0A6959795879562
:1038500077956795BA95C9F7009761057105089541
:103860009B01AC010A2E06945795479537952795ED
:10387000BA95C9F7620F731F841F951FA01D089585
:04388000F894FFCFEA
:1038840000000002000000005D07000000000100CD
:10389400002C01FFFFFFFF48454C4C4F2E0057659D
:1038A4006E7420746F2025640A0025642025640A40
:1038B40000536574736572766F2825642C25303344
:1038C40064290A0D0096FFC201370000005A000067
:1038D40000EF018A026666A63F7300C8000504B4BF
:1038E400000100BE007500DB0FC93FAFADFEBFDBBA
:1038F4000FC93F68CEECBF5A0088FF5A007DBF0E47
:10390400436666184364088FC2753D3333A3400091
:103914008054448FC2753D3333A34000806D440A04
:10392400D7233C401F0203A38BAEC0683C1840045D
:10393400008AFD76FDFA806A3EE713773E5265679A
:0E394400697374657265643A2025640A000098
:00000001FF
