:100000000C943A010C9457010C9457010C9457012D
:100010000C9457010C9457010C9457010C94570100
:100020000C9457010C94D70D0C9457010C94570164
:100030000C9457010C94AE0D0C9457010C9457017D
:100040000C94850D0C9457010C9457010C94570196
:100050000C9457010C9457010C9457010C945701C0
:100060000C9414070C9457010C9457010C945701ED
:100070000C9457010C9457010C945701084AD73B34
:100080003BCE016E84BCBFFDC12F3D6C74319ABD67
:1000900056833DDA3D00C77F11BED9E4BB4C3E918B
:1000A0006BAAAABE000000803F072C7AA5BA6CC5D7
:1000B00090DA3B9365FC8BBC53F810FD3C56928361
:1000C0004DBD879D3AB63DCBC9BF5BBE73DA0FC944
:1000D0003F05A84CCDB2D44EB93836A9020C50B960
:1000E000918688083CA6AAAA2ABE000000803F0785
:1000F000634236B79BD8A71A39685618AEBAAB55C3
:100100008C1D3CB7CC5763BD6DEDFD753EF6177287
:1001100031BF000000803F08000000BE9224491259
:100120003EABAAAA2ABECDCCCC4C3E00000080BE7D
:10013000ABAAAAAA3E00000000BF000000803F005A
:1001400000000000084178D3BB4387D1133D190E4E
:100150003CC3BD4282AD2B3E68EC8276BED98FE1B6
:10016000A93E4C80EFFFBE01C4FF7F3F00000000AE
:10017000006E616E00696E660000407A10F35A00EE
:10018000A0724E18090010A5D4E80000E8764817C0
:100190000000E40B54020000CA9A3B000000E1F5A5
:1001A00005000080969800000040420F000000A06B
:1001B0008601000000102700000000E80300000096
:1001C000006400000000000A0000000000010000C0
:1001D0000000002C76D888DC674F0823DFC1DFAE33
:1001E00059E1B1B796E5E3E453C63AE651997696FC
:1001F000E8E6C28426EB898C9B62ED407C6FFCEFC5
:10020000BC9C9F40F2BAA56FA5F490055A2AF75CF2
:10021000936B6CF9676DC11BFCE0E40D47FEF520A4
:10022000E6B500D0ED902E0300943577050080846C
:100230001E080000204E0A000000C80C3333333380
:100240000F986E12831141EF8D2114893BE65516EC
:10025000CFFEE6DB18D1844B381BF77C1D901DA424
:10026000BBE424203284725E228100C9F124ECA117
:10027000E53D270011241FBECFEFD0E1DEBFCDBF8B
:1002800011E0A0E0B1E0E8E4F7E302C005900D92D0
:10029000A23BB107D9F712E0A2EBB1E001C01D9279
:1002A000A136B107E1F70E94F9040C94A21B0C944B
:1002B0000000A3E1B0E0EFE5F1E00C9476197C01D9
:1002C0001B016A01FC0117821682838181FF66C3CC
:1002D000BE016F5F7F4F4B01F7019381F10193FDE9
:1002E000859193FF81911F01882309F453C38532BF
:1002F00039F493FD859193FF81911F01853239F483
:10030000B70190E00E94AF1A56016501E5CF10E0F9
:10031000512C20E02032A0F48B3269F030F480328E
:1003200059F0833269F420612CC08D3239F080336A
:1003300039F4216026C02260246023C0286021C0D7
:1003400027FD27C030ED380F3A3078F426FF06C07D
:10035000FAE01F9F300D1124132F13C06AE0569E40
:10036000300D1124532E20620CC08E3221F426FD54
:1003700011C3206406C08C3611F4206802C0883690
:1003800041F4F10193FD859193FF81911F0181114A
:10039000C1CF9BEB980F933018F42061805E06C0AC
:1003A0009BE9980F933008F0AAC12F7E26FF16E034
:1003B0002F73722E853621F4F22FF0647F2E08C041
:1003C000863621F4622F6068762E02C0111111501A
:1003D00077FE07C01C3348F444244394410E27E0C1
:1003E0000BC0183030F4212F06C027E04CE3442E18
:1003F00003C027E017E0412C560174E0A70EB11CA2
:10040000F6016081718182819381042DA4010E9493
:10041000C1196C01098100FF02C003FF06C071FC15
:1004200007C072FC08C0612C08C03DE2632E05C005
:100430002BE2622E02C090E2692E802F8C7099F11F
:10044000662011F084E001C083E0851510F0512C86
:100450000BC0581A73FC08C0B70180E290E00E94FC
:10046000AF1A5A94C9F7F3CF662029F0B701862D49
:1004700090E00E94AF1A03FD03C005E711E002C03F
:1004800001E711E0F72DF0717F2EF80184918823A8
:1004900009F476C271108052B70190E00E94AF1A41
:1004A0000F5F1F4FF2CF77FE0FC04C0C04FF04C04C
:1004B0008A81813309F44A94141474F5F8E0F41530
:1004C00078F588E0482E2CC076FC2AC0812F90E079
:1004D0008C159D059CF06CEFC6166FEFD60674F078
:1004E000772D7068772E0AC0E2E0F0E0EC0FFD1F78
:1004F000E10FF11D8081803319F411501111F4CFF7
:1005000077FE0EC044244394410E812F90E0C8161C
:10051000D9062CF41C1904C04424439401C010E0F3
:1005200077FE07C01C141D043CF496012F5F3F4F5B
:1005300005C025E030E002C021E030E0662011F087
:100540002F5F3F4F112331F0412F50E04F5F5F4F3E
:10055000240F351F452D50E02417350714F4521A87
:1005600001C0512C872D897049F4552039F0B7010D
:1005700080E290E00E94AF1A5A94F7CF662029F0EB
:10058000B701862D90E00E94AF1A73FC09C0552078
:1005900039F0B70180E390E00E94AF1A5A94F7CF88
:1005A00077FE5FC09C2D8D2DD7FE02C090E080E0CD
:1005B000692E782E40E050E0C601841991099D878C
:1005C0008C87960126193709280D391D812F90E057
:1005D000EE27FF27E81BF90BFF87EE87FFEF6F166B
:1005E0007F0669F4B7018EE290E02B8B3A8B488B43
:1005F000598B0E94AF1A598948893A892B89C614A8
:10060000D70454F06C857D85661577052CF4F901C7
:10061000E40FF51F818101C080E371E0671A710862
:100620004F5F5F4FEE85FF856E167F066CF0B7015A
:1006300090E02B8B3A8B488B598B0E94AF1A2B89F9
:100640003A8948895989CACF6C147D0439F49A8152
:10065000963318F4953311F404FF81E3B70190E069
:100660004BC08A81813309F00F7EB70190E00E9470
:10067000AF1A111105C074FE18C085E490E017C0D0
:10068000B7018EE290E00E94AF1A82E06624639484
:10069000680EF401E80FF11D8081B70190E00E941F
:1006A000AF1A115041F3862DF1CF85E690E0B701E6
:1006B0000E94AF1AD7FC05C0C114D10439F404FF5D
:1006C00005C0D194C194D1088DE201C08BE2B7017D
:1006D00090E00E94AF1A80E36AE0C616D1042CF0C5
:1006E0008F5FFAE0CF1AD108F7CFB70190E00E94F0
:1006F000AF1AB701C601C0960E94AF1A41C1833636
:1007000031F0833779F0833509F058C021C05601A4
:1007100072E0A70EB11CF6018081898301E010E030
:10072000640114C05601F2E0AF0EB11CF601C080A6
:10073000D18026FF03C0612F70E002C06FEF7FEF12
:10074000C6012B8B0E94A41A8C012B892F7715C010
:100750005601F2E0AF0EB11CF601C080D18026FF39
:1007600003C0612F70E002C06FEF7FEFC6012B8BDB
:100770000E94991A8C012B892068722E23FD1AC0C1
:10078000852D90E008171907A8F4B70180E290E0E2
:100790000E94AF1A5A94F4CFF60177FC859177FE48
:1007A00081916F01B70190E00E94AF1A51105A94E5
:1007B000015011090115110579F7E2C0843611F0D5
:1007C000893651F5560127FF09C0F4E0AF0EB11C80
:1007D000F60160817181828193810AC0F2E0AF0EDF
:1007E000B11CF60160817181882777FD8095982F73
:1007F000022F0F7697FF08C09095809570956195B0
:100800007F4F8F4F9F4F00682AE030E0A4010E9485
:10081000441BC82EC8183EC0022F853721F40F7E16
:100820002AE030E01DC0097F8F3691F018F488353A
:1008300059F0B0C0803719F0883711F0ABC00061B3
:1008400004FF09C0046007C024FF08C0066006C09A
:1008500028E030E005C020E130E002C020E132E0D5
:10086000560107FF09C0F4E0AF0EB11CF60160812C
:1008700071818281938108C0F2E0AF0EB11CF60154
:100880006081718180E090E0A4010E94441BC82E29
:10089000C8180F7706FF0BC0202F2E7FC11650F40B
:1008A00004FF0AC002FD08C0202F2E7E05C0DC2CEC
:1008B000202F03C0DC2C01C0D12E24FF0DC0FE016F
:1008C000EC0DF11D8081803311F4297E09C022FFD7
:1008D00006C0D394D39404C0822F867809F0D394B1
:1008E00023FD13C020FF06C01C2DD51418F4150DD0
:1008F0001D19D52CD51468F4B70180E290E02B8B3C
:100900000E94AF1AD3942B89F5CFD51410F45D183B
:1009100001C0512C24FF12C0B70180E390E02B8B63
:100920000E94AF1A2B8922FF17C021FF03C088E560
:1009300090E002C088E790E0B7010CC0822F867873
:1009400059F021FD02C080E201C08BE227FD8DE25B
:10095000B70190E00E94AF1AC11638F4B70180E3E6
:1009600090E00E94AF1A1150F7CFCA94F401EC0D39
:10097000F11D8081B70190E00E94AF1AC110F5CF40
:10098000552009F4C2CCB70180E290E00E94AF1A72
:100990005A94F6CFF7018681978102C08FEF9FEFBF
:1009A0006396E2E10C9492190E94420760E072ECB7
:1009B00081E090E00E94B1070E944E07809199016A
:1009C00040E050E060E070E090E00E94A60680E029
:1009D0000E949A0784B1897F84B98091550160E0B3
:1009E00070E090E00E946B0680E00E949A070C94F1
:1009F000030BCF93DF93CDB7DEB768970FB6F894AC
:100A0000DEBF0FBECDBF0E94D40487E191E00E94FB
:100A1000F51A80E090E00E949D0A0E94510C4B0163
:100A20005C0110E080913B0190913C019A8789879D
:100A30000091490120904A0130904B0190914C0166
:100A400098878091410190914201A0914301B0911A
:100A500044018B879C87AD87BE870B8B2C8A3D8A90
:100A600098859E8B80913D0190913E01A0913F0120
:100A7000B09140018F87988BA98BBA8B8091DA0156
:100A80008823E1F31092DA010E94D00F29833A8380
:100A90004B835C836D837E838F8329813A814B8076
:100AA0005C806D807E802F8B388F0E94510C6B0193
:100AB0007C0160E081E00E943D0860E080E00E94EF
:100AC0003D08AC012F89388D123009F46BC028F431
:100AD000112351F0113079F1B4C0133009F480C002
:100AE000143009F4A5C0ADC08F81882309F4A9C0D2
:100AF000B90180E090E00E94B715202F322D432DE0
:100B000058850E94ED160E948615CB010E94AD0A01
:100B100080E00E9499068B859C85AD85BE85C80EB8
:100B2000D91EEA1EFB1E11E04C145D046E047F0406
:100B300008F487C085C0B90180E090E00E94B71535
:100B40002B893C894D895E890E94ED160E9486158D
:100B5000CB010E949D0AD701C60186599109A109BE
:100B6000B109481659066A067B0650F4460157013A
:100B70009CE2890E91E0991EA11CB11C12E061C09B
:100B80008F859889A989BA89C80ED91EEA1EFB1ECD
:100B90004C145D046E047F0408F053C081E00E9491
:100BA00099064FC068ED7CED80E090E00E94410C1A
:100BB0008C149D04AE04BF0408F043C046015701E5
:100BC0009CE2890E91E0991EA11CB11C61E081E0BC
:100BD0000E943D0861E080E00E943D0813E031C0C2
:100BE00068EB7BE080E090E04F8B588F0E94BF0A5B
:100BF0004F89588D8C149D04AE04BF0410F5460136
:100C00005701A4E68A0E911CA11CB11C89859A8506
:100C10004817590738F460E070E088ED9CED0E94B9
:100C2000410C04C08EE190E00E94AD0A14E009C0BE
:100C30008C149D04AE04BF0420F480E00E94990649
:100C400010E082E090E00E945A0CF82EE92E83E03A
:100C500090E00E945A0CEF92FF929F938F93AEE127
:100C6000B1E0BF93AF930E94E11A0F900F900F90E5
:100C70000F900F900F9002CF9B01AC0184E0220FE8
:100C8000331F441F551F8A95D1F760E070E489E156
:100C900091E00E943519215031093093C50020930D
:100CA000C40088E18093C10086E08093C20008956B
:100CB0009091C00095FFFCCF8093C6000895CF931C
:100CC000DF93EC018991882319F00E945806FACF2E
:100CD000DF91CF9108950F931F93CF93DF93CDB7FB
:100CE000DEB764970FB6F894DEBF0FBECDBF7F931B
:100CF0006F939F938F9385E291E09F938F938E01E3
:100D00000F5F1F4F1F930F930E94221BC8010E9469
:100D10005F060FB6F894DEBF0FBECDBF64960FB668
:100D2000F894DEBF0FBECDBFDF91CF911F910F9121
:100D30000895882319F06091530102C06091540115
:100D400070E08091560190E00C946B06F894883026
:100D5000910594F591B121E030E0082E01C0220FF9
:100D60000A94EAF72095292321B9806480937C00B6
:100D700020917A002760CB0135E0880F991F3A95C2
:100D8000E1F78068E3E0440F551FEA95E1F7842B13
:100D9000282B20937A006115710519F480917B004E
:100DA00001C080E080937B00672B29F080917A005E
:100DB000806480937A0078940895EAE7F0E0808177
:100DC0008F77808310927900109278000895809137
:100DD00078009091790008958830910554F49091AD
:100DE0007C00907E90937C0090917C00982B909357
:100DF0007C00089520917A002F7D20937A000E9434
:100E0000EC0680917A00806480937A0080917A0069
:100E100086FDFCCF809178009091790008959093A1
:100E2000B3018093B20108951F920F920FB60F92F3
:100E300011242F933F934F935F936F937F938F93DF
:100E40009F93AF93BF93EF93FF93E091B201F09123
:100E5000B301309709F00995FF91EF91BF91AF91E0
:100E60009F918F917F916F915F914F913F912F91C2
:100E70000F900FBE0F901F9018950E94CD0780E035
:100E800090E0089580E091E090935E0280935D028F
:100E900060E072EC81E090E00C943C0684B1806BE1
:100EA00084B983E58CBD8091270080628093270000
:100EB00080912700806180932700809127008860BF
:100EC0008093270080912700846080932700809181
:100ED0002A00806180932A0080912700806480939B
:100EE000270080912700816080932700809128004F
:100EF0008062809328008091280080618093280080
:100F00008091280088608093280080912800846068
:100F10008093280080912B00806180932B0080912A
:100F2000280080648093280080912800816080934D
:100F3000280008959CB59C7F9CBD9DB59E7F9DBD5E
:100F40002CB5982F9370922B9CBD9DB58695869558
:100F5000892B8DBD08958EBD0DB407FEFDCF8EB5D6
:100F600008959B01AC0184E0220F331F441F551FDD
:100F70008A95D1F760E070E489E191E00E9435192B
:100F8000215031093093CD002093CC0088E180932B
:100F9000C90086E08093CA0008959091C80095FF2B
:100FA000FCCF8093CE0008958091C80087FFFCCFCE
:100FB0008091CE000895FF920F931F93CF93DF93FC
:100FC00000D000D0CDB7DEB7F82EA0917901B09156
:100FD0007A019A01AB010E94191920919701309171
:100FE0009801442737FD4095542F0E94571901E07E
:100FF00010E01216130614F000E010E08F2D880F99
:10100000FF24F394F80E0115110519F460E070E067
:1010100001C0B90190E029833A834B835C830E942D
:101020002D1029813A81012B29F466277727621B2D
:10103000730B02C060E070E08F2D90E00F900F9076
:101040000F900F90DF91CF911F910F91FF900C9413
:101050002D1090E00E94FA069C01A8E8B3E10E94DE
:10106000F8182FEF33E040E050E00E9457192C5859
:101070003A4041095109C90108950F931F93CF9335
:10108000DF93C82FD0E0662391F0FE01EE0FFF1F23
:10109000EE0FFF1FE854FE4F10821182128213825E
:1010A000FE01EE0FFF1FEC54FE4F118210820E94D2
:1010B0002908FE01EE0FFF1FEE0FFF1FE854FE4F41
:1010C000919581959109BC01882777FD8095982F8E
:1010D0000081118122813381600F711F821F931F54
:1010E0006083718382839383CC0FDD1FCC54DE4FEA
:1010F000288139812F5F3F4F39832883442737FD6B
:101100004095542F0E945719C901DF91CF911F912B
:101110000F9108958F929F92AF92BF92CF92DF92DC
:10112000EF92FF92CF934B015C0169017A019B0121
:10113000AC010E94E717811146C0A7019601C701C3
:10114000B6010E94E71781113EC0209167013091DE
:1011500068014091690150916A01C501B4010E9482
:10116000171587FD30C020916301309164014091D3
:10117000650150916601C501B4010E94E21618167E
:1011800014F120915F013091600140916101509113
:101190006201C701B6010E94171587FD14C0C1E0A6
:1011A00020915B0130915C0140915D0150915E01A5
:1011B000C701B6010E94E21618160CF0C0E081E0EB
:1011C0008C2790E002C080E090E0CF91FF90EF90FC
:1011D000DF90CF90BF90AF909F908F9008954F92E7
:1011E0005F926F927F928F929F92AF92BF92CF92B7
:1011F000DF92EF92FF92CF93DF93CDB7DEB7619787
:101200000FB6F894DEBF0FBECDBF66247724681AF0
:10121000790A882777FD8095982F0E94B91520912B
:1012200071013091720140917301509174010E94DB
:1012300050140E9486156E837F8388879987B30137
:10124000882777FD8095982F0E94B9159B01AC01E6
:10125000EE81FF81BF01882777FD8095982F2E872B
:101260003F87488B598B0E94B9152E853F85488949
:1012700059890E94C4144B015C01C0907501D09043
:101280007601E0907701F09078019301D3010E94FC
:10129000F0182B013C012E813F81D9010E94F018EA
:1012A000460E571E681E791EC301B2010E94B91571
:1012B0006E837F83888799870E94A6176A877B87BA
:1012C0008C879D87A7019601C701B6010E94ED1684
:1012D0009B01AC010E9451142B013C012E813F81E6
:1012E000488559850E945014A30192010E941E1541
:1012F0000E9442146E837F8388879987A701960195
:10130000C701B6010E9451149B01AC016A857B851F
:101310008C859D850E941E150E9442146A877B87DA
:101320008C879D872BED3FE049E450E46E817F81FF
:10133000888599850E9450142B013C012A853B85A4
:101340004C855D85C501B4010E9451142BED3FE031
:1013500049EC5FE30E9450146B017C012A853B85B8
:101360004C855D85C501B4010E9450142BED3FE012
:1013700049EC5FE30E9450144B015C012BED3FE010
:1013800049E450E4C701B6010E94E21618164CF475
:101390002BED3FE049EC50E4C701B6010E94501428
:1013A00012C02BED3FE049E450ECC701B6010E94AA
:1013B000171587FF0AC02BED3FE049EC50E4C70149
:1013C000B6010E9451146B017C012BED3FE049E412
:1013D00050E4C501B4010E94E216181654F42BED36
:1013E0003FE049EC50E4C501B4010E9450144B01A8
:1013F0005C012BED3FE049E450ECC501B4010E94D3
:10140000171587FF0AC02BED3FE049EC50E4C501FA
:10141000B4010E9451144B015C01A3019201C70168
:10142000B6010E948A08892BF9F020E030E044E3FD
:1014300053E4C701B6010E94ED162BED3FE049E4ED
:1014400050E40E941E1520E030E048EC52E40E9477
:10145000ED160E9486157A83698320E030E044E32C
:1014600053E4C301B20132C02E813F8148855985C2
:101470006BED7FE089E490E40E9450146B017C01E5
:101480009B01AC01C501B4010E948A08892B99F126
:1014900020E030E044E353E4C501B4010E94ED16BE
:1014A0002BED3FE049E450E40E941E1520E030E0BF
:1014B00048EC52E40E94ED160E9486157A836983F7
:1014C00020E030E044E353E4C701B6010E94ED168A
:1014D0002BED3FE049E450E40E941E1520E030E08F
:1014E00048EC52E40E94ED160E9486157C836B83C3
:1014F00081E08D8305C01A8219821C821B821D82A5
:1015000029813A814B815C816D8170E080E090E0BF
:1015100061960FB6F894DEBF0FBECDBFDF91CF91BD
:10152000FF90EF90DF90CF90BF90AF909F908F9003
:101530007F906F905F904F900895609159017091E6
:101540005A012091570130915801280F391F8827DF
:101550009927821B930B0C94190C6091590170917F
:101560005A01625E7F4F2091570130915801280F38
:10157000391F88279927821B930B0C94190C21E0A3
:101580002093C9012093CF019093CB018093CA018E
:101590007093CD016093CC010895CF92DF92EF92CA
:1015A000FF920F931F93CF93DF936B01C09197012D
:1015B000D0919801002711270C1B1D0BAE01B8011B
:1015C0000E9423107C01AE01B801C6010E942310C5
:1015D000919581959109AC01662757FD6095762F0D
:1015E00080E00E94DB07A701662757FD6095762FF4
:1015F00081E0DF91CF911F910F91FF90EF90DF90ED
:10160000CF900C94DB07CF92DF92EF92FF920F9373
:101610001F93C0908701D0908801E0908901F090DD
:101620008A0100918B0110918C0120918D013091E4
:101630008E0140918F0150919001609191017091C4
:10164000920181E00E947B10C0907B01D0907C01D0
:10165000E0907D01F0907E0100917F01109180016A
:101660002091810130918201409183015091840148
:10167000609185017091860180E00E947B1020E1DD
:1016800037E240E050E062E070E080E090E00E94ED
:10169000AB0C66E77BE080E00E94700D60E070E0DC
:1016A00080E090E01F910F91FF90EF90DF90CF903E
:1016B0000C94CD0A882319F0813051F014C0209188
:1016C000C2013091C301232B71F48091990108C0AC
:1016D0002091C2013091C301232B29F480919A01FA
:1016E00090E00C945A0C90E00C94D912EF92FF9277
:1016F0000F931F93CF93DF9381E08093DA01809162
:10170000C5019091C601A091C701B091C801019691
:10171000A11DB11D8093C5019093C601A093C7017F
:10172000B093C8018091CF0181110CC060E070E0DE
:1017300080E090E0DF91CF911F910F91FF90EF90AB
:101740000C94CD0A81E00E945A0B9093D1018093B2
:10175000D00180E00E945A0B9093D3018093D20174
:1017600020910E0130E04091D0015091D101609163
:10177000D5017091D60181E00E94BD108C012091AD
:10178000D0013091D1014091D2015091D3016091AB
:10179000D40181E00E941212EC0120910E0130E090
:1017A0004091D2015091D3016091D7017091D8013D
:1017B00080E00E94BD107C012091D0013091D101C8
:1017C0004091D2015091D3016091D40180E00E94F8
:1017D00012122091C901222349F06091CC0170912D
:1017E000CD018091CA019091CB0106C0B701680F6D
:1017F000791FC8018C0F9D1F0E94CD0A6091D201F4
:101800007091D3018091D0019091D1010E949413E5
:1018100060930F0170931001809311019093120156
:1018200010920E01DF91CF911F910F91FF90EF90D9
:101830000895CF93DF9300D000D01F92CDB7DEB7CD
:101840000E94EF0829833A834B835C836D8381E098
:1018500080930E018093CF011092C901662349F055
:1018600085E0FE013196A5EDB1E001900D928A95DB
:10187000E1F70F900F900F900F900F90DF91CF91A5
:1018800008951092C9019093D6018093D501709369
:10189000D8016093D70181E080930E018093CF013E
:1018A00008956091C5017091C6018091C701909122
:1018B000C8010895CF93DF93EC010E94FA062091AE
:1018C000990130E0C217D307A9F46091A501709186
:1018D000A601680F791F882777FD8095982F0E94B1
:1018E000B9152091A9013091AA014091AB01509105
:1018F000AC0114C06091A7017091A801680F791F15
:10190000882777FD8095982F0E94B9152091AD0109
:101910003091AE014091AF015091B0010E94ED169F
:1019200020E030E048EC52E40E94ED160E9486155B
:10193000CB01DF91CF9108950E94FA062091A30177
:101940003091A401AC01429FC001439F900D529F72
:10195000900D112408950F931F93CF93DF938C0163
:10196000EB01F894A2E1B0E00E940E1928EE33E0FA
:1019700040E050E00E9435192150310941095109D8
:1019800001301105B1F00230110531F1012BB9F52B
:10199000CE0146E0880F991F4A95E1F7C82BC4BDD8
:1019A00085E085BD27BD80916E00826080936E00CA
:1019B00026C0C295CC0FCC0FC07CC09380008DE0B8
:1019C00080938100309389002093880080916F007C
:1019D000826080936F0013C0CE0136E0880F991F9C
:1019E0003A95E1F7C82BC093B00085E08093B10031
:1019F0002093B3008091700082608093700078948F
:101A0000DF91CF911F910F9108958130910539F0A9
:101A10008230910549F0892B59F486B507C0809131
:101A200084009091850008958091B20090E008951F
:101A300080E090E00895813051F018F0823079F024
:101A40000895249A81E684BD8DE085BD0895549A59
:101A500083EA8093800085E1809381000895569AFF
:101A600081E68093B0008DE08093B10008958130CD
:101A700039F018F0823069F0089567BD48BD0895C7
:101A8000709389006093880050938B0040938A0084
:101A900008956093B3004093B4000895CF93C82F86
:101AA000A2E1B0E09A01AB010E940E1928EE33E0EA
:101AB00040E050E00E943519215031094109510997
:101AC000C13041F028F0C23049F42093B30006C081
:101AD00027BD04C03093890020938800CF910895DA
:101AE000813049F018F0823059F008957093E00188
:101AF0006093DF0108957093DE016093DD01089526
:101B00007093DC016093DB0108951F920F920FB672
:101B10000F9211242F933F934F935F936F937F9373
:101B20008F939F93AF93BF93EF93FF93E091DF0168
:101B3000F091E001309709F00995FF91EF91BF9185
:101B4000AF919F918F917F916F915F914F913F9155
:101B50002F910F900FBE0F901F9018951F920F920C
:101B60000FB60F9211242F933F934F935F936F9370
:101B70007F938F939F93AF93BF93EF93FF93E091E6
:101B8000DD01F091DE01309709F00995FF91EF91A9
:101B9000BF91AF919F918F917F916F915F914F9185
:101BA0003F912F910F900FBE0F901F9018951F928D
:101BB0000F920FB60F9211242F933F934F935F9381
:101BC0006F937F938F939F93AF93BF93EF93FF9305
:101BD000E091DB01F091DC01309709F00995FF916C
:101BE000EF91BF91AF919F918F917F916F915F9195
:101BF0004F913F912F910F900FBE0F901F9018950E
:101C00002091F00130E0E0914D01F0914E018E1BEA
:101C10009F0B893C910558F4A7E0A29FF001A39F78
:101C2000F00D1124EF50FE4F918380830AC087E0AE
:101C3000829FF001839FF00D1124EF50FE4F11821F
:101C4000108287E0829FF001839FF00D1124EF50F6
:101C5000FE4F428353836483758381E08683C90189
:101C600001966AE070E00E9421198093F0010895C6
:101C7000E091EF018E2F90E027E0E29FF001112428
:101C8000EF50FE4F168201966AE070E00E94211923
:101C90008093EF010895BF92CF92DF92EF92FF926F
:101CA0000F931F93CF93DF930E94510C6B017C0124
:101CB0008091EF0190E0CAE0D0E027E0B22E2AE068
:101CC000C20ED11CE11CF11CBE010E9421198C0125
:101CD0008091F00190E008171907A9F0B09EF0017B
:101CE000B19EF00D1124EF50FE4F4281538164816B
:101CF0007581C416D506E606F70628F00E94380E50
:101D0000C8010196E1CFDF91CF911F910F91FF9014
:101D1000EF90DF90CF90BF900895CF93DF93CDB732
:101D2000DEB727970FB6F894DEBF0FBECDBFE091A8
:101D3000EF0187E0E89FF0011124EF50FE4F87E0AC
:101D4000DE01119601900D928A95E1F729813A8181
:101D50004B815C816D817E818F8190E027960FB6EB
:101D6000F894DEBF0FBECDBFDF91CF9108958F9263
:101D70009F92AF92BF92DF92EF92FF920F931F93C9
:101D8000CF93DF938A019B018091EF0190E0C09196
:101D9000F001D0E088248A94982C5401E0E0F0E02F
:101DA0005AE0E52EF12C67E0D62EB7010E942119EA
:101DB0008C179D0731F1D89ED001D99EB00D11240A
:101DC000AF50BE4F12964D915C911397401B510B33
:101DD00057FF03C0519541955109662757FD6095FE
:101DE000762F481559056A057B0548F4D89EF00101
:101DF000D99EF00D1124EF50FE4F4A015B01019670
:101E0000D4CF309721F00283138324833583DF916D
:101E1000CF911F910F91FF90EF90DF90BF90AF9007
:101E20009F908F9008957F928F929F92AF92BF92D2
:101E3000CF92DF92EF92FF920F931F93CF93DF9396
:101E4000782E882319F08091520102C080915101AF
:101E500090E00E9461137C01872C912C8401035136
:101E60001E4FF8018081E401CD51DE4F8823D1F06F
:101E7000F401EE0FFF1FED5EFE4F80819181E816A9
:101E8000F906B8F4F182E0820E94510CF401EE0FE1
:101E9000FF1FEE0FFF1FEB51FE4F608371838283A4
:101EA00093830BC080914F0190915001E816F90681
:101EB00024F488818F5F888301C0188288818B30E9
:101EC00008F460C0F801808194012F513E4F6901F0
:101ED000F901882309F451C080815401AA0CBB1C6C
:101EE00081113CC0C401880F991F880F991FFC0104
:101EF000EB51FE4F7720C1F04091470150914801CE
:101F0000662757FD6095762F80819181A281B381EC
:101F1000480F591F6A1F7B1FF501ED5EFE4F808140
:101F200091810E94000E17C04091450150914601D9
:101F3000662757FD6095762F80819181A281B381BC
:101F4000480F591F6A1F7B1FF501ED5EFE4F808110
:101F500091810E94B70E81E0F601808380914F014C
:101F600090915001F501ED5EFE4F918380838E15B7
:101F70009F0544F4F801108204C0108281E0F8014A
:101F800080831882DF91CF911F910F91FF90EF9086
:101F9000DF90CF90BF90AF909F908F907F900895EB
:101FA000CF93DF93CDB7DEB727970FB6F894DEBF98
:101FB0000FBECDBF80E00E94130F81E00E94130F7F
:101FC0000E944B0E0E948D0E90E027960FB6F8945B
:101FD000DEBF0FBECDBFDF91CF9108958F929F924C
:101FE000AF92BF92CF92DF92EF92FF920F931F9327
:101FF000CF93DF936B01D82FC92F49015A010E945B
:10200000171587FD0DC09701A801B6018D2F9C2FD4
:102010000E94E21618163CF46701D02FC12F03C0AE
:102020006401DA2DCB2DB6018D2F9C2FDF91CF913E
:102030001F910F91FF90EF90DF90CF90BF90AF90E6
:102040009F908F900895861797072CF0481759078F
:102050001CF4CA010895CB010895CF93DF93EB01DF
:1020600085309105D0F490912B009F7E90932B00AA
:1020700080630E94AB07CE0124E0959587952A9551
:10208000E1F70E94AB078C2F8295807F0E94AB07FF
:1020900080912B00806180932B00DF91CF91089578
:1020A00080912B008F7E80932B008FE40E94AB07E2
:1020B00080E00E94AB0780E00E94AB0780912B007C
:1020C000806180932B0086E08A95F1F70000809173
:1020D0002B008F7E80932B008FE10E94AB0780E066
:1020E0000E94AB0780E00E94AB0780912B008061CB
:1020F00080932B000895CF92DF92EF92FF920F937F
:102100001F938823D9F0813089F540934F02509373
:102110005002609351027093520200935302109345
:1021200054022093550230935602C0925702D09227
:102130005802E0925902F0925A0218C040934302AA
:102140005093440260934502709346020093470205
:10215000109348022093490230934A02C0924B02E6
:10216000D0924C02E0924D02F0924E021F910F91DC
:10217000FF90EF90DF90CF9008952F923F924F9273
:102180005F926F927F928F929F92AF92BF92CF9207
:10219000DF92EF92FF920F931F93CF93DF93CDB710
:1021A000DEB760970FB6F894DEBF0FBECDBF7A835F
:1021B00069838A01232B61F0811105C010923E02D0
:1021C00010923D0207C010923C0210923B0223C0C5
:1021D000811121C08090430290904402A09045025A
:1021E000B0904602C0904702D0904802E090490269
:1021F000F0904A0240904B0250904C0260904D0289
:1022000070904E0220903D0230903E022DE332E06D
:102210003E832D8320C080904F0290905002A0906A
:102220005102B0905202C0905302D0905402E090FC
:102230005502F0905602409057025090580260901C
:10224000590270905A0220903B0230903C028BE37E
:1022500092E09E838D83A0919701B0919801B88BF5
:10226000AF87BD01882777FD8095982F0E94B9150B
:102270006F83788789879A87A70196010E941E1528
:102280000E9486156B877C878D879E8789819A81BE
:10229000801B910B64E670E00E942119882777FD6E
:1022A0008095982F0E94B91569837A838B839C83CC
:1022B0009B01AC01C501B4010E94ED164B015C010C
:1022C000B101882777FD8095982F0E94B9159B0151
:1022D000AC01C701B6010E94ED169B01AC01C5011E
:1022E000B4010E9451146B017C012091370230919E
:1022F00038024091390250913A0269817A818B818A
:102300009C810E9450148090930190909401A09021
:102310009501B0909601A50194010E941E150E949E
:102320008615882777FD8095982F0E94B9159B0107
:10233000AC01C301B2010E94ED169B01AC01C701C3
:10234000B6010E9451142B013C016F85788971956B
:1023500061957109882777FD8095982F0E94B9159E
:102360009B01AC01EF80F88409851A85C301B20195
:102370000E94EE0F6B017C010B851C851195019568
:102380001109ED81FE8160817181882777FD80953B
:10239000982F0E94B9152B013C01A5019401698178
:1023A0007A818B819C810E94ED169B01AC01C30157
:1023B000B2010E9451140E948615DC01CB014B85AD
:1023C0005C85B8010E942310AD81BE818D939C93E2
:1023D00089819A81AB81BC818093370290933802C6
:1023E000A0933902B0933A02C701B6010E94861544
:1023F000CB0160960FB6F894DEBF0FBECDBFDF9164
:10240000CF911F910F91FF90EF90DF90CF90BF90F1
:10241000AF909F908F907F906F905F904F903F9084
:102420002F900895CF93DF9300D000D01F92CDB7A7
:10243000DEB729833A834B835C8369817A812B8160
:102440003C81811103C0620F731F02C0813021F5EE
:10245000882777FD8095982F0E94B91520E030E0FD
:1024600048EC52E40E941E152BED3FE049E450E495
:102470000E94ED1620E030E044E353E40E941E1574
:102480000E949C1720E030E04FE254EC0E94ED16D1
:102490000E948615CB0102C080E090E00F900F9063
:1024A0000F900F900F90DF91CF910895DF92EF92F0
:1024B000FF920F931F93CF93DF93D82E79018091D2
:1024C0002800DD2011F08F7E01C08F7D80932800D1
:1024D00020E4629FB001112428E0429FC001112432
:1024E000862B0E94AB07E70110E09E012E193F09E1
:1024F000201731072CF488810E94AB078993F5CF10
:1025000080912800DD2011F0806101C080628093FD
:102510002800DF91CF911F910F91FF90EF90DF90F6
:1025200008950F931F93CF93DF931F92CDB7DEB71C
:10253000182F00E020E030E044E060E00E945612F6
:1025400083E0898301E09E012F5F3F4F41E062E01D
:10255000812F0E94561282E089839E012F5F3F4F98
:1025600042E062E0812F0E9456120F90DF91CF91DE
:102570001F910F9108950F93CF93DF9300D0CDB7A4
:10258000DEB702E09E012F5F3F4F44E061E00E9412
:102590005612698170E0762F66278A81682B88271A
:1025A00077FD8095982F0F900F90DF91CF910F912D
:1025B0000895CF93C82F90E00E94BB12882777FD23
:1025C0008095982F0E94B915CC2349F020919F0146
:1025D0003091A0014091A1015091A20108C0209129
:1025E0009B0130919C0140919D0150919E010E9460
:1025F000ED160E948615CB01CF9108950F9300E050
:1026000020E030E044E060E00E9456120F9108950F
:102610000F93CF93DF9300D0CDB7DEB759834A83B2
:1026200002E09E012F5F3F4F44E062E00E9456129D
:102630000F900F90DF91CF910F910895CF939091CC
:1026400028009E7F909328008861880F880F0E9441
:10265000AB0780E00E94AB07C82F80E00E94AB0769
:1026600090912800916090932800282F22952F7038
:1026700030E1C39FC0011124822BCF91089583E0E4
:1026800090E00E941E139093400280933F020895B1
:102690000E941E1320913F0230914002821B930B37
:1026A000BC01882777FD8095982F0E94B9152DECE5
:1026B0003CEC4CE050E40E94ED160E948615CB01E4
:1026C00008950E94FA064CEB52E066E470E00E9426
:1026D0002310BC01882777FD8095982F0E94B9159B
:1026E00020E030E040EA50E40E94ED1620E030ECBB
:1026F0004FE754E40E941E159B01AC0164EF7DEF8F
:1027000084ED9EE30E94501728E93EE642E55FE330
:102710000E94ED1620E030E04AE754E40E94ED16F6
:102720000E948615CB0108954F925F926F927F921F
:102730008F929F92AF92BF92CF92DF92EF92FF92D1
:10274000CF93DF9300D000D0CDB7DEB75B01BC01E3
:10275000882777FD8095982F0E94B9152BED3FE0D3
:1027600049E450E40E94ED1620E030E044E353E4F5
:102770000E941E1520E030E048EC52E40E941E1535
:102780006B017C01B501882777FD8095982F0E9409
:10279000B9152BED3FE049E450E40E94ED1620E02E
:1027A00030E044E353E40E941E1520E030E048ECA2
:1027B00052E40E941E159B01AC01C701B6010E94A4
:1027C00051142B013C010E949C174B015C01C30179
:1027D000B2010E941B152B013C01C701B6010E94EA
:1027E0009C1769837A838B839C83C701B6010E94FF
:1027F0001B159B01AC01C0907501D0907601E09053
:102800007701F0907801C301B2010E9451149B013D
:10281000AC01C701B6010E94ED1620917101309103
:10282000720140917301509174010E9451140E94F1
:1028300086152B013C0129813A814B815C81C501C0
:10284000B4010E9451149B01AC01C701B6010E9462
:10285000ED160E9486156B017C01B601C2010F9036
:102860000F900F900F90DF91CF91FF90EF90DF903E
:10287000CF90BF90AF909F908F907F906F905F9020
:102880004F9008959F939F77AFD10F9000203AF417
:102890009058A2EA2AED3FE049E450E413D047C241
:1028A0005058BB27AA270ED042C20BD230F010D20C
:1028B00020F031F49F3F11F41EF4DBC10EF4E095DB
:1028C000E7FBD1C1E92F55D280F3BA17620773072E
:1028D0008407950718F071F49EF56DC20EF4E0952B
:1028E0000B2EBA2FA02D0B01B90190010C01CA01CA
:1028F000A0011124FF27591B99F0593F50F4503E75
:1029000068F11A16F040A22F232F342F4427585F66
:10291000F3CF469537952795A795F0405395C9F77E
:102920007EF41F16BA0B620B730B840BBAF0915036
:10293000A1F0FF0FBB1F661F771F881FC2F70EC0D5
:10294000BA0F621F731F841F48F4879577956795A8
:10295000B795F7959E3F08F0B3CF9395880F08F091
:102960009927EE0F979587950895ABD158F080E899
:1029700091E009F49EEFACD128F040E851E059F421
:102980005EEF09C076C117C2E92FE078F2D168F393
:10299000092E052AC1F3261737074807590738F0CB
:1029A0000E2E07F8E02569F0E025E0640AC0EF6329
:1029B00007F8009407FADB01B9019D01DC01CA01A7
:1029C000AD01EF934AD0B3D10AD05F91552331F0D6
:1029D0002BED3FE049E450FD49EC63CF0895DF93D0
:1029E000DD27B92FBF7740E85FE3161617064807C3
:1029F0005B0710F4D92FEAD19F938F937F936F9346
:102A0000E3D2ECE7F0E038D192D12F913F914F9192
:102A10005F91EFD1DD2349F09058A2EA2AED3FE023
:102A200049EC5FE3D0785D274DDFDF9180C1F7D0BF
:102A300008F481E0089554D1E3958AC10CD077C1A0
:102A400047D140F03ED130F021F45F3F19F00BC187
:102A50005111B2C10EC18DD198F39923C9F35523F9
:102A6000B1F3951B550BBB27AA2762177307840781
:102A700038F09F5F5F4F220F331F441FAA1FA9F337
:102A800033D00E2E3AF0E0E830D091505040E69529
:102A9000001CCAF729D0FE2F27D0660F771F881F8A
:102AA000BB1F261737074807AB07B0E809F0BB0B79
:102AB000802DBF01FF2793585F4F2AF09E3F51059D
:102AC00068F0D1C079C15F3FECF3983EDCF38695A6
:102AD00077956795B795F7959F5FC9F7880F911D13
:102AE0009695879597F90895E1E0660F771F881FFF
:102AF000BB1F621773078407BA0720F0621B730BB2
:102B0000840BBA0BEE1F88F7E095089504D0689403
:102B1000B11152C1089535D188F09F5790F0B92F67
:102B20009927B751A0F0D1F0660F771F881F991F22
:102B30001AF0BA95C9F712C0B13081F03CD1B1E0BA
:102B4000089539C1672F782F8827B85F39F0B93FCA
:102B5000CCF3869577956795B395D9F73EF4909524
:102B60008095709561957F4F8F4F9F4F0895E894A2
:102B700009C097FB3EF490958095709561957F4FC5
:102B80008F4F9F4F9923A9F0F92F96E9BB27939573
:102B9000F695879577956795B795F111F8CFFAF483
:102BA000BB0F11F460FF1BC06F5F7F4F8F4F9F4FB4
:102BB00016C0882311F096E911C0772321F09EE812
:102BC000872F762F05C0662371F096E8862F70E078
:102BD00060E02AF09A95660F771F881FDAF7880F52
:102BE0009695879597F90895DF93CF931F930F9349
:102BF0008B01EC01E9EAF0E03FD099D09801AE01F9
:102C00008B01EC0160E070E080E89FE349DE9ED13B
:102C10009801AE010F911F91CF91DF91EAC0990FFA
:102C20000008550FAA0BE0E8FEEF16161706E80796
:102C3000F907C0F012161306E407F50798F0621BB7
:102C4000730B840B950B39F40A2661F0232B242B8C
:102C5000252B21F408950A2609F4A140A6958FEFAB
:102C6000811D811D089597F99F6780E870E060E0FD
:102C700008959FEF80EC0895DF93CF931F930F93F8
:102C8000FF92EF92DF927B018C01689405C0DA2EEF
:102C9000EF01AFD0FE01E894A591259135914591C2
:102CA0005591AEF3EF010EDEFE019701A801DA9413
:102CB00079F7DF90EF90FF900F911F91CF91DF9107
:102CC000089500240A941616170618060906089592
:102CD00000240A9412161306140605060895C9CF97
:102CE00050D0E8F3E894E0E0BB279F57F0F02AEDDE
:102CF0003FE049EC06C0EE0FBB0F661F771F881F31
:102D000028F0B23A62077307840728F0B25A620BC0
:102D1000730B840BE3959A9572F7803830F49A958B
:102D2000BB0F661F771F881FD2F7904887C1092EF7
:102D30000394000C11F4882352F0BB0F40F4BF2B16
:102D400011F460FF04C06F5F7F4F8F4F9F4F089556
:102D5000EF93E0FF06C0A2EA2AED3FE049EC5FEB0B
:102D6000B1DDE5DF0F90039401FC9058E1EDF0E058
:102D700078C157FD9058440F551F59F05F3F71F0CF
:102D80004795880F97FB991F61F09F3F79F08795D2
:102D90000895121613061406551FF2CF4695F1DF5B
:102DA00008C0161617061806991FF1CF86957105EB
:102DB000610508940895E894BB2766277727CB011F
:102DC00097F908952CDF08F48FEF08959B01AC016B
:102DD00060E070E080E89FE331CE0BD0A8CF71DFD8
:102DE00028F076DF18F0952309F03DCF42CF11246B
:102DF000E3CFBFDFA0F3959FD1F3950F50E0551FB0
:102E0000629FF001729FBB27F00DB11D639FAA273F
:102E1000F00DB11DAA1F649F6627B00DA11D661F8E
:102E2000829F2227B00DA11D621F739FB00DA11DAF
:102E3000621F839FA00D611D221F749F3327A00D69
:102E4000611D231F849F600D211D822F762F6A2F05
:102E500011249F5750408AF0E1F088234AF0EE0F8A
:102E6000FF1FBB1F661F771F881F91505040A9F797
:102E70009E3F510570F0F7CE9FCF5F3FECF3983E39
:102E8000DCF3869577956795B795F795E7959F5FFE
:102E9000C1F7FE2B880F911D9695879597F9089598
:102EA000FA01EE0FFF1F30962105310599F16115EA
:102EB000710561F48038BFE39B0749F1689490384D
:102EC000810561F08038BFEF9B0741F0992342F5FF
:102ED000FF3FE1053105210511F1E8940894E795DC
:102EE000D901AA2329F4AB2FBE2FF85FD0F310C06D
:102EF000FF5F70F4A695E0F7F73950F019F0FF3A4C
:102F000038F49F779F930CD00F9007FC905808954A
:102F10003EF0AFCE60E070E080E89FE308954FE7B9
:102F20009F775F934F933F932F93E7D02F913F91DC
:102F30004F915F9152DF54C09F93D2DE0F9007FCF8
:102F4000EE5F06CF11F40EF494CE76C01ADFD0F304
:102F50009923D9F3CEF39F57550B87FF7BD00024DD
:102F6000A0E640EA900180585695979528F4805C39
:102F7000660F771F881F20F026173707480730F4A1
:102F8000621B730B840B202931294A2BA6951794B9
:102F90000794202531254A2758F7660F771F881F89
:102FA00020F026173707480730F4620B730B840BA9
:102FB000200D311D411DA09581F7B901842F915835
:102FC000880F9695879508959B01AC0106CF27DE63
:102FD000880B990B089519F40EF045CEECCE49CE2E
:102FE000D0DEC8F39638C0F707F80F92E8942BE3C9
:102FF0003AEA48EB5FE7FFDE0F920F920F924DB770
:103000005EB70F92BAD0EFEEF0E036DE4F915F91EF
:10301000EF91FF91E595EE1FFF1F49F0FE57E06825
:103020004427EE0F441FFA95E1F74195550B2CD03C
:103030000F9007FECBCE08959F3F31F0915020F4C2
:10304000879577956795B795880F911D9695879584
:1030500097F9089591505040660F771F881FD2F757
:1030600008959F938F937F936F93FF93EF939B01AB
:10307000AC01B3DEEF91FF91FFDD2F913F914F91B6
:103080005F91ABCEF0CDD8CF7CDEE8F39923D9F3B6
:10309000940F511DBBF39150504094F059F0882388
:1030A00032F0660F771F881F91505040C1F79E3F46
:1030B000510544F7880F911D9695879597F90895C6
:1030C0005F3FACF0983E9CF0BB278695779567955F
:1030D000B79508F4B1609395C1F7BB0F58F711F499
:1030E00060FFE8CF6F5F7F4F8F4F9F4FE3CF64CE7E
:1030F0000EF0A2CFBECD6894B6CD43DEC8F39923BF
:10310000D1F3C6F3DF93CF931F930F93FF92C92F91
:10311000DD2788232AF02197660F771F881FDAF7AB
:1031200020E030E040E85FEB9FE3883920F0803E0C
:1031300030F021968F77B5DBE7E1F1E003C0B1DB3A
:10314000E4E4F1E099DD8B01BE01EC01FB2E6F5749
:1031500071097595771F880B990B0BDD28E132E714
:1031600041E35FE346DEAF2D9801AE01FF900F9182
:103170001F91CF91DF91A6DBDACDFA01DC01AA0F16
:10318000BB1F9B01AC01BF5728F4222733274427DC
:1031900050781FC0B75188F4AB2F0024469537955F
:1031A0002795011CA395D2F3002069F0220F331F4D
:1031B000441FB395DAF30DD073CB61307105A0E8ED
:1031C0008A07B94630F49B01AC0166277727882728
:1031D0009078309621F02083318342835383089581
:1031E0000E94F818332312F48A1B9B0B0C940919C4
:1031F000A29FB001B39FC001A39F700D811D112438
:10320000911DB29F700D811D1124911D08950E9482
:10321000F818B7FF0895821B930B08950E94F818C1
:10322000A59F900DB49F900DA49F800D911D11241A
:103230000895B7FF0C940E190E940E19821B930B70
:10324000089597FB072E16F4009407D077FD09D058
:103250000E94AD1907FC05D03EF4909581959F4FD3
:103260000895709561957F4F0895A1E21A2EAA1BCB
:10327000BB1BFD010DC0AA1FBB1FEE1FFF1FA21726
:10328000B307E407F50720F0A21BB30BE40BF50B23
:10329000661F771F881F991F1A9469F760957095AC
:1032A000809590959B01AC01BD01CF010895052E3D
:1032B00097FB1EF400940E946E1957FD07D00E94E0
:1032C000351907FC03D04EF40C946E1950954095B7
:1032D000309521953F4F4F4F5F4F089590958095C2
:1032E000709561957F4F8F4F9F4F08952F923F921A
:1032F0004F925F926F927F928F929F92AF92BF9206
:10330000CF92DF92EF92FF920F931F93CF93DF93B1
:10331000CDB7DEB7CA1BDB0B0FB6F894DEBF0FBE0E
:10332000CDBF09942A88398848885F846E847D845B
:103330008C849B84AA84B984C884DF80EE80FD805D
:103340000C811B81AA81B981CE0FD11D0FB6F894D3
:10335000DEBF0FBECDBFED010895AA1BBB1B51E11F
:1033600007C0AA1FBB1FA617B70710F0A61BB70BF5
:10337000881F991F5A95A9F780959095BC01CD019A
:103380000895283008F027E03327DA01990F311D1E
:1033900087FD916000966105710539F432602E5FFA
:1033A0003D9330E32A95E1F708959F3F30F0803850
:1033B0007105610509F03C5F3C5F3D93913008F079
:1033C0008068911DDF93CF931F930F93FF92EF922D
:1033D000192F987F9695E92F96959695E90FFF27D7
:1033E000ED52FE4F99273327EE24FF24A701E70172
:1033F00005900894079428F4360FE71EF81E491F1D
:10340000511D660F771F881F991F0694A1F705901D
:10341000079428F4E70EF81E491F561FC11D770FA9
:10342000881F991F661F0694A1F70590079428F43A
:10343000F80E491F561FC71FD11D880F991F661F01
:10344000771F0694A1F70590079420F4490F561FA3
:10345000C71FD81F990F661F771F881F0694A9F7EB
:1034600084911095177041F0D695C795579547955B
:10347000F794E7941A95C1F7E9E7F1E0689415909D
:10348000159135916591959105907FE27395E118BD
:10349000F10A430B560BC90BD009C0F7E10CF11E22
:1034A000431F561FC91FD01D7EF4703311F48A9537
:1034B000E6CFE894015030F0080F0AF40027021715
:1034C00008F4202F2395022F7A3328F079E37D9397
:1034D0002A95E9F710C07D932A9589F60694979569
:1034E0006795379517951794E118F10A430B560B1A
:1034F000C90BD00998F023957E9173957A3308F023
:1035000070E37C932013B8F77E9170617D9330F067
:10351000839571E37D9370E32A95E1F71124EF9091
:10352000FF900F911F91CF91DF91992787FD909583
:103530000895FC010590615070400110D8F7809506
:1035400090958E0F9F1F0895FC016150704001906F
:103550000110D8F7809590958E0F9F1F08950F93B7
:103560001F93CF93DF93182F092FEB018B8181FDE0
:1035700003C08FEF9FEF20C082FF10C04E815F819C
:103580002C813D81421753077CF4E881F9819F012A
:103590002F5F3F4F39832883108306C0E885F98564
:1035A000812F0995892B29F72E813F812F5F3F4F6E
:1035B0003F832E83812F902FDF91CF911F910F9109
:1035C0000895A0E0B0E0E7EEFAE10C948619FE0160
:1035D000359661917191AF0180915D0290915E028B
:1035E0000E945901E2E00C94A2190F931F93CF930C
:1035F000DF93E0915D02F0915E02238121FF1BC009
:10360000EC0100E010E0899160915D0270915E0232
:10361000DB011896ED91FC911997882331F00995FB
:10362000892B89F30FEF1FEFEECF8AE00995892BE5
:1036300011F4C80102C08FEF9FEFDF91CF911F916E
:103640000F910895AEE0B0E0E8E2FBE10C9484193C
:103650000D891E8986E08C831A8309838FEF9FE78B
:103660009E838D83AE01475E5F4F6F89788DCE015B
:1036700001960E945901EF81F885E00FF11F108239
:103680002E96E4E00C94A019FA01AA27283051F1F3
:10369000203181F1E8946F936E7F6E5F7F4F8F4F83
:1036A0009F4FAF4FB1E03ED0B4E03CD0670F781FE2
:1036B000891F9A1FA11D680F791F8A1F911DA11DC7
:1036C0006A0F711D811D911DA11D20D009F4689400
:1036D0003F912AE0269F11243019305D3193DEF6A8
:1036E000CF010895462F4770405D4193B3E00FD05E
:1036F000C9F7F6CF462F4F70405D4A3318F0495D49
:1037000031FD4052419302D0A9F7EACFB4E0A6952B
:103710009795879577956795BA95C9F7009761054D
:10372000710508959B01AC010A2E069457954795A3
:1037300037952795BA95C9F7620F731F841F951F98
:08374000A01D0895F894FFCFCD
:1037480000000002000000003D070000000001002A
:10375800002C01FFFFFFFF48454C4C4F2E0025640D
:103768002025640A00536574736572766F28256492
:103778002C25303364290A0D0096FFC20128000069
:103788000046000000E0018A029A99B93F4B00C840
:10379800000504B4000100BE007800DB0FC93FAF8C
:1037A800ADFEBFDB0FC93F68CEECBF5A0088FF5A99
:1037B800007DBF0E436666184364088FC2753D33AB
:1037C80033A340008054448FC2753D3333A3400077
:1037D800806D440AD7233C401F0203A38BAEC06808
:1037E8003C184004008AFD76FDFA806A3EE71377AC
:0237F8003E0091
:00000001FF
