:100000000C94CE000C94EB000C94EB000C94EB00E1
:100010000C94EB000C94EB000C94EB000C94EB00B4
:100020000C94EB000C945A0C0C94EB000C94EB0029
:100030000C94EB000C94310C0C94EB000C94EB0042
:100040000C94080C0C94EB000C94EB000C94EB005B
:100050000C94EB000C94EB000C94EB000C94EB0074
:100060000C9400070C94EB000C94EB000C94EB0048
:100070000C94EB000C94EB000C94EB0005A84CCD19
:10008000B2D44EB93836A9020C50B9918688083CD2
:10009000A6AAAA2ABE000000803F6E616E00696EAB
:1000A000660000407A10F35A00A0724E1809001042
:1000B000A5D4E80000E87648170000E40B540200DD
:1000C00000CA9A3B000000E1F50500008096980008
:1000D000000040420F000000A08601000000102731
:1000E00000000000E80300000000640000000000C1
:1000F0000A00000000000100000000002C76D888F3
:10010000DC674F0823DFC1DFAE59E1B1B796E5E305
:10011000E453C63AE651997696E8E6C28426EB891E
:100120008C9B62ED407C6FFCEFBC9C9F40F2BAA5BB
:100130006FA5F490055A2AF75C936B6CF9676DC153
:100140001BFCE0E40D47FEF520E6B500D0ED902E57
:100150000300943577050080841E080000204E0AB5
:10016000000000C80C333333330F986E12831141F3
:10017000EF8D2114893BE65516CFFEE6DB18D184BE
:100180004B381BF77C1D901DA4BBE42420328472E5
:100190005E228100C9F124ECA1E53D2711241FBE98
:1001A000CFEFD0E1DEBFCDBF11E0A0E0B1E0EAE7E4
:1001B000F4E202C005900D92AC39B107D9F711E015
:1001C000ACE9B1E001C01D92A43DB107E1F70E9486
:1001D00087060C943B120C940000A3E1B0E0E3EF1F
:1001E000F0E00C9423107C011B016A01FC011782D2
:1001F0001682838181FF66C3BE016F5F7F4F4B0113
:10020000F7019381F10193FD859193FF81911F0186
:10021000882309F453C3853239F493FD859193FF04
:1002200081911F01853239F4B70190E00E94481195
:1002300056016501E5CF10E0512C20E02032A0F4FA
:100240008B3269F030F4803259F0833269F42061E6
:100250002CC08D3239F0803339F4216026C0226001
:10026000246023C0286021C027FD27C030ED380F4F
:100270003A3078F426FF06C0FAE01F9F300D1124B3
:10028000132F13C06AE0569E300D1124532E2062A6
:100290000CC08E3221F426FD11C3206406C08C36BA
:1002A00011F4206802C0883641F4F10193FD859174
:1002B00093FF81911F018111C1CF9BEB980F933068
:1002C00018F42061805E06C09BE9980F933008F017
:1002D000AAC12F7E26FF16E02F73722E853621F4D9
:1002E000F22FF0647F2E08C0863621F4622F6068FA
:1002F000762E02C01111115077FE07C01C3348F44E
:1003000044244394410E27E00BC0183030F4212FD1
:1003100006C027E04CE3442E03C027E017E0412C41
:10032000560174E0A70EB11CF601608171818281D3
:100330009381042DA4010E945A106C01098100FFD1
:1003400002C003FF06C071FC07C072FC08C0612C2C
:1003500008C03DE2632E05C02BE2622E02C090E28F
:10036000692E802F8C7099F1662011F084E001C015
:1003700083E0851510F0512C0BC0581A73FC08C08F
:10038000B70180E290E00E9448115A94C9F7F3CF78
:10039000662029F0B701862D90E00E94481103FDE8
:1003A00003C00EE910E002C00AE910E0F72DF07179
:1003B0007F2EF8018491882309F476C2711080524F
:1003C000B70190E00E9448110F5F1F4FF2CF77FEF8
:1003D0000FC04C0C04FF04C08A81813309F44A9495
:1003E000141474F5F8E0F41578F588E0482E2CC064
:1003F00076FC2AC0812F90E08C159D059CF06CEF57
:10040000C6166FEFD60674F0772D7068772E0AC087
:10041000E2E0F0E0EC0FFD1FE10FF11D8081803381
:1004200019F411501111F4CF77FE0EC044244394F7
:10043000410E812F90E0C816D9062CF41C1904C077
:100440004424439401C010E077FE07C01C141D042F
:100450003CF496012F5F3F4F05C025E030E002C01D
:1004600021E030E0662011F02F5F3F4F112331F083
:10047000412F50E04F5F5F4F240F351F452D50E057
:100480002417350714F4521A01C0512C872D897096
:1004900049F4552039F0B70180E290E00E944811FC
:1004A0005A94F7CF662029F0B701862D90E00E947C
:1004B000481173FC09C0552039F0B70180E390E082
:1004C0000E9448115A94F7CF77FE5FC09C2D8D2D66
:1004D000D7FE02C090E080E0692E782E40E050E028
:1004E000C601841991099D878C87960126193709C1
:1004F000280D391D812F90E0EE27FF27E81BF90B0F
:10050000FF87EE87FFEF6F167F0669F4B7018EE273
:1005100090E02B8B3A8B488B598B0E94481159895C
:1005200048893A892B89C614D70454F06C857D8597
:10053000661577052CF4F901E40FF51F818101C0E0
:1005400080E371E0671A71084F5F5F4FEE85FF85AA
:100550006E167F066CF0B70190E02B8B3A8B488BC0
:10056000598B0E9448112B893A8948895989CACFE9
:100570006C147D0439F49A81963318F4953311F490
:1005800004FF81E3B70190E04BC08A81813309F019
:100590000F7EB70190E00E944811111105C074FE52
:1005A00018C085E490E017C0B7018EE290E00E9489
:1005B000481182E066246394680EF401E80FF11D8F
:1005C0008081B70190E00E944811115041F3862DBF
:1005D000F1CF85E690E0B7010E944811D7FC05C035
:1005E000C114D10439F404FF05C0D194C194D108D9
:1005F0008DE201C08BE2B70190E00E94481180E3D8
:100600006AE0C616D1042CF08F5FFAE0CF1AD10849
:10061000F7CFB70190E00E944811B701C601C0961C
:100620000E94481141C1833631F0833779F0833518
:1006300009F058C021C0560172E0A70EB11CF601A6
:100640008081898301E010E0640114C05601F2E06A
:10065000AF0EB11CF601C080D18026FF03C0612F10
:1006600070E002C06FEF7FEFC6012B8B0E943D113F
:100670008C012B892F7715C05601F2E0AF0EB11C0B
:10068000F601C080D18026FF03C0612F70E002C058
:100690006FEF7FEFC6012B8B0E9432118C012B89EB
:1006A0002068722E23FD1AC0852D90E008171907C7
:1006B000A8F4B70180E290E00E9448115A94F4CF68
:1006C000F60177FC859177FE81916F01B70190E08B
:1006D0000E94481151105A94015011090115110539
:1006E00079F7E2C0843611F0893651F5560127FFBB
:1006F00009C0F4E0AF0EB11CF60160817181828106
:1007000093810AC0F2E0AF0EB11CF60160817181E5
:10071000882777FD8095982F022F0F7697FF08C0C6
:1007200090958095709561957F4F8F4F9F4F006892
:100730002AE030E0A4010E94DD11C82EC8183EC096
:10074000022F853721F40F7E2AE030E01DC0097F9B
:100750008F3691F018F4883559F0B0C0803719F011
:10076000883711F0ABC0006104FF09C0046007C006
:1007700024FF08C0066006C028E030E005C020E184
:1007800030E002C020E132E0560107FF09C0F4E08A
:10079000AF0EB11CF601608171818281938108C026
:1007A000F2E0AF0EB11CF6016081718180E090E053
:1007B000A4010E94DD11C82EC8180F7706FF0BC0D8
:1007C000202F2E7FC11650F404FF0AC002FD08C07E
:1007D000202F2E7E05C0DC2C202F03C0DC2C01C076
:1007E000D12E24FF0DC0FE01EC0DF11D8081803360
:1007F00011F4297E09C022FF06C0D394D39404C00B
:10080000822F867809F0D39423FD13C020FF06C001
:100810001C2DD51418F4150D1D19D52CD51468F4FC
:10082000B70180E290E02B8B0E944811D3942B8972
:10083000F5CFD51410F45D1801C0512C24FF12C05F
:10084000B70180E390E02B8B0E9448112B8922FF97
:1008500017C021FF03C088E590E002C088E790E060
:10086000B7010CC0822F867859F021FD02C080E2CA
:1008700001C08BE227FD8DE2B70190E00E94481194
:10088000C11638F4B70180E390E00E94481111507E
:10089000F7CFCA94F401EC0DF11D8081B70190E00F
:1008A0000E944811C110F5CF552009F4C2CCB70100
:1008B00080E290E00E9448115A94F6CFF7018681B9
:1008C000978102C08FEF9FEF6396E2E10C943F1097
:1008D000EF92FF920F931F93CF93DF9383E090E00B
:1008E0000E94030BEC0182E090E00E94030BF82EC3
:1008F000E92E23B1267030E0359527954EE1429FD1
:10090000C001439F900D11249093A9018093A801E9
:100910008091A8019091A9019093A7018093A601CD
:100920002091A8013091A9012C1B3D0B3093A5010A
:100930002093A4016091A8017091A901AE0181E00A
:100940000E94ED07AA2797FDA095BA2F8093A001DA
:100950009093A101A093A201B093A3016091A6017D
:100960007091A7014F2D5E2D80E00E94ED079195BB
:1009700081959109AA2797FDA095BA2F80939C0194
:1009800090939D01A0939E01B0939F0100916701F8
:1009900010916801CC27DD27C01BD10B8091A001ED
:1009A0009091A101A091A201B091A301A801BE0163
:1009B0000E94B80CAA2797FDA095BA2F8093A0019A
:1009C0009093A101A093A201B093A30180919C01F7
:1009D00090919D01A0919E01B0919F01A801BE013F
:1009E0000E94B80CAA2797FDA095BA2F80939C016E
:1009F00090939D01A0939E01B0939F010091A0014F
:100A00001091A1012091A2013091A3013F932F9356
:100A10001F930F931F928EE38F938EE091E09F932D
:100A20008F930E947A111F9280E48F93C1E5D1E0E9
:100A3000DF93CF930E947A1140919C0150919D01C8
:100A400060919E0170919F0180E00E94B3091F9206
:100A500082E48F93DF93CF930E947A1180E00E940B
:100A6000400A00919C0110919D0120919E013091BE
:100A70009F014091A6015091A7019F938F933F93AF
:100A80002F931F930F93EF92FF925F934F9385E104
:100A900091E09F938F930E947A118DB79EB74C96E9
:100AA0000FB6F8949EBF0FBE8DBFDF91CF911F91FF
:100AB0000F91FF90EF9008950F931F93CF93DF93C3
:100AC000C0E0D0E00FEF1FE0BE0180E090E00E94A8
:100AD0002907B8016C1B7D0B81E090E00E9429077B
:100AE0006096C11580E1D80779F7CFEFDFE000E02D
:100AF00010E1BE0180E090E00E942907B8016C1B64
:100B00007D0B81E090E00E9429076097CF3F8FEF37
:100B1000D80779F7DF91CF911F910F91089560E089
:100B200070E083E494E4089563E373E383EA90E47C
:100B300008956FE872EC85E79DE30895CF92DF9208
:100B4000EF92FF920F931F93CF93DF93EC019FE8F7
:100B5000C92E92ECD92E95E7E92E9DE3F92E03E3F9
:100B600013E323EA30E440E050E063E474E481E01E
:100B70000E94AB0703E313E323EA30E440E050E0D4
:100B800063E474E480E00E94AB0720E137E240E0D8
:100B900050E062E070E080E090E00E942E0B14B81C
:100BA000D093A701C093A601D093A901C093A80137
:100BB00068E674E080E0DF91CF911F910F91FF9084
:100BC000EF90DF90CF900C94F30BEF92FF920F9386
:100BD0001F93CF93DF93CDB7DEB728970FB6F89466
:100BE000DEBF0FBECDBF83E090E00E94030B182F45
:100BF000092F82E090E00E94030BF82EE92E682F67
:100C0000792F812F902F0E94540A29833A834B8396
:100C10005C836D837E838F839F938F818F938E817F
:100C20008F938D818F938C818F938B818F938A810A
:100C30008F9389818F93EF92FF920F931F938DE291
:100C400091E09F938F930E947A110FB6F894DEBFC4
:100C50000FBECDBF28960FB6F894DEBF0FBECDBF36
:100C6000DF91CF911F910F91FF90EF9008958F9298
:100C70009F92AF92BF92CF92DF92EF92FF920F932B
:100C80001F93CF93DF93C0916701D0916801002734
:100C900011270C1B1D0BC12CD12C76014801AA2455
:100CA00097FCA094BA2CC8018C0D9D1D8C179D0734
:100CB0007CF4B701A601480D591D6A1D7B1D80E01B
:100CC0000E94B3098AE0C80ED11CE11CF11CEBCFD5
:100CD000DF91CF911F910F91FF90EF90DF90CF9018
:100CE000BF90AF909F908F9008950E949F0760E003
:100CF00072EC81E090E00E9489090E94410940E085
:100D000050E061E070E082E090E00C9492060E9476
:100D1000750680E491E00E948E1180E090E00E94D0
:100D20009E05FFCFF8948830910594F591B121E0AC
:100D300030E0082E01C0220F0A94EAF720952923FB
:100D400021B9806480937C0020917A002760CB01D8
:100D500035E0880F991F3A95E1F78068E3E0440F8A
:100D6000551FEA95E1F7842B282B20937A00611513
:100D7000710519F480917B0001C080E080937B00B5
:100D8000672B29F080917A00806480937A007894B0
:100D90000895EAE7F0E080818F77808310927900F0
:100DA00010927800089580917800909179000895CC
:100DB0008830910554F490917C00907E90937C0053
:100DC00090917C00982B90937C00089520917A005C
:100DD0002F7D20937A000E94D80680917A0080644B
:100DE00080937A0080917A0086FDFCCF8091780014
:100DF0009091790008959093AB018093AA01089592
:100E00001F920F920FB60F9211242F933F934F937F
:100E10005F936F937F938F939F93AF93BF93EF9362
:100E2000FF93E091AA01F091AB01309709F0099589
:100E3000FF91EF91BF91AF919F918F917F916F91B2
:100E40005F914F913F912F910F900FBE0F901F9088
:100E50001895EF92FF920F931F93CF93DF937C012E
:100E60008B0185E0E816F10498F580912B008F7EC8
:100E700080932B001F928BE08F93C7E4D1E0DF9328
:100E8000CF930E947A118E2D80630E948309C8013E
:100E900024E0959587952A95E1F70E948309802F94
:100EA0008295807F0E9483091F9282E18F93DF9356
:100EB000CF930E947A1180912B00806180932B0048
:100EC0008DB79EB708960FB6F8949EBF0FBE8DBF24
:100ED000DF91CF911F910F91FF90EF900895809136
:100EE0002B008F7E80932B008FE40E94830980E08B
:100EF0000E94830980E00E94830980912B00806119
:100F000080932B0086E08A95F1F7000080912B00FA
:100F10008F7E80932B008FE10E94830980E00E94E6
:100F2000830980E00E94830980912B008061809377
:100F30002B0008950E94A50980E090E0089580E0CC
:100F400091E09093D1018093D00160E072EC81E058
:100F500090E00C94C20CCF92DF92EF92FF920F932D
:100F60001F938823D9F0813089F54093C2015093B3
:100F7000C3016093C4017093C5010093C60110932F
:100F8000C7012093C8013093C901C092CA01D09211
:100F9000CB01E092CC01F092CD0118C04093B60194
:100FA0005093B7016093B8017093B9010093BA01EF
:100FB0001093BB012093BC013093BD01C092BE01D0
:100FC000D092BF01E092C001F092C1011F910F9138
:100FD000FF90EF90DF90CF9008952F923F924F9225
:100FE0005F926F927F928F929F92AF92BF92CF92B9
:100FF000DF92EF92FF920F931F93CF93DF93CDB7C2
:10100000DEB72E970FB6F894DEBF0FBECDBF1B0123
:101010008A01811119C08090B6019090B701A0900B
:10102000B801B090B901C090BA01D090BB01E09076
:10103000BC01F090BD014090BE015090BF01609096
:10104000C0017090C10118C08090C2019090C3018E
:10105000A090C401B090C501C090C601D090C70156
:10106000E090C801F090C9014090CA015090CB01B6
:101070006090CC017090CD012091670130916801A2
:101080003E872D87B901882777FD8095982F0E948C
:10109000260E69837A838B839C83A70196010E9425
:1010A0008B0D0E94F30D69877A878B879C87201AA6
:1010B000310AB101882777FD8095982F0E94260E6E
:1010C0006D837E838F8398879B01AC01C501B4013A
:1010D0000E94130F4B015C016091AC017091AD0156
:1010E000882777FD8095982F0E94260E9B01AC01E2
:1010F000C701B6010E94130F9B01AC01C501B401E9
:101100000E94200D6B017C018091AE019091AF0196
:10111000B101681B790B882777FD8095982F0E9475
:10112000260E8090630190906401A0906501B090BC
:101130006601A50194010E948B0D0E94F30D882782
:1011400077FD8095982F0E94260E9B01AC01C3016C
:10115000B2010E94130F9B01AC01C701B6010E94AE
:10116000200D2B013C016D857E857195619571097E
:10117000882777FD8095982F0E94260E9B01AC0151
:10118000E980FA800B811C81C301B2010E94830CAB
:101190006B017C0109851A851195019511096091F2
:1011A000AC017091AD01882777FD8095982F0E9442
:1011B000260E2B013C01A50194016D817E818F815A
:1011C00098850E94130F9B01AC01C301B2010E94DC
:1011D000200D0E94F30DDC01CB0149855A85B80131
:1011E0000E94B80C9093AD018093AC013092AF0196
:1011F0002092AE01C701B6010E94F30DCB012E96DD
:101200000FB6F894DEBF0FBECDBFDF91CF911F9117
:101210000F91FF90EF90DF90CF90BF90AF909F9095
:101220008F907F906F905F904F903F902F90089598
:10123000811124C0BA0157FF03C0719561957109EE
:10124000882777FD8095982F0E94260E9B01AC0180
:1012500060E070E084EB92E40E941F0D20E030E03B
:101260004FE254E40E94130F20E030E044EB52E4DC
:101270000E948B0D0E94F30DCB01089580E090E059
:10128000089584B1806B84B980E58CBD809127007E
:1012900080628093270080912700806180932700DF
:1012A00080912700886080932700809127008460C8
:1012B0008093270080912A00806180932A0080918A
:1012C00027008064809327008091280080628093AB
:1012D0002800809128008061809328008091280058
:1012E0008860809328008091280084608093280083
:1012F00080912B00806180932B0080912800806476
:101300008093280008958EBD0DB407FEFDCF8EB5E5
:1013100008959B01AC0184E0220F331F441F551F29
:101320008A95D1F760E070E489E191E00E94E20FD4
:10133000215031093093CD002093CC0088E1809377
:10134000C90086E08093CA0008959091C80095FF77
:10135000FCCF8093CE0008958091C80087FFFCCF1A
:101360008091CE000895CF92DF92EF92FF920F937B
:101370001F93CF93DF9300D000D0CDB7DEB7D82E28
:10138000A0915501B09156019A01AB010E94DA0F6C
:101390002091670130916801442737FD4095542F13
:1013A0000E940410EE24E394F12C1216130614F09C
:1013B000E12CF12C1F928BE08F9301E711E01F933A
:1013C0000F9329833A834B835C830E947A11DD0C4F
:1013D000CC24C394CD0C1F928EE08F931F930F9358
:1013E0000E947A110FB6F894DEBF0FBECDBF2981DF
:1013F0003A814B815C81E114F10419F460E070E002
:1014000001C0B9018D2D90E029833A834B835C8321
:101410000E9429071F9280E18F9361E771E07F931B
:101420006F930E947A110F900F900F900F90298167
:101430003A81EF2829F466277727621B730B02C0D5
:1014400060E070E08C2D90E00E9429071F9282E1FD
:101450008F9381E791E09F938F930E947A110F9071
:101460000F900F900F900F900F900F900F90DF91B3
:10147000CF911F910F91FF90EF90DF90CF90089543
:1014800090E00E94E6069C01A8E8B3E10E94C00F2C
:101490002FEF33E040E050E00E9404102C583A4017
:1014A00041095109C90108954F925F926F927F924D
:1014B0008F929F92AF92BF92CF92DF92EF92FF9264
:1014C0001F93CF93DF93CDB7DEB72C970FB6F89469
:1014D000DEBF0FBECDBF7B01BC01882777FD8095A5
:1014E000982F0E94260E2BED3FE049E450E40E9425
:1014F000130F20E030E044E353E40E948B0D4B01D6
:101500005C01B701882777FD8095982F0E94260EF1
:101510002BED3FE049E450E40E94130F20E030E05F
:1015200044E353E40E948B0D9B01AC01C501B4015F
:101530000E94200D6B017C010E94760F2B013C0163
:10154000C701B6010E94880D6B017C01C501B40181
:101550000E94760F9B01AC01C501B40129873A872F
:101560004B875C870E94880D4B015C0129853A8579
:101570004B855C85C301B2010E94200D20E030E064
:1015800040EC50E40E94130F162FAB01BC014983BD
:101590005A836B837C83A5019401C701B6010E9425
:1015A000200D20E030E040EC50E40E94130F2AE0D0
:1015B00037ED43EB50E40E94200DE62F462F572FC6
:1015C000BC014D835E836F837887212F3A814B81E5
:1015D0005C816E2F7E818F8198852C960FB6F89452
:1015E000DEBF0FBECDBFDF91CF911F91FF90EF9077
:1015F000DF90CF90BF90AF909F908F907F906F9033
:101600005F904F9008950E94E60660916B01709183
:101610006C01680F791F882777FD8095982F0E94AD
:10162000260E20916D0130916E0140916F01509115
:1016300070010E94130F0E94F30DCB0108950E94C8
:10164000E6062091690130916A01AC01429FC00118
:10165000439F900D529F900D112408950F931F9357
:10166000CF93DF938C01EB01F894A2E1B0E00E94EC
:10167000CF0F28EE33E040E050E00E94E20F21500F
:1016800031094109510901301105B1F0023011054C
:1016900031F1012BB9F5CE0146E0880F991F4A952B
:1016A000E1F7C82BC4BD85E085BD27BD80916E00E4
:1016B000826080936E0026C0C295CC0FCC0FC07C98
:1016C000C09380008DE08093810030938900209347
:1016D000880080916F00826080936F0013C0CE01FC
:1016E00036E0880F991F3A95E1F7C82BC093B000F8
:1016F00085E08093B1002093B300809170008260F8
:10170000809370007894DF91CF911F910F9108958D
:101710008130910539F08230910549F0892B59F4D7
:1017200086B507C0809184009091850008958091CE
:10173000B20090E0089580E090E00895813051F08B
:1017400018F0823079F00895249A81E684BD8DE006
:1017500085BD0895549A83EA8093800085E1809343
:1017600081000895569A81E68093B0008DE08093C1
:10177000B1000895813039F018F0823069F0089591
:1017800067BD48BD089570938900609388005093A9
:101790008B0040938A0008956093B3004093B40097
:1017A0000895CF93C82FA2E1B0E09A01AB010E9447
:1017B000CF0F28EE33E040E050E00E94E20F2150CE
:1017C000310941095109C13041F028F0C23049F4D2
:1017D0002093B30006C027BD04C030938900209336
:1017E0008800CF910895813049F018F0823059F087
:1017F00008957093B5016093B40108957093B30197
:101800006093B20108957093B1016093B00108959F
:101810001F920F920FB60F9211242F933F934F9365
:101820005F936F937F938F939F93AF93BF93EF9348
:10183000FF93E091B401F091B501309709F009955B
:10184000FF91EF91BF91AF919F918F917F916F9198
:101850005F914F913F912F910F900FBE0F901F906E
:1018600018951F920F920FB60F9211242F933F934A
:101870004F935F936F937F938F939F93AF93BF9398
:10188000EF93FF93E091B201F091B301309709F02B
:101890000995FF91EF91BF91AF919F918F917F91AA
:1018A0006F915F914F913F912F910F900FBE0F90CD
:1018B0001F9018951F920F920FB60F9211242F931D
:1018C0003F934F935F936F937F938F939F93AF93C8
:1018D000BF93EF93FF93E091B001F091B101309786
:1018E00009F00995FF91EF91BF91AF919F918F9171
:1018F0007F916F915F914F913F912F910F900FBE0C
:101900000F901F9018958F929F92AF92BF92CF9297
:10191000DF92EF92FF920F931F93CF93DF936B01B0
:10192000D82FC92F49015A010E94840D87FD0DC08F
:101930009701A801B6018D2F9C2F0E940F0F18163A
:101940003CF46701D02FC12F03C06401DA2DCB2DE9
:10195000B6018D2F9C2FDF91CF911F910F91FF909A
:10196000EF90DF90CF90BF90AF909F908F900895B1
:10197000861797072CF0481759071CF4CA010895D9
:10198000CB0108959B01AC0184E0220F331F441F5B
:10199000551F8A95D1F760E070E489E191E00E94DB
:1019A000E20F215031093093C5002093C40088E133
:1019B0008093C10086E08093C20008959091C0009A
:1019C00095FFFCCF8093C6000895CF93DF93EC0181
:1019D0008991882319F00E94DE0CFACFDF91CF9114
:1019E00008950F931F93CF93DF93CDB7DEB764971E
:1019F0000FB6F894DEBF0FBECDBF7F936F939F935A
:101A00008F9388E891E09F938F938E010F5F1F4F14
:101A10001F930F930E94BB11C8010E94E50C0FB6E3
:101A2000F894DEBF0FBECDBF64960FB6F894DEBF4C
:101A30000FBECDBFDF91CF911F910F9108955058E8
:101A4000BB27AA270ED0A0C169D130F06ED120F0FB
:101A500031F49F3F11F41EF45EC10EF4E095E7FBF4
:101A600054C1E92FB3D180F3BA1762077307840713
:101A7000950718F071F49EF5CBC10EF4E0950B2E8E
:101A8000BA2FA02D0B01B90190010C01CA01A001D0
:101A90001124FF27591B99F0593F50F4503E68F12B
:101AA0001A16F040A22F232F342F4427585FF3CF6C
:101AB000469537952795A795F0405395C9F77EF43D
:101AC0001F16BA0B620B730B840BBAF09150A1F086
:101AD000FF0FBB1F661F771F881FC2F70EC0BA0F0C
:101AE000621F731F841F48F4879577956795B79594
:101AF000F7959E3F08F0B3CF9395880F08F099278C
:101B0000EE0F979587950895DCD008F481E008954D
:101B100014D1E3954AC10CD037C107D140F0FED0B3
:101B200030F021F45F3F19F0F0C0511172C1F3C0E1
:101B30004DD198F39923C9F35523B1F3951B550B58
:101B4000BB27AA2762177307840738F09F5F5F4F90
:101B5000220F331F441FAA1FA9F333D00E2E3AF0D1
:101B6000E0E830D091505040E695001CCAF729D0EB
:101B7000FE2F27D0660F771F881FBB1F261737073A
:101B80004807AB07B0E809F0BB0B802DBF01FF276A
:101B900093585F4F2AF09E3F510568F0B6C039C197
:101BA0005F3FECF3983EDCF3869577956795B795A4
:101BB000F7959F5FC9F7880F911D9695879597F9BF
:101BC0000895E1E0660F771F881FBB1F6217730738
:101BD0008407BA0720F0621B730B840BBA0BEE1F4D
:101BE00088F7E095089504D06894B11112C1089562
:101BF000F5D088F09F5790F0B92F9927B751A0F0F2
:101C0000D1F0660F771F881F991F1AF0BA95C9F790
:101C100012C0B13081F0FCD0B1E00895F9C0672F57
:101C2000782F8827B85F39F0B93FCCF38695779540
:101C30006795B395D9F73EF4909580957095619529
:101C40007F4F8F4F9F4F0895E89409C097FB3EF454
:101C500090958095709561957F4F8F4F9F4F9923F9
:101C6000A9F0F92F96E9BB279395F6958795779577
:101C70006795B795F111F8CFFAF4BB0F11F460FF37
:101C80001BC06F5F7F4F8F4F9F4F16C0882311F08F
:101C900096E911C0772321F09EE8872F762F05C0A3
:101CA000662371F096E8862F70E060E02AF09A953E
:101CB000660F771F881FDAF7880F9695879597F933
:101CC0000895990F0008550FAA0BE0E8FEEF1616CD
:101CD0001706E807F907C0F012161306E407F50720
:101CE00098F0621B730B840B950B39F40A2661F094
:101CF000232B242B252B21F408950A2609F4A14037
:101D0000A6958FEF811D811D089597F99F6780E843
:101D100070E060E008959FEF80EC089500240A943D
:101D20001616170618060906089500240A941216B6
:101D30001306140605060895EECF50D0E8F3E89494
:101D4000E0E0BB279F57F0F02AED3FE049EC06C0EA
:101D5000EE0FBB0F661F771F881F28F0B23A62078D
:101D60007307840728F0B25A620B730B840BE39558
:101D70009A9572F7803830F49A95BB0F661F771FDB
:101D8000881FD2F79048BAC0092E0394000C11F4B2
:101D9000882352F0BB0F40F4BF2B11F460FF04C046
:101DA0006F5F7F4F8F4F9F4F0895EF93E0FF06C007
:101DB000A2EA2AED3FE049EC5FEB53DEE5DF0F904E
:101DC000039401FC9058ECE7F0E0A4C057FD905854
:101DD000440F551F59F05F3F71F04795880F97FBEF
:101DE000991F61F09F3F79F08795089512161306A9
:101DF0001406551FF2CF4695F1DF08C016161706D8
:101E00001806991FF1CF869571056105089408950C
:101E1000E894BB2766277727CB0197F9089551DF10
:101E200008F48FEF08950BD0AFCF78DF28F07DDF77
:101E300018F0952309F069CF6ECF1124EACFC6DFE1
:101E4000A0F3959FD1F3950F50E0551F629FF001CD
:101E5000729FBB27F00DB11D639FAA27F00DB11D26
:101E6000AA1F649F6627B00DA11D661F829F2227AF
:101E7000B00DA11D621F739FB00DA11D621F839F36
:101E8000A00D611D221F749F3327A00D611D231F0C
:101E9000849F600D211D822F762F6A2F11249F575A
:101EA00050408AF0E1F088234AF0EE0FFF1FBB1F7D
:101EB000661F771F881F91505040A9F79E3F51051C
:101EC00070F023CFA6CF5F3FECF3983EDCF386950E
:101ED00077956795B795F795E7959F5FC1F7FE2BC7
:101EE000880F911D9695879597F908959F9325DF03
:101EF0000F9007FCEE5F59CF9F3F31F0915020F4D7
:101F0000879577956795B795880F911D96958795D5
:101F100097F908959F938F937F936F93FF93EF9318
:101F20009B01AC0180DFEF91FF9105D02F913F9194
:101F30004F915F9178CFDF93CF931F930F93FF92D1
:101F4000EF92DF927B018C01689405C0DA2EEF01DD
:101F500076DFFE01E894A591259135914591559143
:101F6000AEF3EF017EDDFE019701A801DA9479F767
:101F7000DF90EF90FF900F911F91CF91DF91089527
:101F8000A29FB001B39FC001A39F700D811D1124BA
:101F9000911DB29F700D811D1124911D08950E9405
:101FA000C00FA59F900DB49F900DA49F800D911D13
:101FB00011240895B7FF0C94CF0F0E94CF0F821BFE
:101FC000930B0895A1E21A2EAA1BBB1BFD010DC0A5
:101FD000AA1FBB1FEE1FFF1FA217B307E407F507D9
:101FE00020F0A21BB30BE40BF50B661F771F881FB5
:101FF000991F1A9469F760957095809590959B014B
:10200000AC01BD01CF010895052E97FB1EF400948D
:102010000E941B1057FD07D00E94E20F07FC03D05F
:102020004EF40C941B1050954095309521953F4FE0
:102030004F4F5F4F089590958095709561957F4FB4
:102040008F4F9F4F08952F923F924F925F926F92C2
:102050007F928F929F92AF92BF92CF92DF92EF9238
:10206000FF920F931F93CF93DF93CDB7DEB7CA1BB9
:10207000DB0B0FB6F894DEBF0FBECDBF09942A88E4
:10208000398848885F846E847D848C849B84AA848C
:10209000B984C884DF80EE80FD800C811B81AA8119
:1020A000B981CE0FD11D0FB6F894DEBF0FBECDBFE4
:1020B000ED010895283008F027E03327DA01990F61
:1020C000311D87FD916000966105710539F432601C
:1020D0002E5F3D9330E32A95E1F708959F3F30F05E
:1020E00080387105610509F03C5F3C5F3D9391309C
:1020F00008F08068911DDF93CF931F930F93FF9299
:10210000EF92192F987F9695E92F96959695E90F5E
:10211000FF27E450FF4F99273327EE24FF24A70120
:10212000E70105900894079428F4360FE71EF81E7F
:10213000491F511D660F771F881F991F0694A1F72D
:102140000590079428F4E70EF81E491F561FC11D7D
:10215000770F881F991F661F0694A1F705900794B3
:1021600028F4F80E491F561FC71FD11D880F991F4D
:10217000661F771F0694A1F70590079420F4490F76
:10218000561FC71FD81F990F661F771F881F0694F9
:10219000A9F784911095177041F0D695C79557957A
:1021A0004795F794E7941A95C1F7E2EAF0E068944E
:1021B0001590159135916591959105907FE27395F4
:1021C000E118F10A430B560BC90BD009C0F7E10C1B
:1021D000F11E431F561FC91FD01D7EF4703311F42A
:1021E0008A95E6CFE894015030F0080F0AF40027F2
:1021F000021708F4202F2395022F7A3328F079E371
:102200007D932A95E9F710C07D932A9589F6069467
:1022100097956795379517951794E118F10A430B31
:10222000560BC90BD00998F023957E9173957A339C
:1022300008F070E37C932013B8F77E9170617D9372
:1022400030F0839571E37D9370E32A95E1F71124D3
:10225000EF90FF900F911F91CF91DF91992787FD0C
:1022600090950895FC010590615070400110D8F7D9
:10227000809590958E0F9F1F0895FC0161507040CE
:1022800001900110D8F7809590958E0F9F1F0895AB
:102290000F931F93CF93DF93182F092FEB018B819F
:1022A00081FD03C08FEF9FEF20C082FF10C04E81E1
:1022B0005F812C813D81421753077CF4E881F981CD
:1022C0009F012F5F3F4F39832883108306C0E88525
:1022D000F985812F0995892B29F72E813F812F5F61
:1022E0003F4F3F832E83812F902FDF91CF911F91FE
:1022F0000F910895A0E0B0E0E0E8F1E10C94331014
:10230000FE01359661917191AF018091D00190915C
:10231000D1010E94ED00E2E00C944F100F931F9347
:10232000CF93DF93E091D001F091D101238121FF80
:102330001BC0EC0100E010E089916091D001709128
:10234000D101DB011896ED91FC911997882331F0AA
:102350000995892B89F30FEF1FEFEECF8AE00995DE
:10236000892B11F4C80102C08FEF9FEFDF91CF914D
:102370001F910F910895AEE0B0E0E1ECF1E10C9413
:1023800031100D891E8986E08C831A8309838FEFB3
:102390009FE79E838D83AE01475E5F4F6F89788D87
:1023A000CE0101960E94ED00EF81F885E00FF11F4C
:1023B00010822E96E4E00C944D10FA01AA272830E2
:1023C00051F1203181F1E8946F936E7F6E5F7F4F02
:1023D0008F4F9F4FAF4FB1E03ED0B4E03CD0670F7E
:1023E000781F891F9A1FA11D680F791F8A1F911DD1
:1023F000A11D6A0F711D811D911DA11D20D009F421
:1024000068943F912AE0269F11243019305D319362
:10241000DEF6CF010895462F4770405D4193B3E04B
:102420000FD0C9F7F6CF462F4F70405D4A3318F0F2
:10243000495D31FD4052419302D0A9F7EACFB4E0A3
:10244000A6959795879577956795BA95C9F700975B
:102450006105710508959B01AC010A2E06945795FC
:10246000479537952795BA95C9F7620F731F841F53
:0A247000951FA01D0895F894FFCFFA
:10247A0000000002000000009A0700000000256426
:10248A002025640A00732025642C20702025642CE2
:10249A006D20256C642C20632025640A00256420A5
:1024AA0025642025322E32662025322E32660A0015
:1024BA0048454C4C4F2E00496E2073657444414385
:1024CA002025640A0088088FC2753D6666A640000A
:1024DA008039440AD7233C401F040094FD800569D3
:1024EA003E496E20736574206D6F746F7220766F2B
:1024FA006C74732025640A00536574736572766F71
:0C250A002825642C25303364290A0D00BC
:00000001FF
