:100000000C94F9000C9416010C9416010C94160132
:100010000C9416010C9416010C9416010C94160104
:100020000C9416010C94B3110C9416010C94160147
:100030000C9416010C948A110C9416010C94160160
:100040000C9461110C9416010C9416010C94160179
:100050000C9416010C9416010C9416010C941601C4
:100060000C9434090C9416010C9416010C9416018E
:100070000C9416010C9416010C941601084AD73BF7
:100080003BCE016E84BCBFFDC12F3D6C74319ABD67
:1000900056833DDA3D00C77F11BED9E4BB4C3E918B
:1000A0006BAAAABE000000803F072C7AA5BA6CC5D7
:1000B00090DA3B9365FC8BBC53F810FD3C56928361
:1000C0004DBD879D3AB63DCBC9BF5BBE73DA0FC944
:1000D0003F05A84CCDB2D44EB93836A9020C50B960
:1000E000918688083CA6AAAA2ABE000000803F6E1E
:1000F000616E00696E660000407A10F35A00A072CB
:100100004E18090010A5D4E80000E8764817000052
:10011000E40B54020000CA9A3B000000E1F5050020
:100120000080969800000040420F000000A0860169
:10013000000000102700000000E803000000006439
:1001400000000000000A00000000000100000000A4
:10015000002C76D888DC674F0823DFC1DFAE59E179
:10016000B1B796E5E3E453C63AE651997696E8E6E8
:10017000C28426EB898C9B62ED407C6FFCEFBC9CBB
:100180009F40F2BAA56FA5F490055A2AF75C936BCD
:100190006CF9676DC11BFCE0E40D47FEF520E6B588
:1001A00000D0ED902E0300943577050080841E0862
:1001B0000000204E0A000000C80C333333330F9880
:1001C0006E12831141EF8D2114893BE65516CFFE47
:1001D000E6DB18D1844B381BF77C1D901DA4BBE4D3
:1001E00024203284725E228100C9F124ECA1E53D15
:1001F000270011241FBECFEFD0E1DEBFCDBF11E03D
:10020000A0E0B1E0EEE5F1E302C005900D92A43C60
:10021000B107D9F712E0A4ECB1E001C01D92A13101
:10022000B107E1F70E94A5080C94AD180C940000EA
:10023000A3E1B0E0EEE1F1E00C9481167C011B013A
:100240006A01FC0117821682838181FF66C3BE01A9
:100250006F5F7F4F4B01F7019381F10193FD859112
:1002600093FF81911F01882309F453C3853239F428
:1002700093FD859193FF81911F01853239F4B70178
:1002800090E00E94BA1756016501E5CF10E0512CAD
:1002900020E02032A0F48B3269F030F4803259F043
:1002A000833269F420612CC08D3239F0803339F407
:1002B000216026C02260246023C0286021C027FD61
:1002C00027C030ED380F3A3078F426FF06C0FAE048
:1002D0001F9F300D1124132F13C06AE0569E300D5E
:1002E0001124532E20620CC08E3221F426FD11C33E
:1002F000206406C08C3611F4206802C0883641F4B0
:10030000F10193FD859193FF81911F018111C1CF6F
:100310009BEB980F933018F42061805E06C09BE938
:10032000980F933008F0AAC12F7E26FF16E02F7396
:10033000722E853621F4F22FF0647F2E08C08636A7
:1003400021F4622F6068762E02C01111115077FEE1
:1003500007C01C3348F444244394410E27E00BC0EB
:10036000183030F4212F06C027E04CE3442E03C0A0
:1003700027E017E0412C560174E0A70EB11CF601EE
:100380006081718182819381042DA4010E94CC1629
:100390006C01098100FF02C003FF06C071FC07C0A9
:1003A00072FC08C0612C08C03DE2632E05C02BE240
:1003B000622E02C090E2692E802F8C7099F1662027
:1003C00011F084E001C083E0851510F0512C0BC0C2
:1003D000581A73FC08C0B70180E290E00E94BA1777
:1003E0005A94C9F7F3CF662029F0B701862D90E023
:1003F0000E94BA1703FD03C003EF10E002C00FEE26
:1004000010E0F72DF0717F2EF8018491882309F414
:1004100076C271108052B70190E00E94BA170F5F48
:100420001F4FF2CF77FE0FC04C0C04FF04C08A812F
:10043000813309F44A94141474F5F8E0F41578F54E
:1004400088E0482E2CC076FC2AC0812F90E08C15C5
:100450009D059CF06CEFC6166FEFD60674F0772DF5
:100460007068772E0AC0E2E0F0E0EC0FFD1FE10FAC
:10047000F11D8081803319F411501111F4CF77FEF2
:100480000EC044244394410E812F90E0C816D90633
:100490002CF41C1904C04424439401C010E077FEDE
:1004A00007C01C141D043CF496012F5F3F4F05C08C
:1004B00025E030E002C021E030E0662011F02F5F3F
:1004C0003F4F112331F0412F50E04F5F5F4F240F1A
:1004D000351F452D50E02417350714F4521A01C07A
:1004E000512C872D897049F4552039F0B70180E2ED
:1004F00090E00E94BA175A94F7CF662029F0B7010E
:10050000862D90E00E94BA1773FC09C0552039F07F
:10051000B70180E390E00E94BA175A94F7CF77FEB4
:100520005FC09C2D8D2DD7FE02C090E080E0692E2B
:10053000782E40E050E0C601841991099D878C8790
:10054000960126193709280D391D812F90E0EE27D5
:10055000FF27E81BF90BFF87EE87FFEF6F167F067B
:1005600069F4B7018EE290E02B8B3A8B488B598B64
:100570000E94BA17598948893A892B89C614D70429
:1005800054F06C857D85661577052CF4F901E40F30
:10059000F51F818101C080E371E0671A71084F5F28
:1005A0005F4FEE85FF856E167F066CF0B70190E019
:1005B0002B8B3A8B488B598B0E94BA172B893A891F
:1005C00048895989CACF6C147D0439F49A819633CD
:1005D00018F4953311F404FF81E3B70190E04BC0A8
:1005E0008A81813309F00F7EB70190E00E94BA172B
:1005F000111105C074FE18C085E490E017C0B70162
:100600008EE290E00E94BA1782E066246394680E3E
:10061000F401E80FF11D8081B70190E00E94BA1744
:10062000115041F3862DF1CF85E690E0B7010E948D
:10063000BA17D7FC05C0C114D10439F404FF05C0B2
:10064000D194C194D1088DE201C08BE2B70190E052
:100650000E94BA1780E36AE0C616D1042CF08F5FBF
:10066000FAE0CF1AD108F7CFB70190E00E94BA178D
:10067000B701C601C0960E94BA1741C1833631F056
:10068000833779F0833509F058C021C0560172E0F4
:10069000A70EB11CF6018081898301E010E064019E
:1006A00014C05601F2E0AF0EB11CF601C080D1803B
:1006B00026FF03C0612F70E002C06FEF7FEFC6011D
:1006C0002B8B0E94AF178C012B892F7715C05601F9
:1006D000F2E0AF0EB11CF601C080D18026FF03C04E
:1006E000612F70E002C06FEF7FEFC6012B8B0E947D
:1006F000A4178C012B892068722E23FD1AC0852D2A
:1007000090E008171907A8F4B70180E290E00E9472
:10071000BA175A94F4CFF60177FC859177FE819150
:100720006F01B70190E00E94BA1751105A9401501E
:1007300011090115110579F7E2C0843611F08936E7
:1007400051F5560127FF09C0F4E0AF0EB11CF601C8
:1007500060817181828193810AC0F2E0AF0EB11C89
:10076000F60160817181882777FD8095982F022F8F
:100770000F7697FF08C090958095709561957F4F93
:100780008F4F9F4F00682AE030E0A4010E944F186D
:10079000C82EC8183EC0022F853721F40F7E2AE0EC
:1007A00030E01DC0097F8F3691F018F4883559F07C
:1007B000B0C0803719F0883711F0ABC0006104FF7A
:1007C00009C0046007C024FF08C0066006C028E016
:1007D00030E005C020E130E002C020E132E0560107
:1007E00007FF09C0F4E0AF0EB11CF6016081718112
:1007F0008281938108C0F2E0AF0EB11CF6016081E6
:10080000718180E090E0A4010E944F18C82EC818A2
:100810000F7706FF0BC0202F2E7FC11650F404FF68
:100820000AC002FD08C0202F2E7E05C0DC2C202F20
:1008300003C0DC2C01C0D12E24FF0DC0FE01EC0D45
:10084000F11D8081803311F4297E09C022FF06C08A
:10085000D394D39404C0822F867809F0D39423FDD7
:1008600013C020FF06C01C2DD51418F4150D1D193A
:10087000D52CD51468F4B70180E290E02B8B0E9450
:10088000BA17D3942B89F5CFD51410F45D1801C095
:10089000512C24FF12C0B70180E390E02B8B0E9403
:1008A000BA172B8922FF17C021FF03C088E590E00B
:1008B00002C088E790E0B7010CC0822F867859F01B
:1008C00021FD02C080E201C08BE227FD8DE2B7016D
:1008D00090E00E94BA17C11638F4B70180E390E0A7
:1008E0000E94BA171150F7CFCA94F401EC0DF11D14
:1008F0008081B70190E00E94BA17C110F5CF552052
:1009000009F4C2CCB70180E290E00E94BA175A9471
:10091000F6CFF7018681978102C08FEF9FEF639634
:10092000E2E10C949D160F931F93CF93DF93C0E0E9
:10093000D0E00FEF1FE0BE0180E090E00E945D0973
:10094000B8016C1B7D0B81E090E00E945D09609610
:10095000C11580E1D80779F7CFEFDFE000E010E1C3
:10096000BE0180E090E00E945D09B8016C1B7D0B28
:1009700081E090E00E945D096097CF3F8FEFD8073C
:1009800079F7DF91CF911F910F91089584E090E066
:100990000E941A09BC01882777FD8095982F0E9434
:1009A000EF1320E030E04AEF55E40E94231520E0E9
:1009B00030E040E05FE30E94231520E030EC4FE799
:1009C00054E40E945413089585E090E00E941A09AF
:1009D000BC01882777FD8095982F0E94EF132DEC9E
:1009E0003CEC4CEC5DE30E942315089586E090E01A
:1009F0000E941A09BC01882777FD8095982F0E94D4
:100A0000EF1327E137EB41ED58E30E9423150895DA
:100A1000AF92BF92CF92DF92EF92FF920F931F930C
:100A2000CF93DF9300D000D01F92CDB7DEB7809177
:100A3000C8019091C90101969093C9018093C801A2
:100A40001092F00183E090E00E945C10D82EC92E35
:100A500082E090E00E945C10B82EA92E8091F001F7
:100A6000813009F42AC170F1823009F484C18330E5
:100A700009F0A3C184E090E00E941A09BC0180E063
:100A800090E00E94ED132AE939E949E15FE30E9411
:100A9000231520E030E046E953E40E9486120E94CC
:100AA000BC137093D5016093D40185E090E00E945F
:100AB0001A0996958795885C91099093D301809344
:100AC000D2017BC18091C8019091C9018D329140C2
:100AD00044F48091C8019091C901843691050CF0CD
:100AE00053C08091C8019091C9018D32914024F08A
:100AF0001092C9011092C8018091C8019091C9015A
:100B00006AE070E00E942C16892B09F056C12091F2
:100B1000C8013091C9014CEE4203B001439F700DF2
:100B20001124882777FD8095982F0E94EF1320E0ED
:100B300030E048EC52E40E94541320E030E040E7FB
:100B400053E40E9487120E94BC137093D5016093F6
:100B5000D4012091C8013091C90148ED4203B00190
:100B6000439F700D1124882777FD8095982F0E9450
:100B7000EF1320E030E048EC52E40E94541320E0F0
:100B800030E040E252E452C08091C8019091C90126
:100B9000883C91050CF455C08091C8019091C90121
:100BA0006AE070E00E942C16892B09F006C12091A2
:100BB000C8013091C901285C31094CEE4203B001F3
:100BC000439F700D1124882777FD8095982F0E94F0
:100BD000EF1320E030E048EC52E40E94541320E090
:100BE00030E042E853E40E9487120E94BC137093E5
:100BF000D5016093D4018091C8019091C901885CAE
:100C0000910928E2289FB001299F700D112488279F
:100C100077FD8095982F0E94EF1320E030E048EC9C
:100C200052E40E94541320E030E0A9010E94871290
:100C30000E94BC137093D3016093D201EE24E3941D
:100C4000BDC08091C8019091C901843691050CF412
:100C5000B4C08091C8019091C9016AE070E00E941F
:100C60002C16892B09F0A9C08091C8019091C90167
:100C70008456910928E2289FB001299F700D112404
:100C8000882777FD8095982F0E94EF1320E030E0B1
:100C900048EC52E40E94541320E030E04CE553E469
:100CA0000E9487120E94BC137093D5016093D401F7
:100CB0008091C8019091C9011FC08091C801909195
:100CC000C9018D3291403CF48091C8019091C901D5
:100CD00084369105B4F48091C8019091C9018D3298
:100CE000914024F01092C9011092C8018CED90E05F
:100CF0009093D5018093D4011092D3011092D20128
:100D00009DCF8091C8019091C901883C9105B4F0B4
:100D100080EF90E09093D5018093D40188E290E039
:100D20009093D3018093D2018091C8019091C90121
:100D300021E0F12C883C9105D9F41BC08091C801B9
:100D40009091C90184369105C4F184E091E09093BB
:100D5000D5018093D4011092D3011092D2018091D9
:100D6000C8019091C90121E0F12C8436910509F068
:100D700020E0E22E24C083B181FBEE24E0F8F12CC8
:100D800028E22E9DC0012F9D900D112484529F4F6B
:100D90009093D5018093D40183B182FB002700F9A1
:100DA00010E022E3209FC001219F900D1124909319
:100DB000D3018093D201E12C02C0E12CF12C60918F
:100DC000D2017091D3010091D4011091D5018827EF
:100DD00077FD8095982F0E94EF1320917D0130912F
:100DE0007E0140917F01509180010E9487120E94F4
:100DF000BC1388279927801B910B0E94760D2983AD
:100E00003A834B835C836D83662361F089819A8189
:100E10009093C7018093C6018B819C819093C501FB
:100E20008093C4016091C6017091C70197014D2D57
:100E30005C2D81E00E94FE09AA2797FDA095BA2F9C
:100E40008093CE019093CF01A093D001B093D101B4
:100E50006091C4017091C50197014B2D5A2D80E01E
:100E60000E94FE09919581959109AA2797FDA09569
:100E7000BA2F8093CA019093CB01A093CC01B09379
:100E8000CD010091A3011091A401EE24FF24E01AEA
:100E9000F10A8091CE019091CF01A091D001B09143
:100EA000D101A801B7010E941112AA2797FDA095B0
:100EB000BA2F8093CE019093CF01A093D001B0932D
:100EC000D1018091CA019091CB01A091CC01B09148
:100ED000CD01A801B7010E941112AA2797FDA09584
:100EE000BA2F8093CA019093CB01A093CC01B09309
:100EF000CD014091CA015091CB016091CC0170911C
:100F0000CD0180E00E940D0C4091CE015091CF01A7
:100F10006091D0017091D10181E00E940D0C6B2D88
:100F20007A2D8D2D9C2D0E946F0C4091D2015091F5
:100F3000D3012091D4013091D5015F934F933F931A
:100F40002F939F938F937F936F93AF92BF92CF9284
:100F5000DF9283E191E09F938F930E94EC170FB68D
:100F6000F894DEBF0FBECDBF0F900F900F900F9083
:100F70000F90DF91CF911F910F91FF90EF90DF9035
:100F8000CF90BF90AF9008950F931F93CF93DF93AF
:100F900083E090E00E945C10EC0182E090E00E940F
:100FA0005C10182F092F682F792FCE010E946F0C2B
:100FB0009F938F937F936F930F931F93DF93CF93A1
:100FC00089E191E09F938F930E94EC178DB79EB7B4
:100FD0000A960FB6F8949EBF0FBE8DBFDF91CF91DA
:100FE0001F910F910895EF92FF920F931F93CF934C
:100FF000DF93E090A301F090A401CC27DD27CE1968
:10100000DF0906E211E0CE15DF05CCF48CEC91E0AF
:101010000197F1F700C0000080E00E945B0C9F93F5
:101020008F93DF93CF931F930F930E94EC172A9611
:101030000F900F900F900F900F900F90E4CFDF91D3
:10104000CF911F910F91FF90EF9008950E94B009EA
:1010500060E072EC81E090E00E94E30B0E948A0B5A
:1010600040E050E061E070E082E090E00E94C6085D
:1010700084B1897F84B91092D5011092D4018CE299
:1010800091E09093D3018093D2010895EF92FF9263
:101090000F931F93CF93DF93CDB7DEB729970FB68A
:1010A000F894DEBF0FBECDBF182F092FF62EE72E06
:1010B0000E94760D1F926F935F934F933F932F93F0
:1010C000EF92FF920F931F93EEE2F1E0FF93EF9305
:1010D0002E833F83488759870E94EC174885642FE9
:1010E0005985752F2E81822F3F81932F0E946F0C7F
:1010F000162F072FBC01882777FD8095982F0E9417
:10110000EF132DE73FEB4EE053E40E9486120E945E
:10111000BC137F936F930F931F938AE491E09F9387
:101120008F930E94EC170FB6F894DEBF0FBECDBFB1
:1011300029960FB6F894DEBF0FBECDBFDF91CF91D9
:101140001F910F91FF90EF9008950E9426088EE561
:1011500091E00E9400180E94480F6CE370E080E06C
:1011600090E00E94460866E970E080E090E00E940E
:1011700046086CE271E080E090E00E94460868EC6E
:1011800070E084E690E00E944608FFCFF894883033
:10119000910594F591B121E030E0082E01C0220FB5
:1011A0000A94EAF72095292321B9806480937C0072
:1011B00020917A002760CB0135E0880F991F3A957E
:1011C000E1F78068E3E0440F551FEA95E1F7842BCF
:1011D000282B20937A006115710519F480917B000A
:1011E00001C080E080937B00672B29F080917A001A
:1011F000806480937A0078940895EAE7F0E0808133
:101200008F778083109279001092780008958091F2
:1012100078009091790008958830910554F4909168
:101220007C00907E90937C0090917C00982B909312
:101230007C00089520917A002F7D20937A000E94EF
:101240000C0980917A00806480937A0080917A0002
:1012500086FDFCCF8091780090917900089590935D
:10126000D7018093D60108951F920F920FB60F9267
:1012700011242F933F934F935F936F937F938F939B
:101280009F93AF93BF93EF93FF93E091D601F091BB
:10129000D701309709F00995FF91EF91BF91AF9178
:1012A0009F918F917F916F915F914F913F912F917E
:1012B0000F900FBE0F901F901895CF93DF93EB0107
:1012C00085309105D0F490912B009F7E90932B0058
:1012D00080630E94DD0BCE0124E0959587952A95C9
:1012E000E1F70E94DD0B8C2F8295807F0E94DD0B41
:1012F00080912B00806180932B00DF91CF91089526
:1013000080912B008F7E80932B008FE40E94DD0B59
:1013100080E00E94DD0B80E00E94DD0B80912B00BD
:10132000806180932B0086E08A95F1F70000809120
:101330002B008F7E80932B008FE10E94DD0B80E0DD
:101340000E94DD0B80E00E94DD0B80912B0080610C
:1013500080932B0008950E94FF0B80E090E0089599
:1013600080E091E090930E0280930D0260E072ECB9
:1013700081E090E00C941B12CF92DF92EF92FF92EB
:101380000F931F938823D9F0813089F54093FF0193
:1013900050930002609301027093020200930302D3
:1013A000109304022093050230930602C0920702B4
:1013B000D0920802E0920902F0920A0218C040930B
:1013C000F3015093F4016093F5017093F6010093DB
:1013D000F7011093F8012093F9013093FA01C092BC
:1013E000FB01D092FC01E092FD01F092FE011F9101
:1013F0000F91FF90EF90DF90CF9008952F923F9242
:101400004F925F926F927F928F929F92AF92BF9214
:10141000CF92DF92EF92FF920F931F93CF93DF93C0
:10142000CDB7DEB760970FB6F894DEBF0FBECDBF65
:10143000788B6F875A834983232B61F0811105C014
:101440001092DD011092DC0107C01092DB011092B6
:10145000DA0123C0811121C08090F3019090F40142
:10146000A090F501B090F601C090F701D090F8017E
:10147000E090F901F090FA014090FB015090FC01DE
:101480006090FD017090FE012090DC013090DD0144
:101490002CED31E03E832D8320C08090FF019090A1
:1014A0000002A0900102B0900202C0900302D0900E
:1014B0000402E0900502F09006024090070250906E
:1014C00008026090090270900A022090DA013090C0
:1014D000DB018AED91E09E838D830091A301109141
:1014E000A401B801882777FD8095982F0E94EF13FB
:1014F0006F83788789879A87A70196010E94541382
:101500000E94BC136B877C878D879E87EF85F88947
:1015100029813A81E21BF30BF88BEF87BF01882703
:1015200077FD8095982F0E94EF1369837A838B83D0
:101530009C839B01AC01C501B4010E9423154B01A2
:101540005C01B101882777FD8095982F0E94EF13E9
:101550009B01AC01C701B6010E9423159B01AC01A0
:10156000C501B4010E9487126B017C018091D801F2
:101570009091D9016F857889681B790B882777FD51
:101580008095982F0E94EF1380909F019090A0016A
:10159000A090A101B090A201A50194010E94541352
:1015A0000E94BC13882777FD8095982F0E94EF1327
:1015B0009B01AC01C301B2010E9423159B01AC0148
:1015C000C701B6010E9487122B013C0166277727CD
:1015D000601B710B882777FD8095982F0E94EF1371
:1015E0009B01AC01EF80F88409851A85C301B20123
:1015F0000E94DC116B017C010B851C851195019506
:101600001109ED81FE8160817181882777FD8095C8
:10161000982F0E94EF132B013C01A50194016981D1
:101620007A818B819C810E9423159B01AC01C301AF
:10163000B2010E9487120E94BC13DC01CB014B85D2
:101640005C85B8010E941112ED81FE819183808337
:101650002F8538893093D9012093D801C701B6016D
:101660000E94BC13CB0160960FB6F894DEBF0FBE8C
:10167000CDBFDF91CF911F910F91FF90EF90DF9041
:10168000CF90BF90AF909F908F907F906F905F9022
:101690004F903F902F900895CF93DF9300D000D0CC
:1016A0001F92CDB7DEB729833A834B835C83698170
:1016B0007A812B813C81811103C0620F731F02C0AC
:1016C0008130F1F4882777FD8095982F0E94EF13E1
:1016D0002BED3FE049E450E40E94231520E030E088
:1016E00044E353E40E9454130E94861520E030E046
:1016F0004FE254EC0E9423150E94BC13CB0102C0A0
:1017000080E090E00F900F900F900F900F90DF917E
:10171000CF91089584B1806B84B983E58CBD8091AD
:10172000270080628093270080912700806180934A
:1017300027008091270088608093270080912700F0
:1017400084608093270080912A00806180932A0022
:10175000809127008064809327008091270081601A
:1017600080932700809128008062809328008091D8
:1017700028008061809328008091280088608093F1
:1017800028008091280084608093280080912B009D
:10179000806180932B0080912800806480932800D2
:1017A0008091280081608093280008959CB59C7FDB
:1017B0009CBD9CB5982B9CBD08958EBD0DB407FEB5
:1017C000FDCF8EB508959B01AC0184E0220F331F3D
:1017D000441F551F8A95D1F760E070E489E191E0DC
:1017E0000E944016215031093093CD002093CC0047
:1017F00088E18093C90086E08093CA0008959091A3
:10180000C80095FFFCCF8093CE0008958091C8005A
:1018100087FFFCCF8091CE000895FF920F931F9316
:10182000CF93DF9300D000D0CDB7DEB7F82EA091D4
:101830008501B09186019A01AB010E942416209186
:10184000A3013091A401442737FD4095542F0E94F5
:10185000621601E010E01216130614F000E010E02A
:101860008F2D880FFF24F394F80E0115110519F43C
:1018700060E070E001C0B90190E029833A834B83B6
:101880005C830E945D0929813A81012B29F4662736
:101890007727621B730B02C060E070E08F2D90E031
:1018A0000F900F900F900F90DF91CF911F910F919C
:1018B000FF900C945D0990E00E941A099C01A8E831
:1018C000B3E10E9403162FEF33E040E050E00E94A6
:1018D00062162C583A4041095109C90108954F92A6
:1018E0005F926F927F928F929F92AF92BF92CF92B0
:1018F000DF92EF92FF92CF93DF9300D000D0CDB76D
:10190000DEB75B01BC01882777FD8095982F0E9488
:10191000EF132BED3FE049E450E40E94231520E053
:1019200030E044E353E40E9454136B017C01B501A1
:10193000882777FD8095982F0E94EF132BED3FE0CD
:1019400049E450E40E94231520E030E044E353E4EE
:101950000E9454139B01AC01C701B6010E9487127B
:101960002B013C010E9486154B015C01C301B201B1
:101970000E9451132B013C01C701B6010E9486153C
:1019800069837A838B839C83C701B6010E945113BC
:101990009B01AC01C0908101D0908201E090830155
:1019A000F0908401C301B2010E9487129B01AC0137
:1019B000C701B6010E94231520917D0130917E015F
:1019C00040917F01509180010E9487120E94BC13B8
:1019D0002B013C0129813A814B815C81C501B40115
:1019E0000E9487129B01AC01C701B6010E9423151A
:1019F0000E94BC136B017C01B601C2010F900F90D5
:101A00000F900F90DF91CF91FF90EF90DF90CF90EC
:101A1000BF90AF909F908F907F906F905F904F900E
:101A200008958F929F92AF92BF92CF92DF92EF92E2
:101A3000FF92CF934B015C0169017A019B01AC01DC
:101A40000E94D115811146C0A7019601C701B601B8
:101A50000E94D11581113EC0209173013091740113
:101A60004091750150917601C501B4010E944D135A
:101A700087FD30C020916F0130917001409171015C
:101A800050917201C501B4010E941815181614F185
:101A900020916B0130916C0140916D0150916E016C
:101AA000C701B6010E944D1387FD14C0C1E020910B
:101AB0006701309168014091690150916A01C70145
:101AC000B6010E94181518160CF0C0E081E08C27B2
:101AD00090E002C080E090E0CF91FF90EF90DF9027
:101AE000CF90BF90AF909F908F9008954F925F924C
:101AF0006F927F928F929F92AF92BF92CF92DF921E
:101B0000EF92FF92CF93DF93CDB7DEB761970FB619
:101B1000F894DEBF0FBECDBF66247724681A790A19
:101B2000882777FD8095982F0E94EF1320917D01E3
:101B300030917E0140917F01509180010E94861278
:101B40000E94BC136E837F8388879987B30188279F
:101B500077FD8095982F0E94EF139B01AC01EE81D9
:101B6000FF81BF01882777FD8095982F2E873F87BB
:101B7000488B598B0E94EF132E853F8548895989E0
:101B80000E94FA124B015C01C0908101D090820149
:101B9000E0908301F09084019301D3010E94FB1532
:101BA0002B013C012E813F81D9010E94FB15460E7D
:101BB000571E681E791EC301B2010E94EF136E8387
:101BC0007F83888799870E9490156A877B878C8797
:101BD0009D87A7019601C701B6010E9423159B01AD
:101BE000AC010E9487122B013C012E813F81488568
:101BF00059850E948612A30192010E9454130E94EB
:101C000078126E837F8388879987A7019601C70121
:101C1000B6010E9487129B01AC016A857B858C8589
:101C20009D850E9454130E9478126A877B878C8757
:101C30009D872BED3FE049E450E46E817F818885EC
:101C400099850E9486122B013C012A853B854C8593
:101C50005D85C501B4010E9487122BED3FE049EC80
:101C60005FE30E9486126B017C012A853B854C85CF
:101C70005D85C501B4010E9486122BED3FE049EC61
:101C80005FE30E9486124B015C012BED3FE049E4CB
:101C900050E4C701B6010E94181518164CF42BED3C
:101CA0003FE049EC50E4C701B6010E94861212C021
:101CB0002BED3FE049E450ECC701B6010E944D1303
:101CC00087FF0AC02BED3FE049EC50E4C701B601A5
:101CD0000E9487126B017C012BED3FE049E450E448
:101CE000C501B4010E941815181654F42BED3FE0FD
:101CF00049EC50E4C501B4010E9486124B015C011D
:101D00002BED3FE049E450ECC501B4010E944D13B6
:101D100087FF0AC02BED3FE049EC50E4C501B40158
:101D20000E9487124B015C01A3019201C701B60119
:101D30000E94110D892BC9F020E030E044E353E408
:101D4000C701B6010E9423152BED3FE049E450E4A2
:101D50000E9454130E94BC137A83698320E030E010
:101D600044E353E4C301B2012CC02E813F81488576
:101D700059856BED7FE089E490E40E9486126B0147
:101D80007C019B01AC01C501B4010E94110D892B9E
:101D900039F120E030E044E353E4C501B4010E948E
:101DA00023152BED3FE049E450E40E9454130E94B8
:101DB000BC137A83698320E030E044E353E4C70135
:101DC000B6010E9423152BED3FE049E450E40E9448
:101DD00054130E94BC137C836B8381E08D8305C008
:101DE0001A8219821C821B821D8229813A814B81B1
:101DF0005C816D8170E080E090E061960FB6F894B0
:101E0000DEBF0FBECDBFDF91CF91FF90EF90DF908F
:101E1000CF90BF90AF909F908F907F906F905F908A
:101E20004F900895CF92DF92EF92FF920F931F93FE
:101E3000CF93DF936B01C091A301D091A401002740
:101E400011270C1B1D0BAE01B8010E9411127C0161
:101E5000AE01B801C6010E941112919581959109B8
:101E6000AC01662757FD6095762F80E00E940D0C2F
:101E7000A701662757FD6095762F81E0DF91CF910E
:101E80001F910F91FF90EF90DF90CF900C940D0C6D
:101E9000CF92DF92EF92FF920F931F93C090930126
:101EA000D0909401E0909501F090960100919701F7
:101EB000109198012091990130919A0140919B01D4
:101EC00050919C0160919D0170919E0181E00E9462
:101ED000BC09C0908701D0908801E0908901F09002
:101EE0008A0100918B0110918C0120918D0130911C
:101EF0008E0140918F0150919001609191017091FC
:101F0000920180E00E94BC0920E137E240E050E00D
:101F100062E070E080E090E00E9487106CEA7FE071
:101F200080E00E944C1160E070E080E090E01F9142
:101F30000F91FF90EF90DF90CF900C94120F8823B9
:101F400019F0813021F008958091A50102C080919F
:101F5000A60190E00C945C100F931F93CF93DF9336
:101F600081E08093E9018091DE0181110AC060E087
:101F700070E080E090E0DF91CF911F910F910C9481
:101F8000120F81E00E949F0F9093E0018093DF0188
:101F900080E00E949F0F9093E2018093E1012091E5
:101FA0000E0130E04091DF015091E0016091E401C9
:101FB0007091E50181E00E94FE09EC012091DF01B2
:101FC0003091E0014091E1015091E2016091E30123
:101FD00081E00E944C0BC80FD91F20910E0130E008
:101FE0004091E1015091E2016091E6017091E701B9
:101FF00080E00E94FE098C012091DF013091E00118
:102000004091E1015091E2016091E30180E00E9482
:102010004C0BB801680F791FCE010E94120F60911E
:10202000E1017091E2018091DF019091E0010E9455
:102030006F0C60930F0170931001809311019093C6
:10204000120110920E01DF91CF911F910F9108950F
:10205000CF93DF9300D000D01F92CDB7DEB70E94A0
:10206000760D29833A834B835C836D8381E0809373
:102070000E018093DE01662349F085E0FE01319672
:10208000A4EEB1E001900D928A95E1F70F900F90C8
:102090000F900F900F90DF91CF9108959093E501ED
:1020A0008093E4017093E7016093E60181E08093FF
:1020B0000E018093DE0108950E941A096091A90122
:1020C0007091AA01680F791F882777FD8095982F56
:1020D0000E94EF132091AB013091AC014091AD0112
:1020E0005091AE010E9423150E94BC13CB010895AC
:1020F0000E941A092091A7013091A801AC01429FCA
:10210000C001439F900D529F900D112408950F938D
:102110001F93CF93DF938C01EB01F894A2E1B0E021
:102120000E94191628EE33E040E050E00E9440166D
:10213000215031094109510901301105B1F0023036
:10214000110531F1012BB9F5CE0146E0880F991F39
:102150004A95E1F7C82BC4BD85E085BD27BD8091B8
:102160006E00826080936E0026C0C295CC0FCC0FAB
:10217000C07CC09380008DE0809381003093890003
:102180002093880080916F00826080936F0013C05D
:10219000CE0136E0880F991F3A95E1F7C82BC0931E
:1021A000B00085E08093B1002093B300809170006F
:1021B0008260809370007894DF91CF911F910F918E
:1021C00008958130910539F08230910549F0892BCD
:1021D00059F486B507C080918400909185000895D8
:1021E0008091B20090E0089580E090E00895813001
:1021F00051F018F0823079F00895249A81E684BD78
:102200008DE085BD0895549A83EA8093800085E12E
:10221000809381000895569A81E68093B0008DE006
:102220008093B1000895813039F018F0823069F060
:10223000089567BD48BD0895709389006093880034
:1022400050938B0040938A0008956093B3004093AD
:10225000B4000895CF93C82FA2E1B0E09A01AB017A
:102260000E94191628EE33E040E050E00E9440162C
:102270002150310941095109C13041F028F0C230E3
:1022800049F42093B30006C027BD04C030938900F1
:1022900020938800CF910895813049F018F0823062
:1022A00059F008957093EF016093EE0108957093D3
:1022B000ED016093EC0108957093EB016093EA01E6
:1022C00008951F920F920FB60F9211242F933F93F0
:1022D0004F935F936F937F938F939F93AF93BF932E
:1022E000EF93FF93E091EE01F091EF01309709F049
:1022F0000995FF91EF91BF91AF919F918F917F9140
:102300006F915F914F913F912F910F900FBE0F9062
:102310001F9018951F920F920FB60F9211242F93B2
:102320003F934F935F936F937F938F939F93AF935D
:10233000BF93EF93FF93E091EC01F091ED013097A3
:1023400009F00995FF91EF91BF91AF919F918F9106
:102350007F916F915F914F913F912F910F900FBEA1
:102360000F901F9018951F920F920FB60F92112485
:102370002F933F934F935F936F937F938F939F938D
:10238000AF93BF93EF93FF93E091EA01F091EB01DC
:10239000309709F00995FF91EF91BF91AF919F910F
:1023A0008F917F916F915F914F913F912F910F90FE
:1023B0000FBE0F901F9018958F929F92AF92BF9271
:1023C000CF92DF92EF92FF920F931F93CF93DF9301
:1023D0006B01D82FC92F49015A010E944D1387FD67
:1023E0000DC09701A801B6018D2F9C2F0E941815D2
:1023F00018163CF46701D02FC12F03C06401DA2DF9
:10240000CB2DB6018D2F9C2FDF91CF911F910F9176
:10241000FF90EF90DF90CF90BF90AF909F908F9004
:102420000895861797072CF0481759071CF4CA011E
:102430000895CB0108959B01AC0184E0220F331F66
:10244000441F551F8A95D1F760E070E489E191E05F
:102450000E944016215031093093C5002093C400DA
:1024600088E18093C10086E08093C2000895909136
:10247000C00095FFFCCF8093C6000895CF93DF93F3
:10248000EC018991882319F00E943712FACFDF916D
:10249000CF9108950F931F93CF93DF93CDB7DEB7FE
:1024A00064970FB6F894DEBF0FBECDBF7F936F93D6
:1024B0009F938F938FEA91E09F938F938E010F5F8D
:1024C0001F4F1F930F930E942D18C8010E943E12A8
:1024D0000FB6F894DEBF0FBECDBF64960FB6F8946A
:1024E000DEBF0FBECDBFDF91CF911F910F91089539
:1024F0009F939F77AFD10F9000203AF49058A2EAB3
:102500002AED3FE049E450E413D047C25058BB27BE
:10251000AA270ED042C20BD230F010D220F031F4F4
:102520009F3F11F41EF4DBC10EF4E095E7FBD1C12F
:10253000E92F55D280F3BA1762077307840795070E
:1025400018F071F49EF56DC20EF4E0950B2EBA2FC3
:10255000A02D0B01B90190010C01CA01A0011124A9
:10256000FF27591B99F0593F50F4503E68F11A1655
:10257000F040A22F232F342F4427585FF3CF4695E6
:1025800037952795A795F0405395C9F77EF41F1608
:10259000BA0B620B730B840BBAF09150A1F0FF0FD2
:1025A000BB1F661F771F881FC2F70EC0BA0F621FBE
:1025B000731F841F48F4879577956795B795F795AE
:1025C0009E3F08F0B3CF9395880F08F09927EE0F40
:1025D000979587950895ABD158F080E891E009F47C
:1025E0009EEFACD128F040E851E059F45EEF09C00D
:1025F00076C117C2E92FE078F2D168F3092E052AD7
:10260000C1F3261737074807590738F00E2E07F889
:10261000E02569F0E025E0640AC0EF6307F8009464
:1026200007FADB01B9019D01DC01CA01AD01EF939D
:102630004AD0B3D10AD05F91552331F02BED3FE062
:1026400049E450FD49EC63CF0895DF93DD27B92FAE
:10265000BF7740E85FE31616170648075B0710F4DC
:10266000D92FEAD19F938F937F936F9397D2ECE703
:10267000F0E038D192D12F913F914F915F91EFD1FE
:10268000DD2349F09058A2EA2AED3FE049EC5FE3F0
:10269000D0785D274DDFDF9180C1F7D008F481E06D
:1026A000089554D1E3958AC10CD077C147D140F049
:1026B0003ED130F021F45F3F19F00BC15111B2C18E
:1026C0000EC18DD198F39923C9F35523B1F3951B0E
:1026D000550BBB27AA2762177307840738F09F5F43
:1026E0005F4F220F331F441FAA1FA9F333D00E2EB2
:1026F0003AF0E0E830D091505040E695001CCAF71F
:1027000029D0FE2F27D0660F771F881FBB1F2617E3
:1027100037074807AB07B0E809F0BB0B802DBF01B6
:10272000FF2793585F4F2AF09E3F510568F0D1C0B4
:1027300079C15F3FECF3983EDCF38695779567951A
:10274000B795F7959F5FC9F7880F911D9695879567
:1027500097F90895E1E0660F771F881FBB1F621786
:1027600073078407BA0720F0621B730B840BBA0B44
:10277000EE1F88F7E095089504D06894B11152C116
:10278000089535D188F09F5790F0B92F9927B75108
:10279000A0F0D1F0660F771F881F991F1AF0BA9525
:1027A000C9F712C0B13081F03CD1B1E0089539C110
:1027B000672F782F8827B85F39F0B93FCCF386951B
:1027C00077956795B395D9F73EF490958095709578
:1027D00061957F4F8F4F9F4F0895E89409C097FBF5
:1027E0003EF490958095709561957F4F8F4F9F4FE8
:1027F0009923A9F0F92F96E9BB279395F69587952C
:1028000077956795B795F111F8CFFAF4BB0F11F4EE
:1028100060FF1BC06F5F7F4F8F4F9F4F16C0882395
:1028200011F096E911C0772321F09EE8872F762FCB
:1028300005C0662371F096E8862F70E060E02AF00C
:102840009A95660F771F881FDAF7880F96958795F8
:1028500097F90895DF93CF931F930F938B01EC01AA
:10286000E9EAF0E03FD099D09801AE018B01EC018C
:1028700060E070E080E89FE349DE52D19801AE014C
:102880000F911F91CF91DF91EAC0990F0008550F6A
:10289000AA0BE0E8FEEF16161706E807F907C0F0E6
:1028A00012161306E407F50798F0621B730B840BEE
:1028B000950B39F40A2661F0232B242B252B21F4C8
:1028C00008950A2609F4A140A6958FEF811D811D68
:1028D000089597F99F6780E870E060E008959FEFA2
:1028E00080EC0895DF93CF931F930F93FF92EF92A5
:1028F000DF927B018C01689405C0DA2EEF01AFD026
:10290000FE01E894A5912591359145915591AEF33D
:10291000EF010EDEFE019701A801DA9479F7DF904E
:10292000EF90FF900F911F91CF91DF9108950024B8
:102930000A941616170618060906089500240A9424
:1029400012161306140605060895C9CF50D0E8F3F1
:10295000E894E0E0BB279F57F0F02AED3FE049EC18
:1029600006C0EE0FBB0F661F771F881F28F0B23A14
:1029700062077307840728F0B25A620B730B840B4B
:10298000E3959A9572F7803830F49A95BB0F661FDD
:10299000771F881FD2F790480AC1092E0394000CB4
:1029A00011F4882352F0BB0F40F4BF2B11F460FFE9
:1029B00004C06F5F7F4F8F4F9F4F0895EF93E0FFED
:1029C00006C0A2EA2AED3FE049EC5FEBB1DDE5DFAE
:1029D0000F90039401FC9058E1EDF0E0FBC057FD2F
:1029E0009058440F551F59F05F3F71F04795880F7D
:1029F00097FB991F61F09F3F79F087950895121614
:102A000013061406551FF2CF4695F1DF08C01616BF
:102A100017061806991FF1CF869571056105089470
:102A20000895E894BB2766277727CB0197F9089587
:102A30002CDF08F48FEF08959B01AC0160E070E09B
:102A400080E89FE331CE0BD0A8CF71DF28F076DF8E
:102A500018F0952309F03DCF42CF1124E3CFBFDF1B
:102A6000A0F3959FD1F3950F50E0551F629FF001A1
:102A7000729FBB27F00DB11D639FAA27F00DB11DFA
:102A8000AA1F649F6627B00DA11D661F829F222783
:102A9000B00DA11D621F739FB00DA11D621F839F0A
:102AA000A00D611D221F749F3327A00D611D231FE0
:102AB000849F600D211D822F762F6A2F11249F572E
:102AC00050408AF0E1F088234AF0EE0FFF1FBB1F51
:102AD000661F771F881F91505040A9F79E3F5105F0
:102AE00070F0F7CE9FCF5F3FECF3983EDCF3869516
:102AF00077956795B795F795E7959F5FC1F7FE2B9B
:102B0000880F911D9695879597F908959F931EDFDD
:102B10000F9007FCEE5F52CF11F40EF4E0CE45C0EB
:102B200066DFD0F39923D9F3CEF39F57550B87FF78
:102B30004AD00024A0E640EA900180585695979527
:102B400028F4805C660F771F881F20F02617370750
:102B5000480730F4621B730B840B202931294A2B60
:102B6000A69517940794202531254A2758F7660F14
:102B7000771F881F20F026173707480730F4620BAD
:102B8000730B840B200D311D411DA09581F7B901F8
:102B9000842F9158880F9695879508959B01AC01D5
:102BA00052CF73DE880B990B08959F3F31F09150FF
:102BB00020F4879577956795B795880F911D969521
:102BC000879597F9089591505040660F771F881F99
:102BD000D2F708959F938F937F936F93FF93EF9313
:102BE0009B01AC0130DFEF91FF917CDE2F913F9193
:102BF0004F915F9128CF0E940316332312F48A1B52
:102C00009B0B0C941416A29FB001B39FC001A39F0D
:102C1000700D811D1124911DB29F700D811D112415
:102C2000911D08950E940316B7FF0895821B930B10
:102C300008950E940316A59F900DB49F900DA49F28
:102C4000800D911D11240895B7FF0C9419160E9450
:102C50001916821B930B089597FB072E16F4009408
:102C600007D077FD09D00E94B81607FC05D03EF4C6
:102C7000909581959F4F0895709561957F4F089528
:102C8000A1E21A2EAA1BBB1BFD010DC0AA1FBB1F70
:102C9000EE1FFF1FA217B307E407F50720F0A21BE2
:102CA000B30BE40BF50B661F771F881F991F1A944F
:102CB00069F760957095809590959B01AC01BD0179
:102CC000CF010895052E97FB1EF400940E947916FB
:102CD00057FD07D00E94401607FC03D04EF40C9419
:102CE000791650954095309521953F4F4F4F5F4F46
:102CF000089590958095709561957F4F8F4F9F4F68
:102D000008952F923F924F925F926F927F928F928F
:102D10009F92AF92BF92CF92DF92EF92FF920F936A
:102D20001F93CF93DF93CDB7DEB7CA1BDB0B0FB674
:102D3000F894DEBF0FBECDBF09942A883988488831
:102D40005F846E847D848C849B84AA84B984C884C7
:102D5000DF80EE80FD800C811B81AA81B981CE0FBE
:102D6000D11D0FB6F894DEBF0FBECDBFED010895A3
:102D7000AA1BBB1B51E107C0AA1FBB1FA617B707A1
:102D800010F0A61BB70B881F991F5A95A9F78095BD
:102D90009095BC01CD010895283008F027E0332735
:102DA000DA01990F311D87FD91600096610571056B
:102DB00039F432602E5F3D9330E32A95E1F70895B0
:102DC0009F3F30F080387105610509F03C5F3C5F42
:102DD0003D93913008F08068911DDF93CF931F934E
:102DE0000F93FF92EF92192F987F9695E92F969562
:102DF0009695E90FFF27EF5AFE4F99273327EE24C8
:102E0000FF24A701E70105900894079428F4360FE2
:102E1000E71EF81E491F511D660F771F881F991F57
:102E20000694A1F70590079428F4E70EF81E491FB1
:102E3000561FC11D770F881F991F661F0694A1F7A3
:102E40000590079428F4F80E491F561FC71FD11D7F
:102E5000880F991F661F771F0694A1F705900794A6
:102E600020F4490F561FC71FD81F990F661F771FE1
:102E7000881F0694A9F784911095177041F0D69594
:102E8000C79557954795F794E7941A95C1F7E7EFDB
:102E9000F0E06894159015913591659195910590A4
:102EA0007FE27395E118F10A430B560BC90BD00969
:102EB000C0F7E10CF11E431F561FC91FD01D7EF441
:102EC000703311F48A95E6CFE894015030F0080F82
:102ED0000AF40027021708F4202F2395022F7A33D3
:102EE00028F079E37D932A95E9F710C07D932A9520
:102EF00089F6069497956795379517951794E11875
:102F0000F10A430B560BC90BD00998F023957E911B
:102F100073957A3308F070E37C932013B8F77E91B1
:102F200070617D9330F0839571E37D9370E32A9512
:102F3000E1F71124EF90FF900F911F91CF91DF9156
:102F4000992787FD90950895FC0105906150704088
:102F50000110D8F7809590958E0F9F1F0895FC0162
:102F60006150704001900110D8F7809590958E0FB8
:102F70009F1F08950F931F93CF93DF93182F092F4F
:102F8000EB018B8181FD03C08FEF9FEF20C082FF9B
:102F900010C04E815F812C813D81421753077CF424
:102FA000E881F9819F012F5F3F4F39832883108388
:102FB00006C0E885F985812F0995892B29F72E818F
:102FC0003F812F5F3F4F3F832E83812F902FDF91D3
:102FD000CF911F910F910895A0E0B0E0E2EFF7E1EB
:102FE0000C949116FE01359661917191AF0180911B
:102FF0000D0290910E020E941801E2E00C94AD16B1
:103000000F931F93CF93DF93E0910D02F0910E0287
:10301000238121FF1BC0EC0100E010E08991609149
:103020000D0270910E02DB011896ED91FC9119973B
:10303000882331F00995892B89F30FEF1FEFEECF2D
:103040008AE00995892B11F4C80102C08FEF9FEF28
:10305000DF91CF911F910F910895AEE0B0E0E3E3CF
:10306000F8E10C948F160D891E8986E08C831A83F3
:1030700009838FEF9FE79E838D83AE01475E5F4F8D
:103080006F89788DCE0101960E941801EF81F88535
:10309000E00FF11F10822E96E4E00C94AB16FA01BB
:1030A000AA27283051F1203181F1E8946F936E7F87
:1030B0006E5F7F4F8F4F9F4FAF4FB1E03ED0B4E078
:1030C0003CD0670F781F891F9A1FA11D680F791FB9
:1030D0008A1F911DA11D6A0F711D811D911DA11DCA
:1030E00020D009F468943F912AE0269F11243019DA
:1030F000305D3193DEF6CF010895462F4770405D75
:103100004193B3E00FD0C9F7F6CF462F4F70405D23
:103110004A3318F0495D31FD4052419302D0A9F77E
:10312000EACFB4E0A6959795879577956795BA9578
:10313000C9F700976105710508959B01AC010A2E3E
:1031400006945795479537952795BA95C9F7620F15
:0E315000731F841F951FA01D0895F894FFCFD4
:10315E000000000200000000AB09000000000100AA
:10316E00002C01256420256420256420256420255B
:10317E00642025640A0025642C2025640A0078202A
:10318E002564207920256420743120256420743232
:10319E0020256420662025640A00466F72776172CE
:1031AE00643A207820256420792025640A00484559
:1031BE004C4C4F2E0096FFDB0FC93FAFADFEBFDB71
:1031CE000FC93F68CEECBF5A008EFF5A007DBF0E6E
:1031DE00436666184364088FC2753D3333A34000BF
:1031EE000043448FC2753D3333A340000043440A6D
:1031FE00D7233C401F0203040094FD8005693E5313
:10320E006574736572766F2825642C2530336429B6
:04321E000A0D000095
:00000001FF
