:100000000C94BF000C94DC000C94DC000C94DC001D
:100010000C94DC000C94DC000C94DC000C94DC00F0
:100020000C94DC000C94170B0C94DC000C94DC009A
:100030000C94DC000C94EE0A0C94DC000C94DC00B4
:100040000C94C50A0C94DC000C94DC000C94DC00CD
:100050000C94DC000C94DC000C94DC000C94DC00B0
:100060000C94FB060C94DC000C94DC000C94DC007B
:100070000C94DC000C94DC000C94DC006E616E00CF
:10008000696E660000407A10F35A00A0724E18099B
:100090000010A5D4E80000E87648170000E40B54EF
:1000A000020000CA9A3B000000E1F50500008096BE
:1000B0009800000040420F000000A08601000000F0
:1000C000102700000000E8030000000064000000AA
:1000D00000000A00000000000100000000002C7673
:1000E000D888DC674F0823DFC1DFAE59E1B1B7968E
:1000F000E5E3E453C63AE651997696E8E6C28426EB
:10010000EB898C9B62ED407C6FFCEFBC9C9F40F2C6
:10011000BAA56FA5F490055A2AF75C936B6CF96742
:100120006DC11BFCE0E40D47FEF520E6B500D0ED07
:10013000902E0300943577050080841E080000206F
:100140004E0A000000C80C333333330F986E12830D
:100150001141EF8D2114893BE65516CFFEE6DB18E1
:10016000D1844B381BF77C1D901DA4BBE4242032A6
:1001700084725E228100C9F124ECA1E53D2711249F
:100180001FBECFEFD0E1DEBFCDBF11E0A0E0B1E0F8
:10019000EEE7F0E202C005900D92A837B107D9F75B
:1001A00011E0A8E7B1E001C01D92A63BB107E1F75D
:1001B0000E9486060C943D100C940000A3E1B0E070
:1001C000E4EEF0E00C94520E7C011B016A01FC018C
:1001D00017821682838181FF66C3BE016F5F7F4FE6
:1001E0004B01F7019381F10193FD859193FF81917B
:1001F0001F01882309F453C3853239F493FD859197
:1002000093FF81911F01853239F4B70190E00E947C
:10021000770F56016501E5CF10E0512C20E0203228
:10022000A0F48B3269F030F4803259F0833269F4F3
:1002300020612CC08D3239F0803339F4216026C022
:100240002260246023C0286021C027FD27C030ED34
:10025000380F3A3078F426FF06C0FAE01F9F300DC1
:100260001124132F13C06AE0569E300D1124532E13
:1002700020620CC08E3221F426FD11C3206406C01A
:100280008C3611F4206802C0883641F4F10193FDE8
:10029000859193FF81911F018111C1CF9BEB980F35
:1002A000933018F42061805E06C09BE9980F93306C
:1002B00008F0AAC12F7E26FF16E02F73722E853616
:1002C00021F4F22FF0647F2E08C0863621F4622FCD
:1002D0006068762E02C01111115077FE07C01C33E2
:1002E00048F444244394410E27E00BC0183030F406
:1002F000212F06C027E04CE3442E03C027E017E07F
:10030000412C560174E0A70EB11CF6016081718189
:1003100082819381042DA4010E94890E6C010981C0
:1003200000FF02C003FF06C071FC07C072FC08C0DA
:10033000612C08C03DE2632E05C02BE2622E02C094
:1003400090E2692E802F8C7099F1662011F084E084
:1003500001C083E0851510F0512C0BC0581A73FCB6
:1003600008C0B70180E290E00E94770F5A94C9F765
:10037000F3CF662029F0B701862D90E00E94770F19
:1003800003FD03C000E810E002C00CE710E0F72D09
:10039000F0717F2EF8018491882309F476C27110E0
:1003A0008052B70190E00E94770F0F5F1F4FF2CF8E
:1003B00077FE0FC04C0C04FF04C08A81813309F41E
:1003C0004A94141474F5F8E0F41578F588E0482E92
:1003D0002CC076FC2AC0812F90E08C159D059CF0E6
:1003E0006CEFC6166FEFD60674F0772D7068772E17
:1003F0000AC0E2E0F0E0EC0FFD1FE10FF11D80818B
:10040000803319F411501111F4CF77FE0EC044243B
:100410004394410E812F90E0C816D9062CF41C1984
:1004200004C04424439401C010E077FE07C01C14AC
:100430001D043CF496012F5F3F4F05C025E030E0DE
:1004400002C021E030E0662011F02F5F3F4F112302
:1004500031F0412F50E04F5F5F4F240F351F452D86
:1004600050E02417350714F4521A01C0512C872D7F
:10047000897049F4552039F0B70180E290E00E947C
:10048000770F5A94F7CF662029F0B701862D90E0B8
:100490000E94770F73FC09C0552039F0B70180E343
:1004A00090E00E94770F5A94F7CF77FE5FC09C2DA3
:1004B0008D2DD7FE02C090E080E0692E782E40E0BE
:1004C00050E0C601841991099D878C8796012619F1
:1004D0003709280D391D812F90E0EE27FF27E81BF3
:1004E000F90BFF87EE87FFEF6F167F0669F4B70100
:1004F0008EE290E02B8B3A8B488B598B0E94770FC2
:10050000598948893A892B89C614D70454F06C85D7
:100510007D85661577052CF4F901E40FF51F8181BF
:1005200001C080E371E0671A71084F5F5F4FEE858D
:10053000FF856E167F066CF0B70190E02B8B3A8B2F
:10054000488B598B0E94770F2B893A8948895989A2
:10055000CACF6C147D0439F49A81963318F495331C
:1005600011F404FF81E3B70190E04BC08A8181332D
:1005700009F00F7EB70190E00E94770F111105C0BE
:1005800074FE18C085E490E017C0B7018EE290E0D9
:100590000E94770F82E066246394680EF401E80FEE
:1005A000F11D8081B70190E00E94770F115041F357
:1005B000862DF1CF85E690E0B7010E94770FD7FC3A
:1005C00005C0C114D10439F404FF05C0D194C1940D
:1005D000D1088DE201C08BE2B70190E00E94770F55
:1005E00080E36AE0C616D1042CF08F5FFAE0CF1AE0
:1005F000D108F7CFB70190E00E94770FB701C6018D
:10060000C0960E94770F41C1833631F0833779F06D
:10061000833509F058C021C0560172E0A70EB11C05
:10062000F6018081898301E010E0640114C0560165
:10063000F2E0AF0EB11CF601C080D18026FF03C0EE
:10064000612F70E002C06FEF7FEFC6012B8B0E941D
:100650006C0F8C012B892F7715C05601F2E0AF0E7D
:10066000B11CF601C080D18026FF03C0612F70E06D
:1006700002C06FEF7FEFC6012B8B0E94610F8C01D0
:100680002B892068722E23FD1AC0852D90E0081753
:100690001907A8F4B70180E290E00E94770F5A94FE
:1006A000F4CFF60177FC859177FE81916F01B70158
:1006B00090E00E94770F51105A94015011090115D2
:1006C000110579F7E2C0843611F0893651F55601EB
:1006D00027FF09C0F4E0AF0EB11CF6016081718103
:1006E000828193810AC0F2E0AF0EB11CF6016081F5
:1006F0007181882777FD8095982F022F0F7697FFBD
:1007000008C090958095709561957F4F8F4F9F4F52
:1007100000682AE030E0A4010E94DF0FC82EC8184C
:100720003EC0022F853721F40F7E2AE030E01DC045
:10073000097F8F3691F018F4883559F0B0C08037B2
:1007400019F0883711F0ABC0006104FF09C00460E4
:1007500007C024FF08C0066006C028E030E005C0DE
:1007600020E130E002C020E132E0560107FF09C07D
:10077000F4E0AF0EB11CF60160817181828193813A
:1007800008C0F2E0AF0EB11CF6016081718180E01B
:1007900090E0A4010E94DF0FC82EC8180F7706FF53
:1007A0000BC0202F2E7FC11650F404FF0AC002FD9B
:1007B00008C0202F2E7E05C0DC2C202F03C0DC2C8F
:1007C00001C0D12E24FF0DC0FE01EC0DF11D808172
:1007D000803311F4297E09C022FF06C0D394D3943C
:1007E00004C0822F867809F0D39423FD13C020FF24
:1007F00006C01C2DD51418F4150D1D19D52CD514B3
:1008000068F4B70180E290E02B8B0E94770FD394BD
:100810002B89F5CFD51410F45D1801C0512C24FF9D
:1008200012C0B70180E390E02B8B0E94770F2B89D9
:1008300022FF17C021FF03C088E590E002C088E7CF
:1008400090E0B7010CC0822F867859F021FD02C0DC
:1008500080E201C08BE227FD8DE2B70190E00E94AB
:10086000770FC11638F4B70180E390E00E94770F4C
:100870001150F7CFCA94F401EC0DF11D8081B7013E
:1008800090E00E94770FC110F5CF552009F4C2CC3B
:10089000B70180E290E00E94770F5A94F6CFF701FB
:1008A0008681978102C08FEF9FEF6396E2E10C94FF
:1008B0006E0E0F931F93CF93DF93C0E0D0E00FEF46
:1008C0001FE0BE0180E090E00E942407B8016C1B8D
:1008D0007D0B81E090E00E9424076096C11580E1C5
:1008E000D80779F7CFEFDFE000E010E1BE0180E04C
:1008F00090E00E942407B8016C1B7D0B81E090E022
:100900000E9424076097CF3F8FEFD80779F7DF91D8
:10091000CF911F910F91089584E090E00E94E1062D
:10092000BC01882777FD8095982F0E94E00C20E07D
:1009300030E04AEF55E40E94940D20E030E040E0C2
:100940005FE30E94940D20E030EC4FE754E40E94F6
:10095000450C089585E090E00E94E106BC018827DF
:1009600077FD8095982F0E94E00C2DEC3CEC4CEC30
:100970005DE30E94940D089586E090E00E94E106F8
:10098000BC01882777FD8095982F0E94E00C27E115
:1009900037EB41ED58E30E94940D08954F925F921A
:1009A0006F927F928F929F92AF92BF92CF92DF927F
:1009B000EF92FF920F931F93CF93DF9382E090E02B
:1009C0000E94C009EC0183B1867090E095958795EF
:1009D0004EE1489F9001499F300D112430937F01D3
:1009E00020937E0180917E0190917F018C1B9D0B55
:1009F00090937D0180937C0160917E0170917F01D5
:100A0000AE0180E00E949A078C0160917E01709196
:100A10007F01AE0180E00E94C508800F911FAA27C8
:100A200097FDA095BA2F8093780190937901A093B8
:100A30007A01B0937B0140917801509179016091E6
:100A40007A0170917B012091590130915A01C901BD
:100A5000AA2797FDA095BA2F84179507A607B70771
:100A600044F48093780190937901A0937A01B09334
:100A70007B01409178015091790160917A017091E8
:100A80007B0188279927821B930BAA2797FDA095A6
:100A9000BA2F481759076A077B0744F480937801F7
:100AA00090937901A0937A01B0937B0140917801F2
:100AB0005091790160917A0170917B0170956095F8
:100AC000509541955F4F6F4F7F4F80E00E946009C6
:100AD00085B191E0892785B90E94BC046B017C0136
:100AE0000E94AA044B015C010E948C04AB01BC0172
:100AF0009501840180E00E9458077090A0016090E9
:100B0000A1015090A2014090A301B0909C01A0903F
:100B10009D0190909E0180909F01F0909801E0903F
:100B20009901D0909A01C0909B0180E00E94AC098D
:100B3000009178011091790120917A0130917B0127
:100B400040917E0150917F014F925F926F927F9210
:100B50008F929F92AF92BF92CF92DF92EF92FF92CD
:100B60009F938F933F932F931F930F93DF93CF9375
:100B70005F934F938EE091E09F938F930E94A90F14
:100B80008DB79EB748960FB6F8949EBF0FBE8DBF27
:100B9000DF91CF911F910F91FF90EF90DF90CF9059
:100BA000BF90AF909F908F907F906F905F904F908D
:100BB0000895CF93DF93EC0120E137E240E050E06D
:100BC00062E070E080E090E00E94EB09209A84B13E
:100BD000897F84B9D0937F01C0937E016EEC74E06D
:100BE00080E0DF91CF910C94B00A0F931F93CF93C5
:100BF000DF9382E090E00E94C009EC0182E090E087
:100C00000E94DC09182F092F82E090E00E94E10683
:100C10000F931F93DF93CF939F938F9381E491E082
:100C20009F938F930E94A90F8DB79EB708960FB61A
:100C3000F8949EBF0FBE8DBFDF91CF911F910F9192
:100C400008954F925F926F927F92AF92BF92CF9230
:100C5000DF92EF92FF920F931F93CF93DF93A090B9
:100C60005901B0905A01CC27DD27CA19DB09C12CE4
:100C7000D12C76012E01662457FC6094762C05E475
:100C800011E0CA15DB050CF5B701A601440D551D91
:100C9000661D771D80E00E94600980E00E94AC091B
:100CA0009F938F93DF93CF931F930F930E94A90F6E
:100CB0002A968AE0C80ED11CE11CF11C0F900F90FF
:100CC0000F900F900F900F90DCCFDF91CF911F917D
:100CD0000F91FF90EF90DF90CF90BF90AF907F90FB
:100CE0006F905F904F9008950E944C0760E072EC07
:100CF00081E090E00E9436090E94EE0840E050E05A
:100D000061E070E082E090E00C948D060E94740631
:100D100080E090E00E94D905FFCFF89488309105DB
:100D200094F591B121E030E0082E01C0220F0A9421
:100D3000EAF72095292321B9806480937C002091D3
:100D40007A002760CB0135E0880F991F3A95E1F7CB
:100D50008068E3E0440F551FEA95E1F7842B282BC8
:100D600020937A006115710519F480917B0001C010
:100D700080E080937B00672B29F080917A0080646B
:100D800080937A0078940895EAE7F0E080818F7785
:100D900080831092790010927800089580917800F5
:100DA0009091790008958830910554F490917C00D9
:100DB000907E90937C0090917C00982B90937C0087
:100DC000089520917A002F7D20937A000E94D30607
:100DD00080917A00806480937A0080917A0086FD09
:100DE000FCCF8091780090917900089590938101D3
:100DF0008093800108951F920F920FB60F921124D5
:100E00002F933F934F935F936F937F938F939F9312
:100E1000AF93BF93EF93FF93E0918001F091810135
:100E2000309709F00995FF91EF91BF91AF919F9194
:100E30008F917F916F915F914F913F912F910F9083
:100E40000FBE0F901F901895CF93DF93EB01853065
:100E50009105D0F490912B009F7E90932B0080639E
:100E60000E943009CE0124E0959587952A95E1F7F7
:100E70000E9430098C2F8295807F0E9430098091DA
:100E80002B00806180932B00DF91CF9108950E9409
:100E9000520980E090E0089580E091E09093B301E2
:100EA0008093B20160E072EC81E090E00C947F0BE3
:100EB000CF92DF92EF92FF920F931F938823D9F086
:100EC000813089F54093A4015093A5016093A60158
:100ED0007093A7010093A8011093A9012093AA0180
:100EE0003093AB01C092AC01D092AD01E092AE0163
:100EF000F092AF0118C0409398015093990160930C
:100F00009A0170939B0100939C0110939D01209383
:100F10009E0130939F01C092A001D092A101E09266
:100F2000A201F092A3011F910F91FF90EF90DF902B
:100F3000CF9008952F923F924F925F926F927F923F
:100F40008F929F92AF92BF92CF92DF92EF92FF92D9
:100F50000F931F93CF93DF93CDB7DEB72E970FB6C6
:100F6000F894DEBF0FBECDBF1B018A01811119C0ED
:100F70008090980190909901A0909A01B0909B0167
:100F8000C0909C01D0909D01E0909E01F0909F0147
:100F90004090A0015090A1016090A2017090A30127
:100FA00018C08090A4019090A501A090A601B090D7
:100FB000A701C090A801D090A901E090AA01F090EB
:100FC000AB014090AC015090AD016090AE017090CB
:100FD000AF012091590130915A013E872D87B90107
:100FE000882777FD8095982F0E94E00C69837A838B
:100FF0008B839C83A70196010E94450C0E94AD0C37
:1010000069877A878B879C87201A310AB1018827E4
:1010100077FD8095982F0E94E00C6D837E838F83EF
:1010200098879B01AC01C501B4010E94940D4B014E
:101030005C016091820170918301882777FD809522
:10104000982F0E94E00C9B01AC01C701B6010E94E1
:10105000940D9B01AC01C501B4010E94DD0B6B0135
:101060007C018091840190918501B101681B790B0D
:10107000882777FD8095982F0E94E00C809055017D
:1010800090905601A0905701B0905801A50194018D
:101090000E94450C0E94AD0C882777FD8095982F03
:1010A0000E94E00C9B01AC01C301B2010E94940DAF
:1010B0009B01AC01C701B6010E94DD0B2B013C0175
:1010C0006D857E85719561957109882777FD80957D
:1010D000982F0E94E00C9B01AC01E980FA800B8103
:1010E0001C81C301B2010E94400B6B017C01098588
:1010F0001A85119501951109609182017091830102
:10110000882777FD8095982F0E94E00C2B013C01E9
:10111000A50194016D817E818F8198850E94940D37
:101120009B01AC01C301B2010E94DD0B0E94AD0C1A
:10113000DC01CB0149855A85B8010E94750B90935B
:101140008301809382013092850120928401C7013E
:10115000B6010E94AD0CCB012E960FB6F894DEBFFF
:101160000FBECDBFDF91CF911F910F91FF90EF90F8
:10117000DF90CF90BF90AF909F908F907F906F90B7
:101180005F904F903F902F900895811124C0BA0135
:1011900057FF03C0719561957109882777FD809588
:1011A000982F0E94E00C9B01AC0160E070E084EBA2
:1011B00092E40E94DC0B20E030E04FE254E40E9415
:1011C000940D20E030E044EB52E40E94450C0E9474
:1011D000AD0CCB01089580E090E0089584B1806B60
:1011E00084B983E58CBD80912700806280932700BD
:1011F000809127008061809327008091270088607C
:10120000809327008091270084608093270080913D
:101210002A00806180932A00809127008064809357
:101220002700809128008062809328008091280008
:101230008061809328008091280088608093280036
:101240008091280084608093280080912B00806129
:1012500080932B008091280080648093280008955B
:101260008EBD0DB407FEFDCF8EB508959B01AC0178
:1012700084E0220F331F441F551F8A95D1F760E089
:1012800070E489E191E00E94110E21503109309300
:10129000CD002093CC0088E18093C90086E0809344
:1012A000CA0008959091C80095FFFCCF8093CE00AE
:1012B00008958091C80087FFFCCF8091CE000895EB
:1012C000FF920F931F93CF93DF9300D000D0CDB741
:1012D000DEB7F82EAFEFBFE09A01AB010E94060E19
:1012E0002091590130915A01442737FD4095542FE0
:1012F0000E94330E01E010E01216130614F000E015
:1013000010E08F2D880FFF24F394F80E01151105BE
:1013100019F460E070E001C0B90190E029833A83DC
:101320004B835C830E94240729813A81012B29F495
:1013300066277727621B730B02C060E070E08F2D79
:1013400090E00F900F900F900F90DF91CF911F9131
:101350000F91FF900C94240790E00E94E1069C01FD
:10136000A8E8B3E10E94F70D2FEF33E040E050E032
:101370000E94330E2C583A4041095109C901089581
:101380000E94E10660915D0170915E01680F791F16
:10139000882777FD8095982F0E94E00C20915F01AF
:1013A0003091600140916101509162010E94940D61
:1013B0000E94AD0CCB0108950E94E10620915B01D3
:1013C00030915C01AC01429FC001439F900D529F40
:1013D000900D112408950F931F93CF93DF938C01E9
:1013E000EB01F894A2E1B0E00E94060E28EE33E093
:1013F00040E050E00E94110E21503109410951098D
:1014000001301105B1F00230110531F1012BB9F5B0
:10141000CE0146E0880F991F4A95E1F7C82BC4BD5D
:1014200085E085BD27BD80916E00826080936E004F
:1014300026C0C295CC0FCC0FC07CC09380008DE03D
:1014400080938100309389002093880080916F0001
:10145000826080936F0013C0CE0136E0880F991F21
:101460003A95E1F7C82BC093B00085E08093B100B6
:101470002093B30080917000826080937000789414
:10148000DF91CF911F910F9108958130910539F02F
:101490008230910549F0892B59F486B507C08091B7
:1014A00084009091850008958091B20090E00895A5
:1014B00080E090E00895813051F018F0823079F0AA
:1014C0000895249A81E684BD8DE085BD0895549ADF
:1014D00083EA8093800085E1809381000895569A85
:1014E00081E68093B0008DE08093B1000895813053
:1014F00039F018F0823069F0089567BD48BD08954D
:10150000709389006093880050938B0040938A0009
:1015100008956093B3004093B4000895CF93C82F0B
:10152000A2E1B0E09A01AB010E94060E28EE33E082
:1015300040E050E00E94110E21503109410951094B
:10154000C13041F028F0C23049F42093B30006C006
:1015500027BD04C03093890020938800CF9108955F
:10156000813049F018F0823059F0089570938B0162
:1015700060938A01089570938901609388010895AA
:10158000709387016093860108951F920F920FB6A2
:101590000F9211242F933F934F935F936F937F93F9
:1015A0008F939F93AF93BF93EF93FF93E0918A0143
:1015B000F0918B01309709F00995FF91EF91BF9160
:1015C000AF919F918F917F916F915F914F913F91DB
:1015D0002F910F900FBE0F901F9018951F920F9292
:1015E0000FB60F9211242F933F934F935F936F93F6
:1015F0007F938F939F93AF93BF93EF93FF93E0916C
:101600008801F0918901309709F00995FF91EF91D8
:10161000BF91AF919F918F917F916F915F914F910A
:101620003F912F910F900FBE0F901F9018951F9212
:101630000F920FB60F9211242F933F934F935F9306
:101640006F937F938F939F93AF93BF93EF93FF938A
:10165000E0918601F0918701309709F00995FF919B
:10166000EF91BF91AF919F918F917F916F915F911A
:101670004F913F912F910F900FBE0F901F90189593
:101680008F929F92AF92BF92CF92DF92EF92FF9292
:101690000F931F93CF93DF936B01D82FC92F49016D
:1016A0005A010E94410C87FD0DC09701A801B601A7
:1016B0008D2F9C2F0E94900D18163CF46701D02F9F
:1016C000C12F03C06401DA2DCB2DB6018D2F9C2FC5
:1016D000DF91CF911F910F91FF90EF90DF90CF900E
:1016E000BF90AF909F908F900895861797072CF02A
:1016F000481759071CF4CA010895CB0108959B01AE
:10170000AC0184E0220F331F441F551F8A95D1F787
:1017100060E070E489E191E00E94110E21503109EE
:101720003093C5002093C40088E18093C10086E017
:101730008093C20008959091C00095FFFCCF8093E4
:10174000C6000895CF93DF93EC018991882319F0A7
:101750000E949B0BFACFDF91CF9108950F931F93B7
:10176000CF93DF93CDB7DEB764970FB6F894DEBFA3
:101770000FBECDBF7F936F939F938F9383E691E0CE
:101780009F938F938E010F5F1F4F1F930F930E94A4
:10179000BD0FC8010E94A20B0FB6F894DEBF0FBEAA
:1017A000CDBF64960FB6F894DEBF0FBECDBFDF91FC
:1017B000CF911F910F9108955058BB27AA270ED0A3
:1017C00075C166D130F06BD120F031F49F3F11F438
:1017D0001EF45BC10EF4E095E7FB51C1E92F77D110
:1017E00080F3BA17620773078407950718F071F43E
:1017F0009EF58FC10EF4E0950B2EBA2FA02D0B0194
:10180000B90190010C01CA01A0011124FF27591B45
:1018100099F0593F50F4503E68F11A16F040A22F4B
:10182000232F342F4427585FF3CF469537952795BC
:10183000A795F0405395C9F77EF41F16BA0B620BBB
:10184000730B840BBAF09150A1F0FF0FBB1F661F02
:10185000771F881FC2F70EC0BA0F621F731F841F45
:1018600048F4879577956795B795F7959E3F08F06B
:10187000B3CF9395880F08F09927EE0F979587952A
:101880000895D9D008F481E008950CD00FC107D194
:1018900040F0FED030F021F45F3F19F0F0C051115C
:1018A00039C1F3C014D198F39923C9F35523B1F387
:1018B000951B550BBB27AA2762177307840738F0BF
:1018C0009F5F5F4F220F331F441FAA1FA9F333D01E
:1018D0000E2E3AF0E0E830D091505040E695001CD2
:1018E000CAF729D0FE2F27D0660F771F881FBB1F8E
:1018F000261737074807AB07B0E809F0BB0B802D68
:10190000BF01FF2793585F4F2AF09E3F510568F0B3
:10191000B6C000C15F3FECF3983EDCF38695779547
:101920006795B795F7959F5FC9F7880F911D9695B5
:10193000879597F90895E1E0660F771F881FBB1F11
:10194000621773078407BA0720F0621B730B840BBE
:10195000BA0BEE1F88F7E095089504D06894B11192
:10196000D9C00895BCD088F09F5790F0B92F99271F
:10197000B751A0F0D1F0660F771F881F991F1AF09A
:10198000BA95C9F712C0B13081F0C3D0B1E0089563
:10199000C0C0672F782F8827B85F39F0B93FCCF3E4
:1019A000869577956795B395D9F73EF49095809590
:1019B000709561957F4F8F4F9F4F0895E89409C0B0
:1019C00097FB3EF490958095709561957F4F8F4F72
:1019D0009F4F9923A9F0F92F96E9BB279395F69588
:1019E000879577956795B795F111F8CFFAF4BB0F06
:1019F00011F460FF1BC06F5F7F4F8F4F9F4F16C06A
:101A0000882311F096E911C0772321F09EE8872FF3
:101A1000762F05C0662371F096E8862F70E060E0AF
:101A20002AF09A95660F771F881FDAF7880F969528
:101A3000879597F90895990F0008550FAA0BE0E8CC
:101A4000FEEF16161706E807F907C0F01216130680
:101A5000E407F50798F0621B730B840B950B39F4C0
:101A60000A2661F0232B242B252B21F408950A2626
:101A700009F4A140A6958FEF811D811D089597F966
:101A80009F6780E870E060E008959FEF80EC089524
:101A900000240A941616170618060906089500244D
:101AA0000A9412161306140605060895092E0394C7
:101AB000000C11F4882352F0BB0F40F4BF2B11F43B
:101AC00060FF04C06F5F7F4F8F4F9F4F089557FD9A
:101AD0009058440F551F59F05F3F71F04795880F9C
:101AE00097FB991F61F09F3F79F087950895121633
:101AF00013061406551FF2CF4695F1DF08C01616DF
:101B000017061806991FF1CF86957105610508948F
:101B10000895E894BB2766277727CB0197F90895A6
:101B20008ADF08F48FEF08950BD0C0CFB1DF28F023
:101B3000B6DF18F0952309F0A2CFA7CF1124EACF82
:101B4000C6DFA0F3959FD1F3950F50E0551F629F1C
:101B5000F001729FBB27F00DB11D639FAA27F00D06
:101B6000B11DAA1F649F6627B00DA11D661F829F2D
:101B70002227B00DA11D621F739FB00DA11D621F12
:101B8000839FA00D611D221F749F3327A00D611D2F
:101B9000231F849F600D211D822F762F6A2F112411
:101BA0009F5750408AF0E1F088234AF0EE0FFF1F64
:101BB000BB1F661F771F881F91505040A9F79E3F9B
:101BC000510570F05CCFA6CF5F3FECF3983EDCF39D
:101BD000869577956795B795F795E7959F5FC1F7D8
:101BE000FE2B880F911D9695879597F90895A29FD2
:101BF000B001B39FC001A39F700D811D1124911DE1
:101C0000B29F700D811D1124911D08950E94F70D42
:101C1000A59F900DB49F900DA49F800D911D112440
:101C20000895A1E21A2EAA1BBB1BFD010DC0AA1F1D
:101C3000BB1FEE1FFF1FA217B307E407F50720F035
:101C4000A21BB30BE40BF50B661F771F881F991FB0
:101C50001A9469F760957095809590959B01AC01F9
:101C6000BD01CF010895052E97FB1EF400940E943C
:101C70004A0E57FD07D00E94110E07FC03D04EF408
:101C80000C944A0E50954095309521953F4F4F4FFB
:101C90005F4F089590958095709561957F4F8F4F18
:101CA0009F4F08952F923F924F925F926F927F9233
:101CB0008F929F92AF92BF92CF92DF92EF92FF925C
:101CC0000F931F93CF93DF93CDB7DEB7CA1BDB0B08
:101CD0000FB6F894DEBF0FBECDBF09942A883988AD
:101CE00048885F846E847D848C849B84AA84B984B4
:101CF000C884DF80EE80FD800C811B81AA81B981C0
:101D0000CE0FD11D0FB6F894DEBF0FBECDBFED01D3
:101D10000895283008F027E03327DA01990F311DA4
:101D200087FD916000966105710539F432602E5F80
:101D30003D9330E32A95E1F708959F3F30F08038D6
:101D40007105610509F03C5F3C5F3D93913008F0FF
:101D50008068911DDF93CF931F930F93FF92EF92B3
:101D6000192F987F9695E92F96959695E90FFF275D
:101D7000E252FF4F99273327EE24FF24A701E70102
:101D800005900894079428F4360FE71EF81E491FA3
:101D9000511D660F771F881F991F0694A1F70590A4
:101DA000079428F4E70EF81E491F561FC11D770F30
:101DB000881F991F661F0694A1F70590079428F4C1
:101DC000F80E491F561FC71FD11D880F991F661F88
:101DD000771F0694A1F70590079420F4490F561F2A
:101DE000C71FD81F990F661F771F881F0694A9F772
:101DF00084911095177041F0D695C79557954795E2
:101E0000F794E7941A95C1F7E4E8F0E06894159028
:101E1000159135916591959105907FE27395E11843
:101E2000F10A430B560BC90BD009C0F7E10CF11EA8
:101E3000431F561FC91FD01D7EF4703311F48A95BD
:101E4000E6CFE894015030F0080F0AF4002702179B
:101E500008F4202F2395022F7A3328F079E37D931D
:101E60002A95E9F710C07D932A9589F606949795EF
:101E70006795379517951794E118F10A430B560BA0
:101E8000C90BD00998F023957E9173957A3308F0A9
:101E900070E37C932013B8F77E9170617D9330F0EE
:101EA000839571E37D9370E32A95E1F71124EF9018
:101EB000FF900F911F91CF91DF91992787FD90950A
:101EC0000895FC010590615070400110D8F780958D
:101ED00090958E0F9F1F0895FC01615070400190F6
:101EE0000110D8F7809590958E0F9F1F08950F933E
:101EF0001F93CF93DF93182F092FEB018B8181FD67
:101F000003C08FEF9FEF20C082FF10C04E815F8122
:101F10002C813D81421753077CF4E881F9819F01B0
:101F20002F5F3F4F39832883108306C0E885F985EA
:101F3000812F0995892B29F72E813F812F5F3F4FF4
:101F40003F832E83812F902FDF91CF911F910F918F
:101F50000895A0E0B0E0EFEAFFE00C94620EFE010D
:101F6000359661917191AF018091B2019091B30169
:101F70000E94DE00E2E00C947E0EAEE0B0E0E3EC06
:101F8000FFE00C94600E0D891E8986E08C831A8315
:101F900009838FEF9FE79E838D83AE01475E5F4F7E
:101FA0006F89788DCE0101960E94DE00EF81F88561
:101FB000E00FF11F10822E96E4E00C947C0EFA01E3
:101FC000AA27283051F1203181F1E8946F936E7F78
:101FD0006E5F7F4F8F4F9F4FAF4FB1E03ED0B4E069
:101FE0003CD0670F781F891F9A1FA11D680F791FAA
:101FF0008A1F911DA11D6A0F711D811D911DA11DBB
:1020000020D009F468943F912AE0269F11243019CA
:10201000305D3193DEF6CF010895462F4770405D65
:102020004193B3E00FD0C9F7F6CF462F4F70405D14
:102030004A3318F0495D31FD4052419302D0A9F76F
:10204000EACFB4E0A6959795879577956795BA9569
:10205000C9F700976105710508959B01AC010A2E2F
:1020600006945795479537952795BA95C9F7620F06
:0E207000731F841F951FA01D0895F894FFCFC5
:10207E00000000020000000047070000000073206F
:10208E0025642C20702025642C6D20256C642C205A
:10209E00632025642C20502025332E30662C2049B9
:1020AE002025312E31662C20442025302E33660A11
:1020BE00002564202C25642C2025640A0000008055
:1020CE003E0000FA440AD7233C401F040094FD80D2
:1020DE0005693E536574736572766F2825642C25E9
:0820EE00303364290A0D0000E3
:00000001FF
