:100000000C94BF000C94DC000C94DC000C94DC001D
:100010000C94DC000C94DC000C94DC000C94DC00F0
:100020000C94DC000C94D3070C94DC000C94DC00E2
:100030000C94DC000C94AA070C94DC000C94DC00FB
:100040000C9481070C94DC000C94DC000C94DC0014
:100050000C94DC000C94DC000C94DC000C94DC00B0
:100060000C9422060C94DC000C94DC000C94DC0054
:100070000C94DC000C94DC000C94DC006E616E00CF
:10008000696E660000407A10F35A00A0724E18099B
:100090000010A5D4E80000E87648170000E40B54EF
:1000A000020000CA9A3B000000E1F50500008096BE
:1000B0009800000040420F000000A08601000000F0
:1000C000102700000000E8030000000064000000AA
:1000D00000000A00000000000100000000002C7673
:1000E000D888DC674F0823DFC1DFAE59E1B1B7968E
:1000F000E5E3E453C63AE651997696E8E6C28426EB
:10010000EB898C9B62ED407C6FFCEFBC9C9F40F2C6
:10011000BAA56FA5F490055A2AF75C936B6CF96742
:100120006DC11BFCE0E40D47FEF520E6B500D0ED07
:10013000902E0300943577050080841E080000206F
:100140004E0A000000C80C333333330F986E12830D
:100150001141EF8D2114893BE65516CFFEE6DB18E1
:10016000D1844B381BF77C1D901DA4BBE4242032A6
:1001700084725E228100C9F124ECA1E53D2711249F
:100180001FBECFEFD0E1DEBFCDBF11E0A0E0B1E0F8
:10019000E8E6F8E102C005900D92AC38B107D9F756
:1001A00011E0ACE8B1E001C01D92AD39B107E1F753
:1001B0000E94A9050C94320C0C940000A3E1B0E05D
:1001C000E4EEF0E00C940B0A7C011B016A01FC01D7
:1001D00017821682838181FF66C3BE016F5F7F4FE6
:1001E0004B01F7019381F10193FD859193FF81917B
:1001F0001F01882309F453C3853239F493FD859197
:1002000093FF81911F01853239F4B70190E00E947C
:100210003F0B56016501E5CF10E0512C20E0203264
:10022000A0F48B3269F030F4803259F0833269F4F3
:1002300020612CC08D3239F0803339F4216026C022
:100240002260246023C0286021C027FD27C030ED34
:10025000380F3A3078F426FF06C0FAE01F9F300DC1
:100260001124132F13C06AE0569E300D1124532E13
:1002700020620CC08E3221F426FD11C3206406C01A
:100280008C3611F4206802C0883641F4F10193FDE8
:10029000859193FF81911F018111C1CF9BEB980F35
:1002A000933018F42061805E06C09BE9980F93306C
:1002B00008F0AAC12F7E26FF16E02F73722E853616
:1002C00021F4F22FF0647F2E08C0863621F4622FCD
:1002D0006068762E02C01111115077FE07C01C33E2
:1002E00048F444244394410E27E00BC0183030F406
:1002F000212F06C027E04CE3442E03C027E017E07F
:10030000412C560174E0A70EB11CF6016081718189
:1003100082819381042DA4010E94510A6C010981FC
:1003200000FF02C003FF06C071FC07C072FC08C0DA
:10033000612C08C03DE2632E05C02BE2622E02C094
:1003400090E2692E802F8C7099F1662011F084E084
:1003500001C083E0851510F0512C0BC0581A73FCB6
:1003600008C0B70180E290E00E943F0B5A94C9F7A1
:10037000F3CF662029F0B701862D90E00E943F0B55
:1003800003FD03C000E810E002C00CE710E0F72D09
:10039000F0717F2EF8018491882309F476C27110E0
:1003A0008052B70190E00E943F0B0F5F1F4FF2CFCA
:1003B00077FE0FC04C0C04FF04C08A81813309F41E
:1003C0004A94141474F5F8E0F41578F588E0482E92
:1003D0002CC076FC2AC0812F90E08C159D059CF0E6
:1003E0006CEFC6166FEFD60674F0772D7068772E17
:1003F0000AC0E2E0F0E0EC0FFD1FE10FF11D80818B
:10040000803319F411501111F4CF77FE0EC044243B
:100410004394410E812F90E0C816D9062CF41C1984
:1004200004C04424439401C010E077FE07C01C14AC
:100430001D043CF496012F5F3F4F05C025E030E0DE
:1004400002C021E030E0662011F02F5F3F4F112302
:1004500031F0412F50E04F5F5F4F240F351F452D86
:1004600050E02417350714F4521A01C0512C872D7F
:10047000897049F4552039F0B70180E290E00E947C
:100480003F0B5A94F7CF662029F0B701862D90E0F4
:100490000E943F0B73FC09C0552039F0B70180E37F
:1004A00090E00E943F0B5A94F7CF77FE5FC09C2DDF
:1004B0008D2DD7FE02C090E080E0692E782E40E0BE
:1004C00050E0C601841991099D878C8796012619F1
:1004D0003709280D391D812F90E0EE27FF27E81BF3
:1004E000F90BFF87EE87FFEF6F167F0669F4B70100
:1004F0008EE290E02B8B3A8B488B598B0E943F0BFE
:10050000598948893A892B89C614D70454F06C85D7
:100510007D85661577052CF4F901E40FF51F8181BF
:1005200001C080E371E0671A71084F5F5F4FEE858D
:10053000FF856E167F066CF0B70190E02B8B3A8B2F
:10054000488B598B0E943F0B2B893A8948895989DE
:10055000CACF6C147D0439F49A81963318F495331C
:1005600011F404FF81E3B70190E04BC08A8181332D
:1005700009F00F7EB70190E00E943F0B111105C0FA
:1005800074FE18C085E490E017C0B7018EE290E0D9
:100590000E943F0B82E066246394680EF401E80F2A
:1005A000F11D8081B70190E00E943F0B115041F393
:1005B000862DF1CF85E690E0B7010E943F0BD7FC76
:1005C00005C0C114D10439F404FF05C0D194C1940D
:1005D000D1088DE201C08BE2B70190E00E943F0B91
:1005E00080E36AE0C616D1042CF08F5FFAE0CF1AE0
:1005F000D108F7CFB70190E00E943F0BB701C601C9
:10060000C0960E943F0B41C1833631F0833779F0A9
:10061000833509F058C021C0560172E0A70EB11C05
:10062000F6018081898301E010E0640114C0560165
:10063000F2E0AF0EB11CF601C080D18026FF03C0EE
:10064000612F70E002C06FEF7FEFC6012B8B0E941D
:10065000340B8C012B892F7715C05601F2E0AF0EB9
:10066000B11CF601C080D18026FF03C0612F70E06D
:1006700002C06FEF7FEFC6012B8B0E94290B8C010C
:100680002B892068722E23FD1AC0852D90E0081753
:100690001907A8F4B70180E290E00E943F0B5A943A
:1006A000F4CFF60177FC859177FE81916F01B70158
:1006B00090E00E943F0B51105A940150110901150E
:1006C000110579F7E2C0843611F0893651F55601EB
:1006D00027FF09C0F4E0AF0EB11CF6016081718103
:1006E000828193810AC0F2E0AF0EB11CF6016081F5
:1006F0007181882777FD8095982F022F0F7697FFBD
:1007000008C090958095709561957F4F8F4F9F4F52
:1007100000682AE030E0A4010E94D40BC82EC8185B
:100720003EC0022F853721F40F7E2AE030E01DC045
:10073000097F8F3691F018F4883559F0B0C08037B2
:1007400019F0883711F0ABC0006104FF09C00460E4
:1007500007C024FF08C0066006C028E030E005C0DE
:1007600020E130E002C020E132E0560107FF09C07D
:10077000F4E0AF0EB11CF60160817181828193813A
:1007800008C0F2E0AF0EB11CF6016081718180E01B
:1007900090E0A4010E94D40BC82EC8180F7706FF62
:1007A0000BC0202F2E7FC11650F404FF0AC002FD9B
:1007B00008C0202F2E7E05C0DC2C202F03C0DC2C8F
:1007C00001C0D12E24FF0DC0FE01EC0DF11D808172
:1007D000803311F4297E09C022FF06C0D394D3943C
:1007E00004C0822F867809F0D39423FD13C020FF24
:1007F00006C01C2DD51418F4150D1D19D52CD514B3
:1008000068F4B70180E290E02B8B0E943F0BD394F9
:100810002B89F5CFD51410F45D1801C0512C24FF9D
:1008200012C0B70180E390E02B8B0E943F0B2B8915
:1008300022FF17C021FF03C088E590E002C088E7CF
:1008400090E0B7010CC0822F867859F021FD02C0DC
:1008500080E201C08BE227FD8DE2B70190E00E94AB
:100860003F0BC11638F4B70180E390E00E943F0BC4
:100870001150F7CFCA94F401EC0DF11D8081B7013E
:1008800090E00E943F0BC110F5CF552009F4C2CC77
:10089000B70180E290E00E943F0B5A94F6CFF70137
:1008A0008681978102C08FEF9FEF6396E2E10C94FF
:1008B000270ACF93DF9385B190E2892785B980918C
:1008C0008C0190918D01019690938D0180938C0104
:1008D00080918E018823C1F0C0917800D091790079
:1008E00080E090E00E940407DF93CF939F938F9363
:1008F0008EE091E09F938F930E94710B0F900F9069
:100900000F900F900F900F90DF91CF910895089561
:10091000CF93DF9300D0CDB7DEB70C9840E050E026
:1009200061E070E084E090E00E94B90505E111E02B
:1009300020917C0080917800909179001F922F93F4
:100940009F938F931F921F921F930F930E94710B7F
:100950001A8219820FB6F894DEBF0FBECDBF89810F
:100960009A818031974224F789819A8101969A83EE
:100970008983F5CF80E284B98AB180638AB98FE137
:1009800091E09F938F930E94710B81E00E941A0760
:100990008FE191E00E94850B40E050E061E070E063
:1009A00084E090E00E94B9050F900F9030E1C32ED3
:1009B00037E2D32EE12CF12C19E045E2242E41E060
:1009C000342E18990BC0199911C01A9B15C080E1DB
:1009D000C82E87E2D82EE12CF12C0EC020E4C22EC6
:1009E00022E4D22E2FE0E22EF12C06C090E5C92E93
:1009F00093ECD92EE12CF12CC701B60128EE33E09F
:100A000040E050E00E94E909129FE001139FD00DE1
:100A10001124A0907800B0907900BE01882777FD5E
:100A20008095982F0E94EF082B013C01B50180E0D2
:100A300090E00E94ED0820E030E040E85AE30E9498
:100A40007B09A30192010E947B090E94C1084B010E
:100A50005C0120917800309179008091780090912C
:100A600079003F932F939F938F9360E472E48FE01C
:100A700090E0A70196010E94E9095F934F933F938D
:100A80002F93B40180E090E00E94ED08A301920151
:100A90000E9459089F938F937F936F933F922F9259
:100AA0000E94710BA401BE0181E00E9433078DB743
:100AB0009EB70E960FB6F8949EBF0FBE8DBF81CF26
:100AC00040E050E061E070E084E090E00E94B90511
:100AD0002CE531E140E050E062E070E081E090E040
:100AE0000E94860669E574E081E00E946C0720E0C0
:100AF00030E0A90160E070E080E090E00E948606AE
:100B000080E284B9C1E0189BFECF84E391E00E94AB
:100B1000850BC0938E0110928D0110928C012FEFE6
:100B20008FE398E3215080409040E1F700C000003F
:100B3000EACF41E050E061E070E084E090E00E94A4
:100B4000B90581E080938E0189E594E00E941D063D
:100B5000FFCF0E94500660E072EC81E090E00E94BE
:100B60005C068AE491E00E94850B0E947F060E9449
:100B70006005F8948830910594F591B121E030E05A
:100B8000082E01C0220F0A94EAF72095292321B9E3
:100B9000806480937C0020917A002760CB0135E04F
:100BA000880F991F3A95E1F78068E3E0440F551FDD
:100BB000EA95E1F7842B282B20937A0061157105C3
:100BC00019F480917B0001C080E080937B00672B4B
:100BD00029F080917A00806480937A007894089557
:100BE000EAE7F0E080818F7780831092790010929D
:100BF000780008958830910554F490917C00907E9F
:100C000090937C0090917C00982B90937C000895A9
:100C100020917A002F7D20937A000E94FA0580911E
:100C20007A00806480937A0080917A0086FDFCCF00
:100C3000809178009091790008959093900180932D
:100C40008F0108951F920F920FB60F9211242F93C8
:100C50003F934F935F936F937F938F939F93AF9344
:100C6000BF93EF93FF93E0918F01F0919001309744
:100C700009F00995FF91EF91BF91AF919F918F91ED
:100C80007F916F915F914F913F912F910F900FBE88
:100C90000F901F9018950E94780680E090E00895CC
:100CA00080E091E090939A018093990160E072EC6A
:100CB00081E090E00C94FC079B01AC0184E0220FE2
:100CC000331F441F551F8A95D1F760E070E489E116
:100CD00091E00E94E909215031093093CD00209321
:100CE000CC0088E18093C90086E08093CA00089513
:100CF0009091C80095FFFCCF8093CE00089580911D
:100D0000C80087FFFCCF8091CE000895EF92FF923C
:100D10000F931F93CF93DF9300D000D0CDB7DEB7F2
:100D20008C017B018FB780688FBFA2E1B0E00E9489
:100D3000DE0920ED37E040E050E00E94E909215053
:100D40003109410951095F934F933F932F938DE6EA
:100D500091E09F938F9329833A834B835C830E9416
:100D6000710B0F900F900F900F900F900F902981A3
:100D70003A8101301105B1F00230110539F1012B32
:100D8000C1F5C70146E0880F991F4A95E1F78E2902
:100D900084BD85E085BD27BD80916E008260809313
:100DA0006E0027C08E2D8295880F880F807C8093DF
:100DB00080008DE08093810030938900209388002B
:100DC00080916F00826080936F0013C0C70136E08E
:100DD000880F991F3A95E1F78E298093B00085E03E
:100DE0008093B1002093B300809170008260809363
:100DF00070000F900F900F900F90DF91CF911F9187
:100E00000F91FF90EF9008958130910539F0823075
:100E1000910549F0892B59F426B507C0209184002B
:100E20003091850005C02091B20030E001C00895E6
:100E3000C9010895813049F018F0823069F00895B1
:100E400081E684BD8DE085BD089583EA80938000AE
:100E500085E180938100089581E68093B0008DE064
:100E60008093B1000895813039F018F0823069F034
:100E7000089567BD48BD0895709389006093880008
:100E800050938B0040938A0008956093B300409381
:100E9000B4000895CF93C82FA2E1B0E09A01AB014E
:100EA0000E94DE0928EE33E040E050E00E94E909AC
:100EB0002150310941095109C13041F028F0C230B7
:100EC00049F42093B30006C027BD04C030938900C5
:100ED00020938800CF910895813049F018F0823036
:100EE00059F0089570939601609395010895709359
:100EF000940160939301089570939201609391011E
:100F000008951F920F920FB60F9211242F933F93C3
:100F10004F935F936F937F938F939F93AF93BF9301
:100F2000EF93FF93E0919501F0919601309709F0CE
:100F30000995FF91EF91BF91AF919F918F917F9113
:100F40006F915F914F913F912F910F900FBE0F9036
:100F50001F9018951F920F920FB60F9211242F9386
:100F60003F934F935F936F937F938F939F93AF9331
:100F7000BF93EF93FF93E0919301F0919401309729
:100F800009F00995FF91EF91BF91AF919F918F91DA
:100F90007F916F915F914F913F912F910F900FBE75
:100FA0000F901F9018951F920F920FB60F92112459
:100FB0002F933F934F935F936F937F938F939F9361
:100FC000AF93BF93EF93FF93E0919101F091920162
:100FD000309709F00995FF91EF91BF91AF919F91E3
:100FE0008F917F916F915F914F913F912F910F90D2
:100FF0000FBE0F901F9018959B01AC0184E0220F4B
:10100000331F441F551F8A95D1F760E070E489E1D2
:1010100091E00E94E909215031093093C5002093E5
:10102000C40088E18093C10086E08093C2000895E7
:101030009091C00095FFFCCF8093C6000895CF9398
:10104000DF93EC018991882319F00E941808FACFE8
:10105000DF91CF9108950F931F93CF93DF93CDB777
:10106000DEB764970FB6F894DEBF0FBECDBF7F9397
:101070006F939F938F9388E791E09F938F938E0157
:101080000F5F1F4F1F930F930E94B20BC8010E9466
:101090001F080FB6F894DEBF0FBECDBF64960FB623
:1010A000F894DEBF0FBECDBFDF91CF911F910F919E
:1010B00008950CD0E6C0DED040F0D5D030F021F459
:1010C0005F3F19F0C7C0511110C1CAC0EBD098F3EF
:1010D0009923C9F35523B1F3951B550BBB27AA27B9
:1010E00062177307840738F09F5F5F4F220F331F2B
:1010F000441FAA1FA9F333D00E2E3AF0E0E830D0F7
:1011000091505040E695001CCAF729D0FE2F27D0F9
:10111000660F771F881FBB1F261737074807AB07C7
:10112000B0E809F0BB0B802DBF01FF2793585F4F3C
:101130002AF09E3F510568F08DC0D7C05F3FECF3A9
:10114000983EDCF3869577956795B795F7959F5F01
:10115000C9F7880F911D9695879597F90895E1E055
:10116000660F771F881FBB1F621773078407BA07B4
:1011700020F0621B730B840BBA0BEE1F88F7E0950F
:10118000089598D088F09F5790F0B92F9927B751BC
:10119000A0F0D1F0660F771F881F991F1AF0BA953B
:1011A000C9F712C0B13081F09FD0B1E008959CC062
:1011B000672F782F8827B85F39F0B93FCCF3869531
:1011C00077956795B395D9F73EF49095809570958E
:1011D00061957F4F8F4F9F4F0895E89409C097FB0B
:1011E0003EF490958095709561957F4F8F4F9F4FFE
:1011F0009923A9F0F92F96E9BB279395F695879542
:1012000077956795B795F111F8CFFAF4BB0F11F404
:1012100060FF1BC06F5F7F4F8F4F9F4F16C08823AB
:1012200011F096E911C0772321F09EE8872F762FE1
:1012300005C0662371F096E8862F70E060E02AF022
:101240009A95660F771F881FDAF7880F969587950E
:1012500097F9089597F99F6780E870E060E0089536
:101260009FEF80EC089500240A94161617061806BE
:101270000906089500240A9412161306140605069A
:101280000895092E0394000C11F4882352F0BB0F2B
:1012900040F4BF2B11F460FF04C06F5F7F4F8F4F8E
:1012A0009F4F089557FD9058440F551F59F05F3FC9
:1012B00071F04795880F97FB991F61F09F3F79F078
:1012C00087950895121613061406551FF2CF4695FA
:1012D000F1DF08C0161617061806991FF1CF86957C
:1012E0007105610508940895E894BB276627772760
:1012F000CB0197F908950BD0C4CFB5DF28F0BADF42
:1013000018F0952309F0A6CFABCF1124EECFCADF9A
:10131000A0F3959FD1F3950F50E0551F629FF00108
:10132000729FBB27F00DB11D639FAA27F00DB11D61
:10133000AA1F649F6627B00DA11D661F829F2227EA
:10134000B00DA11D621F739FB00DA11D621F839F71
:10135000A00D611D221F749F3327A00D611D231F47
:10136000849F600D211D822F762F6A2F11249F5795
:1013700050408AF0E1F088234AF0EE0FFF1FBB1FB8
:10138000661F771F881F91505040A9F79E3F510557
:1013900070F060CFAACF5F3FECF3983EDCF3869508
:1013A00077956795B795F795E7959F5FC1F7FE2B02
:1013B000880F911D9695879597F908950E94420A86
:1013C000A59F900DB49F900DA49F800D911D112499
:1013D0000895A1E21A2EAA1BBB1BFD010DC0AA1F76
:1013E000BB1FEE1FFF1FA217B307E407F50720F08E
:1013F000A21BB30BE40BF50B661F771F881F991F09
:101400001A9469F760957095809590959B01AC0151
:10141000BD01CF0108952F923F924F925F926F923C
:101420007F928F929F92AF92BF92CF92DF92EF9274
:10143000FF920F931F93CF93DF93CDB7DEB7CA1BF5
:10144000DB0B0FB6F894DEBF0FBECDBF09942A8820
:10145000398848885F846E847D848C849B84AA84C8
:10146000B984C884DF80EE80FD800C811B81AA8155
:10147000B981CE0FD11D0FB6F894DEBF0FBECDBF20
:10148000ED010895A29FB001B39FC001A39F700D0D
:10149000811D1124911DB29F700D811D1124911D7C
:1014A0000895283008F027E03327DA01990F311D1D
:1014B00087FD916000966105710539F432602E5FF9
:1014C0003D9330E32A95E1F708959F3F30F080384F
:1014D0007105610509F03C5F3C5F3D93913008F078
:1014E0008068911DDF93CF931F930F93FF92EF922C
:1014F000192F987F9695E92F96959695E90FFF27D6
:10150000E252FF4F99273327EE24FF24A701E7017A
:1015100005900894079428F4360FE71EF81E491F1B
:10152000511D660F771F881F991F0694A1F705901C
:10153000079428F4E70EF81E491F561FC11D770FA8
:10154000881F991F661F0694A1F70590079428F439
:10155000F80E491F561FC71FD11D880F991F661F00
:10156000771F0694A1F70590079420F4490F561FA2
:10157000C71FD81F990F661F771F881F0694A9F7EA
:1015800084911095177041F0D695C795579547955A
:10159000F794E7941A95C1F7E4E8F0E068941590A1
:1015A000159135916591959105907FE27395E118BC
:1015B000F10A430B560BC90BD009C0F7E10CF11E21
:1015C000431F561FC91FD01D7EF4703311F48A9536
:1015D000E6CFE894015030F0080F0AF40027021714
:1015E00008F4202F2395022F7A3328F079E37D9396
:1015F0002A95E9F710C07D932A9589F60694979568
:101600006795379517951794E118F10A430B560B18
:10161000C90BD00998F023957E9173957A3308F021
:1016200070E37C932013B8F77E9170617D9330F066
:10163000839571E37D9370E32A95E1F71124EF9090
:10164000FF900F911F91CF91DF91992787FD909582
:101650000895FC010590615070400110D8F7809505
:1016600090958E0F9F1F0895FC016150704001906E
:101670000110D8F7809590958E0F9F1F08950F93B6
:101680001F93CF93DF93182F092FEB018B8181FDDF
:1016900003C08FEF9FEF20C082FF10C04E815F819B
:1016A0002C813D81421753077CF4E881F9819F0129
:1016B0002F5F3F4F39832883108306C0E885F98563
:1016C000812F0995892B29F72E813F812F5F3F4F6D
:1016D0003F832E83812F902FDF91CF911F910F9108
:1016E0000895A0E0B0E0E7E7FBE00C941B0AFE01E0
:1016F000359661917191AF018091990190919A0114
:101700000E94DE00E2E00C94370A0F931F93CF9300
:10171000DF93E0919901F0919A01238121FF1BC091
:10172000EC0100E010E089916091990170919A01BB
:10173000DB011896ED91FC911997882331F00995FA
:10174000892B89F30FEF1FEFEECF8AE00995892BE4
:1017500011F4C80102C08FEF9FEFDF91CF911F916D
:101760000F910895AEE0B0E0E8EBFBE00C94190AAD
:101770000D891E8986E08C831A8309838FEF9FE78A
:101780009E838D83AE01475E5F4F6F89788DCE015A
:1017900001960E94DE00EF81F885E00FF11F1082B4
:1017A0002E96E4E00C94350AFA01AA27283051F16C
:1017B000203181F1E8946F936E7F6E5F7F4F8F4F82
:1017C0009F4FAF4FB1E03ED0B4E03CD0670F781FE1
:1017D000891F9A1FA11D680F791F8A1F911DA11DC6
:1017E0006A0F711D811D911DA11D20D009F46894FF
:1017F0003F912AE0269F11243019305D3193DEF6A7
:10180000CF010895462F4770405D4193B3E00FD05C
:10181000C9F7F6CF462F4F70405D4A3318F0495D47
:1018200031FD4052419302D0A9F7EACFB4E0A6952A
:101830009795879577956795BA95C9F7009761054C
:10184000710508959B01AC010A2E069457954795A2
:1018500037952795BA95C9F7620F731F841F951F97
:08186000A01D0895F894FFCFCC
:1018680000000002000000004B0600000000256494
:101878002025640A0025752025752025750A00484D
:10188800656C6C6F002566202575487A20257520C3
:1018980025750A005374617274696E67206E6577E6
:1018A80020636170747572652E00456E74657220D0
:1018B800616E792063686172616374657220746F08
:1018C80020636F6E74696E75652E2E2E00636F6DC2
:1018D800703A20256C750A00536574736572766FCB
:0C18E8002825642C25303364290A0D00EB
:00000001FF
