:100000000C943A010C9457010C9457010C9457012D
:100010000C9457010C9457010C9457010C94570100
:100020000C9457010C94CA090C9457010C94570175
:100030000C9457010C94A1090C9457010C9457018E
:100040000C9478090C9457010C9457010C945701A7
:100050000C9457010C9457010C9457010C945701C0
:100060000C9490060C9457010C9457010C94570172
:100070000C9457010C9457010C945701084AD73B34
:100080003BCE016E84BCBFFDC12F3D6C74319ABD67
:1000900056833DDA3D00C77F11BED9E4BB4C3E918B
:1000A0006BAAAABE000000803F072C7AA5BA6CC5D7
:1000B00090DA3B9365FC8BBC53F810FD3C56928361
:1000C0004DBD879D3AB63DCBC9BF5BBE73DA0FC944
:1000D0003F05A84CCDB2D44EB93836A9020C50B960
:1000E000918688083CA6AAAA2ABE000000803F0785
:1000F000634236B79BD8A71A39685618AEBAAB55C3
:100100008C1D3CB7CC5763BD6DEDFD753EF6177287
:1001100031BF000000803F08000000BE9224491259
:100120003EABAAAA2ABECDCCCC4C3E00000080BE7D
:10013000ABAAAAAA3E00000000BF000000803F005A
:1001400000000000084178D3BB4387D1133D190E4E
:100150003CC3BD4282AD2B3E68EC8276BED98FE1B6
:10016000A93E4C80EFFFBE01C4FF7F3F00000000AE
:10017000006E616E00696E660000407A10F35A00EE
:10018000A0724E18090010A5D4E80000E8764817C0
:100190000000E40B54020000CA9A3B000000E1F5A5
:1001A00005000080969800000040420F000000A06B
:1001B0008601000000102700000000E80300000096
:1001C000006400000000000A0000000000010000C0
:1001D0000000002C76D888DC674F0823DFC1DFAE33
:1001E00059E1B1B796E5E3E453C63AE651997696FC
:1001F000E8E6C28426EB898C9B62ED407C6FFCEFC5
:10020000BC9C9F40F2BAA56FA5F490055A2AF75CF2
:10021000936B6CF9676DC11BFCE0E40D47FEF520A4
:10022000E6B500D0ED902E0300943577050080846C
:100230001E080000204E0A000000C80C3333333380
:100240000F986E12831141EF8D2114893BE65516EC
:10025000CFFEE6DB18D1844B381BF77C1D901DA424
:10026000BBE424203284725E228100C9F124ECA117
:10027000E53D270011241FBECFEFD0E1DEBFCDBF8B
:1002800011E0A0E0B1E0E6E1F2E302C005900D92DA
:10029000A63DB107D9F712E0A6EDB1E001C01D926D
:1002A000AC31B107E1F70E9412060C9409190C94C5
:1002B0000000A3E1B0E0EFE5F1E00C94DD167C0175
:1002C0001B016A01FC0117821682838181FF66C3CC
:1002D000BE016F5F7F4F4B01F7019381F10193FDE9
:1002E000859193FF81911F01882309F453C38532BF
:1002F00039F493FD859193FF81911F01853239F483
:10030000B70190E00E94161856016501E5CF10E094
:10031000512C20E02032A0F48B3269F030F480328E
:1003200059F0833269F420612CC08D3239F080336A
:1003300039F4216026C02260246023C0286021C0D7
:1003400027FD27C030ED380F3A3078F426FF06C07D
:10035000FAE01F9F300D1124132F13C06AE0569E40
:10036000300D1124532E20620CC08E3221F426FD54
:1003700011C3206406C08C3611F4206802C0883690
:1003800041F4F10193FD859193FF81911F0181114A
:10039000C1CF9BEB980F933018F42061805E06C0AC
:1003A0009BE9980F933008F0AAC12F7E26FF16E034
:1003B0002F73722E853621F4F22FF0647F2E08C041
:1003C000863621F4622F6068762E02C0111111501A
:1003D00077FE07C01C3348F444244394410E27E0C1
:1003E0000BC0183030F4212F06C027E04CE3442E18
:1003F00003C027E017E0412C560174E0A70EB11CA2
:10040000F6016081718182819381042DA4010E9493
:1004100028176C01098100FF02C003FF06C071FCB0
:1004200007C072FC08C0612C08C03DE2632E05C005
:100430002BE2622E02C090E2692E802F8C7099F11F
:10044000662011F084E001C083E0851510F0512C86
:100450000BC0581A73FC08C0B70180E290E00E94FC
:1004600016185A94C9F7F3CF662029F0B701862DE4
:1004700090E00E94161803FD03C005E711E002C0DA
:1004800001E711E0F72DF0717F2EF80184918823A8
:1004900009F476C271108052B70190E00E941618DC
:1004A0000F5F1F4FF2CF77FE0FC04C0C04FF04C04C
:1004B0008A81813309F44A94141474F5F8E0F41530
:1004C00078F588E0482E2CC076FC2AC0812F90E079
:1004D0008C159D059CF06CEFC6166FEFD60674F078
:1004E000772D7068772E0AC0E2E0F0E0EC0FFD1F78
:1004F000E10FF11D8081803319F411501111F4CFF7
:1005000077FE0EC044244394410E812F90E0C8161C
:10051000D9062CF41C1904C04424439401C010E0F3
:1005200077FE07C01C141D043CF496012F5F3F4F5B
:1005300005C025E030E002C021E030E0662011F087
:100540002F5F3F4F112331F0412F50E04F5F5F4F3E
:10055000240F351F452D50E02417350714F4521A87
:1005600001C0512C872D897049F4552039F0B7010D
:1005700080E290E00E9416185A94F7CF662029F086
:10058000B701862D90E00E94161873FC09C0552013
:1005900039F0B70180E390E00E9416185A94F7CF23
:1005A00077FE5FC09C2D8D2DD7FE02C090E080E0CD
:1005B000692E782E40E050E0C601841991099D878C
:1005C0008C87960126193709280D391D812F90E057
:1005D000EE27FF27E81BF90BFF87EE87FFEF6F166B
:1005E0007F0669F4B7018EE290E02B8B3A8B488B43
:1005F000598B0E941618598948893A892B89C61443
:10060000D70454F06C857D85661577052CF4F901C7
:10061000E40FF51F818101C080E371E0671A710862
:100620004F5F5F4FEE85FF856E167F066CF0B7015A
:1006300090E02B8B3A8B488B598B0E9416182B8994
:100640003A8948895989CACF6C147D0439F49A8152
:10065000963318F4953311F404FF81E3B70190E069
:100660004BC08A81813309F00F7EB70190E00E9470
:100670001618111105C074FE18C085E490E017C06B
:10068000B7018EE290E00E94161882E0662463941F
:10069000680EF401E80FF11D8081B70190E00E941F
:1006A0001618115041F3862DF1CF85E690E0B70181
:1006B0000E941618D7FC05C0C114D10439F404FFF8
:1006C00005C0D194C194D1088DE201C08BE2B7017D
:1006D00090E00E94161880E36AE0C616D1042CF060
:1006E0008F5FFAE0CF1AD108F7CFB70190E00E94F0
:1006F0001618B701C601C0960E94161841C183366C
:1007000031F0833779F0833509F058C021C05601A4
:1007100072E0A70EB11CF6018081898301E010E030
:10072000640114C05601F2E0AF0EB11CF601C080A6
:10073000D18026FF03C0612F70E002C06FEF7FEF12
:10074000C6012B8B0E940B188C012B892F7715C0AB
:100750005601F2E0AF0EB11CF601C080D18026FF39
:1007600003C0612F70E002C06FEF7FEFC6012B8BDB
:100770000E9400188C012B892068722E23FD1AC05C
:10078000852D90E008171907A8F4B70180E290E0E2
:100790000E9416185A94F4CFF60177FC859177FEE3
:1007A00081916F01B70190E00E94161851105A9480
:1007B000015011090115110579F7E2C0843611F0D5
:1007C000893651F5560127FF09C0F4E0AF0EB11C80
:1007D000F60160817181828193810AC0F2E0AF0EDF
:1007E000B11CF60160817181882777FD8095982F73
:1007F000022F0F7697FF08C09095809570956195B0
:100800007F4F8F4F9F4F00682AE030E0A4010E9485
:10081000AB18C82EC8183EC0022F853721F40F7EB2
:100820002AE030E01DC0097F8F3691F018F488353A
:1008300059F0B0C0803719F0883711F0ABC00061B3
:1008400004FF09C0046007C024FF08C0066006C09A
:1008500028E030E005C020E130E002C020E132E0D5
:10086000560107FF09C0F4E0AF0EB11CF60160812C
:1008700071818281938108C0F2E0AF0EB11CF60154
:100880006081718180E090E0A4010E94AB18C82EC5
:10089000C8180F7706FF0BC0202F2E7FC11650F40B
:1008A00004FF0AC002FD08C0202F2E7E05C0DC2CEC
:1008B000202F03C0DC2C01C0D12E24FF0DC0FE016F
:1008C000EC0DF11D8081803311F4297E09C022FFD7
:1008D00006C0D394D39404C0822F867809F0D394B1
:1008E00023FD13C020FF06C01C2DD51418F4150DD0
:1008F0001D19D52CD51468F4B70180E290E02B8B3C
:100900000E941618D3942B89F5CFD51410F45D18D6
:1009100001C0512C24FF12C0B70180E390E02B8B63
:100920000E9416182B8922FF17C021FF03C088E5FB
:1009300090E002C088E790E0B7010CC0822F867873
:1009400059F021FD02C080E201C08BE227FD8DE25B
:10095000B70190E00E941618C11638F4B70180E381
:1009600090E00E9416181150F7CFCA94F401EC0DD4
:10097000F11D8081B70190E00E941618C110F5CFDB
:10098000552009F4C2CCB70180E290E00E9416180D
:100990005A94F6CFF7018681978102C08FEF9FEFBF
:1009A0006396E2E10C94F91685B190E2892785B946
:1009B0008091D6019091D70101969093D7018093B1
:1009C000D6018091D8018823C1F020917800309120
:1009D00079008091D6019091D7013F932F939F93F7
:1009E0008F9383E191E09F938F930E9448180F901B
:1009F0000F900F900F900F900F900895CF93DF936B
:100A000000D0CDB7DEB70C9820E030E0A90160E05F
:100A100070E081E090E00E949E0840E050E061E0DC
:100A200070E084E090E00E94220602E211E0E09093
:100A30007800F090790081E090E00E94F808FF9241
:100A4000EF929F938F931F930F930E9448181A82DF
:100A500019820F900F900F900F900F900F90898137
:100A60009A81803197421CF789819A8101969A83F5
:100A70008983F5CF80E284B981E00E940E0940E0CD
:100A800050E061E070E084E090E00E94220630E1F6
:100A9000C32E37E2D32EE12CF12C19E04AE1242EAB
:100AA00041E0342E18990BC0199911C01A9B15C03A
:100AB00080E1C82E87E2D82EE12CF12C0EC020E474
:100AC000C22E22E4D22E2FE0E22EF12C06C090E5B9
:100AD000C92E93ECD92EE12CF12CC701B60128EEDA
:100AE00033E040E050E00E949C16129FE001139F0B
:100AF000D00D1124A0907800B0907900BE01882715
:100B000077FD8095982F0E9420132B013C01B501A1
:100B100080E090E00E941E1320E030EC4FE754E4A8
:100B20000E948512A30192010E9454140E94F212A5
:100B30004B015C0120917800309179008091780020
:100B4000909179003F932F939F938F9360E472E489
:100B50008FE090E0A70196010E949C165F934F934F
:100B60003F932F93B40180E090E00E941E13A301F5
:100B700092010E9485129F938F937F936F933F9270
:100B80002F920E944818A401BE0181E00E942A0908
:100B90008DB79EB70E960FB6F8949EBF0FBE8DBF51
:100BA00081CF40E050E061E070E084E090E00E949E
:100BB00022062CE531E140E050E062E070E081E0A7
:100BC00090E00E949E0864ED74E081E00E94630959
:100BD00080E284B9C1E0189BFECF89E291E00E94D7
:100BE0005C18C093D8011092D7011092D6012FEF54
:100BF0008FE398E3215080409040E1F700C000006F
:100C00001092D801E8CF41E050E061E070E084E06C
:100C100090E00E94220681E08093D80184ED94E068
:100C20000C948B060E94BE0660E072EC81E090E0BE
:100C30000E94CA068FE391E00E945C180E94ED06B4
:100C40000E94D105F8948830910594F591B121E086
:100C500030E0082E01C0220F0A94EAF720952923DC
:100C600021B9806480937C0020917A002760CB01B9
:100C700035E0880F991F3A95E1F78068E3E0440F6B
:100C8000551FEA95E1F7842B282B20937A006115F4
:100C9000710519F480917B0001C080E080937B0096
:100CA000672B29F080917A00806480937A00789491
:100CB0000895EAE7F0E080818F77808310927900D1
:100CC00010927800089580917800909179000895AD
:100CD0008830910554F490917C00907E90937C0034
:100CE00090917C00982B90937C00089520917A003D
:100CF0002F7D20937A000E94680680917A0080649C
:100D000080937A0080917A0086FDFCCF80917800F4
:100D10009091790008959093DA018093D901089514
:100D20001F920F920FB60F9211242F933F934F9360
:100D30005F936F937F938F939F93AF93BF93EF9343
:100D4000FF93E091D901F091DA01309709F009950C
:100D5000FF91EF91BF91AF919F918F917F916F9193
:100D60005F914F913F912F910F900FBE0F901F9069
:100D700018950E94E60680E090E0089580E091E0FA
:100D8000909319028093180260E072EC81E090E089
:100D90000C94320A9B01AC0184E0220F331F441FE4
:100DA000551F8A95D1F760E070E489E191E00E94D7
:100DB0009C16215031093093CD002093CC0088E15E
:100DC0008093C90086E08093CA0008959091C8007E
:100DD00095FFFCCF8093CE0008958091C80087FFD7
:100DE000FCCF8091CE000895CF92DF92EF92FF92D8
:100DF0000F931F93CF93DF936B01C091A801D09104
:100E0000A901002711270C1B1D0BAE01B8010E9480
:100E1000280A7C01AE01B801C6010E94280A9195FA
:100E200081959109AC01662757FD6095762F80E08A
:100E30000E94180EA701662757FD6095762F81E066
:100E4000DF91CF911F910F91FF90EF90DF90CF90A6
:100E50000C94180ECF92DF92EF92FF920F931F9394
:100E6000C0909801D0909901E0909A01F0909B0178
:100E700000919C0110919D0120919E0130919F0154
:100E80004091A0015091A1016091A2017091A30134
:100E900081E00E949C0AC0908C01D0908D01E0906E
:100EA0008E01F0908F01009190011091910120919D
:100EB000920130919301409194015091950160917C
:100EC00096017091970180E00E949C0A20E137E230
:100ED00040E050E062E070E080E090E00E949E0818
:100EE0006DE977E080E00E94630960E070E080E0F7
:100EF00090E01F910F91FF90EF90DF90CF900C94B6
:100F0000F406882319F0813051F014C02091DD01DE
:100F10003091DE01232B71F48091AA0108C0209149
:100F2000DD013091DE01232B29F48091AB0190E0AB
:100F30000C944D0890E00C94FA0C0F931F93CF93F0
:100F4000DF9381E08093EB018091E00181110AC081
:100F500060E070E080E090E0DF91CF911F910F9111
:100F60000C94F40681E00E9481079093E201809343
:100F7000E10180E00E9481079093E4018093E30106
:100F800020910E0130E04091E1015091E201609129
:100F9000E6017091E70181E00E94DE0AEC012091F8
:100FA000E1013091E2014091E3015091E40160914F
:100FB000E50181E00E94330CC80FD91F20910E017A
:100FC00030E04091E3015091E4016091E8017091BB
:100FD000E90180E00E94DE0A8C012091E10130915C
:100FE000E2014091E3015091E4016091E50180E06C
:100FF0000E94330CB801680F791FCE010E94F406DD
:101000006091E3017091E4018091E1019091E2012E
:101010000E947A0E60930F0170931001809311016A
:101020009093120110920E01DF91CF911F910F91B9
:101030000895CF93DF9300D000D01F92CDB7DEB7D5
:101040000E948D0F29833A834B835C836D8381E0FB
:1010500080930E018093E001662349F085E0FE0154
:101060003196A6EEB1E001900D928A95E1F70F90CE
:101070000F900F900F900F90DF91CF910895909364
:10108000E7018093E6017093E9016093E80181E054
:1010900080930E018093E0010895CF93DF93EC01DC
:1010A0000E9476062091AA0130E0C217D307A9F466
:1010B0006091B6017091B701680F791F882777FD9D
:1010C0008095982F0E9420132091BA013091BB0186
:1010D0004091BC015091BD0114C06091B801709164
:1010E000B901680F791F882777FD8095982F0E9496
:1010F00020132091BE013091BF014091C001509159
:10110000C1010E94541420E030E048EC52E40E94F7
:1011100054140E94ED12CB01DF91CF9108950E94EB
:1011200076062091B4013091B501AC01429FC00117
:10113000439F900D529F900D112408950F931F937C
:10114000CF93DF938C01EB01F894A2E1B0E00E9411
:10115000751628EE33E040E050E00E949C162150C6
:1011600031094109510901301105B1F00230110571
:1011700031F1012BB9F5CE0146E0880F991F4A9550
:10118000E1F7C82BC4BD85E085BD27BD80916E0009
:10119000826080936E0026C0C295CC0FCC0FC07CBD
:1011A000C09380008DE0809381003093890020936C
:1011B000880080916F00826080936F0013C0CE0121
:1011C00036E0880F991F3A95E1F7C82BC093B0001D
:1011D00085E08093B1002093B3008091700082601D
:1011E000809370007894DF91CF911F910F910895B3
:1011F0008130910539F08230910549F0892B59F4FD
:1012000086B507C0809184009091850008958091F3
:10121000B20090E0089580E090E00895813051F0B0
:1012200018F0823079F00895249A81E684BD8DE02B
:1012300085BD0895549A83EA8093800085E1809368
:1012400081000895569A81E68093B0008DE08093E6
:10125000B1000895813039F018F0823069F00895B6
:1012600067BD48BD089570938900609388005093CE
:101270008B0040938A0008956093B3004093B400BC
:101280000895CF93C82FA2E1B0E09A01AB010E946C
:10129000751628EE33E040E050E00E949C16215085
:1012A000310941095109C13041F028F0C23049F4F7
:1012B0002093B30006C027BD04C03093890020935B
:1012C0008800CF910895813049F018F0823059F0AC
:1012D00008957093F1016093F00108957093EF0108
:1012E0006093EE0108957093ED016093EC01089511
:1012F0001F920F920FB60F9211242F933F934F938B
:101300005F936F937F938F939F93AF93BF93EF936D
:10131000FF93E091F001F091F101309709F0099508
:10132000FF91EF91BF91AF919F918F917F916F91BD
:101330005F914F913F912F910F900FBE0F901F9093
:1013400018951F920F920FB60F9211242F933F936F
:101350004F935F936F937F938F939F93AF93BF93BD
:10136000EF93FF93E091EE01F091EF01309709F0D8
:101370000995FF91EF91BF91AF919F918F917F91CF
:101380006F915F914F913F912F910F900FBE0F90F2
:101390001F9018951F920F920FB60F9211242F9342
:1013A0003F934F935F936F937F938F939F93AF93ED
:1013B000BF93EF93FF93E091EC01F091ED01309733
:1013C00009F00995FF91EF91BF91AF919F918F9196
:1013D0007F916F915F914F913F912F910F900FBE31
:1013E0000F901F9018958F929F92AF92BF92CF92BD
:1013F000DF92EF92FF920F931F93CF93DF936B01D6
:10140000D82FC92F49015A010E947E1287FD0DC0B5
:101410009701A801B6018D2F9C2F0E944914181620
:101420003CF46701D02FC12F03C06401DA2DCB2D0E
:10143000B6018D2F9C2FDF91CF911F910F91FF90BF
:10144000EF90DF90CF90BF90AF909F908F900895D6
:10145000861797072CF0481759071CF4CA010895FE
:10146000CB0108959B01AC0184E0220F331F441F80
:10147000551F8A95D1F760E070E489E191E00E9400
:101480009C16215031093093C5002093C40088E197
:101490008093C10086E08093C20008959091C000BF
:1014A00095FFFCCF8093C6000895CF93DF93EC01A6
:1014B0008991882319F00E944E0AFACFDF91CF91CB
:1014C00008950F931F93CF93DF93CDB7DEB7649743
:1014D0000FB6F894DEBF0FBECDBF7F936F939F937F
:1014E0008F9382EC91E09F938F938E010F5F1F4F3C
:1014F0001F930F930E948918C8010E94550A0FB6C6
:10150000F894DEBF0FBECDBF64960FB6F894DEBF71
:101510000FBECDBFDF91CF911F910F91089588230A
:1015200019F06091640102C06091650170E08091E2
:10153000670190E00C94610ACF92DF92EF92FF92E4
:101540000F931F938823D9F0813089F540930A02C5
:1015500050930B0260930C0270930D0200930E02E5
:1015600010930F022093100230931102C0921202C6
:10157000D0921302E0921402F092150218C0409328
:10158000FE015093FF0160930002709301020093EB
:101590000202109303022093040230930502C092CA
:1015A0000602D0920702E0920802F09209021F910F
:1015B0000F91FF90EF90DF90CF9008952F923F9280
:1015C0004F925F926F927F928F929F92AF92BF9253
:1015D000CF92DF92EF92FF920F931F93CF93DF93FF
:1015E000CDB7DEB760970FB6F894DEBF0FBECDBFA4
:1015F0007A8369838A01232B61F0811105C01092DF
:10160000F9011092F80107C01092F7011092F6014B
:1016100023C0811121C08090FE019090FF01A09015
:101620000002B0900102C0900202D0900302E0904C
:101630000402F0900502409006025090070260906C
:101640000802709009022090F8013090F90128EF0B
:1016500031E03E832D8320C080900A0290900B02DF
:10166000A0900C02B0900D02C0900E02D0900F021C
:10167000E0901002F090110240901202509013027C
:1016800060901402709015022090F6013090F701DE
:1016900086EF91E09E838D83A091A801B091A9016E
:1016A000B88BAF87BD01882777FD8095982F0E9462
:1016B00020136F83788789879A87A70196010E94F4
:1016C00085120E94ED126B877C878D879E878981AA
:1016D0009A81801B910B64E670E00E94881688272F
:1016E00077FD8095982F0E94201369837A838B83DE
:1016F0009C839B01AC01C501B4010E9454144B01B1
:101700005C01B101882777FD8095982F0E942013F6
:101710009B01AC01C701B6010E9454149B01AC01AE
:10172000C501B4010E94B8116B017C012091F20146
:101730003091F3014091F4015091F50169817A8172
:101740008B819C810E94B7118090A4019090A5018B
:10175000A090A601B090A701A50194010E94851256
:101760000E94ED12882777FD8095982F0E94201304
:101770009B01AC01C301B2010E9454149B01AC0156
:10178000C701B6010E94B8112B013C016F85788911
:10179000719561957109882777FD8095982F0E9432
:1017A00020139B01AC01EF80F88409851A85C301E1
:1017B000B2010E94F3096B017C010B851C85119518
:1017C00001951109ED81FE8160817181882777FD86
:1017D0008095982F0E9420132B013C01A5019401B4
:1017E00069817A818B819C810E9454149B01AC0198
:1017F000C301B2010E94B8110E94ED12DC01CB01BD
:101800004B855C85B8010E94280AAD81BE818D930D
:101810009C9389819A81AB81BC818093F2019093E2
:10182000F301A093F401B093F501C701B6010E9442
:10183000ED12CB0160960FB6F894DEBF0FBECDBFA0
:10184000DF91CF911F910F91FF90EF90DF90CF909C
:10185000BF90AF909F908F907F906F905F904F90D0
:101860003F902F900895CF93DF9300D000D01F9228
:10187000CDB7DEB729833A834B835C8369817A8154
:101880002B813C81811103C0620F731F02C0813024
:1018900021F5882777FD8095982F0E94201320E05E
:1018A00030E048EC52E40E9485122BED3FE049E421
:1018B00050E40E94541420E030E044E353E40E94DA
:1018C00085120E94031520E030E04FE254EC0E94A4
:1018D00054140E94ED12CB0102C080E090E00F9002
:1018E0000F900F900F900F90DF91CF910895DF929E
:1018F000EF92FF920F931F93CF93DF93D82E79012E
:1019000080912800DD2011F08F7E01C08F7D8093B3
:10191000280020E4629FB001112428E0429FC0010A
:101920001124862B0E94120EE70110E09E012E1951
:101930003F09201731072CF488810E94120E8993E9
:10194000F5CF80912800DD2011F0806101C0806218
:1019500080932800DF91CF911F910F91FF90EF901E
:10196000DF9008950F931F93CF93DF931F92CDB70E
:10197000DEB7182F00E020E030E044E060E00E9495
:10198000770C83E0898301E09E012F5F3F4F41E0A8
:1019900062E0812F0E94770C82E089839E012F5F95
:1019A0003F4F42E062E0812F0E94770C0F90DF9161
:1019B000CF911F910F9108950F93CF93DF9300D094
:1019C000CDB7DEB702E09E012F5F3F4F44E061E0FC
:1019D0000E94770C698170E0762F66278A81682BD8
:1019E000882777FD8095982F0F900F90DF91CF91EA
:1019F0000F910895CF93C82F90E00E94DC0C8827A8
:101A000077FD8095982F0E942013CC2349F02091D8
:101A1000B0013091B1014091B2015091B30108C0C1
:101A20002091AC013091AD014091AE015091AF01D8
:101A30000E9454140E94ED12CB01CF9108950F9390
:101A400000E020E030E044E060E00E94770C0F917D
:101A500008950F93CF93DF9300D0CDB7DEB75983AE
:101A60004A8302E09E012F5F3F4F44E062E00E9404
:101A7000770C0F900F90DF91CF910F910895CF9336
:101A8000909128009E7F909328008861880F880F8E
:101A90000E94120E80E00E94120EC82F80E00E9469
:101AA000120E90912800916090932800282F229583
:101AB0002F7030E1C39FC0011124822BCF91089574
:101AC00083E090E00E943F0D9093FB018093FA0128
:101AD00008950E943F0D2091FA013091FB01821B75
:101AE000930BBC01882777FD8095982F0E942013C7
:101AF0002DEC3CEC4CE050E40E9454140E94ED129A
:101B0000CB0108950E9476064CEB52E066E470E04B
:101B10000E94280ABC01882777FD8095982F0E9493
:101B2000201320E030E040EA50E40E94541420E00A
:101B300030EC4FE754E40E9485129B01AC0164EF46
:101B40007DEF84ED9EE30E94B71428E93EE642E56E
:101B50005FE30E94541420E030E04AE754E40E941E
:101B600054140E94ED12CB01089584B1806B84B9A6
:101B700083E58CBD8091270080628093270080914F
:101B800027008061809327008091270088608093E0
:101B900027008091270084608093270080912A008D
:101BA000806180932A0080912700806480932700C1
:101BB00080912700816080932700809128008062B7
:101BC0008093280080912800806180932800809174
:101BD000280088608093280080912800846080938A
:101BE000280080912B00806180932B008091280039
:101BF0008064809328008091280081608093280071
:101C000008959CB59C7F9CBD9DB59E7F9DBD2CB5C8
:101C1000982F9370922B9CBD9DB586958695892BA8
:101C20008DBD08958EBD0DB407FEFDCF8EB5089510
:101C3000FF920F931F93CF93DF9300D000D0CDB7C7
:101C4000DEB7F82EA0918A01B0918B019A01AB0109
:101C50000E9480162091A8013091A901442737FDE8
:101C60004095542F0E94BE1601E010E01216130694
:101C700014F000E010E08F2D880FFF24F394F80E8D
:101C80000115110519F460E070E001C0B90190E0A0
:101C900029833A834B835C830E945B1129813A81BB
:101CA000012B29F466277727621B730B02C060E0C3
:101CB00070E08F2D90E00F900F900F900F90DF91BC
:101CC000CF911F910F91FF900C945B1190E00E94B7
:101CD00076069C01A8E8B3E10E945F162FEF33E07F
:101CE00040E050E00E94BE162C583A40410951098C
:101CF000C90108954F925F926F927F928F929F9247
:101D0000AF92BF92CF92DF92EF92FF92CF93DF9389
:101D100000D000D0CDB7DEB75B01BC01882777FDCE
:101D20008095982F0E9420132BED3FE049E450E46A
:101D30000E94541420E030E044E353E40E948512F2
:101D400020E030E048EC52E40E9485126B017C01F7
:101D5000B501882777FD8095982F0E9420132BEDE1
:101D60003FE049E450E40E94541420E030E044E3B2
:101D700053E40E94851220E030E048EC52E40E94D7
:101D800085129B01AC01C701B6010E94B8112B015D
:101D90003C010E9403154B015C01C301B2010E948A
:101DA00082122B013C01C701B6010E940315698311
:101DB0007A838B839C83C701B6010E9482129B01A8
:101DC000AC01C0908601D0908701E0908801F0902E
:101DD0008901C301B2010E94B8119B01AC01C70186
:101DE000B6010E94541420918201309183014091E8
:101DF0008401509185010E94B8110E94ED122B01BF
:101E00003C0129813A814B815C81C501B4010E946A
:101E1000B8119B01AC01C701B6010E9454140E9485
:101E2000ED126B017C01B601C2010F900F900F9073
:101E30000F90DF91CF91FF90EF90DF90CF90BF9008
:101E4000AF909F908F907F906F905F904F9008958C
:101E50008F929F92AF92BF92CF92DF92EF92FF92BA
:101E6000CF934B015C0169017A019B01AC010E9497
:101E70004E15811146C0A7019601C701B6010E9407
:101E80004E1581113EC02091780130917901409129
:101E90007A0150917B01C501B4010E947E1287FD39
:101EA00030C02091740130917501409176015091BC
:101EB0007701C501B4010E944914181614F120914C
:101EC0007001309171014091720150917301C7010D
:101ED000B6010E947E1287FD14C0C1E020916C0102
:101EE00030916D0140916E0150916F01C701B601B3
:101EF0000E94491418160CF0C0E081E08C2790E095
:101F000002C080E090E0CF91FF90EF90DF90CF9003
:101F1000BF90AF909F908F9008954F925F926F9275
:101F20007F928F929F92AF92BF92CF92DF92EF9269
:101F3000FF92CF93DF93CDB7DEB761970FB6F894DA
:101F4000DEBF0FBECDBF66247724681A790A8827C2
:101F500077FD8095982F0E94201320918201309167
:101F6000830140918401509185010E94B7110E9424
:101F7000ED126E837F8388879987B301882777FD69
:101F80008095982F0E9420139B01AC01EE81FF8168
:101F9000BF01882777FD8095982F2E873F87488B34
:101FA000598B0E9420132E853F85488959890E94AC
:101FB0002B124B015C01C0908601D0908701E0900C
:101FC0008801F09089019301D3010E9457162B01DB
:101FD0003C012E813F81D9010E945716460E571EA3
:101FE000681E791EC301B2010E9420136E837F8395
:101FF000888799870E940D156A877B878C879D87C4
:10200000A7019601C701B6010E9454149B01AC01BF
:102010000E94B8112B013C012E813F8148855985D2
:102020000E94B711A30192010E9485120E94A9117A
:102030006E837F8388879987A7019601C701B601C0
:102040000E94B8119B01AC016A857B858C859D85BA
:102050000E9485120E94A9116A877B878C879D87C1
:102060002BED3FE049E450E46E817F8188859985BE
:102070000E94B7112B013C012A853B854C855D856B
:10208000C501B4010E94B8112BED3FE049EC5FE3BC
:102090000E94B7116B017C012A853B854C855D85CB
:1020A000C501B4010E94B7112BED3FE049EC5FE39D
:1020B0000E94B7114B015C012BED3FE049E450E475
:1020C000C701B6010E94491418164CF42BED3FE0ED
:1020D00049EC50E4C701B6010E94B71112C02BEDC4
:1020E0003FE049E450ECC701B6010E947E1287FF31
:1020F0000AC02BED3FE049EC50E4C701B6010E9455
:10210000B8116B017C012BED3FE049E450E4C501BF
:10211000B4010E944914181654F42BED3FE049EC29
:1021200050E4C501B4010E94B7114B015C012BEDD5
:102130003FE049E450ECC501B4010E947E1287FFE4
:102140000AC02BED3FE049EC50E4C501B4010E9408
:10215000B8114B015C01A3019201C701B6010E94B5
:10216000280F892BF9F020E030E044E353E4C70165
:10217000B6010E9454142BED3FE049E450E40E9464
:10218000851220E030E048EC52E40E9454140E9492
:10219000ED127A83698320E030E044E353E4C30125
:1021A000B20132C02E813F81488559856BED7FE0B9
:1021B00089E490E40E94B7116B017C019B01AC01A2
:1021C000C501B4010E94280F892B99F120E030E06D
:1021D00044E353E4C501B4010E9454142BED3FE0E5
:1021E00049E450E40E94851220E030E048EC52E4DB
:1021F0000E9454140E94ED127A83698320E030E03B
:1022000044E353E4C701B6010E9454142BED3FE0B0
:1022100049E450E40E94851220E030E048EC52E4AA
:102220000E9454140E94ED127C836B8381E08D83A5
:1022300005C01A8219821C821B821D8229813A8163
:102240004B815C816D8170E080E090E061960FB61B
:10225000F894DEBF0FBECDBFDF91CF91FF90EF901E
:10226000DF90CF90BF90AF909F908F907F906F90B6
:102270005F904F90089560916A0170916B01209179
:10228000680130916901280F391F88279927821B1F
:10229000930B0C94190860916A0170916B016E5C4C
:1022A0007F4F209168013091690182EE9FEF821B80
:1022B000930B0C941908CF93DF93EB0185309105B4
:1022C000D0F490912B009F7E90932B0080630E940E
:1022D000120ECE0124E0959587952A95E1F70E948C
:1022E000120E8C2F8295807F0E94120E80912B00FF
:1022F000806180932B00DF91CF91089580912B0016
:102300008F7E80932B008FE40E94120E80E00E944B
:10231000120E80E00E94120E80912B00806180934B
:102320002B0086E08A95F1F7000080912B008F7ECC
:1023300080932B008FE10E94120E80E00E94120E0B
:1023400080E00E94120E80912B00806180932B0010
:1023500008959F939F77AFD10F9000203AF4905843
:10236000A2EA2AED3FE049E450E413D047C25058B6
:10237000BB27AA270ED042C20BD230F010D220F0D9
:1023800031F49F3F11F41EF4DBC10EF4E095E7FB3E
:10239000D1C1E92F55D280F3BA17620773078407BA
:1023A000950718F071F49EF56DC20EF4E0950B2EB2
:1023B000BA2FA02D0B01B90190010C01CA01A00197
:1023C0001124FF27591B99F0593F50F4503E68F1F2
:1023D0001A16F040A22F232F342F4427585FF3CF33
:1023E000469537952795A795F0405395C9F77EF404
:1023F0001F16BA0B620B730B840BBAF09150A1F04D
:10240000FF0FBB1F661F771F881FC2F70EC0BA0FD2
:10241000621F731F841F48F4879577956795B7955A
:10242000F7959E3F08F0B3CF9395880F08F0992752
:10243000EE0F979587950895ABD158F080E891E01D
:1024400009F49EEFACD128F040E851E059F45EEF7A
:1024500009C076C117C2E92FE078F2D168F3092EDE
:10246000052AC1F3261737074807590738F00E2EFB
:1024700007F8E02569F0E025E0640AC0EF6307F89B
:10248000009407FADB01B9019D01DC01CA01AD012D
:10249000EF934AD0B3D10AD05F91552331F02BEDA1
:1024A0003FE049E450FD49EC63CF0895DF93DD2719
:1024B000B92FBF7740E85FE31616170648075B079A
:1024C00010F4D92FEAD19F938F937F936F93E3D228
:1024D000ECE7F0E038D192D12F913F914F915F918D
:1024E000EFD1DD2349F09058A2EA2AED3FE049EC14
:1024F0005FE3D0785D274DDFDF9180C1F7D008F42E
:1025000081E0089554D1E3958AC10CD077C147D1B9
:1025100040F03ED130F021F45F3F19F00BC1511172
:10252000B2C10EC18DD198F39923C9F35523B1F3EC
:10253000951B550BBB27AA2762177307840738F032
:102540009F5F5F4F220F331F441FAA1FA9F333D091
:102550000E2E3AF0E0E830D091505040E695001C45
:10256000CAF729D0FE2F27D0660F771F881FBB1F01
:10257000261737074807AB07B0E809F0BB0B802DDB
:10258000BF01FF2793585F4F2AF09E3F510568F027
:10259000D1C079C15F3FECF3983EDCF38695779527
:1025A0006795B795F7959F5FC9F7880F911D969529
:1025B000879597F90895E1E0660F771F881FBB1F85
:1025C000621773078407BA0720F0621B730B840B32
:1025D000BA0BEE1F88F7E095089504D06894B11106
:1025E00052C1089535D188F09F5790F0B92F99279F
:1025F000B751A0F0D1F0660F771F881F991F1AF00E
:10260000BA95C9F712C0B13081F03CD1B1E008955C
:1026100039C1672F782F8827B85F39F0B93FCCF3DD
:10262000869577956795B395D9F73EF49095809503
:10263000709561957F4F8F4F9F4F0895E89409C023
:1026400097FB3EF490958095709561957F4F8F4FE5
:102650009F4F9923A9F0F92F96E9BB279395F695FB
:10266000879577956795B795F111F8CFFAF4BB0F79
:1026700011F460FF1BC06F5F7F4F8F4F9F4F16C0DD
:10268000882311F096E911C0772321F09EE8872F67
:10269000762F05C0662371F096E8862F70E060E023
:1026A0002AF09A95660F771F881FDAF7880F96959C
:1026B000879597F90895DF93CF931F930F938B011D
:1026C000EC01E9EAF0E03FD099D09801AE018B012E
:1026D000EC0160E070E080E89FE349DE9ED1980164
:1026E000AE010F911F91CF91DF91EAC0990F0008C1
:1026F000550FAA0BE0E8FEEF16161706E807F907D4
:10270000C0F012161306E407F50798F0621B730B6E
:10271000840B950B39F40A2661F0232B242B252BEF
:1027200021F408950A2609F4A140A6958FEF811D92
:10273000811D089597F99F6780E870E060E0089533
:102740009FEF80EC0895DF93CF931F930F93FF9239
:10275000EF92DF927B018C01689405C0DA2EEF01C5
:10276000AFD0FE01E894A591259135914591559101
:10277000AEF3EF010EDEFE019701A801DA9479F7BE
:10278000DF90EF90FF900F911F91CF91DF9108950F
:1027900000240A9416161706180609060895002440
:1027A0000A9412161306140605060895C9CF50D0D0
:1027B000E8F3E894E0E0BB279F57F0F02AED3FE014
:1027C00049EC06C0EE0FBB0F661F771F881F28F06D
:1027D000B23A62077307840728F0B25A620B730B90
:1027E000840BE3959A9572F7803830F49A95BB0F75
:1027F000661F771F881FD2F7904887C1092E039460
:10280000000C11F4882352F0BB0F40F4BF2B11F4DD
:1028100060FF04C06F5F7F4F8F4F9F4F0895EF930E
:10282000E0FF06C0A2EA2AED3FE049EC5FEBB1DD34
:10283000E5DF0F90039401FC9058E1EDF0E078C1E2
:1028400057FD9058440F551F59F05F3F71F0479561
:10285000880F97FB991F61F09F3F79F08795089546
:10286000121613061406551FF2CF4695F1DF08C065
:10287000161617061806991FF1CF86957105610582
:1028800008940895E894BB2766277727CB0197F92A
:1028900008952CDF08F48FEF08959B01AC0160E0F0
:1028A00070E080E89FE331CE0BD0A8CF71DF28F035
:1028B00076DF18F0952309F03DCF42CF1124E3CF06
:1028C000BFDFA0F3959FD1F3950F50E0551F629F96
:1028D000F001729FBB27F00DB11D639FAA27F00D79
:1028E000B11DAA1F649F6627B00DA11D661F829FA0
:1028F0002227B00DA11D621F739FB00DA11D621F85
:10290000839FA00D611D221F749F3327A00D611DA1
:10291000231F849F600D211D822F762F6A2F112483
:102920009F5750408AF0E1F088234AF0EE0FFF1FD6
:10293000BB1F661F771F881F91505040A9F79E3F0D
:10294000510570F0F7CE9FCF5F3FECF3983EDCF37C
:10295000869577956795B795F795E7959F5FC1F74A
:10296000FE2B880F911D9695879597F90895FA018A
:10297000EE0FFF1F30962105310599F161157105A4
:1029800061F48038BFE39B0749F168949038810572
:1029900061F08038BFEF9B0741F0992342F5FF3F7C
:1029A000E1053105210511F1E8940894E795D90175
:1029B000AA2329F4AB2FBE2FF85FD0F310C0FF5F1E
:1029C00070F4A695E0F7F73950F019F0FF3A38F4B3
:1029D0009F779F930CD00F9007FC905808953EF07E
:1029E000AFCE60E070E080E89FE308954FE79F7707
:1029F0005F934F933F932F93E7D02F913F914F9148
:102A00005F9152DF54C09F93D2DE0F9007FCEE5FC0
:102A100006CF11F40EF494CE76C01ADFD0F39923CA
:102A2000D9F3CEF39F57550B87FF7BD00024A0E648
:102A300040EA900180585695979528F4805C660F7F
:102A4000771F881F20F026173707480730F4621BCE
:102A5000730B840B202931294A2BA69517940794D0
:102A6000202531254A2758F7660F771F881F20F049
:102A700026173707480730F4620B730B840B200DC1
:102A8000311D411DA09581F7B901842F9158880F00
:102A90009695879508959B01AC0106CF27DE880B9C
:102AA000990B089519F40EF045CEECCE49CED0DE48
:102AB000C8F39638C0F707F80F92E8942BE33AEA88
:102AC00048EB5FE7FFDE0F920F920F924DB75EB7B4
:102AD0000F92BAD0EFEEF0E036DE4F915F91EF91BA
:102AE000FF91E595EE1FFF1F49F0FE57E068442770
:102AF000EE0F441FFA95E1F74195550B2CD00F903E
:102B000007FECBCE08959F3F31F0915020F487957A
:102B100077956795B795880F911D9695879597F945
:102B2000089591505040660F771F881FD2F708957F
:102B30009F938F937F936F93FF93EF939B01AC01D0
:102B4000B3DEEF91FF91FFDD2F913F914F915F91A8
:102B5000ABCEF0CDD8CF7CDEE8F39923D9F3940F38
:102B6000511DBBF39150504094F059F0882332F03E
:102B7000660F771F881F91505040C1F79E3F510547
:102B800044F7880F911D9695879597F908955F3FB3
:102B9000ACF0983E9CF0BB27869577956795B795E6
:102BA00008F4B1609395C1F7BB0F58F711F460FFBB
:102BB000E8CF6F5F7F4F8F4F9F4FE3CF64CE0EF014
:102BC000A2CFBECD6894B6CD43DEC8F39923D1F32E
:102BD000C6F3DF93CF931F930F93FF92C92FDD2787
:102BE00088232AF02197660F771F881FDAF720E0E5
:102BF00030E040E85FEB9FE3883920F0803E30F022
:102C000021968F77B5DBE7E1F1E003C0B1DBE4E4C7
:102C1000F1E099DD8B01BE01EC01FB2E6F577109CC
:102C20007595771F880B990B0BDD28E132E741E39F
:102C30005FE346DEAF2D9801AE01FF900F911F912B
:102C4000CF91DF91A6DBDACDFA01DC01AA0FBB1F21
:102C50009B01AC01BF5728F4222733274427507823
:102C60001FC0B75188F4AB2F0024469537952795A0
:102C7000011CA395D2F3002069F0220F331F441FDB
:102C8000B395DAF30DD073CB61307105A0E88A07F4
:102C9000B94630F49B01AC016627772788279078E6
:102CA000309621F0208331834283538308950E941C
:102CB0005F16332312F48A1B9B0B0C947016A29F91
:102CC000B001B39FC001A39F700D811D1124911D00
:102CD000B29F700D811D1124911D08950E945F16F1
:102CE000B7FF0895821B930B08950E945F16A59F5E
:102CF000900DB49F900DA49F800D911D11240895F7
:102D0000B7FF0C9475160E947516821B930B0895DD
:102D100097FB072E16F4009407D077FD09D00E9488
:102D2000141707FC05D03EF4909581959F4F0895A8
:102D3000709561957F4F0895A1E21A2EAA1BBB1BC7
:102D4000FD010DC0AA1FBB1FEE1FFF1FA217B30777
:102D5000E407F50720F0A21BB30BE40BF50B661F8D
:102D6000771F881F991F1A9469F760957095809551
:102D700090959B01AC01BD01CF010895052E97FBF5
:102D80001EF400940E94D51657FD07D00E949C1691
:102D900007FC03D04EF40C94D51650954095309511
:102DA00021953F4F4F4F5F4F0895909580957095B7
:102DB00061957F4F8F4F9F4F08952F923F924F9273
:102DC0005F926F927F928F929F92AF92BF92CF92BB
:102DD000DF92EF92FF920F931F93CF93DF93CDB7C4
:102DE000DEB7CA1BDB0B0FB6F894DEBF0FBECDBF3C
:102DF00009942A88398848885F846E847D848C840D
:102E00009B84AA84B984C884DF80EE80FD800C8115
:102E10001B81AA81B981CE0FD11D0FB6F894DEBFF8
:102E20000FBECDBFED010895AA1BBB1B51E107C02A
:102E3000AA1FBB1FA617B70710F0A61BB70B881F4A
:102E4000991F5A95A9F780959095BC01CD010895D9
:102E5000283008F027E03327DA01990F311D87FD6C
:102E6000916000966105710539F432602E5F3D93E3
:102E700030E32A95E1F708959F3F30F080387105DF
:102E8000610509F03C5F3C5F3D93913008F080683C
:102E9000911DDF93CF931F930F93FF92EF92192F02
:102EA000987F9695E92F96959695E90FFF27ED5215
:102EB000FE4F99273327EE24FF24A701E701059051
:102EC0000894079428F4360FE71EF81E491F511D79
:102ED000660F771F881F991F0694A1F70590079426
:102EE00028F4E70EF81E491F561FC11D770F881FD3
:102EF000991F661F0694A1F70590079428F4F80E11
:102F0000491F561FC71FD11D880F991F661F771FA6
:102F10000694A1F70590079420F4490F561FC71F88
:102F2000D81F990F661F771F881F0694A9F78491F1
:102F30001095177041F0D695C79557954795F7941A
:102F4000E7941A95C1F7E9E7F1E0689415901591B7
:102F500035916591959105907FE27395E118F10A9D
:102F6000430B560BC90BD009C0F7E10CF11E431FF0
:102F7000561FC91FD01D7EF4703311F48A95E6CF19
:102F8000E894015030F0080F0AF40027021708F403
:102F9000202F2395022F7A3328F079E37D932A9509
:102FA000E9F710C07D932A9589F606949795679561
:102FB000379517951794E118F10A430B560BC90B77
:102FC000D00998F023957E9173957A3308F070E3D9
:102FD0007C932013B8F77E9170617D9330F08395D8
:102FE00071E37D9370E32A95E1F71124EF90FF9050
:102FF0000F911F91CF91DF91992787FD90950895AB
:10300000FC010590615070400110D8F780959095B3
:103010008E0F9F1F0895FC016150704001900110B8
:10302000D8F7809590958E0F9F1F08950F931F934B
:10303000CF93DF93182F092FEB018B8181FD03C004
:103040008FEF9FEF20C082FF10C04E815F812C81E7
:103050003D81421753077CF4E881F9819F012F5F7E
:103060003F4F39832883108306C0E885F985812F77
:103070000995892B29F72E813F812F5F3F4F3F8391
:103080002E83812F902FDF91CF911F910F91089563
:10309000A0E0B0E0EEE4F8E10C94ED16FE01359608
:1030A00061917191AF0180911802909119020E9473
:1030B0005901E2E00C9409170F931F93CF93DF930C
:1030C000E0911802F0911902238121FF1BC0EC014D
:1030D00000E010E089916091180270911902DB0103
:1030E0001896ED91FC911997882331F00995892B59
:1030F00089F30FEF1FEFEECF8AE00995892B11F4CA
:10310000C80102C08FEF9FEFDF91CF911F910F9108
:103110000895AEE0B0E0EFE8F8E10C94EB160D890D
:103120001E8986E08C831A8309838FEF9FE79E8335
:103130008D83AE01475E5F4F6F89788DCE0101961A
:103140000E945901EF81F885E00FF11F10822E9641
:10315000E4E00C940717FA01AA27283051F1203136
:1031600081F1E8946F936E7F6E5F7F4F8F4F9F4F1B
:10317000AF4FB1E03ED0B4E03CD0670F781F891F5D
:103180009A1FA11D680F791F8A1F911DA11D6A0F2B
:10319000711D811D911DA11D20D009F468943F91DE
:1031A0002AE0269F11243019305D3193DEF6CF01DD
:1031B0000895462F4770405D4193B3E00FD0C9F7A3
:1031C000F6CF462F4F70405D4A3318F0495D31FD10
:1031D0004052419302D0A9F7EACFB4E0A695979563
:1031E000879577956795BA95C9F700976105710539
:1031F00008959B01AC010A2E069457954795379583
:103200002795BA95C9F7620F731F841F951FA01DDC
:063210000895F894FFCFC1
:103216000000000200000000B906000000000100E6
:10322600002C0125642025640A00256620257548A2
:103236007A2025752025750A005374617274696EAB
:1032460067206E657720636170747572652E004520
:103256006E74657220616E79206368617261637451
:10326600657220746F20636F6E74696E75652E2E9D
:103276002E0096FFB4000100D2008C00DB0FC93F80
:10328600AFADFEBFDB0FC93F68CEECBF5A008EFF65
:103296005A007DBF0E436666184364088FC2753DAB
:1032A6003333A340000043448FC2753D3333A340FC
:1032B600000043440AD7233C401F0203A38BAEC041
:1032C600683C1840040076FD8AFDE713773EFA80D5
:1032D6006A3E536574736572766F2825642C2530B3
:0632E6003364290A0D000B
:00000001FF
