:100000000C94F9000C9416010C9416010C94160132
:100010000C9416010C9416010C9416010C94160104
:100020000C9416010C9454090C9416010C941601AE
:100030000C9416010C942B090C9416010C941601C7
:100040000C9402090C9416010C9416010C941601E0
:100050000C9416010C9416010C9416010C941601C4
:100060000C944F060C9416010C9416010C94160176
:100070000C9416010C9416010C941601084AD73BF7
:100080003BCE016E84BCBFFDC12F3D6C74319ABD67
:1000900056833DDA3D00C77F11BED9E4BB4C3E918B
:1000A0006BAAAABE000000803F072C7AA5BA6CC5D7
:1000B00090DA3B9365FC8BBC53F810FD3C56928361
:1000C0004DBD879D3AB63DCBC9BF5BBE73DA0FC944
:1000D0003F05A84CCDB2D44EB93836A9020C50B960
:1000E000918688083CA6AAAA2ABE000000803F6E1E
:1000F000616E00696E660000407A10F35A00A072CB
:100100004E18090010A5D4E80000E8764817000052
:10011000E40B54020000CA9A3B000000E1F5050020
:100120000080969800000040420F000000A0860169
:10013000000000102700000000E803000000006439
:1001400000000000000A00000000000100000000A4
:10015000002C76D888DC674F0823DFC1DFAE59E179
:10016000B1B796E5E3E453C63AE651997696E8E6E8
:10017000C28426EB898C9B62ED407C6FFCEFBC9CBB
:100180009F40F2BAA56FA5F490055A2AF75C936BCD
:100190006CF9676DC11BFCE0E40D47FEF520E6B588
:1001A00000D0ED902E0300943577050080841E0862
:1001B0000000204E0A000000C80C333333330F9880
:1001C0006E12831141EF8D2114893BE65516CFFE47
:1001D000E6DB18D1844B381BF77C1D901DA4BBE4D3
:1001E00024203284725E228100C9F124ECA1E53D15
:1001F000270011241FBECFEFD0E1DEBFCDBF11E03D
:10020000A0E0B1E0E4E4FBE202C005900D92A03C66
:10021000B107D9F711E0A0ECB1E001C01D92AD3FEC
:10022000B107E1F70E94D1050C94A0150C940000D1
:10023000A3E1B0E0EEE1F1E00C9488137C011B0136
:100240006A01FC0117821682838181FF66C3BE01A9
:100250006F5F7F4F4B01F7019381F10193FD859112
:1002600093FF81911F01882309F453C3853239F428
:1002700093FD859193FF81911F01853239F4B70178
:1002800090E00E94AD1456016501E5CF10E0512CBD
:1002900020E02032A0F48B3269F030F4803259F043
:1002A000833269F420612CC08D3239F0803339F407
:1002B000216026C02260246023C0286021C027FD61
:1002C00027C030ED380F3A3078F426FF06C0FAE048
:1002D0001F9F300D1124132F13C06AE0569E300D5E
:1002E0001124532E20620CC08E3221F426FD11C33E
:1002F000206406C08C3611F4206802C0883641F4B0
:10030000F10193FD859193FF81911F018111C1CF6F
:100310009BEB980F933018F42061805E06C09BE938
:10032000980F933008F0AAC12F7E26FF16E02F7396
:10033000722E853621F4F22FF0647F2E08C08636A7
:1003400021F4622F6068762E02C01111115077FEE1
:1003500007C01C3348F444244394410E27E00BC0EB
:10036000183030F4212F06C027E04CE3442E03C0A0
:1003700027E017E0412C560174E0A70EB11CF601EE
:100380006081718182819381042DA4010E94BF1339
:100390006C01098100FF02C003FF06C071FC07C0A9
:1003A00072FC08C0612C08C03DE2632E05C02BE240
:1003B000622E02C090E2692E802F8C7099F1662027
:1003C00011F084E001C083E0851510F0512C0BC0C2
:1003D000581A73FC08C0B70180E290E00E94AD1487
:1003E0005A94C9F7F3CF662029F0B701862D90E023
:1003F0000E94AD1403FD03C003EF10E002C00FEE36
:1004000010E0F72DF0717F2EF8018491882309F414
:1004100076C271108052B70190E00E94AD140F5F58
:100420001F4FF2CF77FE0FC04C0C04FF04C08A812F
:10043000813309F44A94141474F5F8E0F41578F54E
:1004400088E0482E2CC076FC2AC0812F90E08C15C5
:100450009D059CF06CEFC6166FEFD60674F0772DF5
:100460007068772E0AC0E2E0F0E0EC0FFD1FE10FAC
:10047000F11D8081803319F411501111F4CF77FEF2
:100480000EC044244394410E812F90E0C816D90633
:100490002CF41C1904C04424439401C010E077FEDE
:1004A00007C01C141D043CF496012F5F3F4F05C08C
:1004B00025E030E002C021E030E0662011F02F5F3F
:1004C0003F4F112331F0412F50E04F5F5F4F240F1A
:1004D000351F452D50E02417350714F4521A01C07A
:1004E000512C872D897049F4552039F0B70180E2ED
:1004F00090E00E94AD145A94F7CF662029F0B7011E
:10050000862D90E00E94AD1473FC09C0552039F08F
:10051000B70180E390E00E94AD145A94F7CF77FEC4
:100520005FC09C2D8D2DD7FE02C090E080E0692E2B
:10053000782E40E050E0C601841991099D878C8790
:10054000960126193709280D391D812F90E0EE27D5
:10055000FF27E81BF90BFF87EE87FFEF6F167F067B
:1005600069F4B7018EE290E02B8B3A8B488B598B64
:100570000E94AD14598948893A892B89C614D70439
:1005800054F06C857D85661577052CF4F901E40F30
:10059000F51F818101C080E371E0671A71084F5F28
:1005A0005F4FEE85FF856E167F066CF0B70190E019
:1005B0002B8B3A8B488B598B0E94AD142B893A892F
:1005C00048895989CACF6C147D0439F49A819633CD
:1005D00018F4953311F404FF81E3B70190E04BC0A8
:1005E0008A81813309F00F7EB70190E00E94AD143B
:1005F000111105C074FE18C085E490E017C0B70162
:100600008EE290E00E94AD1482E066246394680E4E
:10061000F401E80FF11D8081B70190E00E94AD1454
:10062000115041F3862DF1CF85E690E0B7010E948D
:10063000AD14D7FC05C0C114D10439F404FF05C0C2
:10064000D194C194D1088DE201C08BE2B70190E052
:100650000E94AD1480E36AE0C616D1042CF08F5FCF
:10066000FAE0CF1AD108F7CFB70190E00E94AD149D
:10067000B701C601C0960E94AD1441C1833631F066
:10068000833779F0833509F058C021C0560172E0F4
:10069000A70EB11CF6018081898301E010E064019E
:1006A00014C05601F2E0AF0EB11CF601C080D1803B
:1006B00026FF03C0612F70E002C06FEF7FEFC6011D
:1006C0002B8B0E94A2148C012B892F7715C0560109
:1006D000F2E0AF0EB11CF601C080D18026FF03C04E
:1006E000612F70E002C06FEF7FEFC6012B8B0E947D
:1006F00097148C012B892068722E23FD1AC0852D3A
:1007000090E008171907A8F4B70180E290E00E9472
:10071000AD145A94F4CFF60177FC859177FE819160
:100720006F01B70190E00E94AD1451105A9401502E
:1007300011090115110579F7E2C0843611F08936E7
:1007400051F5560127FF09C0F4E0AF0EB11CF601C8
:1007500060817181828193810AC0F2E0AF0EB11C89
:10076000F60160817181882777FD8095982F022F8F
:100770000F7697FF08C090958095709561957F4F93
:100780008F4F9F4F00682AE030E0A4010E9442157D
:10079000C82EC8183EC0022F853721F40F7E2AE0EC
:1007A00030E01DC0097F8F3691F018F4883559F07C
:1007B000B0C0803719F0883711F0ABC0006104FF7A
:1007C00009C0046007C024FF08C0066006C028E016
:1007D00030E005C020E130E002C020E132E0560107
:1007E00007FF09C0F4E0AF0EB11CF6016081718112
:1007F0008281938108C0F2E0AF0EB11CF6016081E6
:10080000718180E090E0A4010E944215C82EC818B2
:100810000F7706FF0BC0202F2E7FC11650F404FF68
:100820000AC002FD08C0202F2E7E05C0DC2C202F20
:1008300003C0DC2C01C0D12E24FF0DC0FE01EC0D45
:10084000F11D8081803311F4297E09C022FF06C08A
:10085000D394D39404C0822F867809F0D39423FDD7
:1008600013C020FF06C01C2DD51418F4150D1D193A
:10087000D52CD51468F4B70180E290E02B8B0E9450
:10088000AD14D3942B89F5CFD51410F45D1801C0A5
:10089000512C24FF12C0B70180E390E02B8B0E9403
:1008A000AD142B8922FF17C021FF03C088E590E01B
:1008B00002C088E790E0B7010CC0822F867859F01B
:1008C00021FD02C080E201C08BE227FD8DE2B7016D
:1008D00090E00E94AD14C11638F4B70180E390E0B7
:1008E0000E94AD141150F7CFCA94F401EC0DF11D24
:1008F0008081B70190E00E94AD14C110F5CF552062
:1009000009F4C2CCB70180E290E00E94AD145A9481
:10091000F6CFF7018681978102C08FEF9FEF639634
:10092000E2E10C94A41385B190E2892785B9809106
:10093000C0019091C10101969093C1018093C001C3
:100940008091C2018823C1F0209178003091790014
:100950008091C0019091C1013F932F939F938F93FA
:1009600083E191E09F938F930E94DF140F900F908B
:100970000F900F900F900F900895CF93DF9300D0BA
:10098000CDB7DEB70C9820E030E0A90160E070E060
:1009900081E090E00E94280840E050E061E070E0D3
:1009A00084E090E00E94E10502E211E0E09078002E
:1009B000F090790081E090E00E948208FF92EF922F
:1009C0009F938F931F930F930E94DF141A821982B3
:1009D0000F900F900F900F900F900F9089819A8138
:1009E000803197421CF789819A8101969A83898385
:1009F000F5CF80E284B981E00E94980840E050E0A1
:100A000061E070E084E090E00E94E10530E1C32EF7
:100A100037E2D32EE12CF12C19E04AE1242E41E0FB
:100A2000342E18990BC0199911C01A9B15C080E17A
:100A3000C82E87E2D82EE12CF12C0EC020E4C22E65
:100A400022E4D22E2FE0E22EF12C06C090E5C92E32
:100A500093ECD92EE12CF12CC701B60128EE33E03E
:100A600040E050E00E944713129FE001139FD00D19
:100A70001124A0907800B0907900BE01882777FDFE
:100A80008095982F0E940A112B013C01B50180E04E
:100A900090E00E94081120E030EC4FE754E40E94FF
:100AA0006F10A30192010E943E120E94DC104B01C4
:100AB0005C012091780030917900809178009091CC
:100AC00079003F932F939F938F9360E472E48FE0BC
:100AD00090E0A70196010E9447135F934F933F93C5
:100AE0002F93B40180E090E00E940811A3019201CD
:100AF0000E946F109F938F937F936F933F922F92DB
:100B00000E94DF14A401BE0181E00E94B4088DB7E9
:100B10009EB70E960FB6F8949EBF0FBE8DBF81CFC5
:100B200040E050E061E070E084E090E00E94E10588
:100B30002CE531E140E050E062E070E081E090E0DF
:100B40000E94280863E974E081E00E94ED0880E2D9
:100B500084B9C1E0189BFECF89E291E00E94F314B2
:100B6000C093C2011092C1011092C0012FEF8FE318
:100B700098E3215080409040E1F700C000001092BF
:100B8000C201E8CF41E050E061E070E084E090E035
:100B90000E94E10581E08093C20183E994E00C9416
:100BA0004A060E947D0660E072EC81E090E00E94BF
:100BB00089068FE391E00E94F3140E94AC060E9424
:100BC0009005F8948830910594F591B121E030E0DA
:100BD000082E01C0220F0A94EAF72095292321B993
:100BE000806480937C0020917A002760CB0135E0FF
:100BF000880F991F3A95E1F78068E3E0440F551F8D
:100C0000EA95E1F7842B282B20937A006115710572
:100C100019F480917B0001C080E080937B00672BFA
:100C200029F080917A00806480937A007894089506
:100C3000EAE7F0E080818F7780831092790010924C
:100C40007800089580917800909179000895883017
:100C5000910554F490917C00907E90937C0090914B
:100C60007C00982B90937C00089520917A002F7D32
:100C700020937A000E94270680917A0080648093F6
:100C80007A0080917A0086FDFCCF80917800909167
:100C9000790008959093C4018093C30108951F9231
:100CA0000F920FB60F9211242F933F934F935F93A0
:100CB0006F937F938F939F93AF93BF93EF93FF9324
:100CC000E091C301F091C401309709F00995FF91BB
:100CD000EF91BF91AF919F918F917F916F915F91B4
:100CE0004F913F912F910F900FBE0F901F9018952D
:100CF0000E94A50680E090E0089580E091E0909346
:100D0000FA018093F90160E072EC81E090E00C94CC
:100D1000BC099B01AC0184E0220F331F441F551F07
:100D20008A95D1F760E070E489E191E00E94471371
:100D3000215031093093CD002093CC0088E180937D
:100D4000C90086E08093CA0008959091C80095FF7D
:100D5000FCCF8093CE0008958091C80087FFFCCF20
:100D60008091CE000895CF92DF92EF92FF920F9381
:100D70001F93CF93DF936B01C091A001D091A1018C
:100D8000002711270C1B1D0BAE01B8010E94B209F0
:100D90007C01AE01B801C6010E94B209919581950E
:100DA0009109AC01662757FD6095762F80E00E947F
:100DB000E70BA701662757FD6095762F81E0DF914D
:100DC000CF911F910F91FF90EF90DF90CF900C94F7
:100DD000E70BCF92DF92EF92FF920F931F93C09099
:100DE0009001D0909101E0909201F09093010091D8
:100DF00094011091950120919601309197014091B5
:100E000098015091990160919A0170919B0181E044
:100E10000E94190AC0908401D0908501E09086015B
:100E2000F0908701009188011091890120918A0139
:100E300030918B0140918C0150918D0160918E0118
:100E400070918F0180E00E94190A20E137E240E0B2
:100E500050E062E070E080E090E00E9428086DE4DD
:100E600077E080E00E94ED0860E070E080E090E0D4
:100E70001F910F91FF90EF90DF90CF900C94B306ED
:100E8000882319F0813021F008958091A20102C0D9
:100E90008091A30190E00C94FD070F931F93CF93D3
:100EA000DF9381E08093D0018091C50181110AC058
:100EB00060E070E080E090E0DF91CF911F910F91B2
:100EC0000C94B30681E00E9440079093C701809381
:100ED000C60180E00E9440079093C9018093C80139
:100EE00020910E0130E04091C6015091C701609100
:100EF000CB017091CC0181E00E945B0AEC01209152
:100F0000C6013091C7014091C8015091C90160915B
:100F1000CA0181E00E94A90BC80FD91F20910E01C0
:100F200030E04091C8015091C9016091CD017091AC
:100F3000CE0180E00E945B0A8C012091C6013091B5
:100F4000C7014091C8015091C9016091CA0180E078
:100F50000E94A90BB801680F791FCE010E94B30649
:100F60006091C8017091C9018091C6019091C7013B
:100F70000E94490C60930F0170931001809311013E
:100F80009093120110920E01DF91CF911F910F915A
:100F90000895CF93DF9300D000D01F92CDB7DEB776
:100FA0000E94500D29833A834B835C836D8381E0DB
:100FB00080930E018093C501662349F085E0FE0110
:100FC0003196ABECB1E001900D928A95E1F70F906C
:100FD0000F900F900F900F90DF91CF910895909305
:100FE000CC018093CB017093CE016093CD0181E061
:100FF00080930E018093C50108950E94350660918B
:10100000A6017091A701680F791F882777FD809549
:10101000982F0E940A112091A8013091A9014091B6
:10102000AA015091AB010E943E120E94D710CB0141
:1010300008950E9435062091A4013091A501AC01CC
:10104000429FC001439F900D529F900D112408951F
:101050000F931F93CF93DF938C01EB01F894A2E1E0
:10106000B0E00E94341328EE33E040E050E00E94EC
:101070004713215031094109510901301105B1F0DF
:101080000230110531F1012BB9F5CE0146E0880F90
:10109000991F4A95E1F7C82BC4BD85E085BD27BDE2
:1010A00080916E00826080936E0026C0C295CC0F46
:1010B000CC0FC07CC09380008DE080938100309382
:1010C00089002093880080916F00826080936F0078
:1010D00013C0CE0136E0880F991F3A95E1F7C82B6F
:1010E000C093B00085E08093B1002093B30080915D
:1010F00070008260809370007894DF91CF911F918F
:101100000F9108958130910539F08230910549F0B1
:10111000892B59F486B507C0809184009091850091
:1011200008958091B20090E0089580E090E00895E5
:10113000813051F018F0823079F00895249A81E6D8
:1011400084BD8DE085BD0895549A83EA8093800024
:1011500085E1809381000895569A81E68093B000DE
:101160008DE08093B1000895813039F018F082301D
:1011700069F0089567BD48BD089570938900609334
:10118000880050938B0040938A0008956093B300C9
:101190004093B4000895CF93C82FA2E1B0E09A0124
:1011A000AB010E94341328EE33E040E050E00E948F
:1011B00047132150310941095109C13041F028F04C
:1011C000C23049F42093B30006C027BD04C0309359
:1011D000890020938800CF910895813049F018F05C
:1011E000823059F008957093D6016093D501089527
:1011F0007093D4016093D30108957093D2016093EA
:10120000D10108951F920F920FB60F9211242F93C0
:101210003F934F935F936F937F938F939F93AF937E
:10122000BF93EF93FF93E091D501F091D6013097F2
:1012300009F00995FF91EF91BF91AF919F918F9127
:101240007F916F915F914F913F912F910F900FBEC2
:101250000F901F9018951F920F920FB60F921124A6
:101260002F933F934F935F936F937F938F939F93AE
:10127000AF93BF93EF93FF93E091D301F091D4012B
:10128000309709F00995FF91EF91BF91AF919F9130
:101290008F917F916F915F914F913F912F910F901F
:1012A0000FBE0F901F9018951F920F920FB60F92BE
:1012B00011242F933F934F935F936F937F938F935B
:1012C0009F93AF93BF93EF93FF93E091D101F09180
:1012D000D201309709F00995FF91EF91BF91AF913D
:1012E0009F918F917F916F915F914F913F912F913E
:1012F0000F900FBE0F901F9018958F929F92AF92F4
:10130000BF92CF92DF92EF92FF920F931F93CF93F2
:10131000DF936B01D82FC92F49015A010E94681031
:1013200087FD0DC09701A801B6018D2F9C2F0E944B
:10133000331218163CF46701D02FC12F03C064018B
:10134000DA2DCB2DB6018D2F9C2FDF91CF911F91E0
:101350000F91FF90EF90DF90CF90BF90AF909F9054
:101360008F900895861797072CF0481759071CF49B
:10137000CA010895CB0108959B01AC0184E0220FBE
:10138000331F441F551F8A95D1F760E070E489E14F
:1013900091E00E944713215031093093C5002093FA
:1013A000C40088E18093C10086E08093C200089564
:1013B0009091C00095FFFCCF8093C6000895CF9315
:1013C000DF93EC018991882319F00E94D809FACFA4
:1013D000DF91CF9108950F931F93CF93DF93CDB7F4
:1013E000DEB764970FB6F894DEBF0FBECDBF7F9314
:1013F0006F939F938F938CEA91E09F938F938E01CD
:101400000F5F1F4F1F930F930E942015C8010E946A
:10141000DF090FB6F894DEBF0FBECDBF64960FB6DE
:10142000F894DEBF0FBECDBFDF91CF911F910F911A
:101430000895CF92DF92EF92FF920F931F9388232C
:10144000D9F0813089F54093EB015093EC01609322
:10145000ED017093EE010093EF011093F0012093E2
:10146000F1013093F201C092F301D092F401E092C5
:10147000F501F092F60118C04093DF015093E001AE
:101480006093E1017093E2010093E3011093E401A2
:101490002093E5013093E601C092E701D092E80184
:1014A000E092E901F092EA011F910F91FF90EF9015
:1014B000DF90CF9008952F923F924F925F926F925C
:1014C0007F928F929F92AF92BF92CF92DF92EF92D4
:1014D000FF920F931F93CF93DF93CDB7DEB7609743
:1014E0000FB6F894DEBF0FBECDBF788B6F875A83DF
:1014F0004983232B61F0811105C01092DC01109209
:10150000DB0107C01092DA011092D90123C08111CA
:1015100021C08090DF019090E001A090E101B090A7
:10152000E201C090E301D090E401E090E501F09089
:10153000E6014090E7015090E8016090E901709069
:10154000EA012090DB013090DC012BED31E03E839D
:101550002D8320C08090EB019090EC01A090ED01D4
:10156000B090EE01C090EF01D090F001E090F10159
:10157000F090F2014090F3015090F4016090F50179
:101580007090F6012090D9013090DA0189ED91E058
:101590009E838D830091A0011091A101B80188273D
:1015A00077FD8095982F0E940A116F83788789872D
:1015B0009A87A70196010E946F100E94D7106B872F
:1015C0007C878D879E87EF85F88929813A81E21B88
:1015D000F30BF88BEF87BF01882777FD8095982F55
:1015E0000E940A1169837A838B839C839B01AC01DF
:1015F000C501B4010E943E124B015C01B101882774
:1016000077FD8095982F0E940A119B01AC01C701BC
:10161000B6010E943E129B01AC01C501B4010E94BB
:10162000A20F6B017C018091D7019091D8016F8549
:101630007889681B790B882777FD8095982F0E9401
:101640000A1180909C0190909D01A0909E01B09005
:101650009F01A50194010E946F100E94D710882756
:1016600077FD8095982F0E940A119B01AC01C30160
:10167000B2010E943E129B01AC01C701B6010E945B
:10168000A20F2B013C0166277727601B710B88276F
:1016900077FD8095982F0E940A119B01AC01EF8085
:1016A000F88409851A85C301B2010E947D096B0186
:1016B0007C010B851C85119501951109ED81FE8139
:1016C00060817181882777FD8095982F0E940A118B
:1016D0002B013C01A501940169817A818B819C8158
:1016E0000E943E129B01AC01C301B2010E94A20FF5
:1016F0000E94D710DC01CB014B855C85B8010E94AC
:10170000B209ED81FE81918380832F8538893093E2
:10171000D8012093D701C701B6010E94D710CB0191
:1017200060960FB6F894DEBF0FBECDBFDF91CF91AC
:101730001F910F91FF90EF90DF90CF90BF90AF90EF
:101740009F908F907F906F905F904F903F902F90E1
:101750000895CF93DF9300D000D01F92CDB7DEB7AE
:1017600029833A834B835C8369817A812B813C8115
:10177000811103C0620F731F02C08130F1F488270A
:1017800077FD8095982F0E940A112BED3FE049E4E8
:1017900050E40E943E1220E030E044E353E40E9413
:1017A0006F100E94A11220E030E04FE254EC0E9442
:1017B0003E120E94D710CB0102C080E090E00F9053
:1017C0000F900F900F900F90DF91CF910895FF929F
:1017D0000F931F93CF93DF9300D000D0CDB7DEB728
:1017E000F82EA0918201B09183019A01AB010E9471
:1017F0003F132091A0013091A101442737FD40956E
:10180000542F0E94691301E010E01216130614F021
:1018100000E010E08F2D880FFF24F394F80E0115DF
:10182000110519F460E070E001C0B90190E029836E
:101830003A834B835C830E94EC0E29813A81012B11
:1018400029F466277727621B730B02C060E070E003
:101850008F2D90E00F900F900F900F90DF91CF9110
:101860001F910F91FF900C94EC0E90E00E943506B2
:101870009C01A8E8B3E10E941E132FEF33E040E083
:1018800050E00E9469132C583A4041095109C9019E
:1018900008954F925F926F927F928F929F92AF9234
:1018A000BF92CF92DF92EF92FF92CF93DF9300D05F
:1018B00000D0CDB7DEB75B01BC01882777FD8095EE
:1018C000982F0E940A112BED3FE049E450E40E945A
:1018D0003E1220E030E044E353E40E946F106B01BD
:1018E0007C01B501882777FD8095982F0E940A1109
:1018F0002BED3FE049E450E40E943E1220E030E04E
:1019000044E353E40E946F109B01AC01C701B60190
:101910000E94A20F2B013C010E94A1124B015C010D
:10192000C301B2010E946C102B013C01C701B6013A
:101930000E94A11269837A838B839C83C701B601BD
:101940000E946C109B01AC01C0907E01D0907F0181
:10195000E0908001F0908101C301B2010E94A20FCA
:101960009B01AC01C701B6010E943E1220917A0191
:1019700030917B0140917C0150917D010E94A20F2A
:101980000E94D7102B013C0129813A814B815C8157
:10199000C501B4010E94A20F9B01AC01C701B601B1
:1019A0000E943E120E94D7106B017C01B601C20159
:1019B0000F900F900F900F90DF91CF91FF90EF90CD
:1019C000DF90CF90BF90AF909F908F907F906F905F
:1019D0005F904F9008958F929F92AF92BF92CF9257
:1019E000DF92EF92FF92CF934B015C0169017A0184
:1019F0009B01AC010E94EC12811146C0A701960127
:101A0000C701B6010E94EC1281113EC02091700105
:101A1000309171014091720150917301C501B4017F
:101A20000E94681087FD30C020916C0130916D01DB
:101A300040916E0150916F01C501B4010E943312B3
:101A4000181614F1209168013091690140916A01E2
:101A500050916B01C701B6010E94681087FD14C048
:101A6000C1E020916401309165014091660150917F
:101A70006701C701B6010E94331218160CF0C0E0CE
:101A800081E08C2790E002C080E090E0CF91FF9051
:101A9000EF90DF90CF90BF90AF909F908F90089580
:101AA0004F925F926F927F928F929F92AF92BF926E
:101AB000CF92DF92EF92FF92CF93DF93CDB7DEB755
:101AC00061970FB6F894DEBF0FBECDBF66247724B2
:101AD000681A790A882777FD8095982F0E940A1145
:101AE00020917A0130917B0140917C0150917D01E0
:101AF0000E94A10F0E94D7106E837F8388879987E9
:101B0000B301882777FD8095982F0E940A119B01C9
:101B1000AC01EE81FF81BF01882777FD8095982F6A
:101B20002E873F87488B598B0E940A112E853F854F
:101B3000488959890E9415104B015C01C0907E01B3
:101B4000D0907F01E0908001F09081019301D3015A
:101B50000E9416132B013C012E813F81D9010E9466
:101B60001613460E571E681E791EC301B2010E944D
:101B70000A116E837F83888799870E94AB126A87D8
:101B80007B878C879D87A7019601C701B6010E94BC
:101B90003E129B01AC010E94A20F2B013C012E8141
:101BA0003F81488559850E94A10FA30192010E949F
:101BB0006F100E94930F6E837F8388879987A70198
:101BC0009601C701B6010E94A20F9B01AC016A8574
:101BD0007B858C859D850E946F100E94930F6A877C
:101BE0007B878C879D872BED3FE049E450E46E8135
:101BF0007F81888599850E94A10F2B013C012A8550
:101C00003B854C855D85C501B4010E94A20F2BED7B
:101C10003FE049EC5FE30E94A10F6B017C012A8544
:101C20003B854C855D85C501B4010E94A10F2BED5C
:101C30003FE049EC5FE30E94A10F4B015C012BEDFB
:101C40003FE049E450E4C701B6010E943312181680
:101C50004CF42BED3FE049EC50E4C701B6010E9483
:101C6000A10F12C02BED3FE049E450ECC701B601D3
:101C70000E94681087FF0AC02BED3FE049EC50E45A
:101C8000C701B6010E94A20F6B017C012BED3FE062
:101C900049E450E4C501B4010E943312181654F40B
:101CA0002BED3FE049EC50E4C501B4010E94A10FC7
:101CB0004B015C012BED3FE049E450ECC501B40160
:101CC0000E94681087FF0AC02BED3FE049EC50E40A
:101CD000C501B4010E94A20F4B015C01A301920156
:101CE000C701B6010E94EB0C892BC9F020E030E05F
:101CF00044E353E4C701B6010E943E122BED3FE0DE
:101D000049E450E40E946F100E94D7107A836983DF
:101D100020E030E044E353E4C301B2012CC02E8143
:101D20003F81488559856BED7FE089E490E40E940E
:101D3000A10F6B017C019B01AC01C501B4010E94A4
:101D4000EB0C892B39F120E030E044E353E4C5018A
:101D5000B4010E943E122BED3FE049E450E40E94A2
:101D60006F100E94D7107A83698320E030E044E34B
:101D700053E4C701B6010E943E122BED3FE049E457
:101D800050E40E946F100E94D7107C836B8381E027
:101D90008D8305C01A8219821C821B821D822981B3
:101DA0003A814B815C816D8170E080E090E06196CA
:101DB0000FB6F894DEBF0FBECDBFDF91CF91FF907D
:101DC000EF90DF90CF90BF90AF909F908F907F90DB
:101DD0006F905F904F900895CF93DF93EB01853024
:101DE0009105D0F490912B009F7E90932B008063FF
:101DF0000E948D0FCE0124E0959587952A95E1F7F5
:101E00000E948D0F8C2F8295807F0E948D0F809174
:101E10002B00806180932B00DF91CF9108958091FA
:101E20002B008F7E80932B008FE40E948D0F80E02B
:101E30000E948D0F80E00E948D0F80912B008061A9
:101E400080932B0086E08A95F1F7000080912B00AB
:101E50008F7E80932B008FE10E948D0F80E00E9487
:101E60008D0F80E00E948D0F80912B008061809308
:101E70002B00089584B1806B84B983E58CBD80917B
:101E800027008062809327008091270080618093E3
:101E90002700809127008860809327008091270089
:101EA00084608093270080912A00806180932A00BB
:101EB00080912700806480932700809127008160B3
:101EC0008093270080912800806280932800809171
:101ED000280080618093280080912800886080938A
:101EE00028008091280084608093280080912B0036
:101EF000806180932B00809128008064809328006B
:101F00008091280081608093280008959CB59C7F73
:101F10009CBD9CB5982B9CBD08958EBD0DB407FE4D
:101F2000FDCF8EB508959F939F77AFD10F9000207E
:101F30003AF49058A2EA2AED3FE049E450E413D085
:101F400047C25058BB27AA270ED042C20BD230F04E
:101F500010D220F031F49F3F11F41EF4DBC10EF4D7
:101F6000E095E7FBD1C1E92F55D280F3BA1762079C
:101F700073078407950718F071F49EF56DC20EF48F
:101F8000E0950B2EBA2FA02D0B01B90190010C0189
:101F9000CA01A0011124FF27591B99F0593F50F4A1
:101FA000503E68F11A16F040A22F232F342F4427F9
:101FB000585FF3CF469537952795A795F0405395F1
:101FC000C9F77EF41F16BA0B620B730B840BBAF0C1
:101FD0009150A1F0FF0FBB1F661F771F881FC2F72C
:101FE0000EC0BA0F621F731F841F48F48795779540
:101FF0006795B795F7959E3F08F0B3CF9395880FF7
:1020000008F09927EE0F979587950895ABD158F072
:1020100080E891E009F49EEFACD128F040E851E06F
:1020200059F45EEF09C076C117C2E92FE078F2D10A
:1020300068F3092E052AC1F3261737074807590701
:1020400038F00E2E07F8E02569F0E025E0640AC0BC
:10205000EF6307F8009407FADB01B9019D01DC0189
:10206000CA01AD01EF934AD0B3D10AD05F91552395
:1020700031F02BED3FE049E450FD49EC63CF08958A
:10208000DF93DD27B92FBF7740E85FE31616170609
:1020900048075B0710F4D92FEAD19F938F937F9362
:1020A0006F9397D2ECE7F0E038D192D12F913F9126
:1020B0004F915F91EFD1DD2349F09058A2EA2AEDCC
:1020C0003FE049EC5FE3D0785D274DDFDF9180C1D1
:1020D000F7D008F481E0089554D1E3958AC10CD07B
:1020E00077C147D140F03ED130F021F45F3F19F085
:1020F0000BC15111B2C10EC18DD198F39923C9F30F
:102100005523B1F3951B550BBB27AA2762177307FD
:10211000840738F09F5F5F4F220F331F441FAA1FB1
:10212000A9F333D00E2E3AF0E0E830D09150504071
:10213000E695001CCAF729D0FE2F27D0660F771F1F
:10214000881FBB1F261737074807AB07B0E809F001
:10215000BB0B802DBF01FF2793585F4F2AF09E3F96
:10216000510568F0D1C079C15F3FECF3983EDCF3D4
:10217000869577956795B795F7959F5FC9F7880F0F
:10218000911D9695879597F90895E1E0660F771F61
:10219000881FBB1F621773078407BA0720F0621BF2
:1021A000730B840BBA0BEE1F88F7E095089504D0EB
:1021B0006894B11152C1089535D188F09F5790F0BD
:1021C000B92F9927B751A0F0D1F0660F771F881F5C
:1021D000991F1AF0BA95C9F712C0B13081F03CD1FD
:1021E000B1E0089539C1672F782F8827B85F39F09B
:1021F000B93FCCF3869577956795B395D9F73EF4BB
:1022000090958095709561957F4F8F4F9F4F089562
:10221000E89409C097FB3EF4909580957095619580
:102220007F4F8F4F9F4F9923A9F0F92F96E9BB2736
:102230009395F695879577956795B795F111F8CFB2
:10224000FAF4BB0F11F460FF1BC06F5F7F4F8F4F1D
:102250009F4F16C0882311F096E911C0772321F013
:102260009EE8872F762F05C0662371F096E8862FAB
:1022700070E060E02AF09A95660F771F881FDAF702
:10228000880F9695879597F90895DF93CF931F93BD
:102290000F938B01EC01E9EAF0E03FD099D098016F
:1022A000AE018B01EC0160E070E080E89FE349DE65
:1022B00052D19801AE010F911F91CF91DF91EAC0E9
:1022C000990F0008550FAA0BE0E8FEEF1616170647
:1022D000E807F907C0F012161306E407F50798F0AF
:1022E000621B730B840B950B39F40A2661F0232BC8
:1022F000242B252B21F408950A2609F4A140A69544
:102300008FEF811D811D089597F99F6780E870E028
:1023100060E008959FEF80EC0895DF93CF931F93C3
:102320000F93FF92EF92DF927B018C01689405C0BE
:10233000DA2EEF01AFD0FE01E894A59125913591F9
:1023400045915591AEF3EF010EDEFE019701A80114
:10235000DA9479F7DF90EF90FF900F911F91CF9172
:10236000DF91089500240A94161617061806090628
:10237000089500240A9412161306140605060895FB
:10238000C9CF50D0E8F3E894E0E0BB279F57F0F0C6
:102390002AED3FE049EC06C0EE0FBB0F661F771F2A
:1023A000881F28F0B23A62077307840728F0B25AF0
:1023B000620B730B840BE3959A9572F7803830F4B7
:1023C0009A95BB0F661F771F881FD2F790480AC1E6
:1023D000092E0394000C11F4882352F0BB0F40F433
:1023E000BF2B11F460FF04C06F5F7F4F8F4F9F4F73
:1023F0000895EF93E0FF06C0A2EA2AED3FE049EC22
:102400005FEBB1DDE5DF0F90039401FC9058E1ED47
:10241000F0E0FBC057FD9058440F551F59F05F3F47
:1024200071F04795880F97FB991F61F09F3F79F0F6
:1024300087950895121613061406551FF2CF469578
:10244000F1DF08C0161617061806991FF1CF8695FA
:102450007105610508940895E894BB2766277727DE
:10246000CB0197F908952CDF08F48FEF08959B01B5
:10247000AC0160E070E080E89FE331CE0BD0A8CFE4
:1024800071DF28F076DF18F0952309F03DCF42CFB9
:102490001124E3CFBFDFA0F3959FD1F3950F50E058
:1024A000551F629FF001729FBB27F00DB11D639F06
:1024B000AA27F00DB11DAA1F649F6627B00DA11DAC
:1024C000661F829F2227B00DA11D621F739FB00D52
:1024D000A11D621F839FA00D611D221F749F3327C2
:1024E000A00D611D231F849F600D211D822F762F5B
:1024F0006A2F11249F5750408AF0E1F088234AF058
:10250000EE0FFF1FBB1F661F771F881F91505040A3
:10251000A9F79E3F510570F0F7CE9FCF5F3FECF3D8
:10252000983EDCF3869577956795B795F795E7958F
:102530009F5FC1F7FE2B880F911D9695879597F9A0
:1025400008959F931EDF0F9007FCEE5F52CF11F4AA
:102550000EF4E0CE45C066DFD0F39923D9F3CEF375
:102560009F57550B87FF4AD00024A0E640EA900110
:1025700080585695979528F4805C660F771F881FC2
:1025800020F026173707480730F4621B730B840BC3
:10259000202931294A2BA695179407942025312507
:1025A0004A2758F7660F771F881F20F0261737072E
:1025B000480730F4620B730B840B200D311D411D55
:1025C000A09581F7B901842F9158880F969587952A
:1025D00008959B01AC0152CF73DE880B990B0895CF
:1025E0009F3F31F0915020F4879577956795B79587
:1025F000880F911D9695879597F9089591505040B1
:10260000660F771F881FD2F708959F938F937F934C
:102610006F93FF93EF939B01AC0130DFEF91FF913C
:102620007CDE2F913F914F915F9128CF0E941E1326
:10263000332312F48A1B9B0B0C942F13A29FB0011F
:10264000B39FC001A39F700D811D1124911DB29FE6
:10265000700D811D1124911D08950E941E13B7FF56
:102660000895821B930B08950E941E13A59F900D41
:10267000B49F900DA49F800D911D11240895B7FF64
:102680000C9434130E943413821B930B0895A1E21F
:102690001A2EAA1BBB1BFD010DC0AA1FBB1FEE1FDC
:1026A000FF1FA217B307E407F50720F0A21BB30B27
:1026B000E40BF50B661F771F881F991F1A9469F7A3
:1026C00060957095809590959B01AC01BD01CF01FF
:1026D0000895052E97FB1EF400940E94801357FD69
:1026E00007D00E94471307FC03D04EF40C948013CC
:1026F00050954095309521953F4F4F4F5F4F08952E
:1027000090958095709561957F4F8F4F9F4F08955D
:102710002F923F924F925F926F927F928F929F92F1
:10272000AF92BF92CF92DF92EF92FF920F931F93DF
:10273000CF93DF93CDB7DEB7CA1BDB0B0FB6F89490
:10274000DEBF0FBECDBF09942A88398848885F84D0
:102750006E847D848C849B84AA84B984C884DF8041
:10276000EE80FD800C811B81AA81B981CE0FD11D25
:102770000FB6F894DEBF0FBECDBFED01089528302F
:1027800008F027E03327DA01990F311D87FD9160AA
:1027900000966105710539F432602E5F3D9330E398
:1027A0002A95E1F708959F3F30F080387105610563
:1027B00009F03C5F3C5F3D93913008F08068911DCB
:1027C000DF93CF931F930F93FF92EF92192F987F70
:1027D0009695E92F96959695E90FFF27EF5AFE4FAC
:1027E00099273327EE24FF24A701E70105900894D9
:1027F000079428F4360FE71EF81E491F511D660F77
:10280000771F881F991F0694A1F70590079428F455
:10281000E70EF81E491F561FC11D770F881F991F0D
:10282000661F0694A1F70590079428F4F80E491F37
:10283000561FC71FD11D880F991F661F771F06944B
:10284000A1F70590079420F4490F561FC71FD81F02
:10285000990F661F771F881F0694A9F7849110951A
:10286000177041F0D695C79557954795F794E7941B
:102870001A95C1F7E7EFF0E068941590159135913E
:102880006591959105907FE27395E118F10A430BEC
:10289000560BC90BD009C0F7E10CF11E431F561FA0
:1028A000C91FD01D7EF4703311F48A95E6CFE894E9
:1028B000015030F0080F0AF40027021708F4202F07
:1028C0002395022F7A3328F079E37D932A95E9F74F
:1028D00010C07D932A9589F606949795679537954C
:1028E00017951794E118F10A430B560BC90BD00941
:1028F00098F023957E9173957A3308F070E37C937A
:102900002013B8F77E9170617D9330F0839571E369
:102910007D9370E32A95E1F71124EF90FF900F91DA
:102920001F91CF91DF91992787FD90950895FC0124
:102930000590615070400110D8F7809590958E0FEA
:102940009F1F0895FC016150704001900110D8F75D
:10295000809590958E0F9F1F08950F931F93CF938F
:10296000DF93182F092FEB018B8181FD03C08FEFBF
:102970009FEF20C082FF10C04E815F812C813D817E
:10298000421753077CF4E881F9819F012F5F3F4F85
:1029900039832883108306C0E885F985812F09953E
:1029A000892B29F72E813F812F5F3F4F3F832E8355
:1029B000812F902FDF91CF911F910F910895A0E06B
:1029C000B0E0E5EEF4E10C949813FE0135966191C8
:1029D0007191AF018091F9019091FA010E94180163
:1029E000E2E00C94B4130F931F93CF93DF93E09125
:1029F000F901F091FA01238121FF1BC0EC0100E0F5
:102A000010E089916091F9017091FA01DB0118964B
:102A1000ED91FC911997882331F00995892B89F361
:102A20000FEF1FEFEECF8AE00995892B11F4C80153
:102A300002C08FEF9FEFDF91CF911F910F9108950B
:102A4000AEE0B0E0E6E2F5E10C9496130D891E8944
:102A500086E08C831A8309838FEF9FE79E838D83A3
:102A6000AE01475E5F4F6F89788DCE0101960E945F
:102A70001801EF81F885E00FF11F10822E96E4E037
:102A80000C94B213FA01AA27283051F1203181F1B8
:102A9000E8946F936E7F6E5F7F4F8F4F9F4FAF4F66
:102AA000B1E03ED0B4E03CD0670F781F891F9A1F79
:102AB000A11D680F791F8A1F911DA11D6A0F711D2D
:102AC000811D911DA11D20D009F468943F912AE039
:102AD000269F11243019305D3193DEF6CF01089521
:102AE000462F4770405D4193B3E00FD0C9F7F6CF52
:102AF000462F4F70405D4A3318F0495D31FD40521A
:102B0000419302D0A9F7EACFB4E0A69597958795AF
:102B100077956795BA95C9F700976105710508958E
:102B20009B01AC010A2E069457954795379527953A
:102B3000BA95C9F7620F731F841F951FA01D0895D2
:042B4000F894FFCF37
:102B44000000000200000000780600000000010000
:102B5400002C0125642025640A002566202575487B
:102B64007A2025752025750A005374617274696E84
:102B740067206E657720636170747572652E0045F9
:102B84006E74657220616E7920636861726163742A
:102B9400657220746F20636F6E74696E75652E2E76
:102BA4002E0096FFDB0FC93FAFADFEBFDB0FC93F61
:102BB40068CEECBF5A008EFF5A007DBF0E43666696
:102BC400184364088FC2753D3333A3400000434467
:102BD4008FC2753D3333A340000043440AD7233CDE
:102BE400401F0203040094FD8005693E536574731D
:102BF4006572766F2825642C25303364290A0D000C
:00000001FF
