:100000000C943A010C9457010C9457010C9457012D
:100010000C9457010C9457010C9457010C94570100
:100020000C9457010C940C0A0C9457010C94570132
:100030000C9457010C94E3090C9457010C9457014C
:100040000C94BA090C9457010C9457010C94570165
:100050000C9457010C9457010C9457010C945701C0
:100060000C9490060C9457010C9457010C94570172
:100070000C9457010C9457010C945701084AD73B34
:100080003BCE016E84BCBFFDC12F3D6C74319ABD67
:1000900056833DDA3D00C77F11BED9E4BB4C3E918B
:1000A0006BAAAABE000000803F072C7AA5BA6CC5D7
:1000B00090DA3B9365FC8BBC53F810FD3C56928361
:1000C0004DBD879D3AB63DCBC9BF5BBE73DA0FC944
:1000D0003F05A84CCDB2D44EB93836A9020C50B960
:1000E000918688083CA6AAAA2ABE000000803F0785
:1000F000634236B79BD8A71A39685618AEBAAB55C3
:100100008C1D3CB7CC5763BD6DEDFD753EF6177287
:1001100031BF000000803F08000000BE9224491259
:100120003EABAAAA2ABECDCCCC4C3E00000080BE7D
:10013000ABAAAAAA3E00000000BF000000803F005A
:1001400000000000084178D3BB4387D1133D190E4E
:100150003CC3BD4282AD2B3E68EC8276BED98FE1B6
:10016000A93E4C80EFFFBE01C4FF7F3F00000000AE
:10017000006E616E00696E660000407A10F35A00EE
:10018000A0724E18090010A5D4E80000E8764817C0
:100190000000E40B54020000CA9A3B000000E1F5A5
:1001A00005000080969800000040420F000000A06B
:1001B0008601000000102700000000E80300000096
:1001C000006400000000000A0000000000010000C0
:1001D0000000002C76D888DC674F0823DFC1DFAE33
:1001E00059E1B1B796E5E3E453C63AE651997696FC
:1001F000E8E6C28426EB898C9B62ED407C6FFCEFC5
:10020000BC9C9F40F2BAA56FA5F490055A2AF75CF2
:10021000936B6CF9676DC11BFCE0E40D47FEF520A4
:10022000E6B500D0ED902E0300943577050080846C
:100230001E080000204E0A000000C80C3333333380
:100240000F986E12831141EF8D2114893BE65516EC
:10025000CFFEE6DB18D1844B381BF77C1D901DA424
:10026000BBE424203284725E228100C9F124ECA117
:10027000E53D270011241FBECFEFD0E1DEBFCDBF8B
:1002800011E0A0E0B1E0EEE4F3E302C005900D92CE
:10029000AE3EB107D9F712E0AEEEB1E001C01D925B
:1002A000AA34B107E1F70E9412060C94A5190C9428
:1002B0000000A3E1B0E0EFE5F1E00C9479177C01D8
:1002C0001B016A01FC0117821682838181FF66C3CC
:1002D000BE016F5F7F4F4B01F7019381F10193FDE9
:1002E000859193FF81911F01882309F453C38532BF
:1002F00039F493FD859193FF81911F01853239F483
:10030000B70190E00E94B21856016501E5CF10E0F8
:10031000512C20E02032A0F48B3269F030F480328E
:1003200059F0833269F420612CC08D3239F080336A
:1003300039F4216026C02260246023C0286021C0D7
:1003400027FD27C030ED380F3A3078F426FF06C07D
:10035000FAE01F9F300D1124132F13C06AE0569E40
:10036000300D1124532E20620CC08E3221F426FD54
:1003700011C3206406C08C3611F4206802C0883690
:1003800041F4F10193FD859193FF81911F0181114A
:10039000C1CF9BEB980F933018F42061805E06C0AC
:1003A0009BE9980F933008F0AAC12F7E26FF16E034
:1003B0002F73722E853621F4F22FF0647F2E08C041
:1003C000863621F4622F6068762E02C0111111501A
:1003D00077FE07C01C3348F444244394410E27E0C1
:1003E0000BC0183030F4212F06C027E04CE3442E18
:1003F00003C027E017E0412C560174E0A70EB11CA2
:10040000F6016081718182819381042DA4010E9493
:10041000C4176C01098100FF02C003FF06C071FC14
:1004200007C072FC08C0612C08C03DE2632E05C005
:100430002BE2622E02C090E2692E802F8C7099F11F
:10044000662011F084E001C083E0851510F0512C86
:100450000BC0581A73FC08C0B70180E290E00E94FC
:10046000B2185A94C9F7F3CF662029F0B701862D48
:1004700090E00E94B21803FD03C005E711E002C03E
:1004800001E711E0F72DF0717F2EF80184918823A8
:1004900009F476C271108052B70190E00E94B21840
:1004A0000F5F1F4FF2CF77FE0FC04C0C04FF04C04C
:1004B0008A81813309F44A94141474F5F8E0F41530
:1004C00078F588E0482E2CC076FC2AC0812F90E079
:1004D0008C159D059CF06CEFC6166FEFD60674F078
:1004E000772D7068772E0AC0E2E0F0E0EC0FFD1F78
:1004F000E10FF11D8081803319F411501111F4CFF7
:1005000077FE0EC044244394410E812F90E0C8161C
:10051000D9062CF41C1904C04424439401C010E0F3
:1005200077FE07C01C141D043CF496012F5F3F4F5B
:1005300005C025E030E002C021E030E0662011F087
:100540002F5F3F4F112331F0412F50E04F5F5F4F3E
:10055000240F351F452D50E02417350714F4521A87
:1005600001C0512C872D897049F4552039F0B7010D
:1005700080E290E00E94B2185A94F7CF662029F0EA
:10058000B701862D90E00E94B21873FC09C0552077
:1005900039F0B70180E390E00E94B2185A94F7CF87
:1005A00077FE5FC09C2D8D2DD7FE02C090E080E0CD
:1005B000692E782E40E050E0C601841991099D878C
:1005C0008C87960126193709280D391D812F90E057
:1005D000EE27FF27E81BF90BFF87EE87FFEF6F166B
:1005E0007F0669F4B7018EE290E02B8B3A8B488B43
:1005F000598B0E94B218598948893A892B89C614A7
:10060000D70454F06C857D85661577052CF4F901C7
:10061000E40FF51F818101C080E371E0671A710862
:100620004F5F5F4FEE85FF856E167F066CF0B7015A
:1006300090E02B8B3A8B488B598B0E94B2182B89F8
:100640003A8948895989CACF6C147D0439F49A8152
:10065000963318F4953311F404FF81E3B70190E069
:100660004BC08A81813309F00F7EB70190E00E9470
:10067000B218111105C074FE18C085E490E017C0CF
:10068000B7018EE290E00E94B21882E06624639483
:10069000680EF401E80FF11D8081B70190E00E941F
:1006A000B218115041F3862DF1CF85E690E0B701E5
:1006B0000E94B218D7FC05C0C114D10439F404FF5C
:1006C00005C0D194C194D1088DE201C08BE2B7017D
:1006D00090E00E94B21880E36AE0C616D1042CF0C4
:1006E0008F5FFAE0CF1AD108F7CFB70190E00E94F0
:1006F000B218B701C601C0960E94B21841C1833634
:1007000031F0833779F0833509F058C021C05601A4
:1007100072E0A70EB11CF6018081898301E010E030
:10072000640114C05601F2E0AF0EB11CF601C080A6
:10073000D18026FF03C0612F70E002C06FEF7FEF12
:10074000C6012B8B0E94A7188C012B892F7715C00F
:100750005601F2E0AF0EB11CF601C080D18026FF39
:1007600003C0612F70E002C06FEF7FEFC6012B8BDB
:100770000E949C188C012B892068722E23FD1AC0C0
:10078000852D90E008171907A8F4B70180E290E0E2
:100790000E94B2185A94F4CFF60177FC859177FE47
:1007A00081916F01B70190E00E94B21851105A94E4
:1007B000015011090115110579F7E2C0843611F0D5
:1007C000893651F5560127FF09C0F4E0AF0EB11C80
:1007D000F60160817181828193810AC0F2E0AF0EDF
:1007E000B11CF60160817181882777FD8095982F73
:1007F000022F0F7697FF08C09095809570956195B0
:100800007F4F8F4F9F4F00682AE030E0A4010E9485
:100810004719C82EC8183EC0022F853721F40F7E15
:100820002AE030E01DC0097F8F3691F018F488353A
:1008300059F0B0C0803719F0883711F0ABC00061B3
:1008400004FF09C0046007C024FF08C0066006C09A
:1008500028E030E005C020E130E002C020E132E0D5
:10086000560107FF09C0F4E0AF0EB11CF60160812C
:1008700071818281938108C0F2E0AF0EB11CF60154
:100880006081718180E090E0A4010E944719C82E28
:10089000C8180F7706FF0BC0202F2E7FC11650F40B
:1008A00004FF0AC002FD08C0202F2E7E05C0DC2CEC
:1008B000202F03C0DC2C01C0D12E24FF0DC0FE016F
:1008C000EC0DF11D8081803311F4297E09C022FFD7
:1008D00006C0D394D39404C0822F867809F0D394B1
:1008E00023FD13C020FF06C01C2DD51418F4150DD0
:1008F0001D19D52CD51468F4B70180E290E02B8B3C
:100900000E94B218D3942B89F5CFD51410F45D183A
:1009100001C0512C24FF12C0B70180E390E02B8B63
:100920000E94B2182B8922FF17C021FF03C088E55F
:1009300090E002C088E790E0B7010CC0822F867873
:1009400059F021FD02C080E201C08BE227FD8DE25B
:10095000B70190E00E94B218C11638F4B70180E3E5
:1009600090E00E94B2181150F7CFCA94F401EC0D38
:10097000F11D8081B70190E00E94B218C110F5CF3F
:10098000552009F4C2CCB70180E290E00E94B21871
:100990005A94F6CFF7018681978102C08FEF9FEFBF
:1009A0006396E2E10C94951785B190E2892785B9A9
:1009B0008091EE019091EF0101969093EF01809369
:1009C000EE018091F0018823C1F0209178003091F0
:1009D00079008091EE019091EF013F932F939F93C7
:1009E0008F9383E191E09F938F930E94E4180F907F
:1009F0000F900F900F900F900F900895CF93DF936B
:100A000000D0CDB7DEB70C9820E030E0A90160E05F
:100A100070E081E090E00E94E00840E050E061E09A
:100A200070E084E090E00E94220602E211E0E09093
:100A30007800F090790081E090E00E943A09FF92FE
:100A4000EF929F938F931F930F930E94E4181A8243
:100A500019820F900F900F900F900F900F90898137
:100A60009A81803197421CF789819A8101969A83F5
:100A70008983F5CF80E284B981E00E94500940E08B
:100A800050E061E070E084E090E00E94220630E1F6
:100A9000C32E37E2D32EE12CF12C19E04AE1242EAB
:100AA00041E0342E18990BC0199911C01A9B15C03A
:100AB00080E1C82E87E2D82EE12CF12C0EC020E474
:100AC000C22E22E4D22E2FE0E22EF12C06C090E5B9
:100AD000C92E93ECD92EE12CF12CC701B60128EEDA
:100AE00033E040E050E00E943817129FE001139F6E
:100AF000D00D1124A0907800B0907900BE01882715
:100B000077FD8095982F0E94BC132B013C01B50105
:100B100080E090E00E94BA1320E030EC4FE754E40C
:100B20000E942113A30192010E94F0140E948E13CF
:100B30004B015C0120917800309179008091780020
:100B4000909179003F932F939F938F9360E472E489
:100B50008FE090E0A70196010E9438175F934F93B2
:100B60003F932F93B40180E090E00E94BA13A30159
:100B700092010E9421139F938F937F936F933F92D3
:100B80002F920E94E418A401BE0181E00E946C092A
:100B90008DB79EB70E960FB6F8949EBF0FBE8DBF51
:100BA00081CF40E050E061E070E084E090E00E949E
:100BB00022062CE531E140E050E062E070E081E0A7
:100BC00090E00E94E00864ED74E081E00E94A509D5
:100BD00080E284B9C1E0189BFECF89E291E00E94D7
:100BE000F818C093F0011092EF011092EE012FEF70
:100BF0008FE398E3215080409040E1F700C000006F
:100C00001092F001E8CF41E050E061E070E084E054
:100C100090E00E94220681E08093F00184ED94E050
:100C20000C948B060E94BE0660E072EC81E090E0BE
:100C30000E94CA068FE391E00E94F8180E94ED0618
:100C40000E94D105F8948830910594F591B121E086
:100C500030E0082E01C0220F0A94EAF720952923DC
:100C600021B9806480937C0020917A002760CB01B9
:100C700035E0880F991F3A95E1F78068E3E0440F6B
:100C8000551FEA95E1F7842B282B20937A006115F4
:100C9000710519F480917B0001C080E080937B0096
:100CA000672B29F080917A00806480937A00789491
:100CB0000895EAE7F0E080818F77808310927900D1
:100CC00010927800089580917800909179000895AD
:100CD0008830910554F490917C00907E90937C0034
:100CE00090917C00982B90937C00089520917A003D
:100CF0002F7D20937A000E94680680917A0080649C
:100D000080937A0080917A0086FDFCCF80917800F4
:100D10009091790008959093F2018093F1010895E4
:100D20001F920F920FB60F9211242F933F934F9360
:100D30005F936F937F938F939F93AF93BF93EF9343
:100D4000FF93E091F101F091F201309709F00995DC
:100D5000FF91EF91BF91AF919F918F917F916F9193
:100D60005F914F913F912F910F900FBE0F901F9069
:100D700018950E94E60680E090E0089580E091E0FA
:100D8000909347028093460260E072EC81E090E02D
:100D90000C94740A9B01AC0184E0220F331F441FA2
:100DA000551F8A95D1F760E070E489E191E00E94D7
:100DB0003817215031093093CD002093CC0088E1C1
:100DC0008093C90086E08093CA0008959091C8007E
:100DD00095FFFCCF8093CE0008958091C80087FFD7
:100DE000FCCF8091CE00089521E02093FC01209358
:100DF00002029093FE018093FD01709300026093C4
:100E0000FF010895CF92DF92EF92FF920F931F930D
:100E1000CF93DF936B01C091C001D091C101002736
:100E200011270C1B1D0BAE01B8010E946A0A7C0140
:100E3000AE01B801C6010E946A0A91958195910997
:100E4000AC01662757FD6095762F80E00E945A0E10
:100E5000A701662757FD6095762F81E0DF91CF913E
:100E60001F910F91FF90EF90DF90CF900C945A0E4E
:100E7000CF92DF92EF92FF920F931F93C090B00139
:100E8000D090B101E090B201F090B3010091B401B3
:100E90001091B5012091B6013091B7014091B80190
:100EA0005091B9016091BA017091BB0181E00E943B
:100EB000DE0AC090A401D090A501E090A601F090B8
:100EC000A7010091A8011091A9012091AA013091D8
:100ED000AB014091AC015091AD016091AE017091B8
:100EE000AF0180E00E94DE0A20E137E240E050E0FE
:100EF00062E070E080E090E00E94E0086BEA77E05A
:100F000080E00E94A50960E070E080E090E01F9121
:100F10000F91FF90EF90DF90CF900C940207882301
:100F200019F0813051F014C02091F5013091F60193
:100F3000232B71F48091C20108C02091F5013091FA
:100F4000F601232B29F48091C30190E00C948F08C3
:100F500090E00C943C0DEF92FF920F931F93CF9370
:100F6000DF9381E080930D028091F8019091F90167
:100F7000A091FA01B091FB010196A11DB11D8093D2
:100F8000F8019093F901A093FA01B093FB018091CD
:100F9000020281110CC060E070E080E090E0DF911F
:100FA000CF911F910F91FF90EF900C94020781E079
:100FB0000E948F07909304028093030280E00E94B6
:100FC0008F07909306028093050220910E0130E076
:100FD000409103025091040260910802709109024D
:100FE00081E00E94200B8C012091030230910402C9
:100FF00040910502509106026091070281E00E9433
:10100000750CEC0120910E0130E0409105025091E9
:10101000060260910A0270910B0280E00E94200B90
:101020007C0120910302309104024091050250910D
:1010300006026091070280E00E94750C2091FC017D
:10104000222349F06091FF01709100028091FD011F
:101050009091FE0106C0B701680F791FC8018C0F7F
:101060009D1F0E9402076091050270910602809107
:101070000302909104020E94090F60930F01709384
:101080001001809311019093120110920E01DF91D3
:10109000CF911F910F91FF90EF900895CF93DF9321
:1010A00000D000D01F92CDB7DEB70E941C1029835C
:1010B0003A834B835C836D8381E080930E01809340
:1010C00002021092FC01662349F085E0FE01319690
:1010D000A8E0B2E001900D928A95E1F70F900F9091
:1010E0000F900F900F90DF91CF9108951092FC0117
:1010F000909309028093080270930B0260930A0296
:1011000081E080930E018093020208956091F801BE
:101110007091F9018091FA019091FB010895CF93AC
:10112000DF93EC010E9476062091C20130E0C217E5
:10113000D307A9F46091CE017091CF01680F791F98
:10114000882777FD8095982F0E94BC132091D201AB
:101150003091D3014091D4015091D50114C06091D8
:10116000D0017091D101680F791F882777FD809594
:10117000982F0E94BC132091D6013091D701409145
:10118000D8015091D9010E94F01420E030E048ECE1
:1011900052E40E94F0140E948913CB01DF91CF9199
:1011A00008950E9476062091CC013091CD01AC01CA
:1011B000429FC001439F900D529F900D11240895AE
:1011C0000F931F93CF93DF938C01EB01F894A2E16F
:1011D000B0E00E94111728EE33E040E050E00E949A
:1011E0003817215031094109510901301105B1F079
:1011F0000230110531F1012BB9F5CE0146E0880F1F
:10120000991F4A95E1F7C82BC4BD85E085BD27BD70
:1012100080916E00826080936E0026C0C295CC0FD4
:10122000CC0FC07CC09380008DE080938100309310
:1012300089002093880080916F00826080936F0006
:1012400013C0CE0136E0880F991F3A95E1F7C82BFD
:10125000C093B00085E08093B1002093B3008091EB
:1012600070008260809370007894DF91CF911F911D
:101270000F9108958130910539F08230910549F040
:10128000892B59F486B507C0809184009091850020
:1012900008958091B20090E0089580E090E0089574
:1012A000813051F018F0823079F00895249A81E667
:1012B00084BD8DE085BD0895549A83EA80938000B3
:1012C00085E1809381000895569A81E68093B0006D
:1012D0008DE08093B1000895813039F018F08230AC
:1012E00069F0089567BD48BD0895709389006093C3
:1012F000880050938B0040938A0008956093B30058
:101300004093B4000895CF93C82FA2E1B0E09A01B2
:10131000AB010E94111728EE33E040E050E00E943C
:1013200038172150310941095109C13041F028F0E5
:10133000C23049F42093B30006C027BD04C03093E7
:10134000890020938800CF910895813049F018F0EA
:10135000823059F008957093130260931202089539
:101360007093110260931002089570930F026093BE
:101370000E0208951F920F920FB60F9211242F9311
:101380003F934F935F936F937F938F939F93AF930D
:10139000BF93EF93FF93E0911202F0911302309705
:1013A00009F00995FF91EF91BF91AF919F918F91B6
:1013B0007F916F915F914F913F912F910F900FBE51
:1013C0000F901F9018951F920F920FB60F92112435
:1013D0002F933F934F935F936F937F938F939F933D
:1013E000AF93BF93EF93FF93E0911002F09111023E
:1013F000309709F00995FF91EF91BF91AF919F91BF
:101400008F917F916F915F914F913F912F910F90AD
:101410000FBE0F901F9018951F920F920FB60F924C
:1014200011242F933F934F935F936F937F938F93E9
:101430009F93AF93BF93EF93FF93E0910E02F091D0
:101440000F02309709F00995FF91EF91BF91AF918D
:101450009F918F917F916F915F914F913F912F91CC
:101460000F900FBE0F901F9018958F929F92AF9282
:10147000BF92CF92DF92EF92FF920F931F93CF9381
:10148000DF936B01D82FC92F49015A010E941A130B
:1014900087FD0DC09701A801B6018D2F9C2F0E94DA
:1014A000E51418163CF46701D02FC12F03C0640166
:1014B000DA2DCB2DB6018D2F9C2FDF91CF911F916F
:1014C0000F91FF90EF90DF90CF90BF90AF909F90E3
:1014D0008F900895861797072CF0481759071CF42A
:1014E000CA010895CB0108959B01AC0184E0220F4D
:1014F000331F441F551F8A95D1F760E070E489E1DE
:1015000091E00E943817215031093093C500209393
:10151000C40088E18093C10086E08093C2000895F2
:101520009091C00095FFFCCF8093C6000895CF93A3
:10153000DF93EC018991882319F00E94900AFACF79
:10154000DF91CF9108950F931F93CF93DF93CDB782
:10155000DEB764970FB6F894DEBF0FBECDBF7F93A2
:101560006F939F938F938AED91E09F938F938E015A
:101570000F5F1F4F1F930F930E942519C8010E94F0
:10158000970A0FB6F894DEBF0FBECDBF64960FB6B4
:10159000F894DEBF0FBECDBFDF91CF911F910F91A9
:1015A0000895882319F060917C0102C060917D014B
:1015B00070E080917F0190E00C94A30ACF92DF92BB
:1015C000EF92FF920F931F938823D9F0813089F512
:1015D000409338025093390260933A0270933B0271
:1015E00000933C0210933D0220933E0230933F0251
:1015F000C0924002D0924102E0924202F092430235
:1016000018C040932C0250932D0260932E027093C9
:101610002F02009330021093310220933202309354
:101620003302C0923402D0923502E0923602F09238
:1016300037021F910F91FF90EF90DF90CF900895A8
:101640002F923F924F925F926F927F928F929F92D2
:10165000AF92BF92CF92DF92EF92FF920F931F93C0
:10166000CF93DF93CDB7DEB760970FB6F894DEBFA8
:101670000FBECDBF7A8369838A01232B61F081116C
:1016800005C010921B0210921A0207C01092190294
:101690001092180223C0811121C080902C029090DA
:1016A0002D02A0902E02B0902F02C0903002D09058
:1016B0003102E0903202F0903302409034025090B8
:1016C0003502609036027090370220901A023090F6
:1016D0001B022AE132E03E832D8320C08090380235
:1016E00090903902A0903A02B0903B02C0903C0228
:1016F000D0903D02E0903E02F0903F0240904002C8
:101700005090410260904202709043022090180273
:101710003090190288E192E09E838D83A091C001F0
:10172000B091C101B88BAF87BD01882777FD809547
:10173000982F0E94BC136F83788789879A87A701A7
:1017400096010E9421130E9489136B877C878D87E5
:101750009E8789819A81801B910B64E670E00E94CC
:101760002417882777FD8095982F0E94BC136983E2
:101770007A838B839C839B01AC01C501B4010E94D9
:10178000F0144B015C01B101882777FD8095982FFB
:101790000E94BC139B01AC01C701B6010E94F0146A
:1017A0009B01AC01C501B4010E9454126B017C0184
:1017B00020911402309115024091160250911702A7
:1017C00069817A818B819C810E9453128090BC0137
:1017D0009090BD01A090BE01B090BF01A501940101
:1017E0000E9421130E948913882777FD8095982FE6
:1017F0000E94BC139B01AC01C301B2010E94F01412
:101800009B01AC01C701B6010E9454122B013C019F
:101810006F857889719561957109882777FD809525
:10182000982F0E94BC139B01AC01EF80F8840985BE
:101830001A85C301B2010E94350A6B017C010B8538
:101840001C85119501951109ED81FE8160817181E1
:10185000882777FD8095982F0E94BC132B013C01AF
:10186000A501940169817A818B819C810E94F01489
:101870009B01AC01C301B2010E9454120E94891362
:10188000DC01CB014B855C85B8010E946A0AAD8101
:10189000BE818D939C9389819A81AB81BC81809319
:1018A000140290931502A0931602B0931702C70179
:1018B000B6010E948913CB0160960FB6F894DEBF83
:1018C0000FBECDBFDF91CF911F910F91FF90EF9091
:1018D000DF90CF90BF90AF909F908F907F906F9050
:1018E0005F904F903F902F900895CF93DF9300D05B
:1018F00000D01F92CDB7DEB729833A834B835C8338
:1019000069817A812B813C81811103C0620F731F31
:1019100002C0813021F5882777FD8095982F0E949D
:10192000BC1320E030E048EC52E40E9421132BED80
:101930003FE049E450E40E94F01420E030E044E34A
:1019400053E40E9421130E949F1520E030E04FE2F3
:1019500054EC0E94F0140E948913CB0102C080E075
:1019600090E00F900F900F900F900F90DF91CF911C
:101970000895DF92EF92FF920F931F93CF93DF931F
:10198000D82E790180912800DD2011F08F7E01C0D2
:101990008F7D8093280020E4629FB001112428E00D
:1019A000429FC0011124862B0E94540EE70110E0D3
:1019B0009E012E193F09201731072CF488810E94BF
:1019C000540E8993F5CF80912800DD2011F08061BD
:1019D00001C0806280932800DF91CF911F910F9109
:1019E000FF90EF90DF9008950F931F93CF93DF93B5
:1019F0001F92CDB7DEB7182F00E020E030E044E0C2
:101A000060E00E94B90C83E0898301E09E012F5FB2
:101A10003F4F41E062E0812F0E94B90C82E0898350
:101A20009E012F5F3F4F42E062E0812F0E94B90C80
:101A30000F90DF91CF911F910F9108950F93CF9346
:101A4000DF9300D0CDB7DEB702E09E012F5F3F4F9E
:101A500044E061E00E94B90C698170E0762F66274E
:101A60008A81682B882777FD8095982F0F900F909B
:101A7000DF91CF910F910895CF93C82F90E00E94EE
:101A80001E0D882777FD8095982F0E94BC13CC23CC
:101A900049F02091C8013091C9014091CA0150918B
:101AA000CB0108C02091C4013091C5014091C6010D
:101AB0005091C7010E94F0140E948913CB01CF916D
:101AC00008950F9300E020E030E044E060E00E94E1
:101AD000B90C0F9108950F93CF93DF9300D0CDB73A
:101AE000DEB759834A8302E09E012F5F3F4F44E0F7
:101AF00062E00E94B90C0F900F90DF91CF910F918F
:101B00000895CF93909128009E7F9093280088613C
:101B1000880F880F0E94540E80E00E94540EC82F38
:101B200080E00E94540E90912800916090932800CC
:101B3000282F22952F7030E1C39FC0011124822BE2
:101B4000CF91089583E090E00E94810D90931D0253
:101B500080931C0208950E94810D20911C023091F7
:101B60001D02821B930BBC01882777FD8095982F5F
:101B70000E94BC132DEC3CEC4CE050E40E94F014AD
:101B80000E948913CB0108950E9476064CEB52E027
:101B900066E470E00E946A0ABC01882777FD8095A0
:101BA000982F0E94BC1320E030E040EA50E40E94ED
:101BB000F01420E030EC4FE754E40E9421139B0125
:101BC000AC0164EF7DEF84ED9EE30E94531528E99C
:101BD0003EE642E55FE30E94F01420E030E04AE791
:101BE00054E40E94F0140E948913CB01089584B13B
:101BF000806B84B983E58CBD8091270080628093DF
:101C00002700809127008061809327008091270022
:101C1000886080932700809127008460809327004C
:101C200080912A00806180932A008091270080643F
:101C30008093270080912700816080932700809106
:101C40002800806280932800809128008061809322
:101C500028008091280088608093280080912800C7
:101C600084608093280080912B00806180932B00FA
:101C700080912800806480932800809128008160F2
:101C80008093280008959CB59C7F9CBD9DB59E7F48
:101C90009DBD2CB5982F9370922B9CBD9DB58695BC
:101CA0008695892B8DBD08958EBD0DB407FEFDCFA1
:101CB0008EB50895FF920F931F93CF93DF9300D0BB
:101CC00000D0CDB7DEB7F82EA091A201B091A3014C
:101CD0009A01AB010E941C172091C0013091C101F3
:101CE000442737FD4095542F0E945A1701E010E019
:101CF0001216130614F000E010E08F2D880FFF2459
:101D0000F394F80E0115110519F460E070E001C0BC
:101D1000B90190E029833A834B835C830E94F711D9
:101D200029813A81012B29F466277727621B730BDF
:101D300002C060E070E08F2D90E00F900F900F9048
:101D40000F90DF91CF911F910F91FF900C94F7119D
:101D500090E00E9476069C01A8E8B3E10E94FB1681
:101D60002FEF33E040E050E00E945A172C583A40E1
:101D700041095109C90108950F931F93CF93DF9330
:101D8000C82FD0E0662391F0FE01EE0FFF1FEE0F8B
:101D9000FF1FEE5DFD4F1082118212821382FE0141
:101DA000EE0FFF1FE25EFD4F118210820E94A80E0F
:101DB000FE01EE0FFF1FEE0FFF1FEE5DFD4F919531
:101DC00081959109BC01882777FD8095982F008126
:101DD000118122813381600F711F821F931F6083E5
:101DE000718382839383CC0FDD1FC25EDD4F288118
:101DF00039812F5F3F4F39832883442737FD409532
:101E0000542F0E945A17C901DF91CF911F910F9152
:101E100008954F925F926F927F928F929F92AF92AE
:101E2000BF92CF92DF92EF92FF92CF93DF9300D0D9
:101E300000D0CDB7DEB75B01BC01882777FD809568
:101E4000982F0E94BC132BED3FE049E450E40E9420
:101E5000F01420E030E044E353E40E94211320E03A
:101E600030E048EC52E40E9421136B017C01B50183
:101E7000882777FD8095982F0E94BC132BED3FE0BB
:101E800049E450E40E94F01420E030E044E353E4DD
:101E90000E94211320E030E048EC52E40E9421131C
:101EA0009B01AC01C701B6010E9454122B013C01F9
:101EB0000E949F154B015C01C301B2010E941E13D9
:101EC0002B013C01C701B6010E949F1569837A83EB
:101ED0008B839C83C701B6010E941E139B01AC013A
:101EE000C0909E01D0909F01E090A001F090A101D0
:101EF000C301B2010E9454129B01AC01C701B6019B
:101F00000E94F01420919A0130919B0140919C0114
:101F100050919D010E9454120E9489132B013C0193
:101F200029813A814B815C81C501B4010E94541220
:101F30009B01AC01C701B6010E94F0140E948913F5
:101F40006B017C01B601C2010F900F900F900F90B2
:101F5000DF91CF91FF90EF90DF90CF90BF90AF9047
:101F60009F908F907F906F905F904F9008958F9289
:101F70009F92AF92BF92CF92DF92EF92FF92CF9358
:101F80004B015C0169017A019B01AC010E94EA15D9
:101F9000811146C0A7019601C701B6010E94EA154A
:101FA00081113EC0209190013091910140919201A8
:101FB00050919301C501B4010E941A1387FD30C0EE
:101FC00020918C0130918D0140918E0150918F01B3
:101FD000C501B4010E94E514181614F1209188017E
:101FE0003091890140918A0150918B01C701B6015E
:101FF0000E941A1387FD14C0C1E020918401309122
:1020000085014091860150918701C701B6010E9468
:10201000E51418160CF0C0E081E08C2790E002C0B7
:1020200080E090E0CF91FF90EF90DF90CF90BF9055
:10203000AF909F908F9008954F925F926F927F9292
:102040008F929F92AF92BF92CF92DF92EF92FF92C8
:10205000CF93DF93CDB7DEB761970FB6F894DEBFAD
:102060000FBECDBF66247724681A790A882777FDCA
:102070008095982F0E94BC1320919A0130919B016A
:1020800040919C0150919D010E9453120E9489131E
:102090006E837F8388879987B301882777FD809532
:1020A000982F0E94BC139B01AC01EE81FF81BF0100
:1020B000882777FD8095982F2E873F87488B598BEF
:1020C0000E94BC132E853F85488959890E94C712FA
:1020D0004B015C01C0909E01D0909F01E090A00157
:1020E000F090A1019301D3010E94F3162B013C0152
:1020F0002E813F81D9010E94F316460E571E681E9D
:10210000791EC301B2010E94BC136E837F8388874E
:1021100099870E94A9156A877B878C879D87A7016D
:102120009601C701B6010E94F0149B01AC010E9408
:1021300054122B013C012E813F81488559850E9414
:102140005312A30192010E9421130E9445126E8333
:102150007F8388879987A7019601C701B6010E94EE
:1021600054129B01AC016A857B858C859D850E94FC
:1021700021130E9445126A877B878C879D872BEDF0
:102180003FE049E450E46E817F81888599850E9413
:1021900053122B013C012A853B854C855D85C50189
:1021A000B4010E9454122BED3FE049EC5FE30E9422
:1021B00053126B017C012A853B854C855D85C501E9
:1021C000B4010E9453122BED3FE049EC5FE30E9403
:1021D00053124B015C012BED3FE049E450E4C70191
:1021E000B6010E94E51418164CF42BED3FE049ECC3
:1021F00050E4C701B6010E94531212C02BED3FE01C
:1022000049E450ECC701B6010E941A1387FF0AC0C7
:102210002BED3FE049EC50E4C701B6010E94541297
:102220006B017C012BED3FE049E450E4C501B401B2
:102230000E94E514181654F42BED3FE049EC50E4ED
:10224000C501B4010E9453124B015C012BED3FE02C
:1022500049E450ECC501B4010E941A1387FF0AC07B
:102260002BED3FE049EC50E4C501B4010E9454124B
:102270004B015C01A3019201C701B6010E94B70F97
:10228000892BF9F020E030E044E353E4C701B601C4
:102290000E94F0142BED3FE049E450E40E9421132A
:1022A00020E030E048EC52E40E94F0140E948913D0
:1022B0007A83698320E030E044E353E4C301B20150
:1022C00032C02E813F81488559856BED7FE089E4DE
:1022D00090E40E9453126B017C019B01AC01C5018B
:1022E000B4010E94B70F892B99F120E030E044E35C
:1022F00053E4C501B4010E94F0142BED3FE049E422
:1023000050E40E94211320E030E048EC52E40E94A7
:10231000F0140E9489137A83698320E030E044E35B
:1023200053E4C701B6010E94F0142BED3FE049E4ED
:1023300050E40E94211320E030E048EC52E40E9477
:10234000F0140E9489137C836B8381E08D8305C028
:102350001A8219821C821B821D8229813A814B813B
:102360005C816D8170E080E090E061960FB6F8943A
:10237000DEBF0FBECDBFDF91CF91FF90EF90DF901A
:10238000CF90BF90AF909F908F907F906F905F9015
:102390004F900895BC0197FF02C06D5F7F4F759508
:1023A0006795759567952091820130918301620F41
:1023B000731F2091800130918101280F391F8827D8
:1023C0009927821B930B0C944E08609182017091A7
:1023D0008301685D7F4F2091800130918101280F3A
:1023E000391F88279927821B930B0C944E08CF9393
:1023F000DF93EB0185309105D0F490912B009F7E07
:1024000090932B0080630E94540ECE0124E095959A
:1024100087952A95E1F70E94540E8C2F8295807F34
:102420000E94540E80912B00806180932B00DF91DD
:10243000CF91089580912B008F7E80932B008FE4A5
:102440000E94540E80E00E94540E80E00E94540EC0
:1024500080912B00806180932B0086E08A95F1F7B4
:10246000000080912B008F7E80932B008FE10E94D3
:10247000540E80E00E94540E80E00E94540E809121
:102480002B00806180932B0008959F939F77AFD19D
:102490000F9000203AF49058A2EA2AED3FE049E478
:1024A00050E413D047C25058BB27AA270ED042C2CF
:1024B0000BD230F010D220F031F49F3F11F41EF413
:1024C000DBC10EF4E095E7FBD1C1E92F55D280F3D3
:1024D000BA17620773078407950718F071F49EF521
:1024E0006DC20EF4E0950B2EBA2FA02D0B01B90191
:1024F00090010C01CA01A0011124FF27591B99F07A
:10250000593F50F4503E68F11A16F040A22F232F85
:10251000342F4427585FF3CF469537952795A795D5
:10252000F0405395C9F77EF41F16BA0B620B730B7C
:10253000840BBAF09150A1F0FF0FBB1F661F771FED
:10254000881FC2F70EC0BA0F621F731F841F48F4A2
:10255000879577956795B795F7959E3F08F0B3CF28
:102560009395880F08F09927EE0F97958795089512
:10257000ABD158F080E891E009F49EEFACD128F09F
:1025800040E851E059F45EEF09C076C117C2E92F67
:10259000E078F2D168F3092E052AC1F32617370730
:1025A0004807590738F00E2E07F8E02569F0E025B6
:1025B000E0640AC0EF6307F8009407FADB01B90191
:1025C0009D01DC01CA01AD01EF934AD0B3D10AD01D
:1025D0005F91552331F02BED3FE049E450FD49EC8C
:1025E00063CF0895DF93DD27B92FBF7740E85FE31E
:1025F0001616170648075B0710F4D92FEAD19F93E8
:102600008F937F936F93E3D2ECE7F0E038D192D1D0
:102610002F913F914F915F91EFD1DD2349F0905879
:10262000A2EA2AED3FE049EC5FE3D0785D274DDF79
:10263000DF9180C1F7D008F481E0089554D1E3958B
:102640008AC10CD077C147D140F03ED130F021F49F
:102650005F3F19F00BC15111B2C10EC18DD198F37A
:102660009923C9F35523B1F3951B550BBB27AA2713
:1026700062177307840738F09F5F5F4F220F331F85
:10268000441FAA1FA9F333D00E2E3AF0E0E830D051
:1026900091505040E695001CCAF729D0FE2F27D054
:1026A000660F771F881FBB1F261737074807AB0722
:1026B000B0E809F0BB0B802DBF01FF2793585F4F97
:1026C0002AF09E3F510568F0D1C079C15F3FECF31D
:1026D000983EDCF3869577956795B795F7959F5F5C
:1026E000C9F7880F911D9695879597F90895E1E0B0
:1026F000660F771F881FBB1F621773078407BA070F
:1027000020F0621B730B840BBA0BEE1F88F7E09569
:10271000089504D06894B11152C1089535D188F05C
:102720009F5790F0B92F9927B751A0F0D1F0660FBD
:10273000771F881F991F1AF0BA95C9F712C0B130D8
:1027400081F03CD1B1E0089539C1672F782F8827F7
:10275000B85F39F0B93FCCF3869577956795B39517
:10276000D9F73EF490958095709561957F4F8F4F86
:102770009F4F0895E89409C097FB3EF4909580958B
:10278000709561957F4F8F4F9F4F9923A9F0F92F37
:1027900096E9BB279395F695879577956795B795B5
:1027A000F111F8CFFAF4BB0F11F460FF1BC06F5F9B
:1027B0007F4F8F4F9F4F16C0882311F096E911C0AD
:1027C000772321F09EE8872F762F05C0662371F0CE
:1027D00096E8862F70E060E02AF09A95660F771FE2
:1027E000881FDAF7880F9695879597F90895DF93F4
:1027F000CF931F930F938B01EC01E9EAF0E03FD0F8
:1028000099D09801AE018B01EC0160E070E080E8A6
:102810009FE349DE9ED19801AE010F911F91CF91A8
:10282000DF91EAC0990F0008550FAA0BE0E8FEEF10
:1028300016161706E807F907C0F012161306E40784
:10284000F50798F0621B730B840B950B39F40A267D
:1028500061F0232B242B252B21F408950A2609F45B
:10286000A140A6958FEF811D811D089597F99F675F
:1028700080E870E060E008959FEF80EC0895DF93BA
:10288000CF931F930F93FF92EF92DF927B018C0106
:10289000689405C0DA2EEF01AFD0FE01E894A5914F
:1028A0002591359145915591AEF3EF010EDEFE0174
:1028B0009701A801DA9479F7DF90EF90FF900F91DC
:1028C0001F91CF91DF91089500240A9416161706E0
:1028D00018060906089500240A9412161306140611
:1028E00005060895C9CF50D0E8F3E894E0E0BB278F
:1028F0009F57F0F02AED3FE049EC06C0EE0FBB0F0A
:10290000661F771F881F28F0B23A62077307840793
:1029100028F0B25A620B730B840BE3959A9572F709
:10292000803830F49A95BB0F661F771F881FD2F747
:10293000904887C1092E0394000C11F4882352F0AB
:10294000BB0F40F4BF2B11F460FF04C06F5F7F4FDB
:102950008F4F9F4F0895EF93E0FF06C0A2EA2AED44
:102960003FE049EC5FEBB1DDE5DF0F90039401FC44
:102970009058E1EDF0E078C157FD9058440F551F95
:1029800059F05F3F71F04795880F97FB991F61F0F1
:102990009F3F79F087950895121613061406551F68
:1029A000F2CF4695F1DF08C0161617061806991FD4
:1029B000F1CF86957105610508940895E894BB27C9
:1029C00066277727CB0197F908952CDF08F48FEF5E
:1029D00008959B01AC0160E070E080E89FE331CE98
:1029E0000BD0A8CF71DF28F076DF18F0952309F01F
:1029F0003DCF42CF1124E3CFBFDFA0F3959FD1F3AA
:102A0000950F50E0551F629FF001729FBB27F00D9C
:102A1000B11D639FAA27F00DB11DAA1F649F6627F1
:102A2000B00DA11D661F829F2227B00DA11D621F40
:102A3000739FB00DA11D621F839FA00D611D221FFA
:102A4000749F3327A00D611D231F849F600D211DDE
:102A5000822F762F6A2F11249F5750408AF0E1F081
:102A600088234AF0EE0FFF1FBB1F661F771F881FCA
:102A700091505040A9F79E3F510570F0F7CE9FCF7F
:102A80005F3FECF3983EDCF3869577956795B795B5
:102A9000F795E7959F5FC1F7FE2B880F911D9695DF
:102AA000879597F90895FA01EE0FFF1F30962105DB
:102AB000310599F16115710561F48038BFE39B0719
:102AC00049F168949038810561F08038BFEF9B0729
:102AD00041F0992342F5FF3FE1053105210511F150
:102AE000E8940894E795D901AA2329F4AB2FBE2FC7
:102AF000F85FD0F310C0FF5F70F4A695E0F7F739E8
:102B000050F019F0FF3A38F49F779F930CD00F9054
:102B100007FC905808953EF0AFCE60E070E080E88A
:102B20009FE308954FE79F775F934F933F932F93D2
:102B3000E7D02F913F914F915F9152DF54C09F9307
:102B4000D2DE0F9007FCEE5F06CF11F40EF494CEA8
:102B500076C01ADFD0F39923D9F3CEF39F57550BE4
:102B600087FF7BD00024A0E640EA9001805856956C
:102B7000979528F4805C660F771F881F20F0261732
:102B80003707480730F4621B730B840B2029312967
:102B90004A2BA69517940794202531254A2758F7E4
:102BA000660F771F881F20F026173707480730F475
:102BB000620B730B840B200D311D411DA09581F715
:102BC000B901842F9158880F9695879508959B0198
:102BD000AC0106CF27DE880B990B089519F40EF08F
:102BE00045CEECCE49CED0DEC8F39638C0F707F814
:102BF0000F92E8942BE33AEA48EB5FE7FFDE0F928F
:102C00000F920F924DB75EB70F92BAD0EFEEF0E091
:102C100036DE4F915F91EF91FF91E595EE1FFF1F1B
:102C200049F0FE57E0684427EE0F441FFA95E1F79C
:102C30004195550B2CD00F9007FECBCE08959F3FAA
:102C400031F0915020F4879577956795B795880F67
:102C5000911D9695879597F9089591505040660F6C
:102C6000771F881FD2F708959F938F937F936F9359
:102C7000FF93EF939B01AC01B3DEEF91FF91FFDD7A
:102C80002F913F914F915F91ABCEF0CDD8CF7CDEAD
:102C9000E8F39923D9F3940F511DBBF391505040A1
:102CA00094F059F0882332F0660F771F881F9150F7
:102CB0005040C1F79E3F510544F7880F911D9695EE
:102CC000879597F908955F3FACF0983E9CF0BB273D
:102CD000869577956795B79508F4B1609395C1F798
:102CE000BB0F58F711F460FFE8CF6F5F7F4F8F4F36
:102CF0009F4FE3CF64CE0EF0A2CFBECD6894B6CD89
:102D000043DEC8F39923D1F3C6F3DF93CF931F9328
:102D10000F93FF92C92FDD2788232AF02197660F92
:102D2000771F881FDAF720E030E040E85FEB9FE391
:102D3000883920F0803E30F021968F77B5DBE7E1CF
:102D4000F1E003C0B1DBE4E4F1E099DD8B01BE0109
:102D5000EC01FB2E6F5771097595771F880B990B46
:102D60000BDD28E132E741E35FE346DEAF2D98015A
:102D7000AE01FF900F911F91CF91DF91A6DBDACDCD
:102D8000FA01DC01AA0FBB1F9B01AC01BF5728F45D
:102D900022273327442750781FC0B75188F4AB2F20
:102DA0000024469537952795011CA395D2F3002062
:102DB00069F0220F331F441FB395DAF30DD073CBA4
:102DC00061307105A0E88A07B94630F49B01AC0177
:102DD0006627772788279078309621F020833183E3
:102DE0004283538308950E94FB16332312F48A1BF7
:102DF0009B0B0C940C17A29FB001B39FC001A39F23
:102E0000700D811D1124911DB29F700D811D112423
:102E1000911D08950E94FB16B7FF0895821B930B26
:102E200008950E94FB16A59F900DB49F900DA49F3E
:102E3000800D911D11240895B7FF0C9411170E9465
:102E40001117821B930B089597FB072E16F400941D
:102E500007D077FD09D00E94B01707FC05D03EF4DB
:102E6000909581959F4F0895709561957F4F089536
:102E7000A1E21A2EAA1BBB1BFD010DC0AA1FBB1F7E
:102E8000EE1FFF1FA217B307E407F50720F0A21BF0
:102E9000B30BE40BF50B661F771F881F991F1A945D
:102EA00069F760957095809590959B01AC01BD0187
:102EB000CF010895052E97FB1EF400940E94711710
:102EC00057FD07D00E94381707FC03D04EF40C942E
:102ED000711750954095309521953F4F4F4F5F4F5B
:102EE000089590958095709561957F4F8F4F9F4F76
:102EF00008952F923F924F925F926F927F928F929E
:102F00009F92AF92BF92CF92DF92EF92FF920F9378
:102F10001F93CF93DF93CDB7DEB7CA1BDB0B0FB682
:102F2000F894DEBF0FBECDBF09942A88398848883F
:102F30005F846E847D848C849B84AA84B984C884D5
:102F4000DF80EE80FD800C811B81AA81B981CE0FCC
:102F5000D11D0FB6F894DEBF0FBECDBFED010895B1
:102F6000AA1BBB1B51E107C0AA1FBB1FA617B707AF
:102F700010F0A61BB70B881F991F5A95A9F78095CB
:102F80009095BC01CD010895283008F027E0332743
:102F9000DA01990F311D87FD916000966105710579
:102FA00039F432602E5F3D9330E32A95E1F70895BE
:102FB0009F3F30F080387105610509F03C5F3C5F50
:102FC0003D93913008F08068911DDF93CF931F935C
:102FD0000F93FF92EF92192F987F9695E92F969570
:102FE0009695E90FFF27ED52FE4F99273327EE24E0
:102FF000FF24A701E70105900894079428F4360FF1
:10300000E71EF81E491F511D660F771F881F991F65
:103010000694A1F70590079428F4E70EF81E491FBF
:10302000561FC11D770F881F991F661F0694A1F7B1
:103030000590079428F4F80E491F561FC71FD11D8D
:10304000880F991F661F771F0694A1F705900794B4
:1030500020F4490F561FC71FD81F990F661F771FEF
:10306000881F0694A9F784911095177041F0D695A2
:10307000C79557954795F794E7941A95C1F7E9E7EF
:10308000F1E06894159015913591659195910590B1
:103090007FE27395E118F10A430B560BC90BD00977
:1030A000C0F7E10CF11E431F561FC91FD01D7EF44F
:1030B000703311F48A95E6CFE894015030F0080F90
:1030C0000AF40027021708F4202F2395022F7A33E1
:1030D00028F079E37D932A95E9F710C07D932A952E
:1030E00089F6069497956795379517951794E11883
:1030F000F10A430B560BC90BD00998F023957E912A
:1031000073957A3308F070E37C932013B8F77E91BF
:1031100070617D9330F0839571E37D9370E32A9520
:10312000E1F71124EF90FF900F911F91CF91DF9164
:10313000992787FD90950895FC0105906150704096
:103140000110D8F7809590958E0F9F1F0895FC0170
:103150006150704001900110D8F7809590958E0FC6
:103160009F1F08950F931F93CF93DF93182F092F5D
:10317000EB018B8181FD03C08FEF9FEF20C082FFA9
:1031800010C04E815F812C813D81421753077CF432
:10319000E881F9819F012F5F3F4F39832883108396
:1031A00006C0E885F985812F0995892B29F72E819D
:1031B0003F812F5F3F4F3F832E83812F902FDF91E1
:1031C000CF911F910F910895A0E0B0E0EAEEF8E1F1
:1031D0000C948917FE01359661917191AF01809130
:1031E0004602909147020E945901E2E00C94A51713
:1031F0000F931F93CF93DF93E0914602F091470224
:10320000238121FF1BC0EC0100E010E08991609157
:10321000460270914702DB011896ED91FC911997D7
:10322000882331F00995892B89F30FEF1FEFEECF3B
:103230008AE00995892B11F4C80102C08FEF9FEF36
:10324000DF91CF911F910F910895AEE0B0E0EBE2D6
:10325000F9E10C9487170D891E8986E08C831A8307
:1032600009838FEF9FE79E838D83AE01475E5F4F9B
:103270006F89788DCE0101960E945901EF81F88502
:10328000E00FF11F10822E96E4E00C94A317FA01D0
:10329000AA27283051F1203181F1E8946F936E7F95
:1032A0006E5F7F4F8F4F9F4FAF4FB1E03ED0B4E086
:1032B0003CD0670F781F891F9A1FA11D680F791FC7
:1032C0008A1F911DA11D6A0F711D811D911DA11DD8
:1032D00020D009F468943F912AE0269F11243019E8
:1032E000305D3193DEF6CF010895462F4770405D83
:1032F0004193B3E00FD0C9F7F6CF462F4F70405D32
:103300004A3318F0495D31FD4052419302D0A9F78C
:10331000EACFB4E0A6959795879577956795BA9586
:10332000C9F700976105710508959B01AC010A2E4C
:1033300006945795479537952795BA95C9F7620F23
:0E334000731F841F951FA01D0895F894FFCFE2
:10334E000000000200000000B906000000000100AD
:10335E00002C0125642025640A0025662025754869
:10336E007A2025752025750A005374617274696E72
:10337E0067206E657720636170747572652E0045E7
:10338E006E74657220616E79206368617261637418
:10339E00657220746F20636F6E74696E75652E2E64
:1033AE002E0096FFC201370000005A000000F901FE
:1033BE008A023333B33F6E00C8000504B400010027
:1033CE00BE007500DB0FC93FAFADFEBFDB0FC93FBF
:1033DE0068CEECBF5A0088FF5A007DBF0E4366666A
:1033EE00184364088FC2753D3333A34000805444A4
:1033FE008FC2753D3333A34000806D440AD7233C02
:10340E00401F0203A38BAEC0683C184004008AFD27
:10341E0076FDFA806A3EE713773E536574736572E4
:0E342E00766F2825642C25303364290A0D00A2
:00000001FF
