:100000000C94BF000C94DC000C94DC000C94DC001D
:100010000C94DC000C94DC000C94DC000C94DC00F0
:100020000C94DC000C94A5070C94DC000C94DC0010
:100030000C94DC000C947C070C94DC000C94DC0029
:100040000C9453070C94DC000C94DC000C94DC0042
:100050000C94DC000C94DC000C94DC000C94DC00B0
:100060000C9415060C94DC000C94DC000C94DC0061
:100070000C94DC000C94DC000C94DC006E616E00CF
:10008000696E660000407A10F35A00A0724E18099B
:100090000010A5D4E80000E87648170000E40B54EF
:1000A000020000CA9A3B000000E1F50500008096BE
:1000B0009800000040420F000000A08601000000F0
:1000C000102700000000E8030000000064000000AA
:1000D00000000A00000000000100000000002C7673
:1000E000D888DC674F0823DFC1DFAE59E1B1B7968E
:1000F000E5E3E453C63AE651997696E8E6C28426EB
:10010000EB898C9B62ED407C6FFCEFBC9C9F40F2C6
:10011000BAA56FA5F490055A2AF75C936B6CF96742
:100120006DC11BFCE0E40D47FEF520E6B500D0ED07
:10013000902E0300943577050080841E080000206F
:100140004E0A000000C80C333333330F986E12830D
:100150001141EF8D2114893BE65516CFFEE6DB18E1
:10016000D1844B381BF77C1D901DA4BBE4242032A6
:1001700084725E228100C9F124ECA1E53D2711249F
:100180001FBECFEFD0E1DEBFCDBF11E0A0E0B1E0F8
:10019000ECE0F8E102C005900D92AE38B107D9F756
:1001A00011E0AEE8B1E001C01D92AF39B107E1F74F
:1001B0000E9497050C94040C0C940000A3E1B0E09D
:1001C000E4EEF0E00C94DD097C011B016A01FC0106
:1001D00017821682838181FF66C3BE016F5F7F4FE6
:1001E0004B01F7019381F10193FD859193FF81917B
:1001F0001F01882309F453C3853239F493FD859197
:1002000093FF81911F01853239F4B70190E00E947C
:10021000110B56016501E5CF10E0512C20E0203292
:10022000A0F48B3269F030F4803259F0833269F4F3
:1002300020612CC08D3239F0803339F4216026C022
:100240002260246023C0286021C027FD27C030ED34
:10025000380F3A3078F426FF06C0FAE01F9F300DC1
:100260001124132F13C06AE0569E300D1124532E13
:1002700020620CC08E3221F426FD11C3206406C01A
:100280008C3611F4206802C0883641F4F10193FDE8
:10029000859193FF81911F018111C1CF9BEB980F35
:1002A000933018F42061805E06C09BE9980F93306C
:1002B00008F0AAC12F7E26FF16E02F73722E853616
:1002C00021F4F22FF0647F2E08C0863621F4622FCD
:1002D0006068762E02C01111115077FE07C01C33E2
:1002E00048F444244394410E27E00BC0183030F406
:1002F000212F06C027E04CE3442E03C027E017E07F
:10030000412C560174E0A70EB11CF6016081718189
:1003100082819381042DA4010E94230A6C0109812A
:1003200000FF02C003FF06C071FC07C072FC08C0DA
:10033000612C08C03DE2632E05C02BE2622E02C094
:1003400090E2692E802F8C7099F1662011F084E084
:1003500001C083E0851510F0512C0BC0581A73FCB6
:1003600008C0B70180E290E00E94110B5A94C9F7CF
:10037000F3CF662029F0B701862D90E00E94110B83
:1003800003FD03C000E810E002C00CE710E0F72D09
:10039000F0717F2EF8018491882309F476C27110E0
:1003A0008052B70190E00E94110B0F5F1F4FF2CFF8
:1003B00077FE0FC04C0C04FF04C08A81813309F41E
:1003C0004A94141474F5F8E0F41578F588E0482E92
:1003D0002CC076FC2AC0812F90E08C159D059CF0E6
:1003E0006CEFC6166FEFD60674F0772D7068772E17
:1003F0000AC0E2E0F0E0EC0FFD1FE10FF11D80818B
:10040000803319F411501111F4CF77FE0EC044243B
:100410004394410E812F90E0C816D9062CF41C1984
:1004200004C04424439401C010E077FE07C01C14AC
:100430001D043CF496012F5F3F4F05C025E030E0DE
:1004400002C021E030E0662011F02F5F3F4F112302
:1004500031F0412F50E04F5F5F4F240F351F452D86
:1004600050E02417350714F4521A01C0512C872D7F
:10047000897049F4552039F0B70180E290E00E947C
:10048000110B5A94F7CF662029F0B701862D90E022
:100490000E94110B73FC09C0552039F0B70180E3AD
:1004A00090E00E94110B5A94F7CF77FE5FC09C2D0D
:1004B0008D2DD7FE02C090E080E0692E782E40E0BE
:1004C00050E0C601841991099D878C8796012619F1
:1004D0003709280D391D812F90E0EE27FF27E81BF3
:1004E000F90BFF87EE87FFEF6F167F0669F4B70100
:1004F0008EE290E02B8B3A8B488B598B0E94110B2C
:10050000598948893A892B89C614D70454F06C85D7
:100510007D85661577052CF4F901E40FF51F8181BF
:1005200001C080E371E0671A71084F5F5F4FEE858D
:10053000FF856E167F066CF0B70190E02B8B3A8B2F
:10054000488B598B0E94110B2B893A89488959890C
:10055000CACF6C147D0439F49A81963318F495331C
:1005600011F404FF81E3B70190E04BC08A8181332D
:1005700009F00F7EB70190E00E94110B111105C028
:1005800074FE18C085E490E017C0B7018EE290E0D9
:100590000E94110B82E066246394680EF401E80F58
:1005A000F11D8081B70190E00E94110B115041F3C1
:1005B000862DF1CF85E690E0B7010E94110BD7FCA4
:1005C00005C0C114D10439F404FF05C0D194C1940D
:1005D000D1088DE201C08BE2B70190E00E94110BBF
:1005E00080E36AE0C616D1042CF08F5FFAE0CF1AE0
:1005F000D108F7CFB70190E00E94110BB701C601F7
:10060000C0960E94110B41C1833631F0833779F0D7
:10061000833509F058C021C0560172E0A70EB11C05
:10062000F6018081898301E010E0640114C0560165
:10063000F2E0AF0EB11CF601C080D18026FF03C0EE
:10064000612F70E002C06FEF7FEFC6012B8B0E941D
:10065000060B8C012B892F7715C05601F2E0AF0EE7
:10066000B11CF601C080D18026FF03C0612F70E06D
:1006700002C06FEF7FEFC6012B8B0E94FB0A8C013B
:100680002B892068722E23FD1AC0852D90E0081753
:100690001907A8F4B70180E290E00E94110B5A9468
:1006A000F4CFF60177FC859177FE81916F01B70158
:1006B00090E00E94110B51105A940150110901153C
:1006C000110579F7E2C0843611F0893651F55601EB
:1006D00027FF09C0F4E0AF0EB11CF6016081718103
:1006E000828193810AC0F2E0AF0EB11CF6016081F5
:1006F0007181882777FD8095982F022F0F7697FFBD
:1007000008C090958095709561957F4F8F4F9F4F52
:1007100000682AE030E0A4010E94A60BC82EC81889
:100720003EC0022F853721F40F7E2AE030E01DC045
:10073000097F8F3691F018F4883559F0B0C08037B2
:1007400019F0883711F0ABC0006104FF09C00460E4
:1007500007C024FF08C0066006C028E030E005C0DE
:1007600020E130E002C020E132E0560107FF09C07D
:10077000F4E0AF0EB11CF60160817181828193813A
:1007800008C0F2E0AF0EB11CF6016081718180E01B
:1007900090E0A4010E94A60BC82EC8180F7706FF90
:1007A0000BC0202F2E7FC11650F404FF0AC002FD9B
:1007B00008C0202F2E7E05C0DC2C202F03C0DC2C8F
:1007C00001C0D12E24FF0DC0FE01EC0DF11D808172
:1007D000803311F4297E09C022FF06C0D394D3943C
:1007E00004C0822F867809F0D39423FD13C020FF24
:1007F00006C01C2DD51418F4150D1D19D52CD514B3
:1008000068F4B70180E290E02B8B0E94110BD39427
:100810002B89F5CFD51410F45D1801C0512C24FF9D
:1008200012C0B70180E390E02B8B0E94110B2B8943
:1008300022FF17C021FF03C088E590E002C088E7CF
:1008400090E0B7010CC0822F867859F021FD02C0DC
:1008500080E201C08BE227FD8DE2B70190E00E94AB
:10086000110BC11638F4B70180E390E00E94110B20
:100870001150F7CFCA94F401EC0DF11D8081B7013E
:1008800090E00E94110BC110F5CF552009F4C2CCA5
:10089000B70180E290E00E94110B5A94F6CFF70165
:1008A0008681978102C08FEF9FEF6396E2E10C94FF
:1008B000F90985B190E2892785B980918E019091DF
:1008C0008F01019690938F0180938E01809190010A
:1008D0008823C1F0209178003091790080918E01B9
:1008E00090918F013F932F939F938F938EE091E090
:1008F0009F938F930E94430B0F900F900F900F9038
:100900000F900F900895CF93DF9300D0CDB7DEB74F
:100910000C9820E030E0A90160E070E081E090E018
:100920000E94790640E050E061E070E084E090E0F1
:100930000E94A7050DE111E0E0907800F0907900A9
:1009400081E090E00E94D306FF92EF929F938F93F5
:100950001F930F930E94430B1A8219820F900F90DE
:100960000F900F900F900F9089819A81803197425C
:100970001CF789819A8101969A838983F5CF80E259
:1009800084B981E00E94E90640E050E061E070E057
:1009900084E090E00E94A70530E1C32E37E2D32E19
:1009A000E12CF12C19E045E1242E41E0342E189978
:1009B0000BC0199911C01A9B15C080E1C82E87E29F
:1009C000D82EE12CF12C0EC020E4C22E22E4D22E2F
:1009D0002FE0E22EF12C06C090E5C92E93ECD92E23
:1009E000E12CF12CC701B60128EE33E040E050E0E5
:1009F0000E94BB09129FE001139FD00D1124A0900B
:100A00007800B0907900BE01882777FD8095982FF7
:100A10000E94C1082B013C01B50180E090E00E94DA
:100A2000BF0820E030EC4FE754E40E942B08A301FC
:100A300092010E944D090E9493084B015C01209194
:100A400078003091790080917800909179003F93FF
:100A50002F939F938F9360E472E48FE090E0A7015F
:100A600096010E94BB095F934F933F932F93B4016C
:100A700080E090E00E94BF08A30192010E942B0831
:100A80009F938F937F936F933F922F920E94430B7C
:100A9000A401BE0181E00E9405078DB79EB70E96A6
:100AA0000FB6F8949EBF0FBE8DBF81CF40E050E0DF
:100AB00061E070E084E090E00E94A7052CE531E160
:100AC00040E050E062E070E081E090E00E94790652
:100AD00069E574E081E00E943E0780E284B9C1E0EC
:100AE000189BFECF84E291E00E94570BC0939001C7
:100AF00010928F0110928E012FEF8FE398E3215017
:100B000080409040E1F700C0000010929001E8CFD3
:100B100041E050E061E070E084E090E00E94A705D1
:100B200081E08093900189E594E00C9410060E9486
:100B3000430660E072EC81E090E00E944F068AE399
:100B400091E00E94570B0E9472060E945605F8948D
:100B50008830910594F591B121E030E0082E01C074
:100B6000220F0A94EAF72095292321B98064809303
:100B70007C0020917A002760CB0135E0880F991F17
:100B80003A95E1F78068E3E0440F551FEA95E1F7F5
:100B9000842B282B20937A006115710519F480911C
:100BA0007B0001C080E080937B00672B29F080915F
:100BB0007A00806480937A0078940895EAE7F0E000
:100BC00080818F7780831092790010927800089549
:100BD000809178009091790008958830910554F4BF
:100BE00090917C00907E90937C0090917C00982B5B
:100BF00090937C00089520917A002F7D20937A00B5
:100C00000E94ED0580917A00806480937A00809143
:100C10007A0086FDFCCF809178009091790008954C
:100C2000909392018093910108951F920F920FB6B5
:100C30000F9211242F933F934F935F936F937F9362
:100C40008F939F93AF93BF93EF93FF93E0919101A5
:100C5000F0919201309709F00995FF91EF91BF91C2
:100C6000AF919F918F917F916F915F914F913F9144
:100C70002F910F900FBE0F901F9018950E946B063A
:100C800080E090E0089580E091E090939C01809353
:100C90009B0160E072EC81E090E00C94CE079B0138
:100CA000AC0184E0220F331F441F551F8A95D1F7F2
:100CB00060E070E489E191E00E94BB0921503109B4
:100CC0003093CD002093CC0088E18093C90086E06A
:100CD0008093CA0008959091C80095FFFCCF80933F
:100CE000CE0008958091C80087FFFCCF8091CE0090
:100CF00008950F931F93CF93DF938C01EB01F8942A
:100D0000A2E1B0E00E94B00928EE33E040E050E0FC
:100D10000E94BB09215031094109510901301105D7
:100D2000B1F00230110531F1012BB9F5CE0146E0E9
:100D3000880F991F4A95E1F7C82BC4BD85E085BD92
:100D400027BD80916E00826080936E0026C0C295A0
:100D5000CC0FCC0FC07CC09380008DE080938100CD
:100D6000309389002093880080916F008260809387
:100D70006F0013C0CE0136E0880F991F3A95E1F756
:100D8000C82BC093B00085E08093B1002093B300DE
:100D9000809170008260809370007894DF91CF9191
:100DA0001F910F9108958130910539F0823091059E
:100DB00049F0892B59F486B507C080918400909141
:100DC000850008958091B20090E0089580E090E061
:100DD0000895813051F018F0823079F00895249A06
:100DE00081E684BD8DE085BD0895549A83EA8093A1
:100DF000800085E1809381000895569A81E6809372
:100E0000B0008DE08093B1000895813039F018F082
:100E1000823069F0089567BD48BD089570938900D8
:100E20006093880050938B0040938A0008956093EC
:100E3000B3004093B4000895CF93C82FA2E1B0E06F
:100E40009A01AB010E94B00928EE33E040E050E087
:100E50000E94BB092150310941095109C13041F0BB
:100E600028F0C23049F42093B30006C027BD04C067
:100E70003093890020938800CF910895813049F004
:100E800018F0823059F0089570939801609397019B
:100E9000089570939601609395010895709394015D
:100EA0006093930108951F920F920FB60F92112431
:100EB0002F933F934F935F936F937F938F939F9362
:100EC000AF93BF93EF93FF93E0919701F091980157
:100ED000309709F00995FF91EF91BF91AF919F91E4
:100EE0008F917F916F915F914F913F912F910F90D3
:100EF0000FBE0F901F9018951F920F920FB60F9272
:100F000011242F933F934F935F936F937F938F930E
:100F10009F93AF93BF93EF93FF93E0919501F0916F
:100F20009601309709F00995FF91EF91BF91AF912C
:100F30009F918F917F916F915F914F913F912F91F1
:100F40000F900FBE0F901F9018951F920F920FB623
:100F50000F9211242F933F934F935F936F937F933F
:100F60008F939F93AF93BF93EF93FF93E091930180
:100F7000F0919401309709F00995FF91EF91BF919D
:100F8000AF919F918F917F916F915F914F913F9121
:100F90002F910F900FBE0F901F9018959B01AC01E1
:100FA00084E0220F331F441F551F8A95D1F760E05C
:100FB00070E489E191E00E94BB092150310930932E
:100FC000C5002093C40088E18093C10086E080932F
:100FD000C20008959091C00095FFFCCF8093C60099
:100FE0000895CF93DF93EC018991882319F00E9433
:100FF000EA07FACFDF91CF9108950F931F93CF9314
:10100000DF93CDB7DEB764970FB6F894DEBF0FBE9F
:10101000CDBF7F936F939F938F9389E791E09F93C9
:101020008F938E010F5F1F4F1F930F930E94840BAE
:10103000C8010E94F1070FB6F894DEBF0FBECDBF06
:1010400064960FB6F894DEBF0FBECDBFDF91CF918F
:101050001F910F9108950CD0E6C0DED040F0D5D09E
:1010600030F021F45F3F19F0C7C0511110C1CAC060
:10107000EBD098F39923C9F35523B1F3951B550B86
:10108000BB27AA2762177307840738F09F5F5F4F5B
:10109000220F331F441FAA1FA9F333D00E2E3AF09C
:1010A000E0E830D091505040E695001CCAF729D0B6
:1010B000FE2F27D0660F771F881FBB1F2617370705
:1010C0004807AB07B0E809F0BB0B802DBF01FF2735
:1010D00093585F4F2AF09E3F510568F08DC0D7C0EE
:1010E0005F3FECF3983EDCF3869577956795B7956F
:1010F000F7959F5FC9F7880F911D9695879597F98A
:101100000895E1E0660F771F881FBB1F6217730702
:101110008407BA0720F0621B730B840BBA0BEE1F17
:1011200088F7E095089598D088F09F5790F0B92FF0
:101130009927B751A0F0D1F0660F771F881F991F2C
:101140001AF0BA95C9F712C0B13081F09FD0B1E062
:1011500008959CC0672F782F8827B85F39F0B93F72
:10116000CCF3869577956795B395D9F73EF490952E
:101170008095709561957F4F8F4F9F4F0895E894AC
:1011800009C097FB3EF490958095709561957F4FCF
:101190008F4F9F4F9923A9F0F92F96E9BB2793957D
:1011A000F695879577956795B795F111F8CFFAF48D
:1011B000BB0F11F460FF1BC06F5F7F4F8F4F9F4FBE
:1011C00016C0882311F096E911C0772321F09EE81C
:1011D000872F762F05C0662371F096E8862F70E082
:1011E00060E02AF09A95660F771F881FDAF7880F5C
:1011F0009695879597F9089597F99F6780E870E02D
:1012000060E008959FEF80EC089500240A9416167C
:10121000170618060906089500240A9412161306E4
:10122000140605060895092E0394000C11F4882372
:1012300052F0BB0F40F4BF2B11F460FF04C06F5F8E
:101240007F4F8F4F9F4F089557FD9058440F551F64
:1012500059F05F3F71F04795880F97FB991F61F038
:101260009F3F79F087950895121613061406551FAF
:10127000F2CF4695F1DF08C0161617061806991F1B
:10128000F1CF86957105610508940895E894BB2710
:1012900066277727CB0197F908950BD0C4CFB5DF28
:1012A00028F0BADF18F0952309F0A6CFABCF1124B0
:1012B000EECFCADFA0F3959FD1F3950F50E0551FF5
:1012C000629FF001729FBB27F00DB11D639FAA279B
:1012D000F00DB11DAA1F649F6627B00DA11D661FEA
:1012E000829F2227B00DA11D621F739FB00DA11D0B
:1012F000621F839FA00D611D221F749F3327A00DC5
:10130000611D231F849F600D211D822F762F6A2F60
:1013100011249F5750408AF0E1F088234AF0EE0FE5
:10132000FF1FBB1F661F771F881F91505040A9F7F2
:101330009E3F510570F060CFAACF5F3FECF3983E1F
:10134000DCF3869577956795B795F795E7959F5F59
:10135000C1F7FE2B880F911D9695879597F90895F3
:101360000E94140AA59F900DB49F900DA49F800D1C
:10137000911D11240895A1E21A2EAA1BBB1BFD0189
:101380000DC0AA1FBB1FEE1FFF1FA217B307E40764
:10139000F50720F0A21BB30BE40BF50B661F771FBC
:1013A000881F991F1A9469F760957095809590959C
:1013B0009B01AC01BD01CF0108952F923F924F9246
:1013C0005F926F927F928F929F92AF92BF92CF92D5
:1013D000DF92EF92FF920F931F93CF93DF93CDB7DE
:1013E000DEB7CA1BDB0B0FB6F894DEBF0FBECDBF56
:1013F00009942A88398848885F846E847D848C8427
:101400009B84AA84B984C884DF80EE80FD800C812F
:101410001B81AA81B981CE0FD11D0FB6F894DEBF12
:101420000FBECDBFED010895A29FB001B39FC001D3
:10143000A39F700D811D1124911DB29F700D811D00
:101440001124911D0895283008F027E03327DA0190
:10145000990F311D87FD916000966105710539F482
:1014600032602E5F3D9330E32A95E1F708959F3F68
:1014700030F080387105610509F03C5F3C5F3D93B9
:10148000913008F08068911DDF93CF931F930F93E5
:10149000FF92EF92192F987F9695E92F9695969542
:1014A000E90FFF27E252FF4F99273327EE24FF244D
:1014B000A701E70105900894079428F4360FE71E6A
:1014C000F81E491F511D660F771F881F991F06942C
:1014D000A1F70590079428F4E70EF81E491F561F40
:1014E000C11D770F881F991F661F0694A1F70590ED
:1014F000079428F4F80E491F561FC71FD11D880FE7
:10150000991F661F771F0694A1F70590079420F492
:10151000490F561FC71FD81F990F661F771F881FB7
:101520000694A9F784911095177041F0D695C79548
:1015300057954795F794E7941A95C1F7E4E8F0E0DA
:1015400068941590159135916591959105907FE27C
:101550007395E118F10A430B560BC90BD009C0F77C
:10156000E10CF11E431F561FC91FD01D7EF47033BE
:1015700011F48A95E6CFE894015030F0080F0AF490
:101580000027021708F4202F2395022F7A3328F022
:1015900079E37D932A95E9F710C07D932A9589F622
:1015A000069497956795379517951794E118F10A62
:1015B000430B560BC90BD00998F023957E91739578
:1015C0007A3308F070E37C932013B8F77E91706152
:1015D0007D9330F0839571E37D9370E32A95E1F775
:1015E0001124EF90FF900F911F91CF91DF919927D8
:1015F00087FD90950895FC010590615070400110A1
:10160000D8F7809590958E0F9F1F0895FC0161502B
:10161000704001900110D8F7809590958E0F9F1F14
:1016200008950F931F93CF93DF93182F092FEB018A
:101630008B8181FD03C08FEF9FEF20C082FF10C020
:101640004E815F812C813D81421753077CF4E881F4
:10165000F9819F012F5F3F4F39832883108306C094
:10166000E885F985812F0995892B29F72E813F81FE
:101670002F5F3F4F3F832E83812F902FDF91CF919C
:101680001F910F910895A0E0B0E0E9E4FBE00C9415
:10169000ED09FE01359661917191AF0180919B0139
:1016A00090919C010E94DE00E2E00C94090A0F93E5
:1016B0001F93CF93DF93E0919B01F0919C012381D5
:1016C00021FF1BC0EC0100E010E0899160919B01BB
:1016D00070919C01DB011896ED91FC91199788237C
:1016E00031F00995892B89F30FEF1FEFEECF8AE0D8
:1016F0000995892B11F4C80102C08FEF9FEFDF918C
:10170000CF911F910F910895AEE0B0E0EAE8FBE0C1
:101710000C94EB090D891E8986E08C831A8309835A
:101720008FEF9FE79E838D83AE01475E5F4F6F898A
:10173000788DCE0101960E94DE00EF81F885E00FE2
:10174000F11F10822E96E4E00C94070AFA01AA27F2
:10175000283051F1203181F1E8946F936E7F6E5FF4
:101760007F4F8F4F9F4FAF4FB1E03ED0B4E03CD0A2
:10177000670F781F891F9A1FA11D680F791F8A1F85
:10178000911DA11D6A0F711D811D911DA11D20D0EC
:1017900009F468943F912AE0269F11243019305DA6
:1017A0003193DEF6CF010895462F4770405D419397
:1017B000B3E00FD0C9F7F6CF462F4F70405D4A33E4
:1017C00018F0495D31FD4052419302D0A9F7EACFAC
:1017D000B4E0A6959795879577956795BA95C9F7DB
:1017E00000976105710508959B01AC010A2E0694CE
:1017F0005795479537952795BA95C9F7620F731F87
:0C180000841F951FA01D0895F894FFCFD1
:10180C0000000002000000003E06000000002564FD
:10181C002025640A002566202575487A2025752028
:10182C0025750A005374617274696E67206E657752
:10183C0020636170747572652E00456E746572203C
:10184C00616E792063686172616374657220746F74
:10185C0020636F6E74696E75652E2E2E0088088F4E
:10186C00C2753D6666A640008039440AD7233C40C9
:10187C001F040094FD8005693E5365747365727690
:0E188C006F2825642C25303364290A0D0000D6
:00000001FF
