:100000000C94F9000C9416010C9416010C94160132
:100010000C9416010C9416010C9416010C94160104
:100020000C9416010C94710A0C9416010C94160190
:100030000C9416010C94480A0C9416010C941601A9
:100040000C941F0A0C9416010C9416010C941601C2
:100050000C9416010C9416010C9416010C941601C4
:100060000C94C9050C9416010C9416010C941601FD
:100070000C9416010C9416010C941601084AD73BF7
:100080003BCE016E84BCBFFDC12F3D6C74319ABD67
:1000900056833DDA3D00C77F11BED9E4BB4C3E918B
:1000A0006BAAAABE000000803F072C7AA5BA6CC5D7
:1000B00090DA3B9365FC8BBC53F810FD3C56928361
:1000C0004DBD879D3AB63DCBC9BF5BBE73DA0FC944
:1000D0003F05A84CCDB2D44EB93836A9020C50B960
:1000E000918688083CA6AAAA2ABE000000803F6E1E
:1000F000616E00696E660000407A10F35A00A072CB
:100100004E18090010A5D4E80000E8764817000052
:10011000E40B54020000CA9A3B000000E1F5050020
:100120000080969800000040420F000000A0860169
:10013000000000102700000000E803000000006439
:1001400000000000000A00000000000100000000A4
:10015000002C76D888DC674F0823DFC1DFAE59E179
:10016000B1B796E5E3E453C63AE651997696E8E6E8
:10017000C28426EB898C9B62ED407C6FFCEFBC9CBB
:100180009F40F2BAA56FA5F490055A2AF75C936BCD
:100190006CF9676DC11BFCE0E40D47FEF520E6B588
:1001A00000D0ED902E0300943577050080841E0862
:1001B0000000204E0A000000C80C333333330F9880
:1001C0006E12831141EF8D2114893BE65516CFFE47
:1001D000E6DB18D1844B381BF77C1D901DA4BBE4D3
:1001E00024203284725E228100C9F124ECA1E53D15
:1001F000270011241FBECFEFD0E1DEBFCDBF11E03D
:10020000A0E0B1E0E2E7FDE202C005900D92AE3958
:10021000B107D9F711E0AEE9B1E001C01D92A93EE6
:10022000B107E1F70E9412050C94B7160C94000078
:10023000A3E1B0E0EEE1F1E00C948B147C011B0132
:100240006A01FC0117821682838181FF66C3BE01A9
:100250006F5F7F4F4B01F7019381F10193FD859112
:1002600093FF81911F01882309F453C3853239F428
:1002700093FD859193FF81911F01853239F4B70178
:1002800090E00E94C41556016501E5CF10E0512CA5
:1002900020E02032A0F48B3269F030F4803259F043
:1002A000833269F420612CC08D3239F0803339F407
:1002B000216026C02260246023C0286021C027FD61
:1002C00027C030ED380F3A3078F426FF06C0FAE048
:1002D0001F9F300D1124132F13C06AE0569E300D5E
:1002E0001124532E20620CC08E3221F426FD11C33E
:1002F000206406C08C3611F4206802C0883641F4B0
:10030000F10193FD859193FF81911F018111C1CF6F
:100310009BEB980F933018F42061805E06C09BE938
:10032000980F933008F0AAC12F7E26FF16E02F7396
:10033000722E853621F4F22FF0647F2E08C08636A7
:1003400021F4622F6068762E02C01111115077FEE1
:1003500007C01C3348F444244394410E27E00BC0EB
:10036000183030F4212F06C027E04CE3442E03C0A0
:1003700027E017E0412C560174E0A70EB11CF601EE
:100380006081718182819381042DA4010E94D61421
:100390006C01098100FF02C003FF06C071FC07C0A9
:1003A00072FC08C0612C08C03DE2632E05C02BE240
:1003B000622E02C090E2692E802F8C7099F1662027
:1003C00011F084E001C083E0851510F0512C0BC0C2
:1003D000581A73FC08C0B70180E290E00E94C4156F
:1003E0005A94C9F7F3CF662029F0B701862D90E023
:1003F0000E94C41503FD03C003EF10E002C00FEE1E
:1004000010E0F72DF0717F2EF8018491882309F414
:1004100076C271108052B70190E00E94C4150F5F40
:100420001F4FF2CF77FE0FC04C0C04FF04C08A812F
:10043000813309F44A94141474F5F8E0F41578F54E
:1004400088E0482E2CC076FC2AC0812F90E08C15C5
:100450009D059CF06CEFC6166FEFD60674F0772DF5
:100460007068772E0AC0E2E0F0E0EC0FFD1FE10FAC
:10047000F11D8081803319F411501111F4CF77FEF2
:100480000EC044244394410E812F90E0C816D90633
:100490002CF41C1904C04424439401C010E077FEDE
:1004A00007C01C141D043CF496012F5F3F4F05C08C
:1004B00025E030E002C021E030E0662011F02F5F3F
:1004C0003F4F112331F0412F50E04F5F5F4F240F1A
:1004D000351F452D50E02417350714F4521A01C07A
:1004E000512C872D897049F4552039F0B70180E2ED
:1004F00090E00E94C4155A94F7CF662029F0B70106
:10050000862D90E00E94C41573FC09C0552039F077
:10051000B70180E390E00E94C4155A94F7CF77FEAC
:100520005FC09C2D8D2DD7FE02C090E080E0692E2B
:10053000782E40E050E0C601841991099D878C8790
:10054000960126193709280D391D812F90E0EE27D5
:10055000FF27E81BF90BFF87EE87FFEF6F167F067B
:1005600069F4B7018EE290E02B8B3A8B488B598B64
:100570000E94C415598948893A892B89C614D70421
:1005800054F06C857D85661577052CF4F901E40F30
:10059000F51F818101C080E371E0671A71084F5F28
:1005A0005F4FEE85FF856E167F066CF0B70190E019
:1005B0002B8B3A8B488B598B0E94C4152B893A8917
:1005C00048895989CACF6C147D0439F49A819633CD
:1005D00018F4953311F404FF81E3B70190E04BC0A8
:1005E0008A81813309F00F7EB70190E00E94C41523
:1005F000111105C074FE18C085E490E017C0B70162
:100600008EE290E00E94C41582E066246394680E36
:10061000F401E80FF11D8081B70190E00E94C4153C
:10062000115041F3862DF1CF85E690E0B7010E948D
:10063000C415D7FC05C0C114D10439F404FF05C0AA
:10064000D194C194D1088DE201C08BE2B70190E052
:100650000E94C41580E36AE0C616D1042CF08F5FB7
:10066000FAE0CF1AD108F7CFB70190E00E94C41585
:10067000B701C601C0960E94C41541C1833631F04E
:10068000833779F0833509F058C021C0560172E0F4
:10069000A70EB11CF6018081898301E010E064019E
:1006A00014C05601F2E0AF0EB11CF601C080D1803B
:1006B00026FF03C0612F70E002C06FEF7FEFC6011D
:1006C0002B8B0E94B9158C012B892F7715C05601F1
:1006D000F2E0AF0EB11CF601C080D18026FF03C04E
:1006E000612F70E002C06FEF7FEFC6012B8B0E947D
:1006F000AE158C012B892068722E23FD1AC0852D22
:1007000090E008171907A8F4B70180E290E00E9472
:10071000C4155A94F4CFF60177FC859177FE819148
:100720006F01B70190E00E94C41551105A94015016
:1007300011090115110579F7E2C0843611F08936E7
:1007400051F5560127FF09C0F4E0AF0EB11CF601C8
:1007500060817181828193810AC0F2E0AF0EB11C89
:10076000F60160817181882777FD8095982F022F8F
:100770000F7697FF08C090958095709561957F4F93
:100780008F4F9F4F00682AE030E0A4010E94591665
:10079000C82EC8183EC0022F853721F40F7E2AE0EC
:1007A00030E01DC0097F8F3691F018F4883559F07C
:1007B000B0C0803719F0883711F0ABC0006104FF7A
:1007C00009C0046007C024FF08C0066006C028E016
:1007D00030E005C020E130E002C020E132E0560107
:1007E00007FF09C0F4E0AF0EB11CF6016081718112
:1007F0008281938108C0F2E0AF0EB11CF6016081E6
:10080000718180E090E0A4010E945916C82EC8189A
:100810000F7706FF0BC0202F2E7FC11650F404FF68
:100820000AC002FD08C0202F2E7E05C0DC2C202F20
:1008300003C0DC2C01C0D12E24FF0DC0FE01EC0D45
:10084000F11D8081803311F4297E09C022FF06C08A
:10085000D394D39404C0822F867809F0D39423FDD7
:1008600013C020FF06C01C2DD51418F4150D1D193A
:10087000D52CD51468F4B70180E290E02B8B0E9450
:10088000C415D3942B89F5CFD51410F45D1801C08D
:10089000512C24FF12C0B70180E390E02B8B0E9403
:1008A000C4152B8922FF17C021FF03C088E590E003
:1008B00002C088E790E0B7010CC0822F867859F01B
:1008C00021FD02C080E201C08BE227FD8DE2B7016D
:1008D00090E00E94C415C11638F4B70180E390E09F
:1008E0000E94C4151150F7CFCA94F401EC0DF11D0C
:1008F0008081B70190E00E94C415C110F5CF55204A
:1009000009F4C2CCB70180E290E00E94C4155A9469
:10091000F6CFF7018681978102C08FEF9FEF639634
:10092000E2E10C94A7140F931F93CF93DF93F894F5
:1009300080E090E00E9468067093C6016093C50154
:1009400081E090E00E9468067093CA016093C9013B
:10095000789403B1047010E0C3B1C270D0E0C80154
:10096000959587959595879521E030E0281B390B63
:1009700048E253E2249FC001259F900D349F900DC3
:100980001124209719F09195819591092091A0014A
:100990003091A1012017310739F420919E01309147
:1009A0009F012C173D0731F066277727681B790BCD
:1009B0000E94E6081093A1010093A001D0939F012B
:1009C000C0939E01DF91CF911F910F9108950E94D6
:1009D000F70560E072EC81E090E00E9471070E94F0
:1009E0000E078091720140E050E060E070E090E01E
:1009F0000E945B0580E00E945A0784B1897F84B918
:100A000080E090E00E943E0681E090E00E943E0679
:100A100083E00E945A070E94EC0680E00E945A0779
:100A20000C94D1070E94E70483E191E00E940A162A
:100A3000C0907201D12CE0907301F12CCAE1D1E099
:100A40008091B6018823E1F31092B6010E949304CD
:100A500080E00E948606982E892EC6010E94F40826
:100A6000782E692E009178001091790081E00E9423
:100A70008606B82EA92EC7010E94F408209178009E
:100A8000309179003F932F939F938F931F930F93F0
:100A90006F927F928F929F92AF92BF92DF93CF938C
:100AA0000E94F6158DB79EB70E960FB6F8949EBFAE
:100AB0000FBE8DBFC5CFF8948830910594F591B1E4
:100AC00021E030E0082E01C0220F0A94EAF72095B9
:100AD000292321B9806480937C0020917A002760CB
:100AE000CB0135E0880F991F3A95E1F78068E3E084
:100AF000440F551FEA95E1F7842B282B20937A00A9
:100B00006115710519F480917B0001C080E080932C
:100B10007B00672B29F080917A00806480937A00B3
:100B200078940895EAE7F0E080818F7780831092CF
:100B30007900109278000895809178009091790062
:100B400008958830910554F490917C00907E9093A4
:100B50007C0090917C00982B90937C0008952091CC
:100B60007A002F7D20937A000E94A10580917A005F
:100B7000806480937A0080917A0086FDFCCF80911A
:100B800078009091790008959093A3018093A20139
:100B900008951F920F920FB60F9211242F933F9337
:100BA0004F935F936F937F938F939F93AF93BF9375
:100BB000EF93FF93E091A201F091A301309709F028
:100BC0000995FF91EF91BF91AF919F918F917F9187
:100BD0006F915F914F913F912F910F900FBE0F90AA
:100BE0001F9018950E948D0780E090E0089580E0A6
:100BF00091E09093E6018093E50160E072EC81E082
:100C000090E00C94D90ADF92EF92FF920F931F931A
:100C1000CF93DF93D82E790180912800DD2011F049
:100C20008F7E01C08F7D8093280020E4629FB001F9
:100C3000112428E0429FC0011124862B0E946B07DB
:100C4000E70110E09E012E193F09201731072CF40F
:100C500088810E946B078993F5CF80912800DD2061
:100C600011F0806101C0806280932800DF91CF91F4
:100C70001F910F91FF90EF90DF9008950F931F93B6
:100C8000CF93DF931F92CDB7DEB7182F00E020E09F
:100C900030E044E060E00E94030683E0898301E0E5
:100CA0009E012F5F3F4F41E062E0812F0E940306CB
:100CB00082E089839E012F5F3F4F42E062E0812FF7
:100CC0000E9403060F90DF91CF911F910F9108951D
:100CD0000F93CF93DF9300D0CDB7DEB702E09E0134
:100CE0002F5F3F4F44E061E00E940306698170E09E
:100CF000762F66278A81682B882777FD8095982F25
:100D00000F900F90DF91CF910F910895CF93C82F3F
:100D100090E00E946806882777FD8095982F0E94B2
:100D2000F911CC2349F0209178013091790140915B
:100D30007A0150917B0108C02091740130917501B6
:100D400040917601509177010E942D130E94C611A7
:100D5000CB01CF9108950F9300E020E030E044E014
:100D600060E00E9403060F9108950F93CF93DF93E5
:100D700000D0CDB7DEB759834A8302E09E012F5FD2
:100D80003F4F44E062E00E9403060F900F90DF9116
:100D9000CF910F910895CF93909128009E7F9093CB
:100DA00028008861880F880F0E946B0780E00E94EE
:100DB0006B07C82F80E00E946B079091280091601C
:100DC00090932800282F22952F7030E1C39FC001F7
:100DD0001124822BCF91089583E090E00E94CB06EE
:100DE0009093A5018093A40108950E94CB062091C1
:100DF000A4013091A501821B930BBC01882777FDCC
:100E00008095982F0E94F9112DEC3CEC4CE050E4B9
:100E10000E942D130E94C611CB01089584B1806BEE
:100E200084B983E58CBD8091270080628093270080
:100E3000809127008061809327008091270088603F
:100E40008093270080912700846080932700809101
:100E50002A00806180932A0080912700806480931B
:100E600027008091270081608093270080912800CF
:100E70008062809328008091280080618093280000
:100E800080912800886080932800809128008460E9
:100E90008093280080912B00806180932B008091AB
:100EA00028008064809328008091280081608093CE
:100EB000280008959CB59C7F9CBD9DB59E7F9DBDDF
:100EC0002CB5982F9370922B9CBD9DB586958695D9
:100ED000892B8DBD08958EBD0DB407FEFDCF8EB557
:100EE00008959B01AC0184E0220F331F441F551F5E
:100EF0008A95D1F760E070E489E191E00E944A149C
:100F0000215031093093CD002093CC0088E18093AB
:100F1000C90086E08093CA0008959091C80095FFAB
:100F2000FCCF8093CE0008958091C80087FFFCCF4E
:100F30008091CE000895CF92DF92EF92FF920F93AF
:100F40001F93CF93DF936B01C0917001D09171011A
:100F5000002711270C1B1D0BAE01B8010E94CF0A00
:100F60007C01AE01B801C6010E94CF0A919581951E
:100F70009109AC01662757FD6095762F80E00E94AD
:100F8000110DA701662757FD6095762F81E0DF914F
:100F9000CF911F910F91FF90EF90DF90CF900C9425
:100FA000110DCF92DF92EF92FF920F931F93C0909B
:100FB0006001D0906101E0906201F09063010091C6
:100FC00064011091650120916601309167014091A3
:100FD00068015091690160916A0170916B0181E033
:100FE0000E94360BC0905401D0905501E0905601FC
:100FF000F0905701009158011091590120915A0128
:1010000030915B0140915C0150915D0160915E0106
:1010100070915F0180E00E94360B20E137E240E0F2
:1010200050E062E070E080E090E00E94450964E4F6
:1010300078E080E00E940A0A60E070E080E090E0E2
:101040001F910F91FF90EF90DF90CF900C949B0732
:10105000882319F0813051F014C02091A8013091FB
:10106000A901232B71F48091720108C02091A8017D
:101070003091A901232B29F48091730190E00C9405
:10108000F40890E00C9486060F931F93CF93DF93A0
:1010900081E08093B6018091AB0181110AC060E0CC
:1010A00070E080E090E0DF91CF911F910F910C9460
:1010B0009B0781E00E9428089093AD018093AC01CA
:1010C00080E00E9428089093AF018093AE012091A8
:1010D0000E0130E04091AC015091AD016091B10141
:1010E0007091B20181E00E94780BEC012091AC017B
:1010F0003091AD014091AE015091AF016091B001CE
:1011000081E00E94CD0CC80FD91F20910E0130E064
:101110004091AE015091AF016091B3017091B40163
:1011200080E00E94780B8C012091AC013091AD01E0
:101130004091AE015091AF016091B00180E00E94FA
:10114000CD0CB801680F791FCE010E949B076091FA
:10115000AE017091AF018091AC019091AD010E9400
:10116000730D60930F0170931001809311019093A0
:10117000120110920E01DF91CF911F910F910895EE
:10118000CF93DF9300D000D01F92CDB7DEB70E947F
:10119000860E29833A834B835C836D8381E0809341
:1011A0000E018093AB01662349F085E0FE01319684
:1011B000A1EBB1E001900D928A95E1F70F900F90AD
:1011C0000F900F900F90DF91CF9108959093B201FF
:1011D0008093B1017093B4016093B30181E0809377
:1011E0000E018093AB010895CF93DF93EC010E9431
:1011F000AF052091720130E0C217D307A9F46091C6
:101200007E0170917F01680F791F882777FD809597
:10121000982F0E94F9112091820130918301409111
:1012200084015091850114C0609180017091810109
:10123000680F791F882777FD8095982F0E94F911F4
:101240002091860130918701409188015091890158
:101250000E942D1320E030E048EC52E40E942D1350
:101260000E94C611CB01DF91CF9108950E94AF0576
:1012700020917C0130917D01AC01429FC001439FD0
:10128000900D529F900D112408950F931F93CF93AB
:10129000DF938C01EB01F894A2E1B0E00E942314EB
:1012A00028EE33E040E050E00E944A14215031091A
:1012B0004109510901301105B1F00230110531F138
:1012C000012BB9F5CE0146E0880F991F4A95E1F749
:1012D000C82BC4BD85E085BD27BD80916E008260AE
:1012E00080936E0026C0C295CC0FCC0FC07CC093FB
:1012F00080008DE0809381003093890020938800E6
:1013000080916F00826080936F0013C0CE0136E041
:10131000880F991F3A95E1F7C82BC093B00085E07C
:101320008093B1002093B30080917000826080931D
:1013300070007894DF91CF911F910F9108958130C3
:10134000910539F08230910549F0892B59F486B521
:1013500007C0809184009091850008958091B2002B
:1013600090E0089580E090E00895813051F018F009
:10137000823079F00895249A81E684BD8DE085BDA0
:101380000895549A83EA8093800085E180938100D8
:101390000895569A81E68093B0008DE08093B10065
:1013A0000895813039F018F0823069F0089567BDF2
:1013B00048BD0895709389006093880050938B0016
:1013C00040938A0008956093B3004093B400089559
:1013D000CF93C82FA2E1B0E09A01AB010E94231481
:1013E00028EE33E040E050E00E944A1421503109D9
:1013F00041095109C13041F028F0C23049F420932D
:10140000B30006C027BD04C0309389002093880034
:10141000CF910895813049F018F0823059F0089545
:101420007093BC016093BB0108957093BA016093FF
:10143000B90108957093B8016093B70108951F92A0
:101440000F920FB60F9211242F933F934F935F93F8
:101450006F937F938F939F93AF93BF93EF93FF937C
:10146000E091BB01F091BC01309709F00995FF9123
:10147000EF91BF91AF919F918F917F916F915F910C
:101480004F913F912F910F900FBE0F901F90189585
:101490001F920F920FB60F9211242F933F934F93E9
:1014A0005F936F937F938F939F93AF93BF93EF93CC
:1014B000FF93E091B901F091BA01309709F00995D5
:1014C000FF91EF91BF91AF919F918F917F916F911C
:1014D0005F914F913F912F910F900FBE0F901F90F2
:1014E00018951F920F920FB60F9211242F933F93CE
:1014F0004F935F936F937F938F939F93AF93BF931C
:10150000EF93FF93E091B701F091B801309709F0A4
:101510000995FF91EF91BF91AF919F918F917F912D
:101520006F915F914F913F912F910F900FBE0F9050
:101530001F9018958F929F92AF92BF92CF92DF9299
:10154000EF92FF920F931F93CF93DF936B01D82FEE
:10155000C92F49015A010E94571187FD0DC09701FB
:10156000A801B6018D2F9C2F0E94221318163CF45F
:101570006701D02FC12F03C06401DA2DCB2DB60136
:101580008D2F9C2FDF91CF911F910F91FF90EF90A6
:10159000DF90CF90BF90AF909F908F900895861767
:1015A00097072CF0481759071CF4CA010895CB017E
:1015B00008959B01AC0184E0220F331F441F551F87
:1015C0008A95D1F760E070E489E191E00E944A14C5
:1015D000215031093093C5002093C40088E18093E5
:1015E000C10086E08093C20008959091C00095FFED
:1015F000FCCF8093C6000895CF93DF93EC018991CF
:10160000882319F00E94F50AFACFDF91CF9108954F
:101610000F931F93CF93DF93CDB7DEB764970FB6C9
:10162000F894DEBF0FBECDBF7F936F939F938F93D0
:101630008AE891E09F938F938E010F5F1F4F1F9356
:101640000F930E943716C8010E94FC0A0FB6F89447
:10165000DEBF0FBECDBF64960FB6F894DEBF0FBEDF
:10166000CDBFDF91CF911F910F910895CF92DF925F
:10167000EF92FF920F931F938823D9F0813089F561
:101680004093D7015093D8016093D9017093DA0148
:101690000093DB011093DC012093DD013093DE0128
:1016A000C092DF01D092E001E092E101F092E2010C
:1016B00018C04093CB015093CC016093CD0170933F
:1016C000CE010093CF011093D0012093D10130932C
:1016D000D201C092D301D092D401E092D501F09210
:1016E000D6011F910F91FF90EF90DF90CF9008955A
:1016F0002F923F924F925F926F927F928F929F9222
:10170000AF92BF92CF92DF92EF92FF920F931F930F
:10171000CF93DF93CDB7DEB760970FB6F894DEBFF7
:101720000FBECDBF7A8369838A01232B61F08111BB
:1017300005C01092C4011092C30107C01092C201EB
:101740001092C10123C0811121C08090CB019090E3
:10175000CC01A090CD01B090CE01C090CF01D0902F
:10176000D001E090D101F090D2014090D30150908F
:10177000D4016090D5017090D6012090C3013090C3
:10178000C40123EC31E03E832D8320C08090D7013B
:101790009090D801A090D901B090DA01C090DB01FF
:1017A000D090DC01E090DD01F090DE014090DF019F
:1017B0005090E0016090E1017090E2012090C10141
:1017C0003090C20181EC91E09E838D83A0917001E5
:1017D000B0917101B88BAF87BD01882777FD8095E7
:1017E000982F0E94F9116F83788789879A87A701BC
:1017F00096010E945E110E94C6116B877C878D87BF
:101800009E8789819A81801B910B64E670E00E941B
:101810003614882777FD8095982F0E94F9116983E7
:101820007A838B839C839B01AC01C501B4010E9428
:101830002D134B015C01B101882777FD8095982F0E
:101840000E94F9119B01AC01C701B6010E942D1342
:101850009B01AC01C501B4010E9491106B017C0198
:101860002091BD013091BE014091BF015091C00156
:1018700069817A818B819C810E94901080906C019B
:1018800090906D01A0906E01B0906F01A501940140
:101890000E945E110E94C611882777FD8095982FBF
:1018A0000E94F9119B01AC01C301B2010E942D13EA
:1018B0009B01AC01C701B6010E9491102B013C01B4
:1018C0006F857889719561957109882777FD809575
:1018D000982F0E94F9119B01AC01EF80F8840985D3
:1018E0001A85C301B2010E949A0A6B017C010B8523
:1018F0001C85119501951109ED81FE816081718131
:10190000882777FD8095982F0E94F9112B013C01C3
:10191000A501940169817A818B819C810E942D139C
:101920009B01AC01C301B2010E9491100E94C6113B
:10193000DC01CB014B855C85B8010E94CF0AAD81EB
:10194000BE818D939C9389819A81AB81BC81809368
:10195000BD019093BE01A093BF01B093C001C70128
:10196000B6010E94C611CB0160960FB6F894DEBF97
:101970000FBECDBFDF91CF911F910F91FF90EF90E0
:10198000DF90CF90BF90AF909F908F907F906F909F
:101990005F904F903F902F900895CF93DF9300D0AA
:1019A00000D01F92CDB7DEB729833A834B835C8387
:1019B00069817A812B813C81811103C0620F731F81
:1019C00002C0813021F5882777FD8095982F0E94ED
:1019D000F91120E030E048EC52E40E945E112BED5A
:1019E0003FE049E450E40E942D1320E030E044E35E
:1019F00053E40E945E110E94901320E030E04FE219
:101A000054EC0E942D130E94C611CB0102C080E04D
:101A100090E00F900F900F900F900F90DF91CF916B
:101A20000895FF920F931F93CF93DF9300D000D0C0
:101A3000CDB7DEB7F82EA0915201B09153019A01B3
:101A4000AB010E942E142091700130917101442746
:101A500037FD4095542F0E946C1401E010E01216DF
:101A6000130614F000E010E08F2D880FFF24F3948C
:101A7000F80E0115110519F460E070E001C0B9011C
:101A800090E029833A834B835C830E943410298140
:101A90003A81012B29F466277727621B730B02C05A
:101AA00060E070E08F2D90E00F900F900F900F90FE
:101AB000DF91CF911F910F91FF900C94341090E023
:101AC0000E94AF059C01A8E8B3E10E940D142FEF1E
:101AD00033E040E050E00E946C142C583A40410939
:101AE0005109C90108954F925F926F927F928F9230
:101AF0009F92AF92BF92CF92DF92EF92FF92CF93DD
:101B0000DF9300D000D0CDB7DEB75B01BC018827E2
:101B100077FD8095982F0E94F9112BED3FE049E465
:101B200050E40E942D1320E030E044E353E40E948F
:101B30005E1120E030E048EC52E40E945E116B013F
:101B40007C01B501882777FD8095982F0E94F911B7
:101B50002BED3FE049E450E40E942D1320E030E0FB
:101B600044E353E40E945E1120E030E048EC52E48C
:101B70000E945E119B01AC01C701B6010E94911049
:101B80002B013C010E9490134B015C01C301B20187
:101B90000E945B112B013C01C701B6010E9490130A
:101BA00069837A838B839C83C701B6010E945B1192
:101BB0009B01AC01C0904E01D0904F01E0905001CC
:101BC000F0905101C301B2010E9491109B01AC0140
:101BD000C701B6010E942D1320914A0130914B019B
:101BE00040914C0150914D010E9491100E94C611EC
:101BF0002B013C0129813A814B815C81C501B401F3
:101C00000E9491109B01AC01C701B6010E942D13E7
:101C10000E94C6116B017C01B601C2010F900F90AA
:101C20000F900F90DF91CF91FF90EF90DF90CF90CA
:101C3000BF90AF909F908F907F906F905F904F90EC
:101C400008958F929F92AF92BF92CF92DF92EF92C0
:101C5000FF92CF934B015C0169017A019B01AC01BA
:101C60000E94DB13811146C0A7019601C701B6018E
:101C70000E94DB1381113EC020914001309141014F
:101C80004091420150914301C501B4010E94571196
:101C900087FD30C020913C0130913D0140913E01D3
:101CA00050913F01C501B4010E942213181614F18E
:101CB000209138013091390140913A0150913B0116
:101CC000C701B6010E94571187FD14C0C1E02091E1
:101CD0003401309135014091360150913701C701EF
:101CE000B6010E94221318160CF0C0E081E08C2788
:101CF00090E002C080E090E0CF91FF90EF90DF9005
:101D0000CF90BF90AF909F908F9008954F925F9229
:101D10006F927F928F929F92AF92BF92CF92DF92FB
:101D2000EF92FF92CF93DF93CDB7DEB761970FB6F7
:101D3000F894DEBF0FBECDBF66247724681A790AF7
:101D4000882777FD8095982F0E94F91120914A01EC
:101D500030914B0140914C0150914D010E949010E7
:101D60000E94C6116E837F8388879987B301882775
:101D700077FD8095982F0E94F9119B01AC01EE81AF
:101D8000FF81BF01882777FD8095982F2E873F8799
:101D9000488B598B0E94F9112E853F8548895989B6
:101DA0000E9404114B015C01C0904E01D0904F0184
:101DB000E0905001F09051019301D3010E9405146D
:101DC0002B013C012E813F81D9010E940514460E52
:101DD000571E681E791EC301B2010E94F9116E835D
:101DE0007F83888799870E949A136A877B878C876D
:101DF0009D87A7019601C701B6010E942D139B0183
:101E0000AC010E9491102B013C012E813F8148853D
:101E100059850E949010A30192010E945E110E94B8
:101E200082106E837F8388879987A7019601C701F7
:101E3000B6010E9491109B01AC016A857B858C855F
:101E40009D850E945E110E9482106A877B878C8725
:101E50009D872BED3FE049E450E46E817F818885CA
:101E600099850E9490102B013C012A853B854C8569
:101E70005D85C501B4010E9491102BED3FE049EC56
:101E80005FE30E9490106B017C012A853B854C85A5
:101E90005D85C501B4010E9490102BED3FE049EC37
:101EA0005FE30E9490104B015C012BED3FE049E4A1
:101EB00050E4C701B6010E94221318164CF42BED12
:101EC0003FE049EC50E4C701B6010E94901012C0F7
:101ED0002BED3FE049E450ECC701B6010E945711D9
:101EE00087FF0AC02BED3FE049EC50E4C701B60183
:101EF0000E9491106B017C012BED3FE049E450E41E
:101F0000C501B4010E942213181654F42BED3FE0D2
:101F100049EC50E4C501B4010E9490104B015C01F2
:101F20002BED3FE049E450ECC501B4010E9457118C
:101F300087FF0AC02BED3FE049EC50E4C501B40136
:101F40000E9491104B015C01A3019201C701B601EF
:101F50000E94210E892BF9F020E030E044E353E4A5
:101F6000C701B6010E942D132BED3FE049E450E478
:101F70000E945E1120E030E048EC52E40E942D13F4
:101F80000E94C6117A83698320E030E044E353E481
:101F9000C301B20132C02E813F81488559856BED66
:101FA0007FE089E490E40E9490106B017C019B012A
:101FB000AC01C501B4010E94210E892B99F120E0EA
:101FC00030E044E353E4C501B4010E942D132BED2E
:101FD0003FE049E450E40E945E1120E030E048EC2C
:101FE00052E40E942D130E94C6117A83698320E077
:101FF00030E044E353E4C701B6010E942D132BEDFA
:102000003FE049E450E40E945E1120E030E048ECFB
:1020100052E40E942D130E94C6117C836B8381E0E1
:102020008D8305C01A8219821C821B821D82298120
:102030003A814B815C816D8170E080E090E0619637
:102040000FB6F894DEBF0FBECDBFDF91CF91FF90EA
:10205000EF90DF90CF90BF90AF909F908F907F9048
:102060006F905F904F900895CF93DF93EB01853091
:102070009105D0F490912B009F7E90932B0080636C
:102080000E946B07CE0124E0959587952A95E1F78C
:102090000E946B078C2F8295807F0E946B07809136
:1020A0002B00806180932B00DF91CF910895809168
:1020B0002B008F7E80932B008FE40E946B0780E0C3
:1020C0000E946B0780E00E946B0780912B0080616B
:1020D00080932B0086E08A95F1F7000080912B0019
:1020E0008F7E80932B008FE10E946B0780E00E941F
:1020F0006B0780E00E946B0780912B0080618093CA
:102100002B0008959F939F77AFD10F9000203AF452
:102110009058A2EA2AED3FE049E450E413D047C2C8
:102120005058BB27AA270ED042C20BD230F010D293
:1021300020F031F49F3F11F41EF4DBC10EF4E09562
:10214000E7FBD1C1E92F55D280F3BA1762077307B5
:102150008407950718F071F49EF56DC20EF4E095B2
:102160000B2EBA2FA02D0B01B90190010C01CA0151
:10217000A0011124FF27591B99F0593F50F4503EFC
:1021800068F11A16F040A22F232F342F4427585FEE
:10219000F3CF469537952795A795F0405395C9F706
:1021A0007EF41F16BA0B620B730B840BBAF09150BE
:1021B000A1F0FF0FBB1F661F771F881FC2F70EC05D
:1021C000BA0F621F731F841F48F487957795679530
:1021D000B795F7959E3F08F0B3CF9395880F08F019
:1021E0009927EE0F979587950895ABD158F080E821
:1021F00091E009F49EEFACD128F040E851E059F4A9
:102200005EEF09C076C117C2E92FE078F2D168F31A
:10221000092E052AC1F3261737074807590738F052
:102220000E2E07F8E02569F0E025E0640AC0EF63B0
:1022300007F8009407FADB01B9019D01DC01CA012E
:10224000AD01EF934AD0B3D10AD05F91552331F05D
:102250002BED3FE049E450FD49EC63CF0895DF9357
:10226000DD27B92FBF7740E85FE31616170648074A
:102270005B0710F4D92FEAD19F938F937F936F93CD
:1022800097D2ECE7F0E038D192D12F913F914F9166
:102290005F91EFD1DD2349F09058A2EA2AED3FE0AB
:1022A00049EC5FE3D0785D274DDFDF9180C1F7D047
:1022B00008F481E0089554D1E3958AC10CD077C128
:1022C00047D140F03ED130F021F45F3F19F00BC10F
:1022D0005111B2C10EC18DD198F39923C9F3552381
:1022E000B1F3951B550BBB27AA2762177307840709
:1022F00038F09F5F5F4F220F331F441FAA1FA9F3BF
:1023000033D00E2E3AF0E0E830D091505040E695B0
:10231000001CCAF729D0FE2F27D0660F771F881F11
:10232000BB1F261737074807AB07B0E809F0BB0B00
:10233000802DBF01FF2793585F4F2AF09E3F510524
:1023400068F0D1C079C15F3FECF3983EDCF386952D
:1023500077956795B795F7959F5FC9F7880F911D9A
:102360009695879597F90895E1E0660F771F881F86
:10237000BB1F621773078407BA0720F0621B730B39
:10238000840BBA0BEE1F88F7E095089504D068948B
:10239000B11152C1089535D188F09F5790F0B92FEF
:1023A0009927B751A0F0D1F0660F771F881F991FAA
:1023B0001AF0BA95C9F712C0B13081F03CD1B1E042
:1023C000089539C1672F782F8827B85F39F0B93F52
:1023D000CCF3869577956795B395D9F73EF49095AC
:1023E0008095709561957F4F8F4F9F4F0895E8942A
:1023F00009C097FB3EF490958095709561957F4F4D
:102400008F4F9F4F9923A9F0F92F96E9BB279395FA
:10241000F695879577956795B795F111F8CFFAF40A
:10242000BB0F11F460FF1BC06F5F7F4F8F4F9F4F3B
:1024300016C0882311F096E911C0772321F09EE899
:10244000872F762F05C0662371F096E8862F70E0FF
:1024500060E02AF09A95660F771F881FDAF7880FD9
:102460009695879597F90895DF93CF931F930F93D0
:102470008B01EC01E9EAF0E03FD099D09801AE0180
:102480008B01EC0160E070E080E89FE349DE52D10F
:102490009801AE010F911F91CF91DF91EAC0990F82
:1024A0000008550FAA0BE0E8FEEF16161706E8071E
:1024B000F907C0F012161306E407F50798F0621B3F
:1024C000730B840B950B39F40A2661F0232B242B14
:1024D000252B21F408950A2609F4A140A6958FEF33
:1024E000811D811D089597F99F6780E870E060E085
:1024F00008959FEF80EC0895DF93CF931F930F9380
:10250000FF92EF92DF927B018C01689405C0DA2E76
:10251000EF01AFD0FE01E894A59125913591459149
:102520005591AEF3EF010EDEFE019701A801DA949A
:1025300079F7DF90EF90FF900F911F91CF91DF918E
:10254000089500240A941616170618060906089519
:1025500000240A9412161306140605060895C9CF1E
:1025600050D0E8F3E894E0E0BB279F57F0F02AED65
:102570003FE049EC06C0EE0FBB0F661F771F881FB8
:1025800028F0B23A62077307840728F0B25A620B48
:10259000730B840BE3959A9572F7803830F49A9513
:1025A000BB0F661F771F881FD2F790480AC1092EFC
:1025B0000394000C11F4882352F0BB0F40F4BF2B9E
:1025C00011F460FF04C06F5F7F4F8F4F9F4F0895DE
:1025D000EF93E0FF06C0A2EA2AED3FE049EC5FEB93
:1025E000B1DDE5DF0F90039401FC9058E1EDF0E0E0
:1025F000FBC057FD9058440F551F59F05F3F71F0D5
:102600004795880F97FB991F61F09F3F79F0879559
:102610000895121613061406551FF2CF4695F1DFE2
:1026200008C0161617061806991FF1CF8695710572
:10263000610508940895E894BB2766277727CB01A6
:1026400097F908952CDF08F48FEF08959B01AC01F2
:1026500060E070E080E89FE331CE0BD0A8CF71DF5F
:1026600028F076DF18F0952309F03DCF42CF1124F2
:10267000E3CFBFDFA0F3959FD1F3950F50E0551F37
:10268000629FF001729FBB27F00DB11D639FAA27C7
:10269000F00DB11DAA1F649F6627B00DA11D661F16
:1026A000829F2227B00DA11D621F739FB00DA11D37
:1026B000621F839FA00D611D221F749F3327A00DF1
:1026C000611D231F849F600D211D822F762F6A2F8D
:1026D00011249F5750408AF0E1F088234AF0EE0F12
:1026E000FF1FBB1F661F771F881F91505040A9F71F
:1026F0009E3F510570F0F7CE9FCF5F3FECF3983EC1
:10270000DCF3869577956795B795F795E7959F5F85
:10271000C1F7FE2B880F911D9695879597F908951F
:102720009F931EDF0F9007FCEE5F52CF11F40EF463
:10273000E0CE45C066DFD0F39923D9F3CEF39F579F
:10274000550B87FF4AD00024A0E640EA900180584C
:102750005695979528F4805C660F771F881F20F0A8
:1027600026173707480730F4621B730B840B2029A8
:1027700031294A2BA69517940794202531254A27FD
:1027800058F7660F771F881F20F02617370748076E
:1027900030F4620B730B840B200D311D411DA0958D
:1027A00081F7B901842F9158880F969587950895E0
:1027B0009B01AC0152CF73DE880B990B08959F3FAC
:1027C00031F0915020F4879577956795B795880FEC
:1027D000911D9695879597F9089591505040660FF1
:1027E000771F881FD2F708959F938F937F936F93DE
:1027F000FF93EF939B01AC0130DFEF91FF917CDE03
:102800002F913F914F915F9128CF0E940D14332358
:1028100012F48A1B9B0B0C941E14A29FB001B39F51
:10282000C001A39F700D811D1124911DB29F700DD9
:10283000811D1124911D08950E940D14B7FF089564
:10284000821B930B08950E940D14A59F900DB49FB9
:10285000900DA49F800D911D11240895B7FF0C9435
:1028600023140E942314821B930B089597FB072EB9
:1028700016F4009407D077FD09D00E94C21407FC1B
:1028800005D03EF4909581959F4F08957095619580
:102890007F4F0895A1E21A2EAA1BBB1BFD010DC09C
:1028A000AA1FBB1FEE1FFF1FA217B307E407F50700
:1028B00020F0A21BB30BE40BF50B661F771F881FDC
:1028C000991F1A9469F760957095809590959B0172
:1028D000AC01BD01CF010895052E97FB1EF40094B5
:1028E0000E94831457FD07D00E944A1407FC03D0AE
:1028F0004EF40C94831450954095309521953F4F9C
:102900004F4F5F4F089590958095709561957F4FDB
:102910008F4F9F4F08952F923F924F925F926F92E9
:102920007F928F929F92AF92BF92CF92DF92EF925F
:10293000FF920F931F93CF93DF93CDB7DEB7CA1BE0
:10294000DB0B0FB6F894DEBF0FBECDBF09942A880B
:10295000398848885F846E847D848C849B84AA84B3
:10296000B984C884DF80EE80FD800C811B81AA8140
:10297000B981CE0FD11D0FB6F894DEBF0FBECDBF0B
:10298000ED010895AA1BBB1B51E107C0AA1FBB1F85
:10299000A617B70710F0A61BB70B881F991F5A95EB
:1029A000A9F780959095BC01CD010895283008F0D5
:1029B00027E03327DA01990F311D87FD91600096DA
:1029C0006105710539F432602E5F3D9330E32A953D
:1029D000E1F708959F3F30F080387105610509F0F7
:1029E0003C5F3C5F3D93913008F08068911DDF9320
:1029F000CF931F930F93FF92EF92192F987F969585
:102A0000E92F96959695E90FFF27EF5AFE4F9927E4
:102A10003327EE24FF24A701E701059008940794CB
:102A200028F4360FE71EF81E491F511D660F771F49
:102A3000881F991F0694A1F70590079428F4E70EC4
:102A4000F81E491F561FC11D770F881F991F661F4B
:102A50000694A1F70590079428F4F80E491F561F15
:102A6000C71FD11D880F991F661F771F0694A1F7F6
:102A70000590079420F4490F561FC71FD81F990FC0
:102A8000661F771F881F0694A9F784911095177009
:102A900041F0D695C79557954795F794E7941A95C1
:102AA000C1F7E7EFF0E068941590159135916591C5
:102AB000959105907FE27395E118F10A430B560B4F
:102AC000C90BD009C0F7E10CF11E431F561FC91FE7
:102AD000D01D7EF4703311F48A95E6CFE89401504E
:102AE00030F0080F0AF40027021708F4202F23956E
:102AF000022F7A3328F079E37D932A95E9F710C005
:102B00007D932A9589F6069497956795379517953D
:102B10001794E118F10A430B560BC90BD00998F032
:102B200023957E9173957A3308F070E37C9320139C
:102B3000B8F77E9170617D9330F0839571E37D935A
:102B400070E32A95E1F71124EF90FF900F911F9108
:102B5000CF91DF91992787FD90950895FC0105900D
:102B6000615070400110D8F7809590958E0F9F1F8F
:102B70000895FC016150704001900110D8F78095D4
:102B800090958E0F9F1F08950F931F93CF93DF9300
:102B9000182F092FEB018B8181FD03C08FEF9FEF71
:102BA00020C082FF10C04E815F812C813D81421781
:102BB00053077CF4E881F9819F012F5F3F4F3983F0
:102BC0002883108306C0E885F985812F0995892B14
:102BD00029F72E813F812F5F3F4F3F832E83812F27
:102BE000902FDF91CF911F910F910895A0E0B0E059
:102BF000ECEFF5E10C949B14FE0135966191719117
:102C0000AF018091E5019091E6010E941801E2E098
:102C10000C94B7140F931F93CF93DF93E091E501CA
:102C2000F091E601238121FF1BC0EC0100E010E0E0
:102C300089916091E5017091E601DB011896ED91B3
:102C4000FC911997882331F00995892B89F30FEFAF
:102C50001FEFEECF8AE00995892B11F4C80102C05D
:102C60008FEF9FEFDF91CF911F910F910895AEE00D
:102C7000B0E0EDE3F6E10C9499140D891E8986E02D
:102C80008C831A8309838FEF9FE79E838D83AE0128
:102C9000475E5F4F6F89788DCE0101960E941801C3
:102CA000EF81F885E00FF11F10822E96E4E00C947E
:102CB000B514FA01AA27283051F1203181F1E894A6
:102CC0006F936E7F6E5F7F4F8F4F9F4FAF4FB1E01F
:102CD0003ED0B4E03CD0670F781F891F9A1FA11D1A
:102CE000680F791F8A1F911DA11D6A0F711D811D1B
:102CF000911DA11D20D009F468943F912AE0269FE0
:102D000011243019305D3193DEF6CF010895462F3E
:102D10004770405D4193B3E00FD0C9F7F6CF462F1F
:102D20004F70405D4A3318F0495D31FD4052419388
:102D300002D0A9F7EACFB4E0A69597958795779545
:102D40006795BA95C9F700976105710508959B01CC
:102D5000AC010A2E06945795479537952795BA9555
:102D6000C9F7620F731F841F951FA01D0895F89463
:022D7000FFCF93
:102D72000000000200000000F20500000000010057
:102D8200002C0148454C4C4F2E0025642C20256414
:102D92002C2025642C2025642C2025642C202564DD
:102DA2000A0096FFDB0FC93FAFADFEBFDB0FC93F85
:102DB20068CEECBF5A008EFF5A007DBF0E43666696
:102DC200184364088FC2753D3333A3400000434467
:102DD2008FC2753D3333A340000043440AD7233CDE
:102DE200401F0203A38BAEC0683C1840040076FD6E
:102DF2008AFDE713773EFA806A3E53657473657203
:0E2E0200766F2825642C25303364290A0D00D4
:00000001FF
